{
  "contractName": "Dice",
  "abi": [
    {
      "inputs": [
        {
          "internalType": "address",
          "name": "_tokenAddress",
          "type": "address"
        },
        {
          "internalType": "address",
          "name": "_lcTokenAddress",
          "type": "address"
        },
        {
          "internalType": "address",
          "name": "_diceTokenAddress",
          "type": "address"
        },
        {
          "internalType": "address",
          "name": "_masterChefAddress",
          "type": "address"
        },
        {
          "internalType": "uint256",
          "name": "_masterChefBonusId",
          "type": "uint256"
        },
        {
          "internalType": "uint256",
          "name": "_intervalBlocks",
          "type": "uint256"
        },
        {
          "internalType": "uint256",
          "name": "_playerTimeBlocks",
          "type": "uint256"
        },
        {
          "internalType": "uint256",
          "name": "_bankerTimeBlocks",
          "type": "uint256"
        },
        {
          "internalType": "uint256",
          "name": "_minBetAmount",
          "type": "uint256"
        },
        {
          "internalType": "uint256",
          "name": "_feeAmount",
          "type": "uint256"
        }
      ],
      "stateMutability": "nonpayable",
      "type": "constructor"
    },
    {
      "anonymous": false,
      "inputs": [
        {
          "indexed": true,
          "internalType": "address",
          "name": "sender",
          "type": "address"
        },
        {
          "indexed": true,
          "internalType": "uint256",
          "name": "currentEpoch",
          "type": "uint256"
        },
        {
          "indexed": false,
          "internalType": "bool[6]",
          "name": "numbers",
          "type": "bool[6]"
        },
        {
          "indexed": false,
          "internalType": "uint256",
          "name": "amount",
          "type": "uint256"
        }
      ],
      "name": "BetNumber",
      "type": "event"
    },
    {
      "anonymous": false,
      "inputs": [
        {
          "indexed": true,
          "internalType": "address",
          "name": "sender",
          "type": "address"
        },
        {
          "indexed": true,
          "internalType": "uint256",
          "name": "currentEpoch",
          "type": "uint256"
        },
        {
          "indexed": false,
          "internalType": "uint256",
          "name": "amount",
          "type": "uint256"
        }
      ],
      "name": "Claim",
      "type": "event"
    },
    {
      "anonymous": false,
      "inputs": [
        {
          "indexed": true,
          "internalType": "address",
          "name": "sender",
          "type": "address"
        },
        {
          "indexed": false,
          "internalType": "uint256",
          "name": "amount",
          "type": "uint256"
        }
      ],
      "name": "ClaimBonusLC",
      "type": "event"
    },
    {
      "anonymous": false,
      "inputs": [
        {
          "indexed": false,
          "internalType": "uint256",
          "name": "amount",
          "type": "uint256"
        }
      ],
      "name": "ClaimTreasury",
      "type": "event"
    },
    {
      "anonymous": false,
      "inputs": [
        {
          "indexed": true,
          "internalType": "address",
          "name": "user",
          "type": "address"
        },
        {
          "indexed": false,
          "internalType": "uint256",
          "name": "tokenAmount",
          "type": "uint256"
        }
      ],
      "name": "Deposit",
      "type": "event"
    },
    {
      "anonymous": false,
      "inputs": [
        {
          "indexed": false,
          "internalType": "uint256",
          "name": "epoch",
          "type": "uint256"
        },
        {
          "indexed": false,
          "internalType": "uint256",
          "name": "blockNumber",
          "type": "uint256"
        }
      ],
      "name": "EndBankerTime",
      "type": "event"
    },
    {
      "anonymous": false,
      "inputs": [
        {
          "indexed": false,
          "internalType": "uint256",
          "name": "epoch",
          "type": "uint256"
        },
        {
          "indexed": false,
          "internalType": "uint256",
          "name": "blockNumber",
          "type": "uint256"
        }
      ],
      "name": "EndPlayerTime",
      "type": "event"
    },
    {
      "anonymous": false,
      "inputs": [
        {
          "indexed": true,
          "internalType": "uint256",
          "name": "epoch",
          "type": "uint256"
        },
        {
          "indexed": false,
          "internalType": "uint256",
          "name": "feeAmount",
          "type": "uint256"
        }
      ],
      "name": "FeeAmountUpdated",
      "type": "event"
    },
    {
      "anonymous": false,
      "inputs": [
        {
          "indexed": true,
          "internalType": "uint256",
          "name": "epoch",
          "type": "uint256"
        },
        {
          "indexed": false,
          "internalType": "uint256",
          "name": "blockNumber",
          "type": "uint256"
        }
      ],
      "name": "LockRound",
      "type": "event"
    },
    {
      "anonymous": false,
      "inputs": [
        {
          "indexed": true,
          "internalType": "uint256",
          "name": "epoch",
          "type": "uint256"
        },
        {
          "indexed": false,
          "internalType": "uint256",
          "name": "maxBetRatio",
          "type": "uint256"
        }
      ],
      "name": "MaxBetRatioUpdated",
      "type": "event"
    },
    {
      "anonymous": false,
      "inputs": [
        {
          "indexed": true,
          "internalType": "uint256",
          "name": "epoch",
          "type": "uint256"
        },
        {
          "indexed": false,
          "internalType": "uint256",
          "name": "minBetAmount",
          "type": "uint256"
        }
      ],
      "name": "MinBetAmountUpdated",
      "type": "event"
    },
    {
      "anonymous": false,
      "inputs": [
        {
          "indexed": true,
          "internalType": "address",
          "name": "previousOwner",
          "type": "address"
        },
        {
          "indexed": true,
          "internalType": "address",
          "name": "newOwner",
          "type": "address"
        }
      ],
      "name": "OwnershipTransferred",
      "type": "event"
    },
    {
      "anonymous": false,
      "inputs": [
        {
          "indexed": false,
          "internalType": "address",
          "name": "account",
          "type": "address"
        }
      ],
      "name": "Paused",
      "type": "event"
    },
    {
      "anonymous": false,
      "inputs": [
        {
          "indexed": true,
          "internalType": "uint256",
          "name": "epoch",
          "type": "uint256"
        },
        {
          "indexed": false,
          "internalType": "uint256",
          "name": "gapRate",
          "type": "uint256"
        },
        {
          "indexed": false,
          "internalType": "uint256",
          "name": "treasuryRate",
          "type": "uint256"
        },
        {
          "indexed": false,
          "internalType": "uint256",
          "name": "bonusRate",
          "type": "uint256"
        }
      ],
      "name": "RatesUpdated",
      "type": "event"
    },
    {
      "anonymous": false,
      "inputs": [
        {
          "indexed": true,
          "internalType": "uint256",
          "name": "epoch",
          "type": "uint256"
        },
        {
          "indexed": false,
          "internalType": "uint256",
          "name": "treasuryAmount",
          "type": "uint256"
        },
        {
          "indexed": false,
          "internalType": "uint256",
          "name": "bonusAmount",
          "type": "uint256"
        },
        {
          "indexed": false,
          "internalType": "uint256",
          "name": "bonusLcAmount",
          "type": "uint256"
        }
      ],
      "name": "RewardsCalculated",
      "type": "event"
    },
    {
      "anonymous": false,
      "inputs": [
        {
          "indexed": true,
          "internalType": "uint256",
          "name": "epoch",
          "type": "uint256"
        },
        {
          "indexed": false,
          "internalType": "uint256",
          "name": "blockNumber",
          "type": "uint256"
        },
        {
          "indexed": false,
          "internalType": "uint256",
          "name": "bankSecret",
          "type": "uint256"
        },
        {
          "indexed": false,
          "internalType": "uint32",
          "name": "finalNumber",
          "type": "uint32"
        }
      ],
      "name": "SendSecretRound",
      "type": "event"
    },
    {
      "anonymous": false,
      "inputs": [
        {
          "indexed": true,
          "internalType": "uint256",
          "name": "epoch",
          "type": "uint256"
        },
        {
          "indexed": false,
          "internalType": "uint256",
          "name": "blockNumber",
          "type": "uint256"
        },
        {
          "indexed": false,
          "internalType": "bytes32",
          "name": "bankHash",
          "type": "bytes32"
        }
      ],
      "name": "StartRound",
      "type": "event"
    },
    {
      "anonymous": false,
      "inputs": [
        {
          "indexed": true,
          "internalType": "address",
          "name": "router",
          "type": "address"
        }
      ],
      "name": "SwapRouterUpdated",
      "type": "event"
    },
    {
      "anonymous": false,
      "inputs": [
        {
          "indexed": false,
          "internalType": "address",
          "name": "account",
          "type": "address"
        }
      ],
      "name": "Unpaused",
      "type": "event"
    },
    {
      "anonymous": false,
      "inputs": [
        {
          "indexed": false,
          "internalType": "uint256",
          "name": "epoch",
          "type": "uint256"
        },
        {
          "indexed": false,
          "internalType": "uint256",
          "name": "blockNumber",
          "type": "uint256"
        },
        {
          "indexed": false,
          "internalType": "uint256",
          "name": "netValue",
          "type": "uint256"
        }
      ],
      "name": "UpdateNetValue",
      "type": "event"
    },
    {
      "anonymous": false,
      "inputs": [
        {
          "indexed": true,
          "internalType": "address",
          "name": "user",
          "type": "address"
        },
        {
          "indexed": false,
          "internalType": "uint256",
          "name": "diceTokenAmount",
          "type": "uint256"
        }
      ],
      "name": "Withdraw",
      "type": "event"
    },
    {
      "inputs": [],
      "name": "TOTAL_RATE",
      "outputs": [
        {
          "internalType": "uint256",
          "name": "",
          "type": "uint256"
        }
      ],
      "stateMutability": "view",
      "type": "function"
    },
    {
      "inputs": [],
      "name": "adminAddress",
      "outputs": [
        {
          "internalType": "address",
          "name": "",
          "type": "address"
        }
      ],
      "stateMutability": "view",
      "type": "function"
    },
    {
      "inputs": [],
      "name": "bankerAmount",
      "outputs": [
        {
          "internalType": "uint256",
          "name": "",
          "type": "uint256"
        }
      ],
      "stateMutability": "view",
      "type": "function"
    },
    {
      "inputs": [],
      "name": "bankerEndBlock",
      "outputs": [
        {
          "internalType": "uint256",
          "name": "",
          "type": "uint256"
        }
      ],
      "stateMutability": "view",
      "type": "function"
    },
    {
      "inputs": [
        {
          "internalType": "address",
          "name": "",
          "type": "address"
        }
      ],
      "name": "bankerInfo",
      "outputs": [
        {
          "internalType": "uint256",
          "name": "diceTokenAmount",
          "type": "uint256"
        },
        {
          "internalType": "uint256",
          "name": "avgBuyValue",
          "type": "uint256"
        }
      ],
      "stateMutability": "view",
      "type": "function"
    },
    {
      "inputs": [],
      "name": "bankerTimeBlocks",
      "outputs": [
        {
          "internalType": "uint256",
          "name": "",
          "type": "uint256"
        }
      ],
      "stateMutability": "view",
      "type": "function"
    },
    {
      "inputs": [],
      "name": "bonusRate",
      "outputs": [
        {
          "internalType": "uint256",
          "name": "",
          "type": "uint256"
        }
      ],
      "stateMutability": "view",
      "type": "function"
    },
    {
      "inputs": [],
      "name": "currentEpoch",
      "outputs": [
        {
          "internalType": "uint256",
          "name": "",
          "type": "uint256"
        }
      ],
      "stateMutability": "view",
      "type": "function"
    },
    {
      "inputs": [],
      "name": "diceToken",
      "outputs": [
        {
          "internalType": "contract DiceToken",
          "name": "",
          "type": "address"
        }
      ],
      "stateMutability": "view",
      "type": "function"
    },
    {
      "inputs": [],
      "name": "feeAmount",
      "outputs": [
        {
          "internalType": "uint256",
          "name": "",
          "type": "uint256"
        }
      ],
      "stateMutability": "view",
      "type": "function"
    },
    {
      "inputs": [],
      "name": "gapRate",
      "outputs": [
        {
          "internalType": "uint256",
          "name": "",
          "type": "uint256"
        }
      ],
      "stateMutability": "view",
      "type": "function"
    },
    {
      "inputs": [],
      "name": "intervalBlocks",
      "outputs": [
        {
          "internalType": "uint256",
          "name": "",
          "type": "uint256"
        }
      ],
      "stateMutability": "view",
      "type": "function"
    },
    {
      "inputs": [],
      "name": "lcToken",
      "outputs": [
        {
          "internalType": "contract IBEP20",
          "name": "",
          "type": "address"
        }
      ],
      "stateMutability": "view",
      "type": "function"
    },
    {
      "inputs": [
        {
          "internalType": "uint256",
          "name": "",
          "type": "uint256"
        },
        {
          "internalType": "address",
          "name": "",
          "type": "address"
        }
      ],
      "name": "ledger",
      "outputs": [
        {
          "internalType": "uint256",
          "name": "amount",
          "type": "uint256"
        },
        {
          "internalType": "uint16",
          "name": "numberCount",
          "type": "uint16"
        },
        {
          "internalType": "bool",
          "name": "claimed",
          "type": "bool"
        },
        {
          "internalType": "bool",
          "name": "lcClaimed",
          "type": "bool"
        }
      ],
      "stateMutability": "view",
      "type": "function"
    },
    {
      "inputs": [],
      "name": "masterChefAddress",
      "outputs": [
        {
          "internalType": "address",
          "name": "",
          "type": "address"
        }
      ],
      "stateMutability": "view",
      "type": "function"
    },
    {
      "inputs": [],
      "name": "masterChefBonusId",
      "outputs": [
        {
          "internalType": "uint256",
          "name": "",
          "type": "uint256"
        }
      ],
      "stateMutability": "view",
      "type": "function"
    },
    {
      "inputs": [],
      "name": "maxBetRatio",
      "outputs": [
        {
          "internalType": "uint256",
          "name": "",
          "type": "uint256"
        }
      ],
      "stateMutability": "view",
      "type": "function"
    },
    {
      "inputs": [],
      "name": "minBetAmount",
      "outputs": [
        {
          "internalType": "uint256",
          "name": "",
          "type": "uint256"
        }
      ],
      "stateMutability": "view",
      "type": "function"
    },
    {
      "inputs": [],
      "name": "netValue",
      "outputs": [
        {
          "internalType": "uint256",
          "name": "",
          "type": "uint256"
        }
      ],
      "stateMutability": "view",
      "type": "function"
    },
    {
      "inputs": [],
      "name": "owner",
      "outputs": [
        {
          "internalType": "address",
          "name": "",
          "type": "address"
        }
      ],
      "stateMutability": "view",
      "type": "function"
    },
    {
      "inputs": [],
      "name": "paused",
      "outputs": [
        {
          "internalType": "bool",
          "name": "",
          "type": "bool"
        }
      ],
      "stateMutability": "view",
      "type": "function"
    },
    {
      "inputs": [],
      "name": "playerEndBlock",
      "outputs": [
        {
          "internalType": "uint256",
          "name": "",
          "type": "uint256"
        }
      ],
      "stateMutability": "view",
      "type": "function"
    },
    {
      "inputs": [],
      "name": "playerTimeBlocks",
      "outputs": [
        {
          "internalType": "uint256",
          "name": "",
          "type": "uint256"
        }
      ],
      "stateMutability": "view",
      "type": "function"
    },
    {
      "inputs": [],
      "name": "prevBankerAmount",
      "outputs": [
        {
          "internalType": "uint256",
          "name": "",
          "type": "uint256"
        }
      ],
      "stateMutability": "view",
      "type": "function"
    },
    {
      "inputs": [],
      "name": "renounceOwnership",
      "outputs": [],
      "stateMutability": "nonpayable",
      "type": "function"
    },
    {
      "inputs": [
        {
          "internalType": "uint256",
          "name": "",
          "type": "uint256"
        }
      ],
      "name": "rounds",
      "outputs": [
        {
          "internalType": "uint256",
          "name": "startBlock",
          "type": "uint256"
        },
        {
          "internalType": "uint256",
          "name": "lockBlock",
          "type": "uint256"
        },
        {
          "internalType": "uint256",
          "name": "secretSentBlock",
          "type": "uint256"
        },
        {
          "internalType": "bytes32",
          "name": "bankHash",
          "type": "bytes32"
        },
        {
          "internalType": "uint256",
          "name": "bankSecret",
          "type": "uint256"
        },
        {
          "internalType": "uint256",
          "name": "totalAmount",
          "type": "uint256"
        },
        {
          "internalType": "uint256",
          "name": "maxBetAmount",
          "type": "uint256"
        },
        {
          "internalType": "uint256",
          "name": "treasuryAmount",
          "type": "uint256"
        },
        {
          "internalType": "uint256",
          "name": "bonusAmount",
          "type": "uint256"
        },
        {
          "internalType": "uint256",
          "name": "bonusLcAmount",
          "type": "uint256"
        },
        {
          "internalType": "uint256",
          "name": "betUsers",
          "type": "uint256"
        },
        {
          "internalType": "uint32",
          "name": "finalNumber",
          "type": "uint32"
        },
        {
          "internalType": "enum Dice.Status",
          "name": "status",
          "type": "uint8"
        }
      ],
      "stateMutability": "view",
      "type": "function"
    },
    {
      "inputs": [],
      "name": "swapRouter",
      "outputs": [
        {
          "internalType": "contract ILuckyChipRouter02",
          "name": "",
          "type": "address"
        }
      ],
      "stateMutability": "view",
      "type": "function"
    },
    {
      "inputs": [],
      "name": "token",
      "outputs": [
        {
          "internalType": "contract IBEP20",
          "name": "",
          "type": "address"
        }
      ],
      "stateMutability": "view",
      "type": "function"
    },
    {
      "inputs": [],
      "name": "totalTreasuryAmount",
      "outputs": [
        {
          "internalType": "uint256",
          "name": "",
          "type": "uint256"
        }
      ],
      "stateMutability": "view",
      "type": "function"
    },
    {
      "inputs": [
        {
          "internalType": "address",
          "name": "newOwner",
          "type": "address"
        }
      ],
      "name": "transferOwnership",
      "outputs": [],
      "stateMutability": "nonpayable",
      "type": "function"
    },
    {
      "inputs": [],
      "name": "treasuryRate",
      "outputs": [
        {
          "internalType": "uint256",
          "name": "",
          "type": "uint256"
        }
      ],
      "stateMutability": "view",
      "type": "function"
    },
    {
      "inputs": [
        {
          "internalType": "address",
          "name": "",
          "type": "address"
        },
        {
          "internalType": "uint256",
          "name": "",
          "type": "uint256"
        }
      ],
      "name": "userRounds",
      "outputs": [
        {
          "internalType": "uint256",
          "name": "",
          "type": "uint256"
        }
      ],
      "stateMutability": "view",
      "type": "function"
    },
    {
      "inputs": [
        {
          "internalType": "address",
          "name": "_adminAddress",
          "type": "address"
        }
      ],
      "name": "setAdmin",
      "outputs": [],
      "stateMutability": "nonpayable",
      "type": "function"
    },
    {
      "inputs": [
        {
          "internalType": "uint256",
          "name": "_intervalBlocks",
          "type": "uint256"
        }
      ],
      "name": "setIntervalBlocks",
      "outputs": [],
      "stateMutability": "nonpayable",
      "type": "function"
    },
    {
      "inputs": [
        {
          "internalType": "uint256",
          "name": "_playerTimeBlocks",
          "type": "uint256"
        }
      ],
      "name": "setPlayerTimeBlocks",
      "outputs": [],
      "stateMutability": "nonpayable",
      "type": "function"
    },
    {
      "inputs": [
        {
          "internalType": "uint256",
          "name": "_bankerTimeBlocks",
          "type": "uint256"
        }
      ],
      "name": "setBankerTimeBlocks",
      "outputs": [],
      "stateMutability": "nonpayable",
      "type": "function"
    },
    {
      "inputs": [
        {
          "internalType": "uint256",
          "name": "_gapRate",
          "type": "uint256"
        },
        {
          "internalType": "uint256",
          "name": "_treasuryRate",
          "type": "uint256"
        },
        {
          "internalType": "uint256",
          "name": "_bonusRate",
          "type": "uint256"
        }
      ],
      "name": "setRates",
      "outputs": [],
      "stateMutability": "nonpayable",
      "type": "function"
    },
    {
      "inputs": [
        {
          "internalType": "uint256",
          "name": "_minBetAmount",
          "type": "uint256"
        }
      ],
      "name": "setMinBetAmount",
      "outputs": [],
      "stateMutability": "nonpayable",
      "type": "function"
    },
    {
      "inputs": [
        {
          "internalType": "uint256",
          "name": "_maxBetRatio",
          "type": "uint256"
        }
      ],
      "name": "setMaxBetRatio",
      "outputs": [],
      "stateMutability": "nonpayable",
      "type": "function"
    },
    {
      "inputs": [
        {
          "internalType": "uint256",
          "name": "_feeAmount",
          "type": "uint256"
        }
      ],
      "name": "setFeeAmount",
      "outputs": [],
      "stateMutability": "nonpayable",
      "type": "function"
    },
    {
      "inputs": [
        {
          "internalType": "uint256",
          "name": "epoch",
          "type": "uint256"
        },
        {
          "internalType": "bytes32",
          "name": "bankHash",
          "type": "bytes32"
        }
      ],
      "name": "endBankerTime",
      "outputs": [],
      "stateMutability": "nonpayable",
      "type": "function"
    },
    {
      "inputs": [
        {
          "internalType": "uint256",
          "name": "epoch",
          "type": "uint256"
        },
        {
          "internalType": "bytes32",
          "name": "bankHash",
          "type": "bytes32"
        }
      ],
      "name": "executeRound",
      "outputs": [],
      "stateMutability": "nonpayable",
      "type": "function"
    },
    {
      "inputs": [
        {
          "internalType": "uint256",
          "name": "epoch",
          "type": "uint256"
        },
        {
          "internalType": "uint256",
          "name": "bankSecret",
          "type": "uint256"
        }
      ],
      "name": "endPlayerTime",
      "outputs": [],
      "stateMutability": "nonpayable",
      "type": "function"
    },
    {
      "inputs": [
        {
          "internalType": "uint256",
          "name": "epoch",
          "type": "uint256"
        }
      ],
      "name": "endPlayerTimeImmediately",
      "outputs": [],
      "stateMutability": "nonpayable",
      "type": "function"
    },
    {
      "inputs": [
        {
          "internalType": "uint256",
          "name": "epoch",
          "type": "uint256"
        },
        {
          "internalType": "uint256",
          "name": "bankSecret",
          "type": "uint256"
        }
      ],
      "name": "sendSecret",
      "outputs": [],
      "stateMutability": "nonpayable",
      "type": "function"
    },
    {
      "inputs": [
        {
          "internalType": "bool[6]",
          "name": "numbers",
          "type": "bool[6]"
        },
        {
          "internalType": "uint256",
          "name": "amount",
          "type": "uint256"
        }
      ],
      "name": "betNumber",
      "outputs": [],
      "stateMutability": "payable",
      "type": "function"
    },
    {
      "inputs": [
        {
          "internalType": "uint256",
          "name": "epoch",
          "type": "uint256"
        }
      ],
      "name": "claim",
      "outputs": [],
      "stateMutability": "nonpayable",
      "type": "function"
    },
    {
      "inputs": [
        {
          "internalType": "address",
          "name": "user",
          "type": "address"
        }
      ],
      "name": "claimBonusLC",
      "outputs": [],
      "stateMutability": "nonpayable",
      "type": "function"
    },
    {
      "inputs": [
        {
          "internalType": "address",
          "name": "user",
          "type": "address"
        }
      ],
      "name": "pendingBonusLC",
      "outputs": [
        {
          "internalType": "uint256",
          "name": "",
          "type": "uint256"
        }
      ],
      "stateMutability": "view",
      "type": "function"
    },
    {
      "inputs": [],
      "name": "claimTreasury",
      "outputs": [],
      "stateMutability": "nonpayable",
      "type": "function"
    },
    {
      "inputs": [
        {
          "internalType": "address",
          "name": "user",
          "type": "address"
        },
        {
          "internalType": "uint256",
          "name": "cursor",
          "type": "uint256"
        },
        {
          "internalType": "uint256",
          "name": "size",
          "type": "uint256"
        }
      ],
      "name": "getUserRounds",
      "outputs": [
        {
          "internalType": "uint256[]",
          "name": "",
          "type": "uint256[]"
        },
        {
          "internalType": "uint256",
          "name": "",
          "type": "uint256"
        }
      ],
      "stateMutability": "view",
      "type": "function"
    },
    {
      "inputs": [
        {
          "internalType": "uint256",
          "name": "epoch",
          "type": "uint256"
        },
        {
          "internalType": "address",
          "name": "user",
          "type": "address"
        }
      ],
      "name": "claimable",
      "outputs": [
        {
          "internalType": "bool",
          "name": "",
          "type": "bool"
        }
      ],
      "stateMutability": "view",
      "type": "function"
    },
    {
      "inputs": [
        {
          "internalType": "uint256",
          "name": "epoch",
          "type": "uint256"
        },
        {
          "internalType": "address",
          "name": "user",
          "type": "address"
        }
      ],
      "name": "refundable",
      "outputs": [
        {
          "internalType": "bool",
          "name": "",
          "type": "bool"
        }
      ],
      "stateMutability": "view",
      "type": "function"
    },
    {
      "inputs": [
        {
          "internalType": "uint256",
          "name": "_tokenAmount",
          "type": "uint256"
        }
      ],
      "name": "deposit",
      "outputs": [],
      "stateMutability": "nonpayable",
      "type": "function"
    },
    {
      "inputs": [
        {
          "internalType": "uint256",
          "name": "_diceTokenAmount",
          "type": "uint256"
        }
      ],
      "name": "withdraw",
      "outputs": [],
      "stateMutability": "nonpayable",
      "type": "function"
    },
    {
      "inputs": [
        {
          "internalType": "address",
          "name": "bankerAddress",
          "type": "address"
        }
      ],
      "name": "canWithdrawToken",
      "outputs": [
        {
          "internalType": "uint256",
          "name": "",
          "type": "uint256"
        }
      ],
      "stateMutability": "view",
      "type": "function"
    },
    {
      "inputs": [
        {
          "internalType": "address",
          "name": "bankerAddress",
          "type": "address"
        }
      ],
      "name": "calProfitRate",
      "outputs": [
        {
          "internalType": "uint256",
          "name": "",
          "type": "uint256"
        }
      ],
      "stateMutability": "view",
      "type": "function"
    },
    {
      "inputs": [
        {
          "internalType": "address",
          "name": "_router",
          "type": "address"
        }
      ],
      "name": "updateSwapRouter",
      "outputs": [],
      "stateMutability": "nonpayable",
      "type": "function"
    }
  ],
  "bytecode": "0x60806040526101f4600c556103e8600d556103e8600e5560056010553480156200002857600080fd5b50604051620060493803806200604983398181016040526101408110156200004f57600080fd5b508051602082015160408301516060840151608085015160a086015160c087015160e0880151610100890151610120909901519798969795969495939492939192909160006200009e62000181565b600080546001600160a01b0319166001600160a01b0383169081178255604051929350917f8be0079c531659141344cd1fd0a4f28419497f9722a3daafe3b4186f6b6457e0908290a350600180556002805460ff19169055601680546001600160a01b03808d166001600160a01b031992831617909255601780548c8416908316179055601880548b841690831617905560158054928a1692909116919091179055601386905560078590556008849055600a839055600f829055601181905564e8d4a510006005556200017162000185565b5050505050505050505062000233565b3390565b6200018f6200022a565b15620001d5576040805162461bcd60e51b815260206004820152601060248201526f14185d5cd8589b194e881c185d5cd95960821b604482015290519081900360640190fd5b6002805460ff191660011790557f62e78cea01bee320cd4e420270b5ea74000d11b0c9f74754ebdbfc544b05a2586200020d62000181565b604080516001600160a01b039092168252519081900360200190a1565b60025460ff1690565b615e0680620002436000396000f3fe6080604052600436106103805760003560e01c80638c65c81f116101d1578063d004f38b11610102578063eaeee74d116100a0578063fa968eea1161006f578063fa968eea14610d31578063fc0c546a14610d46578063fc6f946814610d5b578063ff41e8b114610d7057610380565b8063eaeee74d14610c6e578063f1b9e1e714610c83578063f1d9f90c14610c98578063f2fde38b14610cf157610380565b8063dcb4c323116100dc578063dcb4c32314610be9578063dd1f759614610bfe578063e13b787014610c44578063e4b7251614610c5957610380565b8063d004f38b14610b43578063d748a98714610b79578063da7af9d114610ba957610380565b8063abc5ca981161016f578063b6b55f2511610149578063b6b55f2514610aaf578063b98b677f14610ad9578063c17bcdee14610b19578063c31c9c0714610b2e57610380565b8063abc5ca9814610a55578063b29c299b14610a85578063b53a6f7a14610a9a57610380565b8063951fd600116101ab578063951fd60014610914578063a067455b146109bb578063a0c7f71c146109e5578063a661ef3914610a2b57610380565b80638c65c81f1461081a5780638da5cb5b146108bf57806392947400146108d457610380565b806359512af8116102b65780636c18859311610254578063766718081161022357806376671808146107955780637bf41254146107aa5780638764e02c146107f05780638ab9ff711461080557610380565b80636c188593146106a5578063704b6c02146106cf578063715018a61461070f5780637285c58b1461072457610380565b80635d38075e116102905780635d38075e146106155780635eed5a2c1461063657806369e15404146106665780636b3926801461067b57610380565b806359512af8146105a75780635af123f4146105d75780635c975abb146105ec57610380565b8063221e2e60116103235780632e1a7d4d116102fd5780632e1a7d4d14610514578063379607f51461053e5780633fcceacc1461056857806341b6d5541461057d57610380565b8063221e2e6014610481578063263ca64c146104bf578063285d8afd146104ff57610380565b806312dba8c21161035f57806312dba8c2146103d8578063158414571461040257806315e11f3a146104425780631ec9f34b1461046c57610380565b80623bdc741461038557806308d949fa1461039c578063094a0e5f146103c3575b600080fd5b34801561039157600080fd5b5061039a610d85565b005b3480156103a857600080fd5b506103b1610ee1565b60408051918252519081900360200190f35b3480156103cf57600080fd5b506103b1610ee7565b3480156103e457600080fd5b5061039a600480360360208110156103fb57600080fd5b5035610eed565b34801561040e57600080fd5b506103b16004803603602081101561042557600080fd5b503573ffffffffffffffffffffffffffffffffffffffff16610f78565b34801561044e57600080fd5b5061039a6004803603602081101561046557600080fd5b5035610fc4565b34801561047857600080fd5b506103b161104f565b34801561048d57600080fd5b50610496611055565b6040805173ffffffffffffffffffffffffffffffffffffffff9092168252519081900360200190f35b3480156104cb57600080fd5b5061039a600480360360208110156104e257600080fd5b503573ffffffffffffffffffffffffffffffffffffffff16611071565b34801561050b57600080fd5b506103b16114e2565b34801561052057600080fd5b5061039a6004803603602081101561053757600080fd5b50356114e8565b34801561054a57600080fd5b5061039a6004803603602081101561056157600080fd5b503561188f565b34801561057457600080fd5b506103b1611d8f565b34801561058957600080fd5b5061039a600480360360208110156105a057600080fd5b5035611d95565b3480156105b357600080fd5b5061039a600480360360408110156105ca57600080fd5b5080359060200135611e59565b3480156105e357600080fd5b506103b161201e565b3480156105f857600080fd5b50610601612024565b604080519115158252519081900360200190f35b61039a600480360360e081101561062b57600080fd5b5060c081013561202d565b34801561064257600080fd5b5061039a6004803603604081101561065957600080fd5b508035906020013561279c565b34801561067257600080fd5b506103b1612a08565b34801561068757600080fd5b5061039a6004803603602081101561069e57600080fd5b5035612a0e565b3480156106b157600080fd5b5061039a600480360360208110156106c857600080fd5b5035612ad2565b3480156106db57600080fd5b5061039a600480360360208110156106f257600080fd5b503573ffffffffffffffffffffffffffffffffffffffff16612b96565b34801561071b57600080fd5b5061039a612d07565b34801561073057600080fd5b5061076a6004803603604081101561074757600080fd5b508035906020013573ffffffffffffffffffffffffffffffffffffffff16612e1e565b6040805194855261ffff90931660208501529015158383015215156060830152519081900360800190f35b3480156107a157600080fd5b506103b1612e5a565b3480156107b657600080fd5b50610601600480360360408110156107cd57600080fd5b508035906020013573ffffffffffffffffffffffffffffffffffffffff16612e60565b3480156107fc57600080fd5b506103b1612ef7565b34801561081157600080fd5b50610496612efd565b34801561082657600080fd5b506108446004803603602081101561083d57600080fd5b5035612f19565b604051808e81526020018d81526020018c81526020018b81526020018a81526020018981526020018881526020018781526020018681526020018581526020018481526020018363ffffffff1681526020018260048111156108a257fe5b81526020019d505050505050505050505050505060405180910390f35b3480156108cb57600080fd5b50610496612f8b565b3480156108e057600080fd5b506103b1600480360360208110156108f757600080fd5b503573ffffffffffffffffffffffffffffffffffffffff16612fa7565b34801561092057600080fd5b506109606004803603606081101561093757600080fd5b5073ffffffffffffffffffffffffffffffffffffffff8135169060208101359060400135613219565b6040518080602001838152602001828103825284818151815260200191508051906020019060200280838360005b838110156109a657818101518382015260200161098e565b50505050905001935050505060405180910390f35b3480156109c757600080fd5b5061039a600480360360208110156109de57600080fd5b5035613348565b3480156109f157600080fd5b5061060160048036036040811015610a0857600080fd5b508035906020013573ffffffffffffffffffffffffffffffffffffffff166133d3565b348015610a3757600080fd5b5061039a60048036036020811015610a4e57600080fd5b5035613479565b348015610a6157600080fd5b5061039a60048036036040811015610a7857600080fd5b5080359060200135613633565b348015610a9157600080fd5b506103b16138c7565b348015610aa657600080fd5b506103b16138cd565b348015610abb57600080fd5b5061039a60048036036020811015610ad257600080fd5b50356138d3565b348015610ae557600080fd5b5061039a60048036036020811015610afc57600080fd5b503573ffffffffffffffffffffffffffffffffffffffff16613cab565b348015610b2557600080fd5b506103b1613e28565b348015610b3a57600080fd5b50610496613e2e565b348015610b4f57600080fd5b5061039a60048036036060811015610b6657600080fd5b5080359060208101359060400135613e4a565b348015610b8557600080fd5b5061039a60048036036040811015610b9c57600080fd5b5080359060200135613ffc565b348015610bb557600080fd5b506103b160048036036020811015610bcc57600080fd5b503573ffffffffffffffffffffffffffffffffffffffff166143dd565b348015610bf557600080fd5b506103b1614419565b348015610c0a57600080fd5b506103b160048036036040811015610c2157600080fd5b5073ffffffffffffffffffffffffffffffffffffffff813516906020013561441f565b348015610c5057600080fd5b506103b161444d565b348015610c6557600080fd5b506103b1614453565b348015610c7a57600080fd5b506103b1614459565b348015610c8f57600080fd5b506103b161445f565b348015610ca457600080fd5b50610cd860048036036020811015610cbb57600080fd5b503573ffffffffffffffffffffffffffffffffffffffff16614465565b6040805192835260208301919091528051918290030190f35b348015610cfd57600080fd5b5061039a60048036036020811015610d1457600080fd5b503573ffffffffffffffffffffffffffffffffffffffff1661447e565b348015610d3d57600080fd5b506103b161461f565b348015610d5257600080fd5b50610496614625565b348015610d6757600080fd5b50610496614641565b348015610d7c57600080fd5b5061049661465d565b60145473ffffffffffffffffffffffffffffffffffffffff163314610e0b57604080517f08c379a000000000000000000000000000000000000000000000000000000000815260206004820152600b60248201527f61646d696e3a207775743f000000000000000000000000000000000000000000604482015290519081900360640190fd5b601554601354601254604080517f21a8e00b000000000000000000000000000000000000000000000000000000008152600481019390935260248301919091525173ffffffffffffffffffffffffffffffffffffffff909216916321a8e00b9160448082019260009290919082900301818387803b158015610e8c57600080fd5b505af1158015610ea0573d6000803e3d6000fd5b505060125460408051918252517f609175abb7f12481e4f200d1ef4fc834e6caac3d9eadba42d664352f6d0932ca9350908190036020019150a16000601255565b60135481565b600a5481565b60145473ffffffffffffffffffffffffffffffffffffffff163314610f7357604080517f08c379a000000000000000000000000000000000000000000000000000000000815260206004820152600b60248201527f61646d696e3a207775743f000000000000000000000000000000000000000000604482015290519081900360640190fd5b600a55565b60055473ffffffffffffffffffffffffffffffffffffffff82166000908152601d60205260408120549091610fbe9164e8d4a5100091610fb89190614679565b906146ec565b92915050565b60145473ffffffffffffffffffffffffffffffffffffffff16331461104a57604080517f08c379a000000000000000000000000000000000000000000000000000000000815260206004820152600b60248201527f61646d696e3a207775743f000000000000000000000000000000000000000000604482015290519081900360640190fd5b600855565b60075481565b60155473ffffffffffffffffffffffffffffffffffffffff1681565b61107a3361476d565b156110e657604080517f08c379a000000000000000000000000000000000000000000000000000000000815260206004820152601460248201527f636f6e7472616374206e6f7420616c6c6f776564000000000000000000000000604482015290519081900360640190fd5b33321461115457604080517f08c379a000000000000000000000000000000000000000000000000000000000815260206004820152601a60248201527f70726f787920636f6e7472616374206e6f7420616c6c6f776564000000000000604482015290519081900360640190fd5b600260015414156111c657604080517f08c379a000000000000000000000000000000000000000000000000000000000815260206004820152601f60248201527f5265656e7472616e637947756172643a207265656e7472616e742063616c6c00604482015290519081900360640190fd5b600260015573ffffffffffffffffffffffffffffffffffffffff81166000908152601c6020526040812054819081907fffffffffffffffffffffffffffffffffffffffffffffffffffffffffffffffff015b73ffffffffffffffffffffffffffffffffffffffff85166000908152601c6020526040902080548290811061124957fe5b6000918252602080832090910154808352601b82526040808420338552909252912060038101549194509060ff61010090910416156112885750611467565b60036000858152601a6020526040902060110154640100000000900460ff1660048111156112b257fe5b141561143f576000848152601a6020526040902060110154600282019063ffffffff16600681106112df57fe5b602081049091015460ff601f9092166101000a900416156113c95761134a612710610fb8600e54611344612710610fb8600c5461134460056113448b60010160009054906101000a900461ffff1661ffff168c600001546146ec90919063ffffffff16565b90614679565b60018281015491945061ffff90911611156113c457600e54600c54600183015483546113c1936113ba9361271093610fb8936113449286928692859161ffff9081167fffffffffffffffffffffffffffffffffffffffffffffffffffffffffffffffff81019091169183916146ec565b8490614773565b92505b611404565b6000848152601a60205260409020600e80820154600f90920154905483546114019392610fb892909161134491612710918591614679565b92505b61140e8584614773565b6003820180547fffffffffffffffffffffffffffffffffffffffffffffffffffffffffffff00ff1661010017905594505b507fffffffffffffffffffffffffffffffffffffffffffffffffffffffffffffffff01611218565b5060175461148c9073ffffffffffffffffffffffffffffffffffffffff1685856147e7565b60408051848152905173ffffffffffffffffffffffffffffffffffffffff8616917f6fd977b59a22052377ab87ebdf4b780c3439b6eb861aca3cb29218dadf6a05a1919081900360200190a25050600180555050565b60055481565b6114f0612024565b61155b57604080517f08c379a000000000000000000000000000000000000000000000000000000000815260206004820152601460248201527f5061757361626c653a206e6f7420706175736564000000000000000000000000604482015290519081900360640190fd5b600260015414156115cd57604080517f08c379a000000000000000000000000000000000000000000000000000000000815260206004820152601f60248201527f5265656e7472616e637947756172643a207265656e7472616e742063616c6c00604482015290519081900360640190fd5b60026001556115db3361476d565b1561164757604080517f08c379a000000000000000000000000000000000000000000000000000000000815260206004820152601460248201527f636f6e7472616374206e6f7420616c6c6f776564000000000000000000000000604482015290519081900360640190fd5b3332146116b557604080517f08c379a000000000000000000000000000000000000000000000000000000000815260206004820152601a60248201527f70726f787920636f6e7472616374206e6f7420616c6c6f776564000000000000604482015290519081900360640190fd5b6000811161172457604080517f08c379a000000000000000000000000000000000000000000000000000000000815260206004820152601360248201527f64696365546f6b656e416d6f756e74203e203000000000000000000000000000604482015290519081900360640190fd5b336000908152601d60205260409020805461173f9083614874565b81556018546117669073ffffffffffffffffffffffffffffffffffffffff163381856148eb565b601854604080517f9dc29fac00000000000000000000000000000000000000000000000000000000815273ffffffffffffffffffffffffffffffffffffffff909216600483018190526024830185905290519091639dc29fac91604480830192600092919082900301818387803b1580156117e057600080fd5b505af11580156117f4573d6000803e3d6000fd5b50505050600061181864e8d4a51000610fb86005548661467990919063ffffffff16565b6004549091506118289082614874565b6004556016546118509073ffffffffffffffffffffffffffffffffffffffff163033846148eb565b60408051848152905133917f884edad9ce6fa2440d8a54cc123490eb96d2768479d49ff9c7366125a9424364919081900360200190a250506001805550565b6118983361476d565b1561190457604080517f08c379a000000000000000000000000000000000000000000000000000000000815260206004820152601460248201527f636f6e7472616374206e6f7420616c6c6f776564000000000000000000000000604482015290519081900360640190fd5b33321461197257604080517f08c379a000000000000000000000000000000000000000000000000000000000815260206004820152601a60248201527f70726f787920636f6e7472616374206e6f7420616c6c6f776564000000000000604482015290519081900360640190fd5b600260015414156119e457604080517f08c379a000000000000000000000000000000000000000000000000000000000815260206004820152601f60248201527f5265656e7472616e637947756172643a207265656e7472616e742063616c6c00604482015290519081900360640190fd5b60026001556000818152601a6020526040902054611a6357604080517f08c379a000000000000000000000000000000000000000000000000000000000815260206004820152601560248201527f526f756e6420686173206e6f7420737461727465640000000000000000000000604482015290519081900360640190fd5b6000818152601a60205260409020600101544311611ae257604080517f08c379a000000000000000000000000000000000000000000000000000000000815260206004820152601460248201527f526f756e6420686173206e6f74206c6f636b6564000000000000000000000000604482015290519081900360640190fd5b6000818152601b6020908152604080832033845290915290206003015460ff1615611b6e57604080517f08c379a000000000000000000000000000000000000000000000000000000000815260206004820152600f60248201527f5265776172647320636c61696d65640000000000000000000000000000000000604482015290519081900360640190fd5b6000818152601b60209081526040808320338452909152812060036000848152601a6020526040902060110154640100000000900460ff166004811115611bb157fe5b1415611c6c57611bc183336133d3565b611c2c57604080517f08c379a000000000000000000000000000000000000000000000000000000000815260206004820152601660248201527f4e6f7420656c696769626c6520666f7220636c61696d00000000000000000000604482015290519081900360640190fd5b611c65612710610fb8611c4c600c5461271061487490919063ffffffff16565b6001850154855461134491600591839161ffff166146ec565b9150611cfe565b611c768333612e60565b611ce157604080517f08c379a000000000000000000000000000000000000000000000000000000000815260206004820152601760248201527f4e6f7420656c696769626c6520666f7220726566756e64000000000000000000604482015290519081900360640190fd5b6000838152601b6020908152604080832033845290915290205491505b6003810180547fffffffffffffffffffffffffffffffffffffffffffffffffffffffffffffff00166001179055601654611d4f9073ffffffffffffffffffffffffffffffffffffffff1633846147e7565b604080518381529051849133917f34fcbac0073d7c3d388e51312faf357774904998eeb8fca628b9e6f65ee1cbf79181900360200190a350506001805550565b60085481565b60145473ffffffffffffffffffffffffffffffffffffffff163314611e1b57604080517f08c379a000000000000000000000000000000000000000000000000000000000815260206004820152600b60248201527f61646d696e3a207775743f000000000000000000000000000000000000000000604482015290519081900360640190fd5b60108190556006546040805183815290517fe9dbf362c3f800f55b82e4fffe8e3cc02fb845bf408ff033a811b35ff447a5b59181900360200190a250565b60145473ffffffffffffffffffffffffffffffffffffffff163314611edf57604080517f08c379a000000000000000000000000000000000000000000000000000000000815260206004820152600b60248201527f61646d696e3a207775743f000000000000000000000000000000000000000000604482015290519081900360640190fd5b611ee7612024565b15611f5357604080517f08c379a000000000000000000000000000000000000000000000000000000000815260206004820152601060248201527f5061757361626c653a2070617573656400000000000000000000000000000000604482015290519081900360640190fd5b6006548214611fc357604080517f08c379a000000000000000000000000000000000000000000000000000000000815260206004820152601560248201527f65706f6368203d3d2063757272656e7445706f73680000000000000000000000604482015290519081900360640190fd5b611fcd8282613ffc565b611fd5614986565b611fde82614a78565b6006546040805191825242602083015280517f620494b8df07e75c9eb56fea25105fc50d24deb9b63f8f96d7630ac9fe9882589281900390910190a15050565b600e5481565b60025460ff1690565b612035612024565b156120a157604080517f08c379a000000000000000000000000000000000000000000000000000000000815260206004820152601060248201527f5061757361626c653a2070617573656400000000000000000000000000000000604482015290519081900360640190fd5b6120aa3361476d565b1561211657604080517f08c379a000000000000000000000000000000000000000000000000000000000815260206004820152601460248201527f636f6e7472616374206e6f7420616c6c6f776564000000000000000000000000604482015290519081900360640190fd5b33321461218457604080517f08c379a000000000000000000000000000000000000000000000000000000000815260206004820152601a60248201527f70726f787920636f6e7472616374206e6f7420616c6c6f776564000000000000604482015290519081900360640190fd5b600260015414156121f657604080517f08c379a000000000000000000000000000000000000000000000000000000000815260206004820152601f60248201527f5265656e7472616e637947756172643a207265656e7472616e742063616c6c00604482015290519081900360640190fd5b60026001556006546000908152601a6020526040902060115434101561227d57604080517f08c379a000000000000000000000000000000000000000000000000000000000815260206004820152601560248201527f6d73672e76616c7565203e20666565416d6f756e740000000000000000000000604482015290519081900360640190fd5b60016011820154640100000000900460ff16600481111561229a57fe5b1461230657604080517f08c379a000000000000000000000000000000000000000000000000000000000815260206004820152600e60248201527f526f756e64206e6f74204f70656e000000000000000000000000000000000000604482015290519081900360640190fd5b8054431180156123195750806001015443105b61238457604080517f08c379a000000000000000000000000000000000000000000000000000000000815260206004820152601260248201527f526f756e64206e6f74206265747461626c650000000000000000000000000000604482015290519081900360640190fd5b6006546000908152601b602090815260408083203384529091529020541561240d57604080517f08c379a000000000000000000000000000000000000000000000000000000000815260206004820152601260248201527f426574206f6e63652070657220726f756e640000000000000000000000000000604482015290519081900360640190fd5b6000805b60068163ffffffff16101561244b57848163ffffffff166006811061243257fe5b602002013515612443578160010191505b600101612411565b5060008161ffff16116124bf57604080517f08c379a000000000000000000000000000000000000000000000000000000000815260206004820152600f60248201527f6e756d626572436f756e74203e20300000000000000000000000000000000000604482015290519081900360640190fd5b600f546124d09061ffff8316614679565b831015612528576040517f08c379a0000000000000000000000000000000000000000000000000000000008152600401808060200182810382526027815260200180615d826027913960400191505060405180910390fd5b600682015461253b9061ffff8316614679565b831115612593576040517f08c379a000000000000000000000000000000000000000000000000000000000815260040180806020018281038252602d815260200180615d55602d913960400191505060405180910390fd5b601154156125c1576014546011546125c19173ffffffffffffffffffffffffffffffffffffffff1690614b4f565b6016546125e69073ffffffffffffffffffffffffffffffffffffffff163330866148eb565b60058201546125f59084614773565b6005830155601082015461260a906001614773565b6010830155600061261f8461ffff84166146ec565b905060005b60068163ffffffff16101561269057858163ffffffff166006811061264557fe5b6020020135156126885761267082856007018363ffffffff166006811061266857fe5b015490614773565b846007018263ffffffff166006811061268557fe5b01555b600101612624565b50600680546000908152601b602090815260408083203384529091529020906126bf9060028301908890615af5565b50848155600180820180547fffffffffffffffffffffffffffffffffffffffffffffffffffffffffffff00001661ffff8616179055336000818152601c60209081526040808320600680548254978801835591855292909320909401919091555491517f8fff2ebc45155e71fa11f99b8a19002efe7096d6c87352d1fd0bcffbbddc86809089908990808360c080828437600083820152601f017fffffffffffffffffffffffffffffffffffffffffffffffffffffffffffffffe0169091019283525050604051908190036020019150a350506001805550505050565b60145473ffffffffffffffffffffffffffffffffffffffff16331461282257604080517f08c379a000000000000000000000000000000000000000000000000000000000815260206004820152600b60248201527f61646d696e3a207775743f000000000000000000000000000000000000000000604482015290519081900360640190fd5b61282a612024565b61289557604080517f08c379a000000000000000000000000000000000000000000000000000000000815260206004820152601460248201527f5061757361626c653a206e6f7420706175736564000000000000000000000000604482015290519081900360640190fd5b600654600101821461290857604080517f08c379a000000000000000000000000000000000000000000000000000000000815260206004820152601960248201527f65706f6368203d3d2063757272656e7445706f7368202b203100000000000000604482015290519081900360640190fd5b600060045411612963576040517f08c379a000000000000000000000000000000000000000000000000000000000815260040180806020018281038252602a815260200180615c7a602a913960400191505060405180910390fd5b600454600355612971614c0b565b6006546040805191825242602083015280517fb97a357ed0379a8e44a2d9ccd587ce70b0ac625a5e678303ad10c8c84ca7f7609281900390910190a160068054600101908190556129c29082614ccf565b6008546006546000908152601a60205260409020546129e091614773565b600955600a546006546000908152601a6020526040902054612a0191614773565b600b555050565b60115481565b60145473ffffffffffffffffffffffffffffffffffffffff163314612a9457604080517f08c379a000000000000000000000000000000000000000000000000000000000815260206004820152600b60248201527f61646d696e3a207775743f000000000000000000000000000000000000000000604482015290519081900360640190fd5b60118190556006546040805183815290517fb6600428041f36ab218d984115a85adc1ffb17cb85a81801032cb590a8a8bc999181900360200190a250565b60145473ffffffffffffffffffffffffffffffffffffffff163314612b5857604080517f08c379a000000000000000000000000000000000000000000000000000000000815260206004820152600b60248201527f61646d696e3a207775743f000000000000000000000000000000000000000000604482015290519081900360640190fd5b600f8190556006546040805183815290517f82480e97991520549ac4b5d0e1d97edb3bfac2666202923b6903d2a953dc76089181900360200190a250565b612b9e614d8d565b73ffffffffffffffffffffffffffffffffffffffff16612bbc612f8b565b73ffffffffffffffffffffffffffffffffffffffff1614612c3e57604080517f08c379a000000000000000000000000000000000000000000000000000000000815260206004820181905260248201527f4f776e61626c653a2063616c6c6572206973206e6f7420746865206f776e6572604482015290519081900360640190fd5b73ffffffffffffffffffffffffffffffffffffffff8116612cc057604080517f08c379a000000000000000000000000000000000000000000000000000000000815260206004820152601660248201527f43616e6e6f74206265207a65726f206164647265737300000000000000000000604482015290519081900360640190fd5b601480547fffffffffffffffffffffffff00000000000000000000000000000000000000001673ffffffffffffffffffffffffffffffffffffffff92909216919091179055565b612d0f614d8d565b73ffffffffffffffffffffffffffffffffffffffff16612d2d612f8b565b73ffffffffffffffffffffffffffffffffffffffff1614612daf57604080517f08c379a000000000000000000000000000000000000000000000000000000000815260206004820181905260248201527f4f776e61626c653a2063616c6c6572206973206e6f7420746865206f776e6572604482015290519081900360640190fd5b6000805460405173ffffffffffffffffffffffffffffffffffffffff909116907f8be0079c531659141344cd1fd0a4f28419497f9722a3daafe3b4186f6b6457e0908390a3600080547fffffffffffffffffffffffff0000000000000000000000000000000000000000169055565b601b602090815260009283526040808420909152908252902080546001820154600390920154909161ffff169060ff8082169161010090041684565b60065481565b600060036000848152601a6020526040902060110154640100000000900460ff166004811115612e8c57fe5b14158015612eb657506007546000848152601a6020526040902060010154612eb391614773565b43115b8015612ef057506000838152601b6020908152604080832073ffffffffffffffffffffffffffffffffffffffff8616845290915290205415155b9392505050565b60035481565b60185473ffffffffffffffffffffffffffffffffffffffff1681565b601a6020526000908152604090208054600182015460028301546003840154600485015460058601546006870154600d880154600e890154600f8a015460108b01546011909b0154999a98999798969795969495939492939192909163ffffffff811690640100000000900460ff168d565b60005473ffffffffffffffffffffffffffffffffffffffff1690565b73ffffffffffffffffffffffffffffffffffffffff81166000908152601c6020526040812054819081907fffffffffffffffffffffffffffffffffffffffffffffffffffffffffffffffff015b73ffffffffffffffffffffffffffffffffffffffff85166000908152601c6020526040902080548290811061302557fe5b6000918252602080832090910154808352601b82526040808420338552909252912060038101549193509060ff61010090910416156130645750613210565b60036000848152601a6020526040902060110154640100000000900460ff16600481111561308e57fe5b14156131e8576000838152601a6020526040812060110154600283019063ffffffff16600681106130bb57fe5b602081049091015460ff601f9092166101000a9004161561319f57613120612710610fb8600e54611344612710610fb8600c5461134460056113448c60010160009054906101000a900461ffff1661ffff168d600001546146ec90919063ffffffff16565b60018381015491925061ffff909116111561319a57600e54600c5460018401548454613197936131909361271093610fb8936113449286928692859161ffff9081167fffffffffffffffffffffffffffffffffffffffffffffffffffffffffffffffff81019091169183916146ec565b8290614773565b90505b6131da565b6000848152601a60205260409020600e80820154600f90920154905484546131d79392610fb892909161134491612710918591614679565b90505b6131e48582614773565b9450505b507fffffffffffffffffffffffffffffffffffffffffffffffffffffffffffffffff01612ff4565b50909392505050565b73ffffffffffffffffffffffffffffffffffffffff83166000908152601c602052604081205460609190839085900381111561327a575073ffffffffffffffffffffffffffffffffffffffff85166000908152601c60205260409020548490035b60608167ffffffffffffffff8111801561329357600080fd5b506040519080825280602002602001820160405280156132bd578160200160208202803683370190505b50905060005b8281101561332e5773ffffffffffffffffffffffffffffffffffffffff88166000908152601c602052604090206132fa8883614773565b8154811061330457fe5b906000526020600020015482828151811061331b57fe5b60209081029190910101526001016132c3565b508061333a8784614773565b935093505050935093915050565b60145473ffffffffffffffffffffffffffffffffffffffff1633146133ce57604080517f08c379a000000000000000000000000000000000000000000000000000000000815260206004820152600b60248201527f61646d696e3a207775743f000000000000000000000000000000000000000000604482015290519081900360640190fd5b600755565b600060036000848152601a6020526040902060110154640100000000900460ff1660048111156133ff57fe5b148015612ef057506000838152601b6020908152604080832073ffffffffffffffffffffffffffffffffffffffff861684528252808320868452601a9092529091206011015460029091019063ffffffff166006811061345b57fe5b602081049091015460ff601f9092166101000a900416905092915050565b60145473ffffffffffffffffffffffffffffffffffffffff1633146134ff57604080517f08c379a000000000000000000000000000000000000000000000000000000000815260206004820152600b60248201527f61646d696e3a207775743f000000000000000000000000000000000000000000604482015290519081900360640190fd5b613507612024565b1561357357604080517f08c379a000000000000000000000000000000000000000000000000000000000815260206004820152601060248201527f5061757361626c653a2070617573656400000000000000000000000000000000604482015290519081900360640190fd5b60065481146135e357604080517f08c379a000000000000000000000000000000000000000000000000000000000815260206004820152601560248201527f65706f6368203d3d2063757272656e7445706f73680000000000000000000000604482015290519081900360640190fd5b6135eb614986565b6135f481614a78565b6006546040805191825242602083015280517f620494b8df07e75c9eb56fea25105fc50d24deb9b63f8f96d7630ac9fe9882589281900390910190a150565b60145473ffffffffffffffffffffffffffffffffffffffff1633146136b957604080517f08c379a000000000000000000000000000000000000000000000000000000000815260206004820152600b60248201527f61646d696e3a207775743f000000000000000000000000000000000000000000604482015290519081900360640190fd5b6136c1612024565b1561372d57604080517f08c379a000000000000000000000000000000000000000000000000000000000815260206004820152601060248201527f5061757361626c653a2070617573656400000000000000000000000000000000604482015290519081900360640190fd5b600654821461379d57604080517f08c379a000000000000000000000000000000000000000000000000000000000815260206004820152601560248201527f65706f6368203d3d2063757272656e7445706f73680000000000000000000000604482015290519081900360640190fd5b6137a8600654614d91565b60068054600101908190556137bd9082614f78565b6009546006546000908152601a60205260409020541061383e57604080517f08c379a000000000000000000000000000000000000000000000000000000000815260206004820152601b60248201527f7374617274426c6f636b203c20706c61796572456e64426c6f636b0000000000604482015290519081900360640190fd5b6009546006546000908152601a602052604090206001015411156138c357604080517f08c379a000000000000000000000000000000000000000000000000000000000815260206004820152601a60248201527f6c6f636b426c6f636b203c20706c61796572456e64426c6f636b000000000000604482015290519081900360640190fd5b5050565b61271081565b60045481565b6138db612024565b61394657604080517f08c379a000000000000000000000000000000000000000000000000000000000815260206004820152601460248201527f5061757361626c653a206e6f7420706175736564000000000000000000000000604482015290519081900360640190fd5b600260015414156139b857604080517f08c379a000000000000000000000000000000000000000000000000000000000815260206004820152601f60248201527f5265656e7472616e637947756172643a207265656e7472616e742063616c6c00604482015290519081900360640190fd5b60026001556139c63361476d565b15613a3257604080517f08c379a000000000000000000000000000000000000000000000000000000000815260206004820152601460248201527f636f6e7472616374206e6f7420616c6c6f776564000000000000000000000000604482015290519081900360640190fd5b333214613aa057604080517f08c379a000000000000000000000000000000000000000000000000000000000815260206004820152601a60248201527f70726f787920636f6e7472616374206e6f7420616c6c6f776564000000000000604482015290519081900360640190fd5b60008111613b0f57604080517f08c379a000000000000000000000000000000000000000000000000000000000815260206004820152601260248201527f4465706f73697420616d6f756e74203e20300000000000000000000000000000604482015290519081900360640190fd5b336000818152601d602052604090206016549091613b459173ffffffffffffffffffffffffffffffffffffffff169030856148eb565b600554600090613b5e90610fb88564e8d4a51000614679565b601854604080517f40c10f1900000000000000000000000000000000000000000000000000000000815233600482015260248101849052905192935073ffffffffffffffffffffffffffffffffffffffff909116916340c10f19916044808201926020929091908290030181600087803b158015613bdb57600080fd5b505af1158015613bef573d6000803e3d6000fd5b505050506040513d6020811015613c0557600080fd5b50508154600090613c169083614773565b9050613c5381610fb864e8d4a5100061134488613c4d64e8d4a51000610fb88b600001548c6001015461467990919063ffffffff16565b90614773565b6001840155808355600454613c689085614773565b60045560408051858152905133917fe1fffcc4923d04b559f4d29a8bfc6cda04eb5b0d3c460751c2402c5c5cc9109c919081900360200190a25050600180555050565b60145473ffffffffffffffffffffffffffffffffffffffff163314613d3157604080517f08c379a000000000000000000000000000000000000000000000000000000000815260206004820152600b60248201527f61646d696e3a207775743f000000000000000000000000000000000000000000604482015290519081900360640190fd5b73ffffffffffffffffffffffffffffffffffffffff8116613db357604080517f08c379a000000000000000000000000000000000000000000000000000000000815260206004820152601d60248201527f444943453a20496e76616c696420726f7574657220616464726573732e000000604482015290519081900360640190fd5b601980547fffffffffffffffffffffffff00000000000000000000000000000000000000001673ffffffffffffffffffffffffffffffffffffffff83811691909117918290556040519116907f36db479a3b4d3672bd6f5fca4484283f60b5ac70647b1ceec13ecbb1d030a2df90600090a250565b60105481565b60195473ffffffffffffffffffffffffffffffffffffffff1681565b60145473ffffffffffffffffffffffffffffffffffffffff163314613ed057604080517f08c379a000000000000000000000000000000000000000000000000000000000815260206004820152600b60248201527f61646d696e3a207775743f000000000000000000000000000000000000000000604482015290519081900360640190fd5b6103e8831115613f4157604080517f08c379a000000000000000000000000000000000000000000000000000000000815260206004820152600e60248201527f67617052617465203c3d20313025000000000000000000000000000000000000604482015290519081900360640190fd5b612710613f4e8383614773565b1115613fa5576040517f08c379a0000000000000000000000000000000000000000000000000000000008152600401808060200182810382526028815260200180615da96028913960400191505060405180910390fd5b600c839055600d829055600e819055600654604080518581526020810185905280820184905290517f83ee137d4eea1eef0029a0cb811df31b555f216d3a45c791729e226eb145a7d59181900360600190a2505050565b60145473ffffffffffffffffffffffffffffffffffffffff16331461408257604080517f08c379a000000000000000000000000000000000000000000000000000000000815260206004820152600b60248201527f61646d696e3a207775743f000000000000000000000000000000000000000000604482015290519081900360640190fd5b61408a612024565b156140f657604080517f08c379a000000000000000000000000000000000000000000000000000000000815260206004820152601060248201527f5061757361626c653a2070617573656400000000000000000000000000000000604482015290519081900360640190fd5b6000828152601a60205260409020600181015461417457604080517f08c379a000000000000000000000000000000000000000000000000000000000815260206004820181905260248201527f456e6420726f756e6420616674657220726f756e6420686173206c6f636b6564604482015290519081900360640190fd5b60026011820154640100000000900460ff16600481111561419157fe5b146141fd57604080517f08c379a000000000000000000000000000000000000000000000000000000000815260206004820181905260248201527f456e6420726f756e6420616674657220726f756e6420686173206c6f636b6564604482015290519081900360640190fd5b806001015443101561427057604080517f08c379a000000000000000000000000000000000000000000000000000000000815260206004820152601b60248201527f53656e6420736563726574206166746572206c6f636b426c6f636b0000000000604482015290519081900360640190fd5b600754600182015461428191614773565b4311156142d9576040517f08c379a0000000000000000000000000000000000000000000000000000000008152600401808060200182810382526021815260200180615c596021913960400191505060405180910390fd5b60048101541561434a57604080517f08c379a000000000000000000000000000000000000000000000000000000000815260206004820152601060248201527f416c72656164792072657665616c656400000000000000000000000000000000604482015290519081900360640190fd5b60038101546040805160208082018690528251808303820181529183019092528051910120146143c5576040517f08c379a0000000000000000000000000000000000000000000000000000000008152600401808060200182810382526023815260200180615ca46023913960400191505060405180910390fd5b6143cf838361500f565b6143d883615168565b505050565b73ffffffffffffffffffffffffffffffffffffffff81166000908152601d6020526040812060010154600554610fbe9190610fb8906064614679565b600b5481565b601c602052816000526040600020818154811061443857fe5b90600052602060002001600091509150505481565b600c5481565b600d5481565b60125481565b60095481565b601d602052600090815260409020805460019091015482565b614486614d8d565b73ffffffffffffffffffffffffffffffffffffffff166144a4612f8b565b73ffffffffffffffffffffffffffffffffffffffff161461452657604080517f08c379a000000000000000000000000000000000000000000000000000000000815260206004820181905260248201527f4f776e61626c653a2063616c6c6572206973206e6f7420746865206f776e6572604482015290519081900360640190fd5b73ffffffffffffffffffffffffffffffffffffffff8116614592576040517f08c379a0000000000000000000000000000000000000000000000000000000008152600401808060200182810382526026815260200180615beb6026913960400191505060405180910390fd5b6000805460405173ffffffffffffffffffffffffffffffffffffffff808516939216917f8be0079c531659141344cd1fd0a4f28419497f9722a3daafe3b4186f6b6457e091a3600080547fffffffffffffffffffffffff00000000000000000000000000000000000000001673ffffffffffffffffffffffffffffffffffffffff92909216919091179055565b600f5481565b60165473ffffffffffffffffffffffffffffffffffffffff1681565b60145473ffffffffffffffffffffffffffffffffffffffff1681565b60175473ffffffffffffffffffffffffffffffffffffffff1681565b60008261468857506000610fbe565b8282028284828161469557fe5b0414612ef0576040517f08c379a0000000000000000000000000000000000000000000000000000000008152600401808060200182810382526021815260200180615cc76021913960400191505060405180910390fd5b600080821161475c57604080517f08c379a000000000000000000000000000000000000000000000000000000000815260206004820152601a60248201527f536166654d6174683a206469766973696f6e206279207a65726f000000000000604482015290519081900360640190fd5b81838161476557fe5b049392505050565b3b151590565b600082820183811015612ef057604080517f08c379a000000000000000000000000000000000000000000000000000000000815260206004820152601b60248201527f536166654d6174683a206164646974696f6e206f766572666c6f770000000000604482015290519081900360640190fd5b6040805173ffffffffffffffffffffffffffffffffffffffff8416602482015260448082018490528251808303909101815260649091019091526020810180517bffffffffffffffffffffffffffffffffffffffffffffffffffffffff167fa9059cbb000000000000000000000000000000000000000000000000000000001790526143d890849061578d565b6000828211156148e557604080517f08c379a000000000000000000000000000000000000000000000000000000000815260206004820152601e60248201527f536166654d6174683a207375627472616374696f6e206f766572666c6f770000604482015290519081900360640190fd5b50900390565b6040805173ffffffffffffffffffffffffffffffffffffffff80861660248301528416604482015260648082018490528251808303909101815260849091019091526020810180517bffffffffffffffffffffffffffffffffffffffffffffffffffffffff167f23b872dd0000000000000000000000000000000000000000000000000000000017905261498090859061578d565b50505050565b61498e612024565b156149fa57604080517f08c379a000000000000000000000000000000000000000000000000000000000815260206004820152601060248201527f5061757361626c653a2070617573656400000000000000000000000000000000604482015290519081900360640190fd5b600280547fffffffffffffffffffffffffffffffffffffffffffffffffffffffffffffff001660011790557f62e78cea01bee320cd4e420270b5ea74000d11b0c9f74754ebdbfc544b05a258614a4e614d8d565b6040805173ffffffffffffffffffffffffffffffffffffffff9092168252519081900360200190a1565b614a80612024565b614aeb57604080517f08c379a000000000000000000000000000000000000000000000000000000000815260206004820152601460248201527f5061757361626c653a206e6f7420706175736564000000000000000000000000604482015290519081900360640190fd5b614b08600354610fb860045460055461467990919063ffffffff16565b60058190556040805183815242602082015280820192909252517f95469f147cc262e5fccd74055a3cb233412f6bcf9a302bbc231d02b6b71a488b9181900360600190a150565b60405160009073ffffffffffffffffffffffffffffffffffffffff8416906159d890849084818181858888f193505050503d8060008114614bac576040519150601f19603f3d011682016040523d82523d6000602084013e614bb1565b606091505b50509050806143d8576040517f08c379a0000000000000000000000000000000000000000000000000000000008152600401808060200182810382526023815260200180615d326023913960400191505060405180910390fd5b614c13612024565b614c7e57604080517f08c379a000000000000000000000000000000000000000000000000000000000815260206004820152601460248201527f5061757361626c653a206e6f7420706175736564000000000000000000000000604482015290519081900360640190fd5b600280547fffffffffffffffffffffffffffffffffffffffffffffffffffffffffffffff001690557f5db9ee0a495bf2e6ff9c91a7834c1ba4fdd244a5e8aa4e537bd38aeae4b073aa614a4e614d8d565b6000828152601a6020526040902043808255600754614cee9190614773565b60018201556003810182905560006005820155601054600454614d189161271091610fb891614679565b60068201556011810180547fffffffffffffffffffffffffffffffffffffffffffffffffffffff00ffffffff166401000000001790556040805143815260208101849052815185927fb9413afe4aa8b9bd9b95231fb3ce86db2070c997ffaaf2359570376259653cc6928290030190a2505050565b3390565b6000818152601a6020526040902054614df5576040517f08c379a0000000000000000000000000000000000000000000000000000000008152600401808060200182810382526022815260200180615c116022913960400191505060405180910390fd5b6000818152601a6020526040902060010154431015614e7557604080517f08c379a000000000000000000000000000000000000000000000000000000000815260206004820152601a60248201527f4c6f636b20726f756e64206166746572206c6f636b426c6f636b000000000000604482015290519081900360640190fd5b6007546000828152601a6020526040902060010154614e9391614773565b431115614f0157604080517f08c379a000000000000000000000000000000000000000000000000000000000815260206004820181905260248201527f4c6f636b20726f756e642077697468696e20696e74657276616c426c6f636b73604482015290519081900360640190fd5b6000818152601a602090815260409182902060110180547fffffffffffffffffffffffffffffffffffffffffffffffffffffff00ffffffff166402000000001790558151438152915183927f2a10a104c1d678d140bb24df324113b019210a9ef40e150f0acf0dedde4bc68e92908290030190a250565b7fffffffffffffffffffffffffffffffffffffffffffffffffffffffffffffffff82016000908152601a6020526040902060010154431015615005576040517f08c379a0000000000000000000000000000000000000000000000000000000008152600401808060200182810382526024815260200180615ce86024913960400191505060405180910390fd5b6138c38282614ccf565b615017612024565b1561508357604080517f08c379a000000000000000000000000000000000000000000000000000000000815260206004820152601060248201527f5061757361626c653a2070617573656400000000000000000000000000000000604482015290519081900360640190fd5b6000828152601a60205260409020436002820155600481018290556010810154821844186006816011840180547fffffffffffffffffffffffffffffffffffffffffffffffffffffffff00000000169290910663ffffffff1691909117808255600391907fffffffffffffffffffffffffffffffffffffffffffffffffffffff00ffffffff166401000000008302179055506011820154604080514381526020810186905263ffffffff909216828201525185917ff12b3b25d193d87bfaff62f011c9f2b3b0631ec2ed1f63fabd3a3066391dbf50919081900360600190a250505050565b612710615182600e54600d5461477390919063ffffffff16565b11156151d9576040517f08c379a0000000000000000000000000000000000000000000000000000000008152600401808060200182810382526026815260200180615d0c6026913960400191505060405180910390fd5b6000818152601a60205260409020600d01541561525757604080517f08c379a000000000000000000000000000000000000000000000000000000000815260206004820152601260248201527f526577617264732063616c63756c617465640000000000000000000000000000604482015290519081900360640190fd5b6000818152601a602052604081209080805b60068163ffffffff16101561544757601184015463ffffffff828116911614156153865760006152c9612710610fb8600d54611344612710610fb8600c5461134460058e6007018c63ffffffff16600681106152c157fe5b015490614679565b90506152d58482614773565b9350600061530b612710610fb8600e54611344612710610fb8600c5461134460058f6007018d63ffffffff16600681106152c157fe5b90506153178482614773565b93506000615355612710610fb861533b600c5461271061487490919063ffffffff16565b61134460058c6007018a63ffffffff16600681106152c157fe5b905061537a82615374856153748560045461487490919063ffffffff16565b90614874565b6004555061543f915050565b60006153b5612710610fb8600d54611344612710610fb8600c548c6007018a63ffffffff16600681106152c157fe5b90506153c18482614773565b935060006153f2612710610fb8600e54611344612710610fb8600c548d6007018b63ffffffff16600681106152c157fe5b90506153fe8482614773565b93506000866007018463ffffffff166006811061541757fe5b0154905061543882615374856153748560045461477390919063ffffffff16565b6004555050505b600101615269565b50600d8301829055600e830181905560195473ffffffffffffffffffffffffffffffffffffffff16156157275760408051600280825260608083018452926020830190803683375050601654825192935073ffffffffffffffffffffffffffffffffffffffff16918391506000906154bb57fe5b73ffffffffffffffffffffffffffffffffffffffff92831660209182029290920101526017548251911690829060019081106154f357fe5b602002602001019073ffffffffffffffffffffffffffffffffffffffff16908173ffffffffffffffffffffffffffffffffffffffff16815250506000601960009054906101000a900473ffffffffffffffffffffffffffffffffffffffff1673ffffffffffffffffffffffffffffffffffffffff166338ed173986600e0154600085304261012c016040518663ffffffff1660e01b815260040180868152602001858152602001806020018473ffffffffffffffffffffffffffffffffffffffff168152602001838152602001828103825285818151815260200191508051906020019060200280838360005b838110156155f85781810151838201526020016155e0565b505050509050019650505050505050600060405180830381600087803b15801561562157600080fd5b505af1158015615635573d6000803e3d6000fd5b505050506040513d6000823e601f3d9081017fffffffffffffffffffffffffffffffffffffffffffffffffffffffffffffffe0168201604052602081101561567c57600080fd5b810190808051604051939291908464010000000082111561569c57600080fd5b9083019060208201858111156156b157600080fd5b82518660208202830111640100000000821117156156ce57600080fd5b82525081516020918201928201910280838360005b838110156156fb5781810151838201526020016156e3565b5050505090500160405250505060018151811061571457fe5b6020908102919091010151600f86015550505b6012546157349083614773565b601255600d830154600e840154600f850154604080519384526020840192909252828201525185917f6dfdfcb09c8804d0058826cd2539f1acfbe3cb887c9be03d928035bce0f1a58d919081900360600190a250505050565b60606157ef826040518060400160405280602081526020017f5361666542455032303a206c6f772d6c6576656c2063616c6c206661696c65648152508573ffffffffffffffffffffffffffffffffffffffff166158659092919063ffffffff16565b8051909150156143d85780806020019051602081101561580e57600080fd5b50516143d8576040517f08c379a000000000000000000000000000000000000000000000000000000000815260040180806020018281038252602a815260200180615bc1602a913960400191505060405180910390fd5b6060615874848460008561587c565b949350505050565b6060824710156158d7576040517f08c379a0000000000000000000000000000000000000000000000000000000008152600401808060200182810382526026815260200180615c336026913960400191505060405180910390fd5b6158e08561476d565b61594b57604080517f08c379a000000000000000000000000000000000000000000000000000000000815260206004820152601d60248201527f416464726573733a2063616c6c20746f206e6f6e2d636f6e7472616374000000604482015290519081900360640190fd5b600060608673ffffffffffffffffffffffffffffffffffffffff1685876040518082805190602001908083835b602083106159b557805182527fffffffffffffffffffffffffffffffffffffffffffffffffffffffffffffffe09092019160209182019101615978565b6001836020036101000a03801982511681845116808217855250505050505090500191505060006040518083038185875af1925050503d8060008114615a17576040519150601f19603f3d011682016040523d82523d6000602084013e615a1c565b606091505b5091509150615a2c828286615a37565b979650505050505050565b60608315615a46575081612ef0565b825115615a565782518084602001fd5b816040517f08c379a00000000000000000000000000000000000000000000000000000000081526004018080602001828103825283818151815260200191508051906020019080838360005b83811015615aba578181015183820152602001615aa2565b50505050905090810190601f168015615ae75780820380516001836020036101000a031916815260200191505b509250505060405180910390fd5b600183019183908215615b795791602002820160005b83821115615b4a578335151583826101000a81548160ff0219169083151502179055509260200192600101602081600001049283019260010302615b0b565b8015615b775782816101000a81549060ff0219169055600101602081600001049283019260010302615b4a565b505b50615b85929150615b89565b5090565b5b80821115615b855780547fffffffffffffffffffffffffffffffffffffffffffffffffffffffffffffff00168155600101615b8a56fe5361666542455032303a204245503230206f7065726174696f6e20646964206e6f7420737563636565644f776e61626c653a206e6577206f776e657220697320746865207a65726f20616464726573734c6f636b20726f756e6420616674657220726f756e64206861732073746172746564416464726573733a20696e73756666696369656e742062616c616e636520666f722063616c6c53656e64207365637265742077697468696e20696e74657276616c426c6f636b73526f756e642063616e207374617274206f6e6c79207768656e2062616e6b6572416d6f756e74203e203042616e6b2072657665616c206e6f74206d61746368696e6720636f6d6d69746d656e74536166654d6174683a206d756c7469706c69636174696f6e206f766572666c6f775374617274206e657720726f756e6420616674657220726f756e64206e2d31206c6f636b547265617375727952617465202b20626f6e757352617465203c3d20544f54414c5f524154455472616e7366657248656c7065723a20424e425f5452414e534645525f4641494c4544426574416d6f756e74203c3d20726f756e642e6d6178426574416d6f756e74202a206e756d626572436f756e74426574416d6f756e74203e3d206d696e426574416d6f756e74202a206e756d626572436f756e745f747265617375727952617465202b205f626f6e757352617465203c3d20544f54414c5f52415445a2646970667358221220135c45668b963e549579755c69dc0b961e520ee724871513f0d211cb7f35ec7064736f6c634300060c0033",
  "immutableReferences": {},
  "source": "// SPDX-License-Identifier: MIT\r\n\r\npragma solidity 0.6.12;\r\n\r\nimport \"@openzeppelin/contracts/math/SafeMath.sol\";\r\nimport \"@openzeppelin/contracts/access/Ownable.sol\";\r\nimport \"@openzeppelin/contracts/utils/Pausable.sol\";\r\nimport \"@openzeppelin/contracts/utils/ReentrancyGuard.sol\";\r\nimport \"./DiceToken.sol\";\r\nimport \"./libs/IBEP20.sol\";\r\nimport \"./libs/SafeBEP20.sol\";\r\nimport \"./libs/ILuckyChipRouter02.sol\";\r\nimport \"./libs/IMasterChef.sol\";\r\n\r\ncontract Dice is Ownable, ReentrancyGuard, Pausable {\r\n    using SafeMath for uint256;\r\n    using SafeBEP20 for IBEP20;\r\n\r\n    uint256 public prevBankerAmount;\r\n    uint256 public bankerAmount;\r\n    uint256 public netValue;\r\n    uint256 public currentEpoch;\r\n    uint256 public intervalBlocks;\r\n    uint256 public playerTimeBlocks;\r\n    uint256 public playerEndBlock;\r\n    uint256 public bankerTimeBlocks;\r\n    uint256 public bankerEndBlock;\r\n    uint256 public constant TOTAL_RATE = 10000; // 100%\r\n    uint256 public gapRate = 500;\r\n    uint256 public treasuryRate = 1000; // 10% in gap\r\n    uint256 public bonusRate = 1000; // 10% in gap\r\n    uint256 public minBetAmount;\r\n    uint256 public maxBetRatio = 5;\r\n\tuint256 public feeAmount;\r\n    uint256 public totalTreasuryAmount;\r\n    uint256 public masterChefBonusId;\r\n\r\n    address public adminAddress;\r\n    address public masterChefAddress;\r\n    IBEP20 public token;\r\n    IBEP20 public lcToken;\r\n    DiceToken public diceToken;    \r\n    ILuckyChipRouter02 public swapRouter;\r\n\r\n    enum Status {\r\n        Pending,\r\n        Open,\r\n        Lock,\r\n        Claimable,\r\n        Expired\r\n    }\r\n\r\n    struct Round {\r\n        uint256 startBlock;\r\n        uint256 lockBlock;\r\n        uint256 secretSentBlock;\r\n        bytes32 bankHash;\r\n        uint256 bankSecret;\r\n        uint256 totalAmount;\r\n        uint256 maxBetAmount;\r\n        uint256[6] betAmounts;\r\n        uint256 treasuryAmount;\r\n        uint256 bonusAmount;\r\n        uint256 bonusLcAmount;\r\n        uint256 betUsers;\r\n        uint32 finalNumber;\r\n        Status status;\r\n    }\r\n\r\n    struct BetInfo {\r\n        uint256 amount;\r\n        uint16 numberCount;    \r\n        bool[6] numbers;\r\n        bool claimed; // default false\r\n        bool lcClaimed; // default false\r\n    }\r\n\r\n    struct BankerInfo {\r\n        uint256 diceTokenAmount;\r\n        uint256 avgBuyValue;\r\n    }\r\n\r\n    mapping(uint256 => Round) public rounds;\r\n    mapping(uint256 => mapping(address => BetInfo)) public ledger;\r\n    mapping(address => uint256[]) public userRounds;\r\n    mapping(address => BankerInfo) public bankerInfo;\r\n\r\n    event StartRound(uint256 indexed epoch, uint256 blockNumber, bytes32 bankHash);\r\n    event LockRound(uint256 indexed epoch, uint256 blockNumber);\r\n    event SendSecretRound(uint256 indexed epoch, uint256 blockNumber, uint256 bankSecret, uint32 finalNumber);\r\n    event BetNumber(address indexed sender, uint256 indexed currentEpoch, bool[6] numbers, uint256 amount);\r\n    event Claim(address indexed sender, uint256 indexed currentEpoch, uint256 amount);\r\n    event ClaimBonusLC(address indexed sender, uint256 amount);\r\n    event ClaimTreasury(uint256 amount);\r\n    event RatesUpdated(uint256 indexed epoch, uint256 gapRate, uint256 treasuryRate, uint256 bonusRate);\r\n    event MinBetAmountUpdated(uint256 indexed epoch, uint256 minBetAmount);\r\n    event MaxBetRatioUpdated(uint256 indexed epoch, uint256 maxBetRatio);\r\n    event FeeAmountUpdated(uint256 indexed epoch, uint256 feeAmount);\r\n    event RewardsCalculated(\r\n        uint256 indexed epoch,\r\n        uint256 treasuryAmount,\r\n        uint256 bonusAmount,\r\n        uint256 bonusLcAmount\r\n    );\r\n    event SwapRouterUpdated(address indexed router);\r\n    event EndPlayerTime(uint256 epoch, uint256 blockNumber);\r\n    event EndBankerTime(uint256 epoch, uint256 blockNumber);\r\n    event UpdateNetValue(uint256 epoch, uint256 blockNumber, uint256 netValue);\r\n    event Deposit(address indexed user, uint256 tokenAmount);    \r\n    event Withdraw(address indexed user, uint256 diceTokenAmount);    \r\n\r\n    constructor(\r\n        address _tokenAddress,\r\n        address _lcTokenAddress,\r\n        address _diceTokenAddress,\r\n        address _masterChefAddress,\r\n        uint256 _masterChefBonusId,\r\n        uint256 _intervalBlocks,\r\n        uint256 _playerTimeBlocks,\r\n        uint256 _bankerTimeBlocks,\r\n        uint256 _minBetAmount,\r\n        uint256 _feeAmount\r\n    ) public {\r\n        token = IBEP20(_tokenAddress);\r\n        lcToken = IBEP20(_lcTokenAddress);\r\n        diceToken = DiceToken(_diceTokenAddress);\r\n        masterChefAddress = _masterChefAddress;\r\n        masterChefBonusId = _masterChefBonusId;\r\n        intervalBlocks = _intervalBlocks;\r\n        playerTimeBlocks = _playerTimeBlocks;\r\n        bankerTimeBlocks = _bankerTimeBlocks;\r\n        minBetAmount = _minBetAmount;\r\n        feeAmount = _feeAmount;\r\n        netValue = uint256(1e12);\r\n        _pause();\r\n    }\r\n\r\n    modifier onlyAdmin() {\r\n        require(msg.sender == adminAddress, \"admin: wut?\");\r\n        _;\r\n    }\r\n\r\n    modifier notContract() {\r\n        require(!_isContract(msg.sender), \"contract not allowed\");\r\n        require(msg.sender == tx.origin, \"proxy contract not allowed\");\r\n        _;\r\n    }\r\n\r\n    // set admin address\r\n    function setAdmin(address _adminAddress) external onlyOwner {\r\n        require(_adminAddress != address(0), \"Cannot be zero address\");\r\n        adminAddress = _adminAddress;\r\n    }\r\n\r\n    // set interval blocks\r\n    function setIntervalBlocks(uint256 _intervalBlocks) external onlyAdmin {\r\n        intervalBlocks = _intervalBlocks;\r\n    }\r\n\r\n    // set player time blocks\r\n    function setPlayerTimeBlocks(uint256 _playerTimeBlocks) external onlyAdmin {\r\n        playerTimeBlocks = _playerTimeBlocks;\r\n    }\r\n\r\n    // set banker time blocks\r\n    function setBankerTimeBlocks(uint256 _bankerTimeBlocks) external onlyAdmin {\r\n        bankerTimeBlocks = _bankerTimeBlocks;\r\n    }\r\n\r\n    // set rates\r\n    function setRates(uint256 _gapRate, uint256 _treasuryRate, uint256 _bonusRate) external onlyAdmin {\r\n        require(_gapRate <= 1000, \"gapRate <= 10%\");\r\n        require(_treasuryRate.add(_bonusRate) <= TOTAL_RATE, \"_treasuryRate + _bonusRate <= TOTAL_RATE\");\r\n        gapRate = _gapRate;\r\n        treasuryRate = _treasuryRate;\r\n        bonusRate = _bonusRate;\r\n\r\n        emit RatesUpdated(currentEpoch, gapRate, treasuryRate, bonusRate);\r\n    }\r\n\r\n    // set minBetAmount\r\n    function setMinBetAmount(uint256 _minBetAmount) external onlyAdmin {\r\n        minBetAmount = _minBetAmount;\r\n        emit MinBetAmountUpdated(currentEpoch, minBetAmount);\r\n    }\r\n\r\n    // set maxBetRatio\r\n    function setMaxBetRatio(uint256 _maxBetRatio) external onlyAdmin {\r\n        maxBetRatio = _maxBetRatio;\r\n        emit MaxBetRatioUpdated(currentEpoch, maxBetRatio);\r\n    }\r\n\r\n    // set feeAmount\r\n    function setFeeAmount(uint256 _feeAmount) external onlyAdmin {\r\n        feeAmount = _feeAmount;\r\n        emit FeeAmountUpdated(currentEpoch, feeAmount);\r\n    }\r\n\r\n    // End banker time\r\n    function endBankerTime(uint256 epoch, bytes32 bankHash) external onlyAdmin whenPaused {\r\n        require(epoch == currentEpoch + 1, \"epoch == currentEposh + 1\");\r\n        require(bankerAmount > 0, \"Round can start only when bankerAmount > 0\");\r\n        prevBankerAmount = bankerAmount;\r\n        _unpause();\r\n        emit EndBankerTime(currentEpoch, block.timestamp);\r\n        \r\n        currentEpoch = currentEpoch + 1;\r\n        _startRound(currentEpoch, bankHash);\r\n        playerEndBlock = rounds[currentEpoch].startBlock.add(playerTimeBlocks);\r\n        bankerEndBlock = rounds[currentEpoch].startBlock.add(bankerTimeBlocks);\r\n    }\r\n\r\n    // Start the next round n, lock for round n-1\r\n    function executeRound(uint256 epoch, bytes32 bankHash) external onlyAdmin whenNotPaused{\r\n        require(epoch == currentEpoch, \"epoch == currentEposh\");\r\n\r\n        // CurrentEpoch refers to previous round (n-1)\r\n        _safeLockRound(currentEpoch);\r\n\r\n        // Increment currentEpoch to current round (n)\r\n        currentEpoch = currentEpoch + 1;\r\n        _safeStartRound(currentEpoch, bankHash);\r\n        require(rounds[currentEpoch].startBlock < playerEndBlock, \"startBlock < playerEndBlock\");\r\n        require(rounds[currentEpoch].lockBlock <= playerEndBlock, \"lockBlock < playerEndBlock\");\r\n    }\r\n\r\n    // end player time, triggers banker time\r\n    function endPlayerTime(uint256 epoch, uint256 bankSecret) external onlyAdmin whenNotPaused{\r\n        require(epoch == currentEpoch, \"epoch == currentEposh\");\r\n        sendSecret(epoch, bankSecret);\r\n        _pause();\r\n        _updateNetValue(epoch);\r\n        emit EndPlayerTime(currentEpoch, block.timestamp);\r\n    }\r\n\r\n    // end player time without caring last round\r\n    function endPlayerTimeImmediately(uint256 epoch) external onlyAdmin whenNotPaused{\r\n        require(epoch == currentEpoch, \"epoch == currentEposh\");\r\n        _pause();\r\n        _updateNetValue(epoch);\r\n        emit EndPlayerTime(currentEpoch, block.timestamp);\r\n    }\r\n\r\n    // update net value\r\n    function _updateNetValue(uint256 epoch) internal whenPaused{    \r\n        netValue = netValue.mul(bankerAmount).div(prevBankerAmount);\r\n        emit UpdateNetValue(epoch, block.timestamp, netValue);\r\n    }\r\n\r\n    // send bankSecret\r\n    function sendSecret(uint256 epoch, uint256 bankSecret) public onlyAdmin whenNotPaused{\r\n\t\tRound storage round = rounds[epoch];\r\n        require(round.lockBlock != 0, \"End round after round has locked\");\r\n        require(round.status == Status.Lock, \"End round after round has locked\");\r\n        require(block.number >= round.lockBlock, \"Send secret after lockBlock\");\r\n        require(block.number <= round.lockBlock.add(intervalBlocks), \"Send secret within intervalBlocks\");\r\n        require(round.bankSecret == 0, \"Already revealed\");\r\n        require(keccak256(abi.encodePacked(bankSecret)) == round.bankHash, \"Bank reveal not matching commitment\");\r\n\r\n        _safeSendSecret(epoch, bankSecret);\r\n        _calculateRewards(epoch);\r\n    }\r\n\r\n    function _safeSendSecret(uint256 epoch, uint256 bankSecret) internal whenNotPaused {\r\n        Round storage round = rounds[epoch];\r\n        round.secretSentBlock = block.number;\r\n        round.bankSecret = bankSecret;\r\n        uint256 random = round.bankSecret ^ round.betUsers ^ block.difficulty;\r\n        round.finalNumber = uint32(random % 6);\r\n        round.status = Status.Claimable;\r\n\r\n        emit SendSecretRound(epoch, block.number, bankSecret, round.finalNumber);\r\n    }\r\n\r\n    // bet number\r\n    function betNumber(bool[6] calldata numbers, uint256 amount) external payable whenNotPaused notContract nonReentrant {\r\n        Round storage round = rounds[currentEpoch];\r\n\t\trequire(msg.value >= feeAmount, \"msg.value > feeAmount\");\r\n        require(round.status == Status.Open, \"Round not Open\");\r\n        require(block.number > round.startBlock && block.number < round.lockBlock, \"Round not bettable\");\r\n        require(ledger[currentEpoch][msg.sender].amount == 0, \"Bet once per round\");\r\n        uint16 numberCount = 0;\r\n        for (uint32 i = 0; i < 6; i ++) {\r\n            if (numbers[i]) {\r\n                numberCount = numberCount + 1;    \r\n            }\r\n        }\r\n        require(numberCount > 0, \"numberCount > 0\");\r\n        require(amount >= minBetAmount.mul(uint256(numberCount)), \"BetAmount >= minBetAmount * numberCount\");\r\n        require(amount <= round.maxBetAmount.mul(uint256(numberCount)), \"BetAmount <= round.maxBetAmount * numberCount\");\r\n\t\tif (feeAmount > 0){\r\n            _safeTransferBNB(adminAddress, feeAmount);\r\n        }\r\n\r\n        token.safeTransferFrom(address(msg.sender), address(this), amount);\r\n\r\n        // Update round data\r\n        round.totalAmount = round.totalAmount.add(amount);\r\n        round.betUsers = round.betUsers.add(1);\r\n        uint256 betAmount = amount.div(uint256(numberCount));\r\n        for (uint32 i = 0; i < 6; i ++) {\r\n            if (numbers[i]) {\r\n                round.betAmounts[i] = round.betAmounts[i].add(betAmount);\r\n            }\r\n        }\r\n\r\n        // Update user data\r\n        BetInfo storage betInfo = ledger[currentEpoch][msg.sender];\r\n        betInfo.numbers = numbers;\r\n        betInfo.amount = amount;\r\n        betInfo.numberCount = numberCount;\r\n        userRounds[msg.sender].push(currentEpoch);\r\n\r\n        emit BetNumber(msg.sender, currentEpoch, numbers, amount);\r\n    }\r\n\r\n\r\n    // Claim reward\r\n    function claim(uint256 epoch) external notContract nonReentrant {\r\n        require(rounds[epoch].startBlock != 0, \"Round has not started\");\r\n        require(block.number > rounds[epoch].lockBlock, \"Round has not locked\");\r\n        require(!ledger[epoch][msg.sender].claimed, \"Rewards claimed\");\r\n\r\n        uint256 reward;\r\n        BetInfo storage betInfo = ledger[epoch][msg.sender];\r\n        // Round valid, claim rewards\r\n        if (rounds[epoch].status == Status.Claimable) {\r\n            require(claimable(epoch, msg.sender), \"Not eligible for claim\");\r\n            reward = betInfo.amount.div(uint256(betInfo.numberCount)).mul(5).mul(TOTAL_RATE.sub(gapRate)).div(TOTAL_RATE);\r\n        }\r\n        // Round invalid, refund bet amount\r\n        else {\r\n            require(refundable(epoch, msg.sender), \"Not eligible for refund\");\r\n            reward = ledger[epoch][msg.sender].amount;\r\n        }\r\n\r\n        betInfo.claimed = true;\r\n        token.safeTransfer(msg.sender, reward);\r\n\r\n        emit Claim(msg.sender, epoch, reward);\r\n    }\r\n\r\n    // Claim lc back\r\n    function claimBonusLC(address user) external notContract nonReentrant {\r\n        uint256 lcAmount = 0;    \r\n        uint256 epoch;\r\n        uint256 roundLcAmount = 0;\r\n        for (uint256 i = userRounds[user].length - 1; i >= 0; i --){\r\n            epoch = userRounds[user][i];\r\n            BetInfo storage betInfo = ledger[epoch][msg.sender];\r\n            if (betInfo.lcClaimed){\r\n                break;\r\n            }else{\r\n                if (rounds[epoch].status == Status.Claimable){\r\n                    if (betInfo.numbers[rounds[epoch].finalNumber]){\r\n                        roundLcAmount = betInfo.amount.div(uint256(betInfo.numberCount)).mul(5).mul(gapRate).div(TOTAL_RATE).mul(bonusRate).div(TOTAL_RATE);\r\n                        if (betInfo.numberCount > 1){\r\n                            roundLcAmount = roundLcAmount.add(betInfo.amount.div(uint256(betInfo.numberCount)).mul(uint256(betInfo.numberCount - 1)).mul(gapRate).div(TOTAL_RATE).mul(bonusRate).div(TOTAL_RATE));\r\n                        }\r\n                    }else{\r\n                        roundLcAmount = betInfo.amount.mul(bonusRate).div(TOTAL_RATE).mul(rounds[epoch].bonusLcAmount).div(rounds[epoch].bonusAmount);\r\n                    }\r\n    \r\n                    lcAmount = lcAmount.add(roundLcAmount);\r\n                    betInfo.lcClaimed = true;\r\n                }\r\n            }\r\n        }\r\n\r\n        lcToken.safeTransfer(user, lcAmount);\r\n        emit ClaimBonusLC(user, lcAmount);\r\n    }\r\n\r\n    // View pending lc back\r\n    function pendingBonusLC(address user) external view returns (uint256) {\r\n        uint256 lcAmount = 0;\r\n        uint256 epoch;\r\n        for (uint256 i = userRounds[user].length - 1; i >= 0; i --){\r\n            epoch = userRounds[user][i];\r\n            BetInfo storage betInfo = ledger[epoch][msg.sender];\r\n            if (betInfo.lcClaimed){\r\n                break;\r\n            }else{\r\n                if (rounds[epoch].status == Status.Claimable){\r\n\t\t\t\t\tuint256 roundLcAmount = 0;\r\n                    if (betInfo.numbers[rounds[epoch].finalNumber]){\r\n                        roundLcAmount = betInfo.amount.div(uint256(betInfo.numberCount)).mul(5).mul(gapRate).div(TOTAL_RATE).mul(bonusRate).div(TOTAL_RATE);\r\n                        if (betInfo.numberCount > 1){\r\n                            roundLcAmount = roundLcAmount.add(betInfo.amount.div(uint256(betInfo.numberCount)).mul(uint256(betInfo.numberCount - 1)).mul(gapRate).div(TOTAL_RATE).mul(bonusRate).div(TOTAL_RATE));\r\n                        }\r\n                    }else{\r\n                        roundLcAmount = betInfo.amount.mul(bonusRate).div(TOTAL_RATE).mul(rounds[epoch].bonusLcAmount).div(rounds[epoch].bonusAmount);\r\n                    }\r\n                    \r\n                    lcAmount = lcAmount.add(roundLcAmount);\r\n                }\r\n            }\r\n        }\r\n        return lcAmount;    \r\n    }\r\n\r\n    // Claim all treasury to masterChef\r\n    function claimTreasury() public onlyAdmin {\r\n        IMasterChef(masterChefAddress).updateBonus(masterChefBonusId, totalTreasuryAmount);\r\n        emit ClaimTreasury(totalTreasuryAmount);\r\n        totalTreasuryAmount = 0;\r\n    }\r\n\r\n    // Return round epochs that a user has participated\r\n    function getUserRounds(\r\n        address user,\r\n        uint256 cursor,\r\n        uint256 size\r\n    ) external view returns (uint256[] memory, uint256) {\r\n        uint256 length = size;\r\n        if (length > userRounds[user].length - cursor) {\r\n            length = userRounds[user].length - cursor;\r\n        }\r\n\r\n        uint256[] memory values = new uint256[](length);\r\n        for (uint256 i = 0; i < length; i++) {\r\n            values[i] = userRounds[user][cursor.add(i)];\r\n        }\r\n\r\n        return (values, cursor.add(length));\r\n    }\r\n\r\n    // Get the claimable stats of specific epoch and user account\r\n    function claimable(uint256 epoch, address user) public view returns (bool) {\r\n        return (rounds[epoch].status == Status.Claimable) && (ledger[epoch][user].numbers[rounds[epoch].finalNumber]);\r\n    }\r\n\r\n    // Get the refundable stats of specific epoch and user account\r\n    function refundable(uint256 epoch, address user) public view returns (bool) {\r\n        return (rounds[epoch].status != Status.Claimable) && block.number > rounds[epoch].lockBlock.add(intervalBlocks) && ledger[epoch][user].amount != 0;\r\n    }\r\n\r\n    // Start round. Previous round n-1 must lock\r\n    function _safeStartRound(uint256 epoch, bytes32 bankHash) internal {\r\n        require(block.number >= rounds[epoch - 1].lockBlock, \"Start new round after round n-1 lock\");\r\n        _startRound(epoch, bankHash);\r\n    }\r\n\r\n    function _startRound(uint256 epoch, bytes32 bankHash) internal {\r\n        Round storage round = rounds[epoch];\r\n        round.startBlock = block.number;\r\n        round.lockBlock = block.number.add(intervalBlocks);\r\n        round.bankHash = bankHash;\r\n        round.totalAmount = 0;\r\n\t\tround.maxBetAmount = bankerAmount.mul(maxBetRatio).div(TOTAL_RATE);\r\n        round.status = Status.Open;\r\n\r\n        emit StartRound(epoch, block.number, bankHash);\r\n    }\r\n\r\n    // Lock round\r\n    function _safeLockRound(uint256 epoch) internal {\r\n        require(rounds[epoch].startBlock != 0, \"Lock round after round has started\");\r\n        require(block.number >= rounds[epoch].lockBlock, \"Lock round after lockBlock\");\r\n        require(block.number <= rounds[epoch].lockBlock.add(intervalBlocks), \"Lock round within intervalBlocks\");\r\n        rounds[epoch].status = Status.Lock;\r\n        emit LockRound(epoch, block.number);\r\n    }\r\n\r\n    // Calculate rewards for round\r\n    function _calculateRewards(uint256 epoch) internal {\r\n        require(treasuryRate.add(bonusRate) <= TOTAL_RATE, \"TreasuryRate + bonusRate <= TOTAL_RATE\");\r\n        require(rounds[epoch].treasuryAmount == 0, \"Rewards calculated\");\r\n        Round storage round = rounds[epoch];\r\n\r\n        uint256 treasuryAmount = 0;\r\n        uint256 bonusAmount = 0;\r\n        for (uint32 i = 0; i < 6; i ++){\r\n            if (i == round.finalNumber){\r\n                uint256 tmpTreasuryAmount = round.betAmounts[i].mul(5).mul(gapRate).div(TOTAL_RATE).mul(treasuryRate).div(TOTAL_RATE);\r\n                treasuryAmount = treasuryAmount.add(tmpTreasuryAmount);\r\n                uint256 tmpBonusAmount = round.betAmounts[i].mul(5).mul(gapRate).div(TOTAL_RATE).mul(bonusRate).div(TOTAL_RATE);\r\n                bonusAmount = bonusAmount.add(tmpBonusAmount);\r\n                uint256 playerWinAmount = round.betAmounts[i].mul(5).mul(TOTAL_RATE.sub(gapRate)).div(TOTAL_RATE);\r\n                bankerAmount = bankerAmount.sub(playerWinAmount).sub(tmpTreasuryAmount).sub(tmpBonusAmount);\r\n            }else{\r\n                uint256 tmpTreasuryAmount = round.betAmounts[i].mul(gapRate).div(TOTAL_RATE).mul(treasuryRate).div(TOTAL_RATE);\r\n                treasuryAmount = treasuryAmount.add(tmpTreasuryAmount);\r\n                uint256 tmpBonusAmount = round.betAmounts[i].mul(gapRate).div(TOTAL_RATE).mul(bonusRate).div(TOTAL_RATE);\r\n                bonusAmount = bonusAmount.add(tmpBonusAmount);\r\n                uint256 playerLostAmount = round.betAmounts[i];\r\n                bankerAmount = bankerAmount.add(playerLostAmount).sub(tmpTreasuryAmount).sub(tmpBonusAmount);\r\n            }    \r\n        }\r\n\r\n        round.treasuryAmount = treasuryAmount;\r\n        round.bonusAmount = bonusAmount;\r\n\r\n        if(address(swapRouter) != address(0)){\r\n            address[] memory path = new address[](2);\r\n            path[0] = address(token);\r\n            path[1] = address(lcToken);\r\n            uint256 lcAmout = swapRouter.swapExactTokensForTokens(round.bonusAmount, 0, path, address(this), block.timestamp + (5 minutes))[1];\r\n            round.bonusLcAmount = lcAmout;\r\n        }\r\n        totalTreasuryAmount = totalTreasuryAmount.add(treasuryAmount);\r\n\r\n        emit RewardsCalculated(epoch, round.treasuryAmount, round.bonusAmount, round.bonusLcAmount);\r\n    }\r\n\r\n    // Deposit token to Dice as a banker, get Syrup back.\r\n    function deposit(uint256 _tokenAmount) public whenPaused nonReentrant notContract {\r\n        require(_tokenAmount > 0, \"Deposit amount > 0\");\r\n        BankerInfo storage banker = bankerInfo[msg.sender];\r\n        token.safeTransferFrom(address(msg.sender), address(this), _tokenAmount);\r\n        uint256 diceTokenAmount = _tokenAmount.mul(1e12).div(netValue);\r\n        diceToken.mint(address(msg.sender), diceTokenAmount);\r\n        uint256 totalDiceTokenAmount = banker.diceTokenAmount.add(diceTokenAmount);\r\n        banker.avgBuyValue = banker.avgBuyValue.mul(banker.diceTokenAmount).div(1e12).add(_tokenAmount).mul(1e12).div(totalDiceTokenAmount);\r\n        banker.diceTokenAmount = totalDiceTokenAmount;\r\n        bankerAmount = bankerAmount.add(_tokenAmount);\r\n        emit Deposit(msg.sender, _tokenAmount);    \r\n    }\r\n\r\n    // Withdraw syrup from dice to get token back\r\n    function withdraw(uint256 _diceTokenAmount) public whenPaused nonReentrant notContract {\r\n        require(_diceTokenAmount > 0, \"diceTokenAmount > 0\");\r\n        BankerInfo storage banker = bankerInfo[msg.sender];\r\n        banker.diceTokenAmount = banker.diceTokenAmount.sub(_diceTokenAmount); \r\n        SafeBEP20.safeTransferFrom(diceToken, msg.sender, address(diceToken), _diceTokenAmount);\r\n        diceToken.burn(address(diceToken), _diceTokenAmount);\r\n        uint256 tokenAmount = _diceTokenAmount.mul(netValue).div(1e12);\r\n        bankerAmount = bankerAmount.sub(tokenAmount);\r\n        token.safeTransferFrom(address(this), address(msg.sender), tokenAmount);\r\n\r\n        emit Withdraw(msg.sender, _diceTokenAmount);\r\n    }\r\n\r\n    // View function to see banker diceToken Value on frontend.\r\n    function canWithdrawToken(address bankerAddress) external view returns (uint256){\r\n        return bankerInfo[bankerAddress].diceTokenAmount.mul(netValue).div(1e12);    \r\n    }\r\n\r\n    // View function to see banker diceToken Value on frontend.\r\n    function calProfitRate(address bankerAddress) external view returns (uint256){\r\n        return netValue.mul(100).div(bankerInfo[bankerAddress].avgBuyValue);    \r\n    }\r\n\r\n    // Judge address is contract or not\r\n    function _isContract(address addr) internal view returns (bool) {\r\n        uint256 size;\r\n        assembly {\r\n            size := extcodesize(addr)\r\n        }\r\n        return size > 0;\r\n    }\r\n\r\n    // Update the swap router.\r\n    function updateSwapRouter(address _router) external onlyAdmin {\r\n        require(_router != address(0), \"DICE: Invalid router address.\");\r\n        swapRouter = ILuckyChipRouter02(_router);\r\n        emit SwapRouterUpdated(address(swapRouter));\r\n    }\r\n\r\n\tfunction _safeTransferBNB(address to, uint256 value) internal {\r\n        (bool success, ) = to.call{gas: 23000, value: value}(\"\");\r\n        require(success, 'TransferHelper: BNB_TRANSFER_FAILED');\r\n    }\r\n}\r\n\r\n",
  "sourcePath": "D:\\falseman\\2021-06-25\\dice\\contracts\\Dice.sol",
  "compiler": {
    "name": "solc",
    "version": "0.6.12+commit.27d51765.Emscripten.clang"
  },
  "schemaVersion": "3.4.2",
  "updatedAt": "2021-07-27T21:30:03.965Z",
  "devdoc": {
    "kind": "dev",
    "methods": {
      "owner()": {
        "details": "Returns the address of the current owner."
      },
      "paused()": {
        "details": "Returns true if the contract is paused, and false otherwise."
      },
      "renounceOwnership()": {
        "details": "Leaves the contract without owner. It will not be possible to call `onlyOwner` functions anymore. Can only be called by the current owner. NOTE: Renouncing ownership will leave the contract without an owner, thereby removing any functionality that is only available to the owner."
      },
      "transferOwnership(address)": {
        "details": "Transfers ownership of the contract to a new account (`newOwner`). Can only be called by the current owner."
      }
    },
    "version": 1
  },
  "userdoc": {
    "kind": "user",
    "methods": {},
    "version": 1
  }
}