{
  "contractName": "DiceToken",
  "abi": [
    {
      "inputs": [
        {
          "internalType": "string",
          "name": "name",
          "type": "string"
        },
        {
          "internalType": "string",
          "name": "symbol",
          "type": "string"
        }
      ],
      "stateMutability": "nonpayable",
      "type": "constructor"
    },
    {
      "anonymous": false,
      "inputs": [
        {
          "indexed": true,
          "internalType": "address",
          "name": "owner",
          "type": "address"
        },
        {
          "indexed": true,
          "internalType": "address",
          "name": "spender",
          "type": "address"
        },
        {
          "indexed": false,
          "internalType": "uint256",
          "name": "value",
          "type": "uint256"
        }
      ],
      "name": "Approval",
      "type": "event"
    },
    {
      "anonymous": false,
      "inputs": [
        {
          "indexed": true,
          "internalType": "address",
          "name": "previousOwner",
          "type": "address"
        },
        {
          "indexed": true,
          "internalType": "address",
          "name": "newOwner",
          "type": "address"
        }
      ],
      "name": "OwnershipTransferred",
      "type": "event"
    },
    {
      "anonymous": false,
      "inputs": [
        {
          "indexed": true,
          "internalType": "address",
          "name": "from",
          "type": "address"
        },
        {
          "indexed": true,
          "internalType": "address",
          "name": "to",
          "type": "address"
        },
        {
          "indexed": false,
          "internalType": "uint256",
          "name": "value",
          "type": "uint256"
        }
      ],
      "name": "Transfer",
      "type": "event"
    },
    {
      "inputs": [
        {
          "internalType": "address",
          "name": "owner",
          "type": "address"
        },
        {
          "internalType": "address",
          "name": "spender",
          "type": "address"
        }
      ],
      "name": "allowance",
      "outputs": [
        {
          "internalType": "uint256",
          "name": "",
          "type": "uint256"
        }
      ],
      "stateMutability": "view",
      "type": "function"
    },
    {
      "inputs": [
        {
          "internalType": "address",
          "name": "spender",
          "type": "address"
        },
        {
          "internalType": "uint256",
          "name": "amount",
          "type": "uint256"
        }
      ],
      "name": "approve",
      "outputs": [
        {
          "internalType": "bool",
          "name": "",
          "type": "bool"
        }
      ],
      "stateMutability": "nonpayable",
      "type": "function"
    },
    {
      "inputs": [
        {
          "internalType": "address",
          "name": "account",
          "type": "address"
        }
      ],
      "name": "balanceOf",
      "outputs": [
        {
          "internalType": "uint256",
          "name": "",
          "type": "uint256"
        }
      ],
      "stateMutability": "view",
      "type": "function"
    },
    {
      "inputs": [],
      "name": "decimals",
      "outputs": [
        {
          "internalType": "uint8",
          "name": "",
          "type": "uint8"
        }
      ],
      "stateMutability": "view",
      "type": "function"
    },
    {
      "inputs": [
        {
          "internalType": "address",
          "name": "spender",
          "type": "address"
        },
        {
          "internalType": "uint256",
          "name": "subtractedValue",
          "type": "uint256"
        }
      ],
      "name": "decreaseAllowance",
      "outputs": [
        {
          "internalType": "bool",
          "name": "",
          "type": "bool"
        }
      ],
      "stateMutability": "nonpayable",
      "type": "function"
    },
    {
      "inputs": [],
      "name": "getOwner",
      "outputs": [
        {
          "internalType": "address",
          "name": "",
          "type": "address"
        }
      ],
      "stateMutability": "view",
      "type": "function"
    },
    {
      "inputs": [
        {
          "internalType": "address",
          "name": "spender",
          "type": "address"
        },
        {
          "internalType": "uint256",
          "name": "addedValue",
          "type": "uint256"
        }
      ],
      "name": "increaseAllowance",
      "outputs": [
        {
          "internalType": "bool",
          "name": "",
          "type": "bool"
        }
      ],
      "stateMutability": "nonpayable",
      "type": "function"
    },
    {
      "inputs": [],
      "name": "name",
      "outputs": [
        {
          "internalType": "string",
          "name": "",
          "type": "string"
        }
      ],
      "stateMutability": "view",
      "type": "function"
    },
    {
      "inputs": [],
      "name": "owner",
      "outputs": [
        {
          "internalType": "address",
          "name": "",
          "type": "address"
        }
      ],
      "stateMutability": "view",
      "type": "function"
    },
    {
      "inputs": [],
      "name": "renounceOwnership",
      "outputs": [],
      "stateMutability": "nonpayable",
      "type": "function"
    },
    {
      "inputs": [],
      "name": "symbol",
      "outputs": [
        {
          "internalType": "string",
          "name": "",
          "type": "string"
        }
      ],
      "stateMutability": "view",
      "type": "function"
    },
    {
      "inputs": [],
      "name": "totalSupply",
      "outputs": [
        {
          "internalType": "uint256",
          "name": "",
          "type": "uint256"
        }
      ],
      "stateMutability": "view",
      "type": "function"
    },
    {
      "inputs": [
        {
          "internalType": "address",
          "name": "recipient",
          "type": "address"
        },
        {
          "internalType": "uint256",
          "name": "amount",
          "type": "uint256"
        }
      ],
      "name": "transfer",
      "outputs": [
        {
          "internalType": "bool",
          "name": "",
          "type": "bool"
        }
      ],
      "stateMutability": "nonpayable",
      "type": "function"
    },
    {
      "inputs": [
        {
          "internalType": "address",
          "name": "sender",
          "type": "address"
        },
        {
          "internalType": "address",
          "name": "recipient",
          "type": "address"
        },
        {
          "internalType": "uint256",
          "name": "amount",
          "type": "uint256"
        }
      ],
      "name": "transferFrom",
      "outputs": [
        {
          "internalType": "bool",
          "name": "",
          "type": "bool"
        }
      ],
      "stateMutability": "nonpayable",
      "type": "function"
    },
    {
      "inputs": [
        {
          "internalType": "address",
          "name": "newOwner",
          "type": "address"
        }
      ],
      "name": "transferOwnership",
      "outputs": [],
      "stateMutability": "nonpayable",
      "type": "function"
    },
    {
      "inputs": [
        {
          "internalType": "address",
          "name": "_to",
          "type": "address"
        },
        {
          "internalType": "uint256",
          "name": "_amount",
          "type": "uint256"
        }
      ],
      "name": "mint",
      "outputs": [
        {
          "internalType": "bool",
          "name": "",
          "type": "bool"
        }
      ],
      "stateMutability": "nonpayable",
      "type": "function"
    },
    {
      "inputs": [
        {
          "internalType": "uint256",
          "name": "amount",
          "type": "uint256"
        }
      ],
      "name": "mint",
      "outputs": [
        {
          "internalType": "bool",
          "name": "",
          "type": "bool"
        }
      ],
      "stateMutability": "nonpayable",
      "type": "function"
    },
    {
      "inputs": [
        {
          "internalType": "address",
          "name": "_to",
          "type": "address"
        },
        {
          "internalType": "uint256",
          "name": "_amount",
          "type": "uint256"
        }
      ],
      "name": "burn",
      "outputs": [],
      "stateMutability": "nonpayable",
      "type": "function"
    }
  ],
  "bytecode": "0x60806040523480156200001157600080fd5b50604051620018a1380380620018a1833981810160405260408110156200003757600080fd5b81019080805160405193929190846401000000008211156200005857600080fd5b9083019060208201858111156200006e57600080fd5b82516401000000008111828201881017156200008957600080fd5b82525081516020918201929091019080838360005b83811015620000b85781810151838201526020016200009e565b50505050905090810190601f168015620000e65780820380516001836020036101000a031916815260200191505b50604052602001805160405193929190846401000000008211156200010a57600080fd5b9083019060208201858111156200012057600080fd5b82516401000000008111828201881017156200013b57600080fd5b82525081516020918201929091019080838360005b838110156200016a57818101518382015260200162000150565b50505050905090810190601f168015620001985780820380516001836020036101000a031916815260200191505b5060405250505081816000620001b36200024160201b60201c565b600080546001600160a01b0319166001600160a01b0383169081178255604051929350917f8be0079c531659141344cd1fd0a4f28419497f9722a3daafe3b4186f6b6457e0908290a35081516200021290600490602085019062000245565b5080516200022890600590602084019062000245565b50506006805460ff1916601217905550620002e1915050565b3390565b828054600181600116156101000203166002900490600052602060002090601f016020900481019282601f106200028857805160ff1916838001178555620002b8565b82800160010185558215620002b8579182015b82811115620002b85782518255916020019190600101906200029b565b50620002c6929150620002ca565b5090565b5b80821115620002c65760008155600101620002cb565b6115b080620002f16000396000f3fe608060405234801561001057600080fd5b50600436106101365760003560e01c8063893d20e8116100b2578063a0712d6811610081578063a9059cbb11610066578063a9059cbb146103ff578063dd62ed3e14610438578063f2fde38b1461047357610136565b8063a0712d68146103a9578063a457c2d7146103c657610136565b8063893d20e81461032f5780638da5cb5b1461036057806395d89b41146103685780639dc29fac1461037057610136565b8063313ce5671161010957806340c10f19116100ee57806340c10f19146102b957806370a08231146102f2578063715018a61461032557610136565b8063313ce56714610262578063395093511461028057610136565b806306fdde031461013b578063095ea7b3146101b857806318160ddd1461020557806323b872dd1461021f575b600080fd5b6101436104a6565b6040805160208082528351818301528351919283929083019185019080838360005b8381101561017d578181015183820152602001610165565b50505050905090810190601f1680156101aa5780820380516001836020036101000a031916815260200191505b509250505060405180910390f35b6101f1600480360360408110156101ce57600080fd5b5073ffffffffffffffffffffffffffffffffffffffff813516906020013561055a565b604080519115158252519081900360200190f35b61020d610577565b60408051918252519081900360200190f35b6101f16004803603606081101561023557600080fd5b5073ffffffffffffffffffffffffffffffffffffffff81358116916020810135909116906040013561057d565b61026a61061e565b6040805160ff9092168252519081900360200190f35b6101f16004803603604081101561029657600080fd5b5073ffffffffffffffffffffffffffffffffffffffff8135169060200135610627565b6101f1600480360360408110156102cf57600080fd5b5073ffffffffffffffffffffffffffffffffffffffff8135169060200135610682565b61020d6004803603602081101561030857600080fd5b503573ffffffffffffffffffffffffffffffffffffffff16610736565b61032d61075e565b005b610337610875565b6040805173ffffffffffffffffffffffffffffffffffffffff9092168252519081900360200190f35b610337610884565b6101436108a0565b61032d6004803603604081101561038657600080fd5b5073ffffffffffffffffffffffffffffffffffffffff813516906020013561091f565b6101f1600480360360208110156103bf57600080fd5b50356109d5565b6101f1600480360360408110156103dc57600080fd5b5073ffffffffffffffffffffffffffffffffffffffff8135169060200135610a90565b6101f16004803603604081101561041557600080fd5b5073ffffffffffffffffffffffffffffffffffffffff8135169060200135610b05565b61020d6004803603604081101561044e57600080fd5b5073ffffffffffffffffffffffffffffffffffffffff81358116916020013516610b19565b61032d6004803603602081101561048957600080fd5b503573ffffffffffffffffffffffffffffffffffffffff16610b51565b60048054604080516020601f60027fffffffffffffffffffffffffffffffffffffffffffffffffffffffffffffffff6101006001881615020190951694909404938401819004810282018101909252828152606093909290918301828280156105505780601f1061052557610100808354040283529160200191610550565b820191906000526020600020905b81548152906001019060200180831161053357829003601f168201915b5050505050905090565b600061056e610567610cf2565b8484610cf6565b50600192915050565b60035490565b600061058a848484610e3d565b61061484610596610cf2565b61060f856040518060600160405280602881526020016114806028913973ffffffffffffffffffffffffffffffffffffffff8a166000908152600260205260408120906105e1610cf2565b73ffffffffffffffffffffffffffffffffffffffff1681526020810191909152604001600020549190611004565b610cf6565b5060019392505050565b60065460ff1690565b600061056e610634610cf2565b8461060f8560026000610645610cf2565b73ffffffffffffffffffffffffffffffffffffffff908116825260208083019390935260409182016000908120918c1681529252902054906110b5565b600061068c610cf2565b73ffffffffffffffffffffffffffffffffffffffff166106aa610884565b73ffffffffffffffffffffffffffffffffffffffff161461072c57604080517f08c379a000000000000000000000000000000000000000000000000000000000815260206004820181905260248201527f4f776e61626c653a2063616c6c6572206973206e6f7420746865206f776e6572604482015290519081900360640190fd5b6106148383611130565b73ffffffffffffffffffffffffffffffffffffffff1660009081526001602052604090205490565b610766610cf2565b73ffffffffffffffffffffffffffffffffffffffff16610784610884565b73ffffffffffffffffffffffffffffffffffffffff161461080657604080517f08c379a000000000000000000000000000000000000000000000000000000000815260206004820181905260248201527f4f776e61626c653a2063616c6c6572206973206e6f7420746865206f776e6572604482015290519081900360640190fd5b6000805460405173ffffffffffffffffffffffffffffffffffffffff909116907f8be0079c531659141344cd1fd0a4f28419497f9722a3daafe3b4186f6b6457e0908390a3600080547fffffffffffffffffffffffff0000000000000000000000000000000000000000169055565b600061087f610884565b905090565b60005473ffffffffffffffffffffffffffffffffffffffff1690565b60058054604080516020601f60027fffffffffffffffffffffffffffffffffffffffffffffffffffffffffffffffff6101006001881615020190951694909404938401819004810282018101909252828152606093909290918301828280156105505780601f1061052557610100808354040283529160200191610550565b610927610cf2565b73ffffffffffffffffffffffffffffffffffffffff16610945610884565b73ffffffffffffffffffffffffffffffffffffffff16146109c757604080517f08c379a000000000000000000000000000000000000000000000000000000000815260206004820181905260248201527f4f776e61626c653a2063616c6c6572206973206e6f7420746865206f776e6572604482015290519081900360640190fd5b6109d1828261125b565b5050565b60006109df610cf2565b73ffffffffffffffffffffffffffffffffffffffff166109fd610884565b73ffffffffffffffffffffffffffffffffffffffff1614610a7f57604080517f08c379a000000000000000000000000000000000000000000000000000000000815260206004820181905260248201527f4f776e61626c653a2063616c6c6572206973206e6f7420746865206f776e6572604482015290519081900360640190fd5b61056e610a8a610cf2565b83611130565b600061056e610a9d610cf2565b8461060f856040518060600160405280602581526020016114f16025913960026000610ac7610cf2565b73ffffffffffffffffffffffffffffffffffffffff908116825260208083019390935260409182016000908120918d16815292529020549190611004565b600061056e610b12610cf2565b8484610e3d565b73ffffffffffffffffffffffffffffffffffffffff918216600090815260026020908152604080832093909416825291909152205490565b610b59610cf2565b73ffffffffffffffffffffffffffffffffffffffff16610b77610884565b73ffffffffffffffffffffffffffffffffffffffff1614610bf957604080517f08c379a000000000000000000000000000000000000000000000000000000000815260206004820181905260248201527f4f776e61626c653a2063616c6c6572206973206e6f7420746865206f776e6572604482015290519081900360640190fd5b73ffffffffffffffffffffffffffffffffffffffff8116610c65576040517f08c379a000000000000000000000000000000000000000000000000000000000815260040180806020018281038252602681526020018061145a6026913960400191505060405180910390fd5b6000805460405173ffffffffffffffffffffffffffffffffffffffff808516939216917f8be0079c531659141344cd1fd0a4f28419497f9722a3daafe3b4186f6b6457e091a3600080547fffffffffffffffffffffffff00000000000000000000000000000000000000001673ffffffffffffffffffffffffffffffffffffffff92909216919091179055565b3390565b73ffffffffffffffffffffffffffffffffffffffff8316610d62576040517f08c379a00000000000000000000000000000000000000000000000000000000081526004018080602001828103825260248152602001806114366024913960400191505060405180910390fd5b73ffffffffffffffffffffffffffffffffffffffff8216610dce576040517f08c379a00000000000000000000000000000000000000000000000000000000081526004018080602001828103825260228152602001806115596022913960400191505060405180910390fd5b73ffffffffffffffffffffffffffffffffffffffff808416600081815260026020908152604080832094871680845294825291829020859055815185815291517f8c5be1e5ebec7d5bd14f71427d1e84f3dd0314c0f7b2291e5b200ac8c7c3b9259281900390910190a3505050565b73ffffffffffffffffffffffffffffffffffffffff8316610ea9576040517f08c379a00000000000000000000000000000000000000000000000000000000081526004018080602001828103825260258152602001806114116025913960400191505060405180910390fd5b73ffffffffffffffffffffffffffffffffffffffff8216610f15576040517f08c379a00000000000000000000000000000000000000000000000000000000081526004018080602001828103825260238152602001806114ce6023913960400191505060405180910390fd5b610f5f816040518060600160405280602681526020016114a86026913973ffffffffffffffffffffffffffffffffffffffff86166000908152600160205260409020549190611004565b73ffffffffffffffffffffffffffffffffffffffff8085166000908152600160205260408082209390935590841681522054610f9b90826110b5565b73ffffffffffffffffffffffffffffffffffffffff80841660008181526001602090815260409182902094909455805185815290519193928716927fddf252ad1be2c89b69c2b068fc378daa952ba7f163c4a11628f55a4df523b3ef92918290030190a3505050565b600081848411156110ad576040517f08c379a00000000000000000000000000000000000000000000000000000000081526004018080602001828103825283818151815260200191508051906020019080838360005b8381101561107257818101518382015260200161105a565b50505050905090810190601f16801561109f5780820380516001836020036101000a031916815260200191505b509250505060405180910390fd5b505050900390565b60008282018381101561112957604080517f08c379a000000000000000000000000000000000000000000000000000000000815260206004820152601b60248201527f536166654d6174683a206164646974696f6e206f766572666c6f770000000000604482015290519081900360640190fd5b9392505050565b600073ffffffffffffffffffffffffffffffffffffffff83166111b457604080517f08c379a000000000000000000000000000000000000000000000000000000000815260206004820152601f60248201527f42455032303a206d696e7420746f20746865207a65726f206164647265737300604482015290519081900360640190fd5b6003546111c190836110b5565b60035573ffffffffffffffffffffffffffffffffffffffff83166000908152600160205260409020546111f490836110b5565b73ffffffffffffffffffffffffffffffffffffffff841660008181526001602090815260408083209490945583518681529351929391927fddf252ad1be2c89b69c2b068fc378daa952ba7f163c4a11628f55a4df523b3ef9281900390910190a392915050565b73ffffffffffffffffffffffffffffffffffffffff82166112c7576040517f08c379a00000000000000000000000000000000000000000000000000000000081526004018080602001828103825260218152602001806115166021913960400191505060405180910390fd5b611311816040518060600160405280602281526020016115376022913973ffffffffffffffffffffffffffffffffffffffff85166000908152600160205260409020549190611004565b73ffffffffffffffffffffffffffffffffffffffff83166000908152600160205260409020556003546113449082611399565b60035560408051828152905160009173ffffffffffffffffffffffffffffffffffffffff8516917fddf252ad1be2c89b69c2b068fc378daa952ba7f163c4a11628f55a4df523b3ef9181900360200190a35050565b60008282111561140a57604080517f08c379a000000000000000000000000000000000000000000000000000000000815260206004820152601e60248201527f536166654d6174683a207375627472616374696f6e206f766572666c6f770000604482015290519081900360640190fd5b5090039056fe42455032303a207472616e736665722066726f6d20746865207a65726f206164647265737342455032303a20617070726f76652066726f6d20746865207a65726f20616464726573734f776e61626c653a206e6577206f776e657220697320746865207a65726f206164647265737342455032303a207472616e7366657220616d6f756e74206578636565647320616c6c6f77616e636542455032303a207472616e7366657220616d6f756e7420657863656564732062616c616e636542455032303a207472616e7366657220746f20746865207a65726f206164647265737342455032303a2064656372656173656420616c6c6f77616e63652062656c6f77207a65726f42455032303a206275726e2066726f6d20746865207a65726f206164647265737342455032303a206275726e20616d6f756e7420657863656564732062616c616e636542455032303a20617070726f766520746f20746865207a65726f2061646472657373a2646970667358221220d2ef7c813404753c7f94d749cb7ae1cf097c9f10bef1a84298d8d51c15c664c464736f6c634300060c0033",
  "immutableReferences": {},
  "source": "// SPDX-License-Identifier: MIT\r\n\r\npragma solidity 0.6.12;\r\n\r\nimport \"./libs/BEP20.sol\";\r\n\r\n// Dice token with Governance.\r\ncontract DiceToken is BEP20 {\r\n\r\n\tconstructor(string memory name, string memory symbol) public BEP20(name, symbol) {}\r\n\r\n    /// @notice Creates _amount token to _to.\r\n    function mint(address _to, uint256 _amount) external onlyOwner returns(bool) {\r\n        _mint(_to, _amount);\r\n        return true;\r\n    }\r\n\r\n\tfunction burn(address _to, uint256 _amount) external onlyOwner {\r\n\t\t_burn(_to, _amount);\r\n\t}\r\n}\r\n",
  "sourcePath": "D:\\falseman\\2021-06-25\\luckychip-smart-contracts\\dice\\contracts\\DiceToken.sol",
  "compiler": {
    "name": "solc",
    "version": "0.6.12+commit.27d51765.Emscripten.clang"
  },
  "schemaVersion": "3.4.2",
  "updatedAt": "2021-08-05T17:56:42.552Z",
  "devdoc": {
    "kind": "dev",
    "methods": {
      "allowance(address,address)": {
        "details": "See {BEP20-allowance}."
      },
      "approve(address,uint256)": {
        "details": "See {BEP20-approve}. Requirements: - `spender` cannot be the zero address."
      },
      "balanceOf(address)": {
        "details": "See {BEP20-balanceOf}."
      },
      "decimals()": {
        "details": "Returns the token decimals."
      },
      "decreaseAllowance(address,uint256)": {
        "details": "Atomically decreases the allowance granted to `spender` by the caller. This is an alternative to {approve} that can be used as a mitigation for problems described in {BEP20-approve}. Emits an {Approval} event indicating the updated allowance. Requirements: - `spender` cannot be the zero address. - `spender` must have allowance for the caller of at least `subtractedValue`."
      },
      "getOwner()": {
        "details": "Returns the bep token owner."
      },
      "increaseAllowance(address,uint256)": {
        "details": "Atomically increases the allowance granted to `spender` by the caller. This is an alternative to {approve} that can be used as a mitigation for problems described in {BEP20-approve}. Emits an {Approval} event indicating the updated allowance. Requirements: - `spender` cannot be the zero address."
      },
      "mint(uint256)": {
        "details": "Creates `amount` tokens and assigns them to `msg.sender`, increasing the total supply. Requirements - `msg.sender` must be the token owner"
      },
      "name()": {
        "details": "Returns the token name."
      },
      "owner()": {
        "details": "Returns the address of the current owner."
      },
      "renounceOwnership()": {
        "details": "Leaves the contract without owner. It will not be possible to call `onlyOwner` functions anymore. Can only be called by the current owner. NOTE: Renouncing ownership will leave the contract without an owner, thereby removing any functionality that is only available to the owner."
      },
      "symbol()": {
        "details": "Returns the token symbol."
      },
      "totalSupply()": {
        "details": "See {BEP20-totalSupply}."
      },
      "transfer(address,uint256)": {
        "details": "See {BEP20-transfer}. Requirements: - `recipient` cannot be the zero address. - the caller must have a balance of at least `amount`."
      },
      "transferFrom(address,address,uint256)": {
        "details": "See {BEP20-transferFrom}. Emits an {Approval} event indicating the updated allowance. This is not required by the EIP. See the note at the beginning of {BEP20}; Requirements: - `sender` and `recipient` cannot be the zero address. - `sender` must have a balance of at least `amount`. - the caller must have allowance for `sender`'s tokens of at least `amount`."
      },
      "transferOwnership(address)": {
        "details": "Transfers ownership of the contract to a new account (`newOwner`). Can only be called by the current owner."
      }
    },
    "version": 1
  },
  "userdoc": {
    "kind": "user",
    "methods": {
      "mint(address,uint256)": {
        "notice": "Creates _amount token to _to."
      }
    },
    "version": 1
  }
}