{
  "contractName": "Dice",
  "abi": [
    {
      "inputs": [
        {
          "internalType": "address",
          "name": "_tokenAddress",
          "type": "address"
        },
        {
          "internalType": "address",
          "name": "_lcTokenAddress",
          "type": "address"
        },
        {
          "internalType": "address",
          "name": "_diceTokenAddress",
          "type": "address"
        },
        {
          "internalType": "address",
          "name": "_masterChefAddress",
          "type": "address"
        },
        {
          "internalType": "uint256",
          "name": "_masterChefBonusId",
          "type": "uint256"
        },
        {
          "internalType": "uint256",
          "name": "_intervalBlocks",
          "type": "uint256"
        },
        {
          "internalType": "uint256",
          "name": "_playerTimeBlocks",
          "type": "uint256"
        },
        {
          "internalType": "uint256",
          "name": "_bankerTimeBlocks",
          "type": "uint256"
        },
        {
          "internalType": "uint256",
          "name": "_minBetAmount",
          "type": "uint256"
        },
        {
          "internalType": "uint256",
          "name": "_feeAmount",
          "type": "uint256"
        },
        {
          "internalType": "uint256",
          "name": "_maxBankerAmount",
          "type": "uint256"
        }
      ],
      "stateMutability": "nonpayable",
      "type": "constructor"
    },
    {
      "anonymous": false,
      "inputs": [
        {
          "indexed": true,
          "internalType": "uint256",
          "name": "block",
          "type": "uint256"
        },
        {
          "indexed": false,
          "internalType": "uint256",
          "name": "minBetAmount",
          "type": "uint256"
        },
        {
          "indexed": false,
          "internalType": "uint256",
          "name": "feeAmount",
          "type": "uint256"
        },
        {
          "indexed": false,
          "internalType": "uint256",
          "name": "maxBankerAmount",
          "type": "uint256"
        }
      ],
      "name": "AmountsUpdated",
      "type": "event"
    },
    {
      "anonymous": false,
      "inputs": [
        {
          "indexed": true,
          "internalType": "address",
          "name": "sender",
          "type": "address"
        },
        {
          "indexed": true,
          "internalType": "uint256",
          "name": "currentEpoch",
          "type": "uint256"
        },
        {
          "indexed": false,
          "internalType": "bool[6]",
          "name": "numbers",
          "type": "bool[6]"
        },
        {
          "indexed": false,
          "internalType": "uint256",
          "name": "amount",
          "type": "uint256"
        }
      ],
      "name": "BetNumber",
      "type": "event"
    },
    {
      "anonymous": false,
      "inputs": [
        {
          "indexed": true,
          "internalType": "address",
          "name": "sender",
          "type": "address"
        },
        {
          "indexed": true,
          "internalType": "uint256",
          "name": "currentEpoch",
          "type": "uint256"
        },
        {
          "indexed": false,
          "internalType": "uint256",
          "name": "amount",
          "type": "uint256"
        }
      ],
      "name": "Claim",
      "type": "event"
    },
    {
      "anonymous": false,
      "inputs": [
        {
          "indexed": false,
          "internalType": "uint256",
          "name": "amount",
          "type": "uint256"
        }
      ],
      "name": "ClaimBonus",
      "type": "event"
    },
    {
      "anonymous": false,
      "inputs": [
        {
          "indexed": true,
          "internalType": "address",
          "name": "sender",
          "type": "address"
        },
        {
          "indexed": false,
          "internalType": "uint256",
          "name": "amount",
          "type": "uint256"
        }
      ],
      "name": "ClaimBonusLC",
      "type": "event"
    },
    {
      "anonymous": false,
      "inputs": [
        {
          "indexed": true,
          "internalType": "address",
          "name": "user",
          "type": "address"
        },
        {
          "indexed": false,
          "internalType": "uint256",
          "name": "tokenAmount",
          "type": "uint256"
        }
      ],
      "name": "Deposit",
      "type": "event"
    },
    {
      "anonymous": false,
      "inputs": [
        {
          "indexed": false,
          "internalType": "uint256",
          "name": "epoch",
          "type": "uint256"
        },
        {
          "indexed": false,
          "internalType": "uint256",
          "name": "blockNumber",
          "type": "uint256"
        }
      ],
      "name": "EndBankerTime",
      "type": "event"
    },
    {
      "anonymous": false,
      "inputs": [
        {
          "indexed": false,
          "internalType": "uint256",
          "name": "epoch",
          "type": "uint256"
        },
        {
          "indexed": false,
          "internalType": "uint256",
          "name": "blockNumber",
          "type": "uint256"
        }
      ],
      "name": "EndPlayerTime",
      "type": "event"
    },
    {
      "anonymous": false,
      "inputs": [
        {
          "indexed": true,
          "internalType": "uint256",
          "name": "epoch",
          "type": "uint256"
        },
        {
          "indexed": false,
          "internalType": "uint256",
          "name": "blockNumber",
          "type": "uint256"
        }
      ],
      "name": "LockRound",
      "type": "event"
    },
    {
      "anonymous": false,
      "inputs": [
        {
          "indexed": true,
          "internalType": "address",
          "name": "previousOwner",
          "type": "address"
        },
        {
          "indexed": true,
          "internalType": "address",
          "name": "newOwner",
          "type": "address"
        }
      ],
      "name": "OwnershipTransferred",
      "type": "event"
    },
    {
      "anonymous": false,
      "inputs": [
        {
          "indexed": false,
          "internalType": "address",
          "name": "account",
          "type": "address"
        }
      ],
      "name": "Paused",
      "type": "event"
    },
    {
      "anonymous": false,
      "inputs": [
        {
          "indexed": true,
          "internalType": "uint256",
          "name": "block",
          "type": "uint256"
        },
        {
          "indexed": false,
          "internalType": "uint256",
          "name": "gapRate",
          "type": "uint256"
        },
        {
          "indexed": false,
          "internalType": "uint256",
          "name": "lcBackRate",
          "type": "uint256"
        },
        {
          "indexed": false,
          "internalType": "uint256",
          "name": "bonusRate",
          "type": "uint256"
        },
        {
          "indexed": false,
          "internalType": "uint256",
          "name": "lotteryRate",
          "type": "uint256"
        },
        {
          "indexed": false,
          "internalType": "uint256",
          "name": "lcLotteryRate",
          "type": "uint256"
        }
      ],
      "name": "RatesUpdated",
      "type": "event"
    },
    {
      "anonymous": false,
      "inputs": [
        {
          "indexed": true,
          "internalType": "uint256",
          "name": "block",
          "type": "uint256"
        },
        {
          "indexed": false,
          "internalType": "uint256",
          "name": "maxBetRatio",
          "type": "uint256"
        },
        {
          "indexed": false,
          "internalType": "uint256",
          "name": "maxExposureRatio",
          "type": "uint256"
        }
      ],
      "name": "RatiosUpdated",
      "type": "event"
    },
    {
      "anonymous": false,
      "inputs": [
        {
          "indexed": true,
          "internalType": "uint256",
          "name": "epoch",
          "type": "uint256"
        },
        {
          "indexed": false,
          "internalType": "uint256",
          "name": "lcbackamount",
          "type": "uint256"
        },
        {
          "indexed": false,
          "internalType": "uint256",
          "name": "bonusamount",
          "type": "uint256"
        },
        {
          "indexed": false,
          "internalType": "uint256",
          "name": "swaplcamount",
          "type": "uint256"
        }
      ],
      "name": "RewardsCalculated",
      "type": "event"
    },
    {
      "anonymous": false,
      "inputs": [
        {
          "indexed": true,
          "internalType": "uint256",
          "name": "epoch",
          "type": "uint256"
        },
        {
          "indexed": false,
          "internalType": "uint256",
          "name": "blockNumber",
          "type": "uint256"
        },
        {
          "indexed": false,
          "internalType": "uint256",
          "name": "bankSecret",
          "type": "uint256"
        },
        {
          "indexed": false,
          "internalType": "uint32",
          "name": "finalNumber",
          "type": "uint32"
        }
      ],
      "name": "SendSecretRound",
      "type": "event"
    },
    {
      "anonymous": false,
      "inputs": [
        {
          "indexed": true,
          "internalType": "uint256",
          "name": "epoch",
          "type": "uint256"
        },
        {
          "indexed": false,
          "internalType": "uint256",
          "name": "blockNumber",
          "type": "uint256"
        },
        {
          "indexed": false,
          "internalType": "bytes32",
          "name": "bankHash",
          "type": "bytes32"
        }
      ],
      "name": "StartRound",
      "type": "event"
    },
    {
      "anonymous": false,
      "inputs": [
        {
          "indexed": false,
          "internalType": "address",
          "name": "account",
          "type": "address"
        }
      ],
      "name": "Unpaused",
      "type": "event"
    },
    {
      "anonymous": false,
      "inputs": [
        {
          "indexed": false,
          "internalType": "uint256",
          "name": "epoch",
          "type": "uint256"
        },
        {
          "indexed": false,
          "internalType": "uint256",
          "name": "blockNumber",
          "type": "uint256"
        },
        {
          "indexed": false,
          "internalType": "uint256",
          "name": "netValue",
          "type": "uint256"
        }
      ],
      "name": "UpdateNetValue",
      "type": "event"
    },
    {
      "anonymous": false,
      "inputs": [
        {
          "indexed": true,
          "internalType": "address",
          "name": "user",
          "type": "address"
        },
        {
          "indexed": false,
          "internalType": "uint256",
          "name": "diceTokenAmount",
          "type": "uint256"
        }
      ],
      "name": "Withdraw",
      "type": "event"
    },
    {
      "inputs": [],
      "name": "TOTAL_RATE",
      "outputs": [
        {
          "internalType": "uint256",
          "name": "",
          "type": "uint256"
        }
      ],
      "stateMutability": "view",
      "type": "function",
      "constant": true
    },
    {
      "inputs": [],
      "name": "adminAddress",
      "outputs": [
        {
          "internalType": "address",
          "name": "",
          "type": "address"
        }
      ],
      "stateMutability": "view",
      "type": "function",
      "constant": true
    },
    {
      "inputs": [],
      "name": "bankerAmount",
      "outputs": [
        {
          "internalType": "uint256",
          "name": "",
          "type": "uint256"
        }
      ],
      "stateMutability": "view",
      "type": "function",
      "constant": true
    },
    {
      "inputs": [],
      "name": "bankerEndBlock",
      "outputs": [
        {
          "internalType": "uint256",
          "name": "",
          "type": "uint256"
        }
      ],
      "stateMutability": "view",
      "type": "function",
      "constant": true
    },
    {
      "inputs": [
        {
          "internalType": "address",
          "name": "",
          "type": "address"
        }
      ],
      "name": "bankerInfo",
      "outputs": [
        {
          "internalType": "uint256",
          "name": "diceTokenAmount",
          "type": "uint256"
        },
        {
          "internalType": "uint256",
          "name": "avgBuyValue",
          "type": "uint256"
        }
      ],
      "stateMutability": "view",
      "type": "function",
      "constant": true
    },
    {
      "inputs": [],
      "name": "bankerTimeBlocks",
      "outputs": [
        {
          "internalType": "uint256",
          "name": "",
          "type": "uint256"
        }
      ],
      "stateMutability": "view",
      "type": "function",
      "constant": true
    },
    {
      "inputs": [],
      "name": "bonusRate",
      "outputs": [
        {
          "internalType": "uint256",
          "name": "",
          "type": "uint256"
        }
      ],
      "stateMutability": "view",
      "type": "function",
      "constant": true
    },
    {
      "inputs": [],
      "name": "currentEpoch",
      "outputs": [
        {
          "internalType": "uint256",
          "name": "",
          "type": "uint256"
        }
      ],
      "stateMutability": "view",
      "type": "function",
      "constant": true
    },
    {
      "inputs": [],
      "name": "diceToken",
      "outputs": [
        {
          "internalType": "contract DiceToken",
          "name": "",
          "type": "address"
        }
      ],
      "stateMutability": "view",
      "type": "function",
      "constant": true
    },
    {
      "inputs": [],
      "name": "feeAmount",
      "outputs": [
        {
          "internalType": "uint256",
          "name": "",
          "type": "uint256"
        }
      ],
      "stateMutability": "view",
      "type": "function",
      "constant": true
    },
    {
      "inputs": [],
      "name": "gapRate",
      "outputs": [
        {
          "internalType": "uint256",
          "name": "",
          "type": "uint256"
        }
      ],
      "stateMutability": "view",
      "type": "function",
      "constant": true
    },
    {
      "inputs": [],
      "name": "intervalBlocks",
      "outputs": [
        {
          "internalType": "uint256",
          "name": "",
          "type": "uint256"
        }
      ],
      "stateMutability": "view",
      "type": "function",
      "constant": true
    },
    {
      "inputs": [],
      "name": "lcAdminAddress",
      "outputs": [
        {
          "internalType": "address",
          "name": "",
          "type": "address"
        }
      ],
      "stateMutability": "view",
      "type": "function",
      "constant": true
    },
    {
      "inputs": [],
      "name": "lcBackRate",
      "outputs": [
        {
          "internalType": "uint256",
          "name": "",
          "type": "uint256"
        }
      ],
      "stateMutability": "view",
      "type": "function",
      "constant": true
    },
    {
      "inputs": [],
      "name": "lcLotteryRate",
      "outputs": [
        {
          "internalType": "uint256",
          "name": "",
          "type": "uint256"
        }
      ],
      "stateMutability": "view",
      "type": "function",
      "constant": true
    },
    {
      "inputs": [],
      "name": "lcToken",
      "outputs": [
        {
          "internalType": "contract IBEP20",
          "name": "",
          "type": "address"
        }
      ],
      "stateMutability": "view",
      "type": "function",
      "constant": true
    },
    {
      "inputs": [
        {
          "internalType": "uint256",
          "name": "",
          "type": "uint256"
        },
        {
          "internalType": "address",
          "name": "",
          "type": "address"
        }
      ],
      "name": "ledger",
      "outputs": [
        {
          "internalType": "uint256",
          "name": "amount",
          "type": "uint256"
        },
        {
          "internalType": "uint16",
          "name": "numberCount",
          "type": "uint16"
        },
        {
          "internalType": "bool",
          "name": "claimed",
          "type": "bool"
        },
        {
          "internalType": "bool",
          "name": "lcClaimed",
          "type": "bool"
        }
      ],
      "stateMutability": "view",
      "type": "function",
      "constant": true
    },
    {
      "inputs": [],
      "name": "lotteryRate",
      "outputs": [
        {
          "internalType": "uint256",
          "name": "",
          "type": "uint256"
        }
      ],
      "stateMutability": "view",
      "type": "function",
      "constant": true
    },
    {
      "inputs": [],
      "name": "masterChefAddress",
      "outputs": [
        {
          "internalType": "address",
          "name": "",
          "type": "address"
        }
      ],
      "stateMutability": "view",
      "type": "function",
      "constant": true
    },
    {
      "inputs": [],
      "name": "masterChefBonusId",
      "outputs": [
        {
          "internalType": "uint256",
          "name": "",
          "type": "uint256"
        }
      ],
      "stateMutability": "view",
      "type": "function",
      "constant": true
    },
    {
      "inputs": [],
      "name": "maxBankerAmount",
      "outputs": [
        {
          "internalType": "uint256",
          "name": "",
          "type": "uint256"
        }
      ],
      "stateMutability": "view",
      "type": "function",
      "constant": true
    },
    {
      "inputs": [],
      "name": "maxBetRatio",
      "outputs": [
        {
          "internalType": "uint256",
          "name": "",
          "type": "uint256"
        }
      ],
      "stateMutability": "view",
      "type": "function",
      "constant": true
    },
    {
      "inputs": [],
      "name": "maxExposureRatio",
      "outputs": [
        {
          "internalType": "uint256",
          "name": "",
          "type": "uint256"
        }
      ],
      "stateMutability": "view",
      "type": "function",
      "constant": true
    },
    {
      "inputs": [],
      "name": "minBetAmount",
      "outputs": [
        {
          "internalType": "uint256",
          "name": "",
          "type": "uint256"
        }
      ],
      "stateMutability": "view",
      "type": "function",
      "constant": true
    },
    {
      "inputs": [],
      "name": "netValue",
      "outputs": [
        {
          "internalType": "uint256",
          "name": "",
          "type": "uint256"
        }
      ],
      "stateMutability": "view",
      "type": "function",
      "constant": true
    },
    {
      "inputs": [],
      "name": "owner",
      "outputs": [
        {
          "internalType": "address",
          "name": "",
          "type": "address"
        }
      ],
      "stateMutability": "view",
      "type": "function",
      "constant": true
    },
    {
      "inputs": [],
      "name": "paused",
      "outputs": [
        {
          "internalType": "bool",
          "name": "",
          "type": "bool"
        }
      ],
      "stateMutability": "view",
      "type": "function",
      "constant": true
    },
    {
      "inputs": [],
      "name": "playerEndBlock",
      "outputs": [
        {
          "internalType": "uint256",
          "name": "",
          "type": "uint256"
        }
      ],
      "stateMutability": "view",
      "type": "function",
      "constant": true
    },
    {
      "inputs": [],
      "name": "playerTimeBlocks",
      "outputs": [
        {
          "internalType": "uint256",
          "name": "",
          "type": "uint256"
        }
      ],
      "stateMutability": "view",
      "type": "function",
      "constant": true
    },
    {
      "inputs": [],
      "name": "prevBankerAmount",
      "outputs": [
        {
          "internalType": "uint256",
          "name": "",
          "type": "uint256"
        }
      ],
      "stateMutability": "view",
      "type": "function",
      "constant": true
    },
    {
      "inputs": [],
      "name": "renounceOwnership",
      "outputs": [],
      "stateMutability": "nonpayable",
      "type": "function"
    },
    {
      "inputs": [
        {
          "internalType": "uint256",
          "name": "",
          "type": "uint256"
        }
      ],
      "name": "rounds",
      "outputs": [
        {
          "internalType": "uint256",
          "name": "startBlock",
          "type": "uint256"
        },
        {
          "internalType": "uint256",
          "name": "lockBlock",
          "type": "uint256"
        },
        {
          "internalType": "uint256",
          "name": "secretSentBlock",
          "type": "uint256"
        },
        {
          "internalType": "bytes32",
          "name": "bankHash",
          "type": "bytes32"
        },
        {
          "internalType": "uint256",
          "name": "bankSecret",
          "type": "uint256"
        },
        {
          "internalType": "uint256",
          "name": "totalAmount",
          "type": "uint256"
        },
        {
          "internalType": "uint256",
          "name": "maxBetAmount",
          "type": "uint256"
        },
        {
          "internalType": "uint256",
          "name": "lcBackAmount",
          "type": "uint256"
        },
        {
          "internalType": "uint256",
          "name": "bonusAmount",
          "type": "uint256"
        },
        {
          "internalType": "uint256",
          "name": "swapLcAmount",
          "type": "uint256"
        },
        {
          "internalType": "uint256",
          "name": "betUsers",
          "type": "uint256"
        },
        {
          "internalType": "uint32",
          "name": "finalNumber",
          "type": "uint32"
        },
        {
          "internalType": "enum Dice.Status",
          "name": "status",
          "type": "uint8"
        }
      ],
      "stateMutability": "view",
      "type": "function",
      "constant": true
    },
    {
      "inputs": [],
      "name": "swapRouter",
      "outputs": [
        {
          "internalType": "contract ILuckyChipRouter02",
          "name": "",
          "type": "address"
        }
      ],
      "stateMutability": "view",
      "type": "function",
      "constant": true
    },
    {
      "inputs": [],
      "name": "token",
      "outputs": [
        {
          "internalType": "contract IBEP20",
          "name": "",
          "type": "address"
        }
      ],
      "stateMutability": "view",
      "type": "function",
      "constant": true
    },
    {
      "inputs": [],
      "name": "totalBonusAmount",
      "outputs": [
        {
          "internalType": "uint256",
          "name": "",
          "type": "uint256"
        }
      ],
      "stateMutability": "view",
      "type": "function",
      "constant": true
    },
    {
      "inputs": [],
      "name": "totalLcLotteryAmount",
      "outputs": [
        {
          "internalType": "uint256",
          "name": "",
          "type": "uint256"
        }
      ],
      "stateMutability": "view",
      "type": "function",
      "constant": true
    },
    {
      "inputs": [],
      "name": "totalLotteryAmount",
      "outputs": [
        {
          "internalType": "uint256",
          "name": "",
          "type": "uint256"
        }
      ],
      "stateMutability": "view",
      "type": "function",
      "constant": true
    },
    {
      "inputs": [
        {
          "internalType": "address",
          "name": "newOwner",
          "type": "address"
        }
      ],
      "name": "transferOwnership",
      "outputs": [],
      "stateMutability": "nonpayable",
      "type": "function"
    },
    {
      "inputs": [
        {
          "internalType": "address",
          "name": "",
          "type": "address"
        },
        {
          "internalType": "uint256",
          "name": "",
          "type": "uint256"
        }
      ],
      "name": "userRounds",
      "outputs": [
        {
          "internalType": "uint256",
          "name": "",
          "type": "uint256"
        }
      ],
      "stateMutability": "view",
      "type": "function",
      "constant": true
    },
    {
      "inputs": [
        {
          "internalType": "uint256",
          "name": "_intervalBlocks",
          "type": "uint256"
        },
        {
          "internalType": "uint256",
          "name": "_playerTimeBlocks",
          "type": "uint256"
        },
        {
          "internalType": "uint256",
          "name": "_bankerTimeBlocks",
          "type": "uint256"
        }
      ],
      "name": "setBlocks",
      "outputs": [],
      "stateMutability": "nonpayable",
      "type": "function"
    },
    {
      "inputs": [
        {
          "internalType": "uint256",
          "name": "_gapRate",
          "type": "uint256"
        },
        {
          "internalType": "uint256",
          "name": "_lcBackRate",
          "type": "uint256"
        },
        {
          "internalType": "uint256",
          "name": "_bonusRate",
          "type": "uint256"
        },
        {
          "internalType": "uint256",
          "name": "_lotteryRate",
          "type": "uint256"
        },
        {
          "internalType": "uint256",
          "name": "_lcLotteryRate",
          "type": "uint256"
        }
      ],
      "name": "setRates",
      "outputs": [],
      "stateMutability": "nonpayable",
      "type": "function"
    },
    {
      "inputs": [
        {
          "internalType": "uint256",
          "name": "_minBetAmount",
          "type": "uint256"
        },
        {
          "internalType": "uint256",
          "name": "_feeAmount",
          "type": "uint256"
        },
        {
          "internalType": "uint256",
          "name": "_maxBankerAmount",
          "type": "uint256"
        }
      ],
      "name": "setAmounts",
      "outputs": [],
      "stateMutability": "nonpayable",
      "type": "function"
    },
    {
      "inputs": [
        {
          "internalType": "uint256",
          "name": "_maxBetRatio",
          "type": "uint256"
        },
        {
          "internalType": "uint256",
          "name": "_maxExposureRatio",
          "type": "uint256"
        }
      ],
      "name": "setRatios",
      "outputs": [],
      "stateMutability": "nonpayable",
      "type": "function"
    },
    {
      "inputs": [
        {
          "internalType": "address",
          "name": "_adminAddress",
          "type": "address"
        },
        {
          "internalType": "address",
          "name": "_lcAdminAddress",
          "type": "address"
        }
      ],
      "name": "setAdmin",
      "outputs": [],
      "stateMutability": "nonpayable",
      "type": "function"
    },
    {
      "inputs": [
        {
          "internalType": "uint256",
          "name": "epoch",
          "type": "uint256"
        },
        {
          "internalType": "bytes32",
          "name": "bankHash",
          "type": "bytes32"
        }
      ],
      "name": "endBankerTime",
      "outputs": [],
      "stateMutability": "nonpayable",
      "type": "function"
    },
    {
      "inputs": [
        {
          "internalType": "uint256",
          "name": "epoch",
          "type": "uint256"
        },
        {
          "internalType": "bytes32",
          "name": "bankHash",
          "type": "bytes32"
        }
      ],
      "name": "executeRound",
      "outputs": [],
      "stateMutability": "nonpayable",
      "type": "function"
    },
    {
      "inputs": [
        {
          "internalType": "uint256",
          "name": "epoch",
          "type": "uint256"
        },
        {
          "internalType": "uint256",
          "name": "bankSecret",
          "type": "uint256"
        }
      ],
      "name": "endPlayerTime",
      "outputs": [],
      "stateMutability": "nonpayable",
      "type": "function"
    },
    {
      "inputs": [
        {
          "internalType": "uint256",
          "name": "epoch",
          "type": "uint256"
        }
      ],
      "name": "endPlayerTimeImmediately",
      "outputs": [],
      "stateMutability": "nonpayable",
      "type": "function"
    },
    {
      "inputs": [
        {
          "internalType": "uint256",
          "name": "epoch",
          "type": "uint256"
        },
        {
          "internalType": "uint256",
          "name": "bankSecret",
          "type": "uint256"
        }
      ],
      "name": "sendSecret",
      "outputs": [],
      "stateMutability": "nonpayable",
      "type": "function"
    },
    {
      "inputs": [
        {
          "internalType": "bool[6]",
          "name": "numbers",
          "type": "bool[6]"
        },
        {
          "internalType": "uint256",
          "name": "amount",
          "type": "uint256"
        }
      ],
      "name": "betNumber",
      "outputs": [],
      "stateMutability": "payable",
      "type": "function",
      "payable": true
    },
    {
      "inputs": [
        {
          "internalType": "uint256",
          "name": "epoch",
          "type": "uint256"
        }
      ],
      "name": "claim",
      "outputs": [],
      "stateMutability": "nonpayable",
      "type": "function"
    },
    {
      "inputs": [
        {
          "internalType": "address",
          "name": "user",
          "type": "address"
        }
      ],
      "name": "claimLcBack",
      "outputs": [],
      "stateMutability": "nonpayable",
      "type": "function"
    },
    {
      "inputs": [
        {
          "internalType": "address",
          "name": "user",
          "type": "address"
        }
      ],
      "name": "pendingLcBack",
      "outputs": [
        {
          "internalType": "uint256",
          "name": "lcAmount",
          "type": "uint256"
        },
        {
          "internalType": "uint256",
          "name": "startIndex",
          "type": "uint256"
        },
        {
          "internalType": "uint256",
          "name": "endIndex",
          "type": "uint256"
        }
      ],
      "stateMutability": "view",
      "type": "function",
      "constant": true
    },
    {
      "inputs": [
        {
          "internalType": "address",
          "name": "user",
          "type": "address"
        },
        {
          "internalType": "uint256",
          "name": "cursor",
          "type": "uint256"
        },
        {
          "internalType": "uint256",
          "name": "size",
          "type": "uint256"
        }
      ],
      "name": "getUserRounds",
      "outputs": [
        {
          "internalType": "uint256[]",
          "name": "",
          "type": "uint256[]"
        },
        {
          "internalType": "uint256",
          "name": "",
          "type": "uint256"
        }
      ],
      "stateMutability": "view",
      "type": "function",
      "constant": true
    },
    {
      "inputs": [
        {
          "internalType": "uint256",
          "name": "epoch",
          "type": "uint256"
        },
        {
          "internalType": "address",
          "name": "user",
          "type": "address"
        }
      ],
      "name": "getUserNumbers",
      "outputs": [
        {
          "internalType": "bool[6]",
          "name": "",
          "type": "bool[6]"
        }
      ],
      "stateMutability": "view",
      "type": "function",
      "constant": true
    },
    {
      "inputs": [
        {
          "internalType": "uint256",
          "name": "epoch",
          "type": "uint256"
        },
        {
          "internalType": "address",
          "name": "user",
          "type": "address"
        }
      ],
      "name": "claimable",
      "outputs": [
        {
          "internalType": "bool",
          "name": "",
          "type": "bool"
        }
      ],
      "stateMutability": "view",
      "type": "function",
      "constant": true
    },
    {
      "inputs": [
        {
          "internalType": "uint256",
          "name": "epoch",
          "type": "uint256"
        },
        {
          "internalType": "address",
          "name": "user",
          "type": "address"
        }
      ],
      "name": "refundable",
      "outputs": [
        {
          "internalType": "bool",
          "name": "",
          "type": "bool"
        }
      ],
      "stateMutability": "view",
      "type": "function",
      "constant": true
    },
    {
      "inputs": [
        {
          "internalType": "bytes32",
          "name": "bankHash",
          "type": "bytes32"
        }
      ],
      "name": "manualStartRound",
      "outputs": [],
      "stateMutability": "nonpayable",
      "type": "function"
    },
    {
      "inputs": [
        {
          "internalType": "uint256",
          "name": "epoch",
          "type": "uint256"
        }
      ],
      "name": "lockRound",
      "outputs": [],
      "stateMutability": "nonpayable",
      "type": "function"
    },
    {
      "inputs": [
        {
          "internalType": "uint256",
          "name": "_tokenAmount",
          "type": "uint256"
        }
      ],
      "name": "deposit",
      "outputs": [],
      "stateMutability": "nonpayable",
      "type": "function"
    },
    {
      "inputs": [
        {
          "internalType": "uint256",
          "name": "_diceTokenAmount",
          "type": "uint256"
        }
      ],
      "name": "withdraw",
      "outputs": [],
      "stateMutability": "nonpayable",
      "type": "function"
    },
    {
      "inputs": [
        {
          "internalType": "address",
          "name": "bankerAddress",
          "type": "address"
        }
      ],
      "name": "canWithdrawToken",
      "outputs": [
        {
          "internalType": "uint256",
          "name": "",
          "type": "uint256"
        }
      ],
      "stateMutability": "view",
      "type": "function",
      "constant": true
    },
    {
      "inputs": [
        {
          "internalType": "address",
          "name": "bankerAddress",
          "type": "address"
        }
      ],
      "name": "calProfitRate",
      "outputs": [
        {
          "internalType": "uint256",
          "name": "",
          "type": "uint256"
        }
      ],
      "stateMutability": "view",
      "type": "function",
      "constant": true
    },
    {
      "inputs": [
        {
          "internalType": "address",
          "name": "_router",
          "type": "address"
        }
      ],
      "name": "updateSwapRouter",
      "outputs": [],
      "stateMutability": "nonpayable",
      "type": "function"
    }
  ],
  "bytecode": "0x60806040526101f46010556103e86011556103e860125560646013556032601455600560165561012c6017553480156200003857600080fd5b50604051620062423803806200624283398181016040526101608110156200005f57600080fd5b508051602082015160408301516060840151608085015160a086015160c087015160e08801516101008901516101208a0151610140909a0151989997989697959694959394929391929091906000620000b7620001a0565b600080546001600160a01b0319166001600160a01b0383169081178255604051929350917f8be0079c531659141344cd1fd0a4f28419497f9722a3daafe3b4186f6b6457e0908290a350600180556002805460ff19169055601d80546001600160a01b03808e166001600160a01b031992831617909255601e80548d8416908316179055601f80548c8416908316179055601c8054928b1692909116919091179055600c879055600d869055600e859055600f84905560158390556018829055601981905564e8d4a510006005556200018f620001a4565b505050505050505050505062000252565b3390565b620001ae62000249565b15620001f4576040805162461bcd60e51b815260206004820152601060248201526f14185d5cd8589b194e881c185d5cd95960821b604482015290519081900360640190fd5b6002805460ff191660011790557f62e78cea01bee320cd4e420270b5ea74000d11b0c9f74754ebdbfc544b05a2586200022c620001a0565b604080516001600160a01b039092168252519081900360200190a1565b60025460ff1690565b615fe080620002626000396000f3fe6080604052600436106103c35760003560e01c80638ab9ff71116101f2578063c6d221bf1161010d578063f1b9e1e7116100a0578063fa968eea1161006f578063fa968eea14610e96578063fc0c546a14610eab578063fc6f946814610ec0578063ff41e8b114610ed5576103c3565b8063f1b9e1e714610dd3578063f1d9f90c14610de8578063f256473714610e41578063f2fde38b14610e56576103c3565b8063dd1f7596116100dc578063dd1f759614610d21578063e13b787014610d67578063e158218d14610d7c578063e89cd14a14610dbe576103c3565b8063c6d221bf14610c87578063d748a98714610c9c578063da7af9d114610ccc578063dcb4c32314610d0c576103c3565b8063b53a6f7a11610185578063bc5dda5011610154578063bc5dda5014610bdf578063c17bcdee14610c15578063c31c9c0714610c2a578063c55b6bb714610c3f576103c3565b8063b53a6f7a14610b4b578063b6b55f2514610b60578063b78ae01114610b8a578063b98b677f14610b9f576103c3565b8063a0c7f71c116101c1578063a0c7f71c14610a96578063a661ef3914610adc578063abc5ca9814610b06578063b29c299b14610b36576103c3565b80638ab9ff71146109205780638c65c81f146109355780638da5cb5b146109da578063951fd600146109ef576103c3565b80635699d0d7116102e257806369e15404116102755780637bf41254116102445780637bf412541461087157806380cfe921146108b75780638764e02c146108e15780638ab4ca8a146108f6576103c3565b806369e15404146107c1578063715018a6146107d65780637285c58b146107eb578063766718081461085c576103c3565b80635c975abb116102b15780635c975abb146107175780635d38075e146107405780635eed5a2c146107615780636639dd9314610791576103c3565b80635699d0d71461065f57806359512af8146106745780635af123f4146106a45780635b7932c2146106b9576103c3565b8063285d8afd1161035a57806339295fb51161032957806339295fb5146105565780633fcceacc1461058c578063441bf767146105a15780634c34b53a1461061f576103c3565b8063285d8afd146104d65780632e1a7d4d146104eb578063379607f51461051757806337be3bf114610541576103c3565b80631584145711610396578063158414571461042e5780631ec9f34b1461046e578063221e2e6014610483578063273115f7146104c1576103c3565b806302e300d9146103c857806308d949fa146103ef578063094a0e5f146104045780630a6625f014610419575b600080fd5b3480156103d457600080fd5b506103dd610eea565b60408051918252519081900360200190f35b3480156103fb57600080fd5b506103dd610ef0565b34801561041057600080fd5b506103dd610ef6565b34801561042557600080fd5b506103dd610efc565b34801561043a57600080fd5b506103dd6004803603602081101561045157600080fd5b503573ffffffffffffffffffffffffffffffffffffffff16610f02565b34801561047a57600080fd5b506103dd610f4e565b34801561048f57600080fd5b50610498610f54565b6040805173ffffffffffffffffffffffffffffffffffffffff9092168252519081900360200190f35b3480156104cd57600080fd5b50610498610f70565b3480156104e257600080fd5b506103dd610f8c565b3480156104f757600080fd5b506105156004803603602081101561050e57600080fd5b5035610f92565b005b34801561052357600080fd5b506105156004803603602081101561053a57600080fd5b5035611338565b34801561054d57600080fd5b506103dd611857565b34801561056257600080fd5b506105156004803603606081101561057957600080fd5b508035906020810135906040013561185d565b34801561059857600080fd5b506103dd6118f1565b3480156105ad57600080fd5b506105e7600480360360408110156105c457600080fd5b508035906020013573ffffffffffffffffffffffffffffffffffffffff166118f7565b604051808260c080838360005b8381101561060c5781810151838201526020016105f4565b5050505090500191505060405180910390f35b34801561062b57600080fd5b506105156004803603602081101561064257600080fd5b503573ffffffffffffffffffffffffffffffffffffffff16611983565b34801561066b57600080fd5b506103dd611c20565b34801561068057600080fd5b506105156004803603604081101561069757600080fd5b5080359060200135611c26565b3480156106b057600080fd5b506103dd611df3565b3480156106c557600080fd5b506106f9600480360360208110156106dc57600080fd5b503573ffffffffffffffffffffffffffffffffffffffff16611df9565b60408051938452602084019290925282820152519081900360600190f35b34801561072357600080fd5b5061072c612082565b604080519115158252519081900360200190f35b610515600480360360e081101561075657600080fd5b5060c081013561208b565b34801561076d57600080fd5b506105156004803603604081101561078457600080fd5b5080359060200135612919565b34801561079d57600080fd5b50610515600480360360408110156107b457600080fd5b5080359060200135612b9b565b3480156107cd57600080fd5b506103dd612c69565b3480156107e257600080fd5b50610515612c6f565b3480156107f757600080fd5b506108316004803603604081101561080e57600080fd5b508035906020013573ffffffffffffffffffffffffffffffffffffffff16612d86565b6040805194855261ffff90931660208501529015158383015215156060830152519081900360800190f35b34801561086857600080fd5b506103dd612dc2565b34801561087d57600080fd5b5061072c6004803603604081101561089457600080fd5b508035906020013573ffffffffffffffffffffffffffffffffffffffff16612dc8565b3480156108c357600080fd5b50610515600480360360208110156108da57600080fd5b5035612e5f565b3480156108ed57600080fd5b506103dd612ff4565b34801561090257600080fd5b506105156004803603602081101561091957600080fd5b5035612ffa565b34801561092c57600080fd5b50610498613246565b34801561094157600080fd5b5061095f6004803603602081101561095857600080fd5b5035613262565b604051808e81526020018d81526020018c81526020018b81526020018a81526020018981526020018881526020018781526020018681526020018581526020018481526020018363ffffffff1681526020018260048111156109bd57fe5b81526020019d505050505050505050505050505060405180910390f35b3480156109e657600080fd5b506104986132d4565b3480156109fb57600080fd5b50610a3b60048036036060811015610a1257600080fd5b5073ffffffffffffffffffffffffffffffffffffffff81351690602081013590604001356132f0565b6040518080602001838152602001828103825284818151815260200191508051906020019060200280838360005b83811015610a81578181015183820152602001610a69565b50505050905001935050505060405180910390f35b348015610aa257600080fd5b5061072c60048036036040811015610ab957600080fd5b508035906020013573ffffffffffffffffffffffffffffffffffffffff1661341f565b348015610ae857600080fd5b5061051560048036036020811015610aff57600080fd5b50356134c5565b348015610b1257600080fd5b5061051560048036036040811015610b2957600080fd5b5080359060200135613687565b348015610b4257600080fd5b506103dd61391b565b348015610b5757600080fd5b506103dd613921565b348015610b6c57600080fd5b5061051560048036036020811015610b8357600080fd5b5035613927565b348015610b9657600080fd5b506103dd613d7b565b348015610bab57600080fd5b5061051560048036036020811015610bc257600080fd5b503573ffffffffffffffffffffffffffffffffffffffff16613d81565b348015610beb57600080fd5b5061051560048036036060811015610c0257600080fd5b5080359060208101359060400135613ed2565b348015610c2157600080fd5b506103dd613faf565b348015610c3657600080fd5b50610498613fb5565b348015610c4b57600080fd5b5061051560048036036040811015610c6257600080fd5b5073ffffffffffffffffffffffffffffffffffffffff81358116916020013516613fd1565b348015610c9357600080fd5b506103dd614173565b348015610ca857600080fd5b5061051560048036036040811015610cbf57600080fd5b5080359060200135614179565b348015610cd857600080fd5b506103dd60048036036020811015610cef57600080fd5b503573ffffffffffffffffffffffffffffffffffffffff16614524565b348015610d1857600080fd5b506103dd614560565b348015610d2d57600080fd5b506103dd60048036036040811015610d4457600080fd5b5073ffffffffffffffffffffffffffffffffffffffff8135169060200135614566565b348015610d7357600080fd5b506103dd614594565b348015610d8857600080fd5b50610515600480360360a0811015610d9f57600080fd5b508035906020810135906040810135906060810135906080013561459a565b348015610dca57600080fd5b506103dd614782565b348015610ddf57600080fd5b506103dd614788565b348015610df457600080fd5b50610e2860048036036020811015610e0b57600080fd5b503573ffffffffffffffffffffffffffffffffffffffff1661478e565b6040805192835260208301919091528051918290030190f35b348015610e4d57600080fd5b506103dd6147a7565b348015610e6257600080fd5b5061051560048036036020811015610e7957600080fd5b503573ffffffffffffffffffffffffffffffffffffffff166147ad565b348015610ea257600080fd5b506103dd61494e565b348015610eb757600080fd5b50610498614954565b348015610ecc57600080fd5b50610498614970565b348015610ee157600080fd5b5061049861498c565b600b5481565b600c5481565b600f5481565b60095481565b60055473ffffffffffffffffffffffffffffffffffffffff82166000908152602460205260408120549091610f489164e8d4a5100091610f4291906149a8565b90614a1b565b92915050565b600d5481565b601c5473ffffffffffffffffffffffffffffffffffffffff1681565b601b5473ffffffffffffffffffffffffffffffffffffffff1681565b60055481565b610f9a612082565b61100557604080517f08c379a000000000000000000000000000000000000000000000000000000000815260206004820152601460248201527f5061757361626c653a206e6f7420706175736564000000000000000000000000604482015290519081900360640190fd5b6002600154141561107757604080517f08c379a000000000000000000000000000000000000000000000000000000000815260206004820152601f60248201527f5265656e7472616e637947756172643a207265656e7472616e742063616c6c00604482015290519081900360640190fd5b600260015561108533614a9c565b156110f157604080517f08c379a000000000000000000000000000000000000000000000000000000000815260206004820152600b60248201527f6e6f20636f6e7472616374000000000000000000000000000000000000000000604482015290519081900360640190fd5b33321461115f57604080517f08c379a000000000000000000000000000000000000000000000000000000000815260206004820152600860248201527f6e6f2070726f7879000000000000000000000000000000000000000000000000604482015290519081900360640190fd5b600081116111ce57604080517f08c379a000000000000000000000000000000000000000000000000000000000815260206004820152601360248201527f64696365546f6b656e416d6f756e74203e203000000000000000000000000000604482015290519081900360640190fd5b33600090815260246020526040902080546111e99083614aa2565b8155601f546112109073ffffffffffffffffffffffffffffffffffffffff16338185614b19565b601f54604080517f9dc29fac00000000000000000000000000000000000000000000000000000000815273ffffffffffffffffffffffffffffffffffffffff909216600483018190526024830185905290519091639dc29fac91604480830192600092919082900301818387803b15801561128a57600080fd5b505af115801561129e573d6000803e3d6000fd5b5050505060006112c264e8d4a51000610f42600554866149a890919063ffffffff16565b6004549091506112d29082614aa2565b600455601d546112f99073ffffffffffffffffffffffffffffffffffffffff163383614bb4565b60408051848152905133917f884edad9ce6fa2440d8a54cc123490eb96d2768479d49ff9c7366125a9424364919081900360200190a250506001805550565b61134133614a9c565b156113ad57604080517f08c379a000000000000000000000000000000000000000000000000000000000815260206004820152600b60248201527f6e6f20636f6e7472616374000000000000000000000000000000000000000000604482015290519081900360640190fd5b33321461141b57604080517f08c379a000000000000000000000000000000000000000000000000000000000815260206004820152600860248201527f6e6f2070726f7879000000000000000000000000000000000000000000000000604482015290519081900360640190fd5b6002600154141561148d57604080517f08c379a000000000000000000000000000000000000000000000000000000000815260206004820152601f60248201527f5265656e7472616e637947756172643a207265656e7472616e742063616c6c00604482015290519081900360640190fd5b600260015560008181526021602052604090205461150c57604080517f08c379a000000000000000000000000000000000000000000000000000000000815260206004820152600b60248201527f4e6f742073746172746564000000000000000000000000000000000000000000604482015290519081900360640190fd5b600081815260216020526040902060010154431161158b57604080517f08c379a000000000000000000000000000000000000000000000000000000000815260206004820152600a60248201527f4e6f74206c6f636b656400000000000000000000000000000000000000000000604482015290519081900360640190fd5b600081815260226020908152604080832033845290915290206003015460ff161561161757604080517f08c379a000000000000000000000000000000000000000000000000000000000815260206004820152600f60248201527f5265776172647320636c61696d65640000000000000000000000000000000000604482015290519081900360640190fd5b600081815260226020908152604080832033845290915281206003600084815260216020526040902060110154640100000000900460ff16600481111561165a57fe5b14156117345761166a833361341f565b6116d557604080517f08c379a000000000000000000000000000000000000000000000000000000000815260206004820152600d60248201527f4e6f7420636c61696d61626c6500000000000000000000000000000000000000604482015290519081900360640190fd5b600181015481546000916116ed919061ffff16614a1b565b9050611720612710610f4261170f601054612710614aa290919063ffffffff16565b61171a8560056149a8565b906149a8565b925061172c8382614c41565b9250506117c6565b61173e8333612dc8565b6117a957604080517f08c379a000000000000000000000000000000000000000000000000000000000815260206004820152600e60248201527f4e6f7420726566756e6461626c65000000000000000000000000000000000000604482015290519081900360640190fd5b600083815260226020908152604080832033845290915290205491505b6003810180547fffffffffffffffffffffffffffffffffffffffffffffffffffffffffffffff00166001179055601d546118179073ffffffffffffffffffffffffffffffffffffffff163384614bb4565b604080518381529051849133917f34fcbac0073d7c3d388e51312faf357774904998eeb8fca628b9e6f65ee1cbf79181900360200190a350506001805550565b60145481565b601a5473ffffffffffffffffffffffffffffffffffffffff1633146118e357604080517f08c379a000000000000000000000000000000000000000000000000000000000815260206004820152600b60248201527f61646d696e3a207775743f000000000000000000000000000000000000000000604482015290519081900360640190fd5b600d92909255600e55600f55565b600e5481565b6118ff615e2a565b600083815260226020908152604080832073ffffffffffffffffffffffffffffffffffffffff86168452909152808220815160c0810192839052926002909101916006918390855b825461010083900a900460ff16151581526020600192830181810494850194909303909202910180841161194757509498975050505050505050565b61198c33614a9c565b156119f857604080517f08c379a000000000000000000000000000000000000000000000000000000000815260206004820152600b60248201527f6e6f20636f6e7472616374000000000000000000000000000000000000000000604482015290519081900360640190fd5b333214611a6657604080517f08c379a000000000000000000000000000000000000000000000000000000000815260206004820152600860248201527f6e6f2070726f7879000000000000000000000000000000000000000000000000604482015290519081900360640190fd5b60026001541415611ad857604080517f08c379a000000000000000000000000000000000000000000000000000000000815260206004820152601f60248201527f5265656e7472616e637947756172643a207265656e7472616e742063616c6c00604482015290519081900360640190fd5b600260015560008080611aea84611df9565b919450925090508215611bca576000825b82811015611ba35773ffffffffffffffffffffffffffffffffffffffff86166000908152602360205260409020805482908110611b3457fe5b600091825260208083209091015480835260228252604080842073ffffffffffffffffffffffffffffffffffffffff8b168552909252912060030180547fffffffffffffffffffffffffffffffffffffffffffffffffffffffffffff00ff166101001790559150600101611afb565b50601e54611bc89073ffffffffffffffffffffffffffffffffffffffff168686614bb4565b505b60408051848152905173ffffffffffffffffffffffffffffffffffffffff8616917f6fd977b59a22052377ab87ebdf4b780c3439b6eb861aca3cb29218dadf6a05a1919081900360200190a25050600180555050565b60195481565b601a5473ffffffffffffffffffffffffffffffffffffffff163314611cac57604080517f08c379a000000000000000000000000000000000000000000000000000000000815260206004820152600b60248201527f61646d696e3a207775743f000000000000000000000000000000000000000000604482015290519081900360640190fd5b611cb4612082565b15611d2057604080517f08c379a000000000000000000000000000000000000000000000000000000000815260206004820152601060248201527f5061757361626c653a2070617573656400000000000000000000000000000000604482015290519081900360640190fd5b6006548214611d9057604080517f08c379a000000000000000000000000000000000000000000000000000000000815260206004820152600560248201527f65706f6368000000000000000000000000000000000000000000000000000000604482015290519081900360640190fd5b611d9a8282614179565b611da2614cb5565b611dab82614da7565b611db3614e7e565b6006546040805191825243602083015280517f620494b8df07e75c9eb56fea25105fc50d24deb9b63f8f96d7630ac9fe9882589281900390910190a15050565b60125481565b73ffffffffffffffffffffffffffffffffffffffff8116600090815260236020526040812054819081807fffffffffffffffffffffffffffffffffffffffffffffffffffffffffffffffff83015b73ffffffffffffffffffffffffffffffffffffffff87166000908152602360205260409020805482908110611e7857fe5b6000918252602080832090910154808352602282526040808420338552909252912060038101549194509060ff6101009091041615611ec457611ebc826001614c41565b955050612078565b600084815260216020526040902060036011820154640100000000900460ff166004811115611eef57fe5b141561204f576011810154600283019063ffffffff1660068110611f0f57fe5b602081049091015460ff601f9092166101000a90041615611ff357611f74612710610f4260115461171a612710610f4260105461171a600561171a8c60010160009054906101000a900461ffff1661ffff168d60000154614a1b90919063ffffffff16565b60018381015491955061ffff9091161115611fee5760115460105460018401548454611feb93611fe49361271093610f429361171a9286928692859161ffff9081167fffffffffffffffffffffffffffffffffffffffffffffffffffffffffffffffff8101909116918391614a1b565b8590614c41565b93505b612021565b61201e612710610f4260115461171a612710610f4260105489600001546149a890919063ffffffff16565b93505b61204081600d0154610f4283600f0154876149a890919063ffffffff16565b935061204c8885614c41565b97505b50507fffffffffffffffffffffffffffffffffffffffffffffffffffffffffffffffff01611e47565b5050509193909250565b60025460ff1690565b612093612082565b156120ff57604080517f08c379a000000000000000000000000000000000000000000000000000000000815260206004820152601060248201527f5061757361626c653a2070617573656400000000000000000000000000000000604482015290519081900360640190fd5b61210833614a9c565b1561217457604080517f08c379a000000000000000000000000000000000000000000000000000000000815260206004820152600b60248201527f6e6f20636f6e7472616374000000000000000000000000000000000000000000604482015290519081900360640190fd5b3332146121e257604080517f08c379a000000000000000000000000000000000000000000000000000000000815260206004820152600860248201527f6e6f2070726f7879000000000000000000000000000000000000000000000000604482015290519081900360640190fd5b6002600154141561225457604080517f08c379a000000000000000000000000000000000000000000000000000000000815260206004820152601f60248201527f5265656e7472616e637947756172643a207265656e7472616e742063616c6c00604482015290519081900360640190fd5b600260015560065460009081526021602052604090206018543410156122db57604080517f08c379a000000000000000000000000000000000000000000000000000000000815260206004820152600960248201527f466565416d6f756e740000000000000000000000000000000000000000000000604482015290519081900360640190fd5b60016011820154640100000000900460ff1660048111156122f857fe5b1461236457604080517f08c379a000000000000000000000000000000000000000000000000000000000815260206004820152600860248201527f4e6f74204f70656e000000000000000000000000000000000000000000000000604482015290519081900360640190fd5b8054431180156123775750806001015443105b6123e257604080517f08c379a000000000000000000000000000000000000000000000000000000000815260206004820152600c60248201527f4e6f74206265747461626c650000000000000000000000000000000000000000604482015290519081900360640190fd5b60065460009081526022602090815260408083203384529091529020541561246b57604080517f08c379a000000000000000000000000000000000000000000000000000000000815260206004820152600860248201527f426574206f6e6365000000000000000000000000000000000000000000000000604482015290519081900360640190fd5b60008060005b60068163ffffffff1610156124e257858163ffffffff166006811061249257fe5b6020020135156124da5782600101925081846007018263ffffffff16600681106124b857fe5b015411156124da57836007018163ffffffff16600681106124d557fe5b015491505b600101612471565b5060008261ffff161161255657604080517f08c379a000000000000000000000000000000000000000000000000000000000815260206004820152600f60248201527f6e756d626572436f756e74203e20300000000000000000000000000000000000604482015290519081900360640190fd5b6015546125679061ffff84166149a8565b8410156125d557604080517f08c379a000000000000000000000000000000000000000000000000000000000815260206004820152601260248201527f6d696e426574416d6f756e74206c696d69740000000000000000000000000000604482015290519081900360640190fd5b60068301546125e89061ffff84166149a8565b84111561265657604080517f08c379a000000000000000000000000000000000000000000000000000000000815260206004820152601260248201527f6d6178426574416d6f756e74206c696d69740000000000000000000000000000604482015290519081900360640190fd5b8161ffff166001141561270f57612680612710610f426017546004546149a890919063ffffffff16565b60058401546126a3906126939084614aa2565b61269d8488614c41565b90614aa2565b1061270f57604080517f08c379a000000000000000000000000000000000000000000000000000000000815260206004820152601160248201527f4d61784578706f73757265204c696d6974000000000000000000000000000000604482015290519081900360640190fd5b6018541561273d57601a5460185461273d9173ffffffffffffffffffffffffffffffffffffffff1690614ff8565b601d546127629073ffffffffffffffffffffffffffffffffffffffff16333087614b19565b60058301546127719085614c41565b60058401556010830154612786906001614c41565b6010840155600061279b8561ffff8516614a1b565b905060005b60068163ffffffff16101561280c57868163ffffffff16600681106127c157fe5b602002013515612804576127ec82866007018363ffffffff16600681106127e457fe5b015490614c41565b856007018263ffffffff166006811061280157fe5b01555b6001016127a0565b5060068054600090815260226020908152604080832033845290915290209061283b9060028301908990615e48565b50858155600180820180547fffffffffffffffffffffffffffffffffffffffffffffffffffffffffffff00001661ffff8716179055336000818152602360209081526040808320600680548254978801835591855292909320909401919091555491517f8fff2ebc45155e71fa11f99b8a19002efe7096d6c87352d1fd0bcffbbddc8680908a908a90808360c080828437600083820152601f017fffffffffffffffffffffffffffffffffffffffffffffffffffffffffffffffe0169091019283525050604051908190036020019150a35050600180555050505050565b601a5473ffffffffffffffffffffffffffffffffffffffff16331461299f57604080517f08c379a000000000000000000000000000000000000000000000000000000000815260206004820152600b60248201527f61646d696e3a207775743f000000000000000000000000000000000000000000604482015290519081900360640190fd5b6129a7612082565b612a1257604080517f08c379a000000000000000000000000000000000000000000000000000000000815260206004820152601460248201527f5061757361626c653a206e6f7420706175736564000000000000000000000000604482015290519081900360640190fd5b6006546001018214612a8557604080517f08c379a000000000000000000000000000000000000000000000000000000000815260206004820152600560248201527f45706f6368000000000000000000000000000000000000000000000000000000604482015290519081900360640190fd5b600060045411612af657604080517f08c379a000000000000000000000000000000000000000000000000000000000815260206004820152601160248201527f62616e6b6572416d6f756e742067742030000000000000000000000000000000604482015290519081900360640190fd5b600454600355612b046150ca565b6006546040805191825243602083015280517fb97a357ed0379a8e44a2d9ccd587ce70b0ac625a5e678303ad10c8c84ca7f7609281900390910190a16006805460010190819055612b55908261518e565b600e54600654600090815260216020526040902054612b7391614c41565b600755600f54600654600090815260216020526040902054612b9491614c41565b6008555050565b601a5473ffffffffffffffffffffffffffffffffffffffff163314612c2157604080517f08c379a000000000000000000000000000000000000000000000000000000000815260206004820152600b60248201527f61646d696e3a207775743f000000000000000000000000000000000000000000604482015290519081900360640190fd5b601682905560178190556040805183815260208101839052815143927fe2f5c8588887234e6a368ca64e432b81b636580fe80ac266013c33040122e040928290030190a25050565b60185481565b612c7761524c565b73ffffffffffffffffffffffffffffffffffffffff16612c956132d4565b73ffffffffffffffffffffffffffffffffffffffff1614612d1757604080517f08c379a000000000000000000000000000000000000000000000000000000000815260206004820181905260248201527f4f776e61626c653a2063616c6c6572206973206e6f7420746865206f776e6572604482015290519081900360640190fd5b6000805460405173ffffffffffffffffffffffffffffffffffffffff909116907f8be0079c531659141344cd1fd0a4f28419497f9722a3daafe3b4186f6b6457e0908390a3600080547fffffffffffffffffffffffff0000000000000000000000000000000000000000169055565b6022602090815260009283526040808420909152908252902080546001820154600390920154909161ffff169060ff8082169161010090041684565b60065481565b60006003600084815260216020526040902060110154640100000000900460ff166004811115612df457fe5b14158015612e1e5750600d54600084815260216020526040902060010154612e1b91614c41565b43115b8015612e585750600083815260226020908152604080832073ffffffffffffffffffffffffffffffffffffffff8616845290915290205415155b9392505050565b601a5473ffffffffffffffffffffffffffffffffffffffff163314612ee557604080517f08c379a000000000000000000000000000000000000000000000000000000000815260206004820152600b60248201527f61646d696e3a207775743f000000000000000000000000000000000000000000604482015290519081900360640190fd5b612eed612082565b15612f5957604080517f08c379a000000000000000000000000000000000000000000000000000000000815260206004820152601060248201527f5061757361626c653a2070617573656400000000000000000000000000000000604482015290519081900360640190fd5b600654600090815260216020526040902060010154431015612fdc57604080517f08c379a000000000000000000000000000000000000000000000000000000000815260206004820152600c60248201527f4d616e75616c2073746172740000000000000000000000000000000000000000604482015290519081900360640190fd5b6006805460010190819055612ff1908261518e565b50565b60035481565b613002612082565b1561306e57604080517f08c379a000000000000000000000000000000000000000000000000000000000815260206004820152601060248201527f5061757361626c653a2070617573656400000000000000000000000000000000604482015290519081900360640190fd5b600081815260216020526040902080546130e957604080517f08c379a000000000000000000000000000000000000000000000000000000000815260206004820152600b60248201527f4861732073746172746564000000000000000000000000000000000000000000604482015290519081900360640190fd5b806001015443101561315c57604080517f08c379a000000000000000000000000000000000000000000000000000000000815260206004820152600f60248201527f4166746572206c6f636b426c6f636b0000000000000000000000000000000000604482015290519081900360640190fd5b600d54600182015461316d91614c41565b4311156131db57604080517f08c379a000000000000000000000000000000000000000000000000000000000815260206004820152601560248201527f57697468696e20696e74657276616c426c6f636b730000000000000000000000604482015290519081900360640190fd5b6011810180547fffffffffffffffffffffffffffffffffffffffffffffffffffffff00ffffffff1664020000000017905560408051438152905183917f2a10a104c1d678d140bb24df324113b019210a9ef40e150f0acf0dedde4bc68e919081900360200190a25050565b601f5473ffffffffffffffffffffffffffffffffffffffff1681565b60216020526000908152604090208054600182015460028301546003840154600485015460058601546006870154600d880154600e890154600f8a015460108b01546011909b0154999a98999798969795969495939492939192909163ffffffff811690640100000000900460ff168d565b60005473ffffffffffffffffffffffffffffffffffffffff1690565b73ffffffffffffffffffffffffffffffffffffffff8316600090815260236020526040812054606091908390859003811115613351575073ffffffffffffffffffffffffffffffffffffffff85166000908152602360205260409020548490035b60608167ffffffffffffffff8111801561336a57600080fd5b50604051908082528060200260200182016040528015613394578160200160208202803683370190505b50905060005b828110156134055773ffffffffffffffffffffffffffffffffffffffff881660009081526023602052604090206133d18883614c41565b815481106133db57fe5b90600052602060002001548282815181106133f257fe5b602090810291909101015260010161339a565b50806134118784614c41565b935093505050935093915050565b60006003600084815260216020526040902060110154640100000000900460ff16600481111561344b57fe5b148015612e585750600083815260226020908152604080832073ffffffffffffffffffffffffffffffffffffffff86168452825280832086845260219092529091206011015460029091019063ffffffff16600681106134a757fe5b602081049091015460ff601f9092166101000a900416905092915050565b601a5473ffffffffffffffffffffffffffffffffffffffff16331461354b57604080517f08c379a000000000000000000000000000000000000000000000000000000000815260206004820152600b60248201527f61646d696e3a207775743f000000000000000000000000000000000000000000604482015290519081900360640190fd5b613553612082565b156135bf57604080517f08c379a000000000000000000000000000000000000000000000000000000000815260206004820152601060248201527f5061757361626c653a2070617573656400000000000000000000000000000000604482015290519081900360640190fd5b600654811461362f57604080517f08c379a000000000000000000000000000000000000000000000000000000000815260206004820152600560248201527f65706f6368000000000000000000000000000000000000000000000000000000604482015290519081900360640190fd5b613637614cb5565b61364081614da7565b613648614e7e565b6006546040805191825243602083015280517f620494b8df07e75c9eb56fea25105fc50d24deb9b63f8f96d7630ac9fe9882589281900390910190a150565b601a5473ffffffffffffffffffffffffffffffffffffffff16331461370d57604080517f08c379a000000000000000000000000000000000000000000000000000000000815260206004820152600b60248201527f61646d696e3a207775743f000000000000000000000000000000000000000000604482015290519081900360640190fd5b613715612082565b1561378157604080517f08c379a000000000000000000000000000000000000000000000000000000000815260206004820152601060248201527f5061757361626c653a2070617573656400000000000000000000000000000000604482015290519081900360640190fd5b60065482146137f157604080517f08c379a000000000000000000000000000000000000000000000000000000000815260206004820152600560248201527f45706f6368000000000000000000000000000000000000000000000000000000604482015290519081900360640190fd5b6137fc600654612ffa565b6006805460010190819055613811908261518e565b6007546006546000908152602160205260409020541061389257604080517f08c379a000000000000000000000000000000000000000000000000000000000815260206004820152600a60248201527f7374617274426c6f636b00000000000000000000000000000000000000000000604482015290519081900360640190fd5b600754600654600090815260216020526040902060010154111561391757604080517f08c379a000000000000000000000000000000000000000000000000000000000815260206004820152600960248201527f6c6f636b426c6f636b0000000000000000000000000000000000000000000000604482015290519081900360640190fd5b5050565b61271081565b60045481565b61392f612082565b61399a57604080517f08c379a000000000000000000000000000000000000000000000000000000000815260206004820152601460248201527f5061757361626c653a206e6f7420706175736564000000000000000000000000604482015290519081900360640190fd5b60026001541415613a0c57604080517f08c379a000000000000000000000000000000000000000000000000000000000815260206004820152601f60248201527f5265656e7472616e637947756172643a207265656e7472616e742063616c6c00604482015290519081900360640190fd5b6002600155613a1a33614a9c565b15613a8657604080517f08c379a000000000000000000000000000000000000000000000000000000000815260206004820152600b60248201527f6e6f20636f6e7472616374000000000000000000000000000000000000000000604482015290519081900360640190fd5b333214613af457604080517f08c379a000000000000000000000000000000000000000000000000000000000815260206004820152600860248201527f6e6f2070726f7879000000000000000000000000000000000000000000000000604482015290519081900360640190fd5b60008111613b6357604080517f08c379a000000000000000000000000000000000000000000000000000000000815260206004820152600a60248201527f416d6f756e74203e203000000000000000000000000000000000000000000000604482015290519081900360640190fd5b601954600454613b739083614c41565b10613bdf57604080517f08c379a000000000000000000000000000000000000000000000000000000000815260206004820152601560248201527f6d617842616e6b6572416d6f756e74204c696d69740000000000000000000000604482015290519081900360640190fd5b336000818152602460205260409020601d549091613c159173ffffffffffffffffffffffffffffffffffffffff16903085614b19565b600554600090613c2e90610f428564e8d4a510006149a8565b601f54604080517f40c10f1900000000000000000000000000000000000000000000000000000000815233600482015260248101849052905192935073ffffffffffffffffffffffffffffffffffffffff909116916340c10f19916044808201926020929091908290030181600087803b158015613cab57600080fd5b505af1158015613cbf573d6000803e3d6000fd5b505050506040513d6020811015613cd557600080fd5b50508154600090613ce69083614c41565b9050613d2381610f4264e8d4a5100061171a88613d1d64e8d4a51000610f428b600001548c600101546149a890919063ffffffff16565b90614c41565b6001840155808355600454613d389085614c41565b60045560408051858152905133917fe1fffcc4923d04b559f4d29a8bfc6cda04eb5b0d3c460751c2402c5c5cc9109c919081900360200190a25050600180555050565b60115481565b601a5473ffffffffffffffffffffffffffffffffffffffff163314613e0757604080517f08c379a000000000000000000000000000000000000000000000000000000000815260206004820152600b60248201527f61646d696e3a207775743f000000000000000000000000000000000000000000604482015290519081900360640190fd5b73ffffffffffffffffffffffffffffffffffffffff8116613e8b57604080517f08c379a0000000000000000000000000000000000000000000000000000000008152602060048083019190915260248201527f5a65726f00000000000000000000000000000000000000000000000000000000604482015290519081900360640190fd5b602080547fffffffffffffffffffffffff00000000000000000000000000000000000000001673ffffffffffffffffffffffffffffffffffffffff92909216919091179055565b601a5473ffffffffffffffffffffffffffffffffffffffff163314613f5857604080517f08c379a000000000000000000000000000000000000000000000000000000000815260206004820152600b60248201527f61646d696e3a207775743f000000000000000000000000000000000000000000604482015290519081900360640190fd5b6015839055601882905560198190556040805184815260208101849052808201839052905143917f08fcf843611805166678c79ce15ba4e48e0761763f021569ddd752ac73cdc2b9919081900360600190a2505050565b60165481565b60205473ffffffffffffffffffffffffffffffffffffffff1681565b613fd961524c565b73ffffffffffffffffffffffffffffffffffffffff16613ff76132d4565b73ffffffffffffffffffffffffffffffffffffffff161461407957604080517f08c379a000000000000000000000000000000000000000000000000000000000815260206004820181905260248201527f4f776e61626c653a2063616c6c6572206973206e6f7420746865206f776e6572604482015290519081900360640190fd5b73ffffffffffffffffffffffffffffffffffffffff8216158015906140b3575073ffffffffffffffffffffffffffffffffffffffff811615155b61412057604080517f08c379a0000000000000000000000000000000000000000000000000000000008152602060048083019190915260248201527f5a65726f00000000000000000000000000000000000000000000000000000000604482015290519081900360640190fd5b601a805473ffffffffffffffffffffffffffffffffffffffff9384167fffffffffffffffffffffffff000000000000000000000000000000000000000091821617909155601b8054929093169116179055565b600a5481565b601a5473ffffffffffffffffffffffffffffffffffffffff1633146141ff57604080517f08c379a000000000000000000000000000000000000000000000000000000000815260206004820152600b60248201527f61646d696e3a207775743f000000000000000000000000000000000000000000604482015290519081900360640190fd5b614207612082565b1561427357604080517f08c379a000000000000000000000000000000000000000000000000000000000815260206004820152601060248201527f5061757361626c653a2070617573656400000000000000000000000000000000604482015290519081900360640190fd5b600082815260216020526040902060018101541515806142ad575060026011820154640100000000900460ff1660048111156142ab57fe5b145b61431857604080517f08c379a000000000000000000000000000000000000000000000000000000000815260206004820152600a60248201527f486173206c6f636b656400000000000000000000000000000000000000000000604482015290519081900360640190fd5b806001015443101561438b57604080517f08c379a000000000000000000000000000000000000000000000000000000000815260206004820152600f60248201527f4166746572206c6f636b426c6f636b0000000000000000000000000000000000604482015290519081900360640190fd5b600d54600182015461439c91614c41565b43111561440a57604080517f08c379a000000000000000000000000000000000000000000000000000000000815260206004820152601560248201527f57697468696e20696e74657276616c426c6f636b730000000000000000000000604482015290519081900360640190fd5b60048101541561447b57604080517f08c379a000000000000000000000000000000000000000000000000000000000815260206004820152600860248201527f52657665616c6564000000000000000000000000000000000000000000000000604482015290519081900360640190fd5b600381015460408051602080820186905282518083038201815291830190925280519101201461450c57604080517f08c379a000000000000000000000000000000000000000000000000000000000815260206004820152600c60248201527f4e6f74206d61746368696e670000000000000000000000000000000000000000604482015290519081900360640190fd5b6145168383615250565b61451f836153a9565b505050565b73ffffffffffffffffffffffffffffffffffffffff8116600090815260246020526040812060010154600554610f489190610f429060646149a8565b60085481565b6023602052816000526040600020818154811061457f57fe5b90600052602060002001600091509150505481565b60105481565b601a5473ffffffffffffffffffffffffffffffffffffffff16331461462057604080517f08c379a000000000000000000000000000000000000000000000000000000000815260206004820152600b60248201527f61646d696e3a207775743f000000000000000000000000000000000000000000604482015290519081900360640190fd5b6103e885111561469157604080517f08c379a000000000000000000000000000000000000000000000000000000000815260206004820152600e60248201527f67617052617465206c7420313025000000000000000000000000000000000000604482015290519081900360640190fd5b6127106146a482613d1d85818989614c41565b111561471157604080517f08c379a000000000000000000000000000000000000000000000000000000000815260206004820152600760248201527f7261746553756d00000000000000000000000000000000000000000000000000604482015290519081900360640190fd5b6010859055601184905560128390556013829055601481905560408051868152602081018690528082018590526060810184905260808101839052905143917fa0a5067dd9cfea5c72165b872c9397067fcc460a3e8ad4a887959d64568e9a4d919081900360a00190a25050505050565b60175481565b60075481565b6024602052600090815260409020805460019091015482565b60135481565b6147b561524c565b73ffffffffffffffffffffffffffffffffffffffff166147d36132d4565b73ffffffffffffffffffffffffffffffffffffffff161461485557604080517f08c379a000000000000000000000000000000000000000000000000000000000815260206004820181905260248201527f4f776e61626c653a2063616c6c6572206973206e6f7420746865206f776e6572604482015290519081900360640190fd5b73ffffffffffffffffffffffffffffffffffffffff81166148c1576040517f08c379a0000000000000000000000000000000000000000000000000000000008152600401808060200182810382526026815260200180615f3e6026913960400191505060405180910390fd5b6000805460405173ffffffffffffffffffffffffffffffffffffffff808516939216917f8be0079c531659141344cd1fd0a4f28419497f9722a3daafe3b4186f6b6457e091a3600080547fffffffffffffffffffffffff00000000000000000000000000000000000000001673ffffffffffffffffffffffffffffffffffffffff92909216919091179055565b60155481565b601d5473ffffffffffffffffffffffffffffffffffffffff1681565b601a5473ffffffffffffffffffffffffffffffffffffffff1681565b601e5473ffffffffffffffffffffffffffffffffffffffff1681565b6000826149b757506000610f48565b828202828482816149c457fe5b0414612e58576040517f08c379a0000000000000000000000000000000000000000000000000000000008152600401808060200182810382526021815260200180615f8a6021913960400191505060405180910390fd5b6000808211614a8b57604080517f08c379a000000000000000000000000000000000000000000000000000000000815260206004820152601a60248201527f536166654d6174683a206469766973696f6e206279207a65726f000000000000604482015290519081900360640190fd5b818381614a9457fe5b049392505050565b3b151590565b600082821115614b1357604080517f08c379a000000000000000000000000000000000000000000000000000000000815260206004820152601e60248201527f536166654d6174683a207375627472616374696f6e206f766572666c6f770000604482015290519081900360640190fd5b50900390565b6040805173ffffffffffffffffffffffffffffffffffffffff80861660248301528416604482015260648082018490528251808303909101815260849091019091526020810180517bffffffffffffffffffffffffffffffffffffffffffffffffffffffff167f23b872dd00000000000000000000000000000000000000000000000000000000179052614bae908590615ac2565b50505050565b6040805173ffffffffffffffffffffffffffffffffffffffff8416602482015260448082018490528251808303909101815260649091019091526020810180517bffffffffffffffffffffffffffffffffffffffffffffffffffffffff167fa9059cbb0000000000000000000000000000000000000000000000000000000017905261451f908490615ac2565b600082820183811015612e5857604080517f08c379a000000000000000000000000000000000000000000000000000000000815260206004820152601b60248201527f536166654d6174683a206164646974696f6e206f766572666c6f770000000000604482015290519081900360640190fd5b614cbd612082565b15614d2957604080517f08c379a000000000000000000000000000000000000000000000000000000000815260206004820152601060248201527f5061757361626c653a2070617573656400000000000000000000000000000000604482015290519081900360640190fd5b600280547fffffffffffffffffffffffffffffffffffffffffffffffffffffffffffffff001660011790557f62e78cea01bee320cd4e420270b5ea74000d11b0c9f74754ebdbfc544b05a258614d7d61524c565b6040805173ffffffffffffffffffffffffffffffffffffffff9092168252519081900360200190a1565b614daf612082565b614e1a57604080517f08c379a000000000000000000000000000000000000000000000000000000000815260206004820152601460248201527f5061757361626c653a206e6f7420706175736564000000000000000000000000604482015290519081900360640190fd5b614e37600354610f426004546005546149a890919063ffffffff16565b60058190556040805183815243602082015280820192909252517f95469f147cc262e5fccd74055a3cb233412f6bcf9a302bbc231d02b6b71a488b9181900360600190a150565b60095460009015614f805750600980546000909155601c54601d54614ebd9173ffffffffffffffffffffffffffffffffffffffff918216911683614bb4565b601c54600c54604080517f9f8dbb7b00000000000000000000000000000000000000000000000000000000815260048101929092525173ffffffffffffffffffffffffffffffffffffffff90921691639f8dbb7b9160248082019260009290919082900301818387803b158015614f3357600080fd5b505af1158015614f47573d6000803e3d6000fd5b50506040805184815290517f99bfec7bb1f89aca0e348998b13dc0b1f047b71528153fcabd586d4f7339abf89350908190036020019150a15b600a5415614fbc5750600a80546000909155601a54601d54614fbc9173ffffffffffffffffffffffffffffffffffffffff918216911683614bb4565b600b5415612ff15750600b80546000909155601b54601d54612ff19173ffffffffffffffffffffffffffffffffffffffff918216911683614bb4565b60405160009073ffffffffffffffffffffffffffffffffffffffff8416906159d890849084818181858888f193505050503d8060008114615055576040519150601f19603f3d011682016040523d82523d6000602084013e61505a565b606091505b505090508061451f57604080517f08c379a000000000000000000000000000000000000000000000000000000000815260206004820152601360248201527f424e425f5452414e534645525f4641494c454400000000000000000000000000604482015290519081900360640190fd5b6150d2612082565b61513d57604080517f08c379a000000000000000000000000000000000000000000000000000000000815260206004820152601460248201527f5061757361626c653a206e6f7420706175736564000000000000000000000000604482015290519081900360640190fd5b600280547fffffffffffffffffffffffffffffffffffffffffffffffffffffffffffffff001690557f5db9ee0a495bf2e6ff9c91a7834c1ba4fdd244a5e8aa4e537bd38aeae4b073aa614d7d61524c565b600082815260216020526040902043808255600d546151ad9190614c41565b600182015560038101829055600060058201556016546004546151d79161271091610f42916149a8565b60068201556011810180547fffffffffffffffffffffffffffffffffffffffffffffffffffffff00ffffffff166401000000001790556040805143815260208101849052815185927fb9413afe4aa8b9bd9b95231fb3ce86db2070c997ffaaf2359570376259653cc6928290030190a2505050565b3390565b615258612082565b156152c457604080517f08c379a000000000000000000000000000000000000000000000000000000000815260206004820152601060248201527f5061757361626c653a2070617573656400000000000000000000000000000000604482015290519081900360640190fd5b6000828152602160205260409020436002820155600481018290556010810154821844186006816011840180547fffffffffffffffffffffffffffffffffffffffffffffffffffffffff00000000169290910663ffffffff1691909117808255600391907fffffffffffffffffffffffffffffffffffffffffffffffffffffff00ffffffff166401000000008302179055506011820154604080514381526020810186905263ffffffff909216828201525185917ff12b3b25d193d87bfaff62f011c9f2b3b0631ec2ed1f63fabd3a3066391dbf50919081900360600190a250505050565b6127106153c3601254601154614c4190919063ffffffff16565b111561543057604080517f08c379a000000000000000000000000000000000000000000000000000000000815260206004820152600760248201527f5261746553756d00000000000000000000000000000000000000000000000000604482015290519081900360640190fd5b6000818152602160205260409020600e0154156154ae57604080517f08c379a000000000000000000000000000000000000000000000000000000000815260206004820152601260248201527f526577617264732063616c63756c617465640000000000000000000000000000604482015290519081900360640190fd5b6000818152602160205260408120600454909190819081908190815b60068163ffffffff16101561562257601187015463ffffffff828116911614156155695761553a615533612710610f42615511601054612710614aa290919063ffffffff16565b61171a60058d6007018863ffffffff166006811061552b57fe5b0154906149a8565b8390614aa2565b9150615562612710610f4260105461171a60058c6007018763ffffffff166006811061552b57fe5b92506155b0565b61558a876007018263ffffffff166006811061558157fe5b01548390614c41565b91506155ad612710610f426010548a6007018563ffffffff166006811061552b57fe5b92505b6155cb612710610f42601154866149a890919063ffffffff16565b93506155d78685614c41565b95506155e38285614aa2565b9150615600612710610f42601254866149a890919063ffffffff16565b935061560c8585614c41565b94506156188285614aa2565b91506001016154ca565b50600d8601859055600e86018490556004819055601e54601d5473ffffffffffffffffffffffffffffffffffffffff9081169116141561566857600f8601859055615939565b60205473ffffffffffffffffffffffffffffffffffffffff16156159395760408051600280825260608083018452926020830190803683375050601d54825192935073ffffffffffffffffffffffffffffffffffffffff16918391506000906156cd57fe5b73ffffffffffffffffffffffffffffffffffffffff9283166020918202929092010152601e5482519116908290600190811061570557fe5b602002602001019073ffffffffffffffffffffffffffffffffffffffff16908173ffffffffffffffffffffffffffffffffffffffff16815250506000602060009054906101000a900473ffffffffffffffffffffffffffffffffffffffff1673ffffffffffffffffffffffffffffffffffffffff166338ed173989600d0154600085304261012c016040518663ffffffff1660e01b815260040180868152602001858152602001806020018473ffffffffffffffffffffffffffffffffffffffff168152602001838152602001828103825285818151815260200191508051906020019060200280838360005b8381101561580a5781810151838201526020016157f2565b505050509050019650505050505050600060405180830381600087803b15801561583357600080fd5b505af1158015615847573d6000803e3d6000fd5b505050506040513d6000823e601f3d9081017fffffffffffffffffffffffffffffffffffffffffffffffffffffffffffffffe0168201604052602081101561588e57600080fd5b81019080805160405193929190846401000000008211156158ae57600080fd5b9083019060208201858111156158c357600080fd5b82518660208202830111640100000000821117156158e057600080fd5b82525081516020918201928201910280838360005b8381101561590d5781810151838201526020016158f5565b5050505090500160405250505060018151811061592657fe5b6020908102919091010151600f89015550505b6009546159469085614c41565b6009555050600454600093508392508291508190815b60068163ffffffff161015615a4357601187015463ffffffff828116911614156159ad576159a6612710610f4260105461171a60058c6007018763ffffffff166006811061552b57fe5b92506159d1565b6159ce612710610f426010548a6007018563ffffffff166006811061552b57fe5b92505b6159ec612710610f42601354866149a890919063ffffffff16565b93506159f88685614c41565b9550615a048285614aa2565b9150615a21612710610f42601454866149a890919063ffffffff16565b9350615a2d8585614c41565b9450615a398285614aa2565b915060010161595c565b506004819055600a54615a569086614c41565b600a55600b54615a669085614c41565b600b55505050600d830154600e840154600f85015460408051938452602084019290925282820152518593507f6dfdfcb09c8804d0058826cd2539f1acfbe3cb887c9be03d928035bce0f1a58d92509081900360600190a25050565b6060615b24826040518060400160405280602081526020017f5361666542455032303a206c6f772d6c6576656c2063616c6c206661696c65648152508573ffffffffffffffffffffffffffffffffffffffff16615b9a9092919063ffffffff16565b80519091501561451f57808060200190516020811015615b4357600080fd5b505161451f576040517f08c379a000000000000000000000000000000000000000000000000000000000815260040180806020018281038252602a815260200180615f14602a913960400191505060405180910390fd5b6060615ba98484600085615bb1565b949350505050565b606082471015615c0c576040517f08c379a0000000000000000000000000000000000000000000000000000000008152600401808060200182810382526026815260200180615f646026913960400191505060405180910390fd5b615c1585614a9c565b615c8057604080517f08c379a000000000000000000000000000000000000000000000000000000000815260206004820152601d60248201527f416464726573733a2063616c6c20746f206e6f6e2d636f6e7472616374000000604482015290519081900360640190fd5b600060608673ffffffffffffffffffffffffffffffffffffffff1685876040518082805190602001908083835b60208310615cea57805182527fffffffffffffffffffffffffffffffffffffffffffffffffffffffffffffffe09092019160209182019101615cad565b6001836020036101000a03801982511681845116808217855250505050505090500191505060006040518083038185875af1925050503d8060008114615d4c576040519150601f19603f3d011682016040523d82523d6000602084013e615d51565b606091505b5091509150615d61828286615d6c565b979650505050505050565b60608315615d7b575081612e58565b825115615d8b5782518084602001fd5b816040517f08c379a00000000000000000000000000000000000000000000000000000000081526004018080602001828103825283818151815260200191508051906020019080838360005b83811015615def578181015183820152602001615dd7565b50505050905090810190601f168015615e1c5780820380516001836020036101000a031916815260200191505b509250505060405180910390fd5b6040518060c001604052806006906020820280368337509192915050565b600183019183908215615ecc5791602002820160005b83821115615e9d578335151583826101000a81548160ff0219169083151502179055509260200192600101602081600001049283019260010302615e5e565b8015615eca5782816101000a81549060ff0219169055600101602081600001049283019260010302615e9d565b505b50615ed8929150615edc565b5090565b5b80821115615ed85780547fffffffffffffffffffffffffffffffffffffffffffffffffffffffffffffff00168155600101615edd56fe5361666542455032303a204245503230206f7065726174696f6e20646964206e6f7420737563636565644f776e61626c653a206e6577206f776e657220697320746865207a65726f2061646472657373416464726573733a20696e73756666696369656e742062616c616e636520666f722063616c6c536166654d6174683a206d756c7469706c69636174696f6e206f766572666c6f77a26469706673582212207ebf824b2a5a0e5c3cf72b368231ae651a14f76df6eb51a26ebdb3a4f9439ded64736f6c634300060c0033",
  "immutableReferences": {},
  "source": "// SPDX-License-Identifier: MIT\n\npragma solidity 0.6.12;\n\nimport \"@openzeppelin/contracts/math/SafeMath.sol\";\nimport \"@openzeppelin/contracts/access/Ownable.sol\";\nimport \"@openzeppelin/contracts/utils/Pausable.sol\";\nimport \"@openzeppelin/contracts/utils/ReentrancyGuard.sol\";\nimport \"./DiceToken.sol\";\nimport \"./libs/IBEP20.sol\";\nimport \"./libs/SafeBEP20.sol\";\nimport \"./libs/ILuckyChipRouter02.sol\";\nimport \"./libs/IMasterChef.sol\";\n\ncontract Dice is Ownable, ReentrancyGuard, Pausable {\n    using SafeMath for uint256;\n    using SafeBEP20 for IBEP20;\n\n    uint256 public prevBankerAmount;\n    uint256 public bankerAmount;\n    uint256 public netValue;\n    uint256 public currentEpoch;\n    uint256 public playerEndBlock;\n    uint256 public bankerEndBlock;\n    uint256 public totalBonusAmount;\n    uint256 public totalLotteryAmount;\n    uint256 public totalLcLotteryAmount;\n    uint256 public masterChefBonusId;\n    uint256 public intervalBlocks;\n    uint256 public playerTimeBlocks;\n    uint256 public bankerTimeBlocks;\n    uint256 public constant TOTAL_RATE = 10000; // 100%\n    uint256 public gapRate = 500;\n    uint256 public lcBackRate = 1000; // 10% in gap\n    uint256 public bonusRate = 1000; // 10% in gap\n    uint256 public lotteryRate = 100; // 1% in gap\n    uint256 public lcLotteryRate = 50; // 0.5% in gap\n    uint256 public minBetAmount;\n    uint256 public maxBetRatio = 5;\n    uint256 public maxExposureRatio = 300;\n    uint256 public feeAmount;\n    uint256 public maxBankerAmount;\n\n    address public adminAddress;\n    address public lcAdminAddress;\n    address public masterChefAddress;\n    IBEP20 public token;\n    IBEP20 public lcToken;\n    DiceToken public diceToken;    \n    ILuckyChipRouter02 public swapRouter;\n\n    enum Status {\n        Pending,\n        Open,\n        Lock,\n        Claimable,\n        Expired\n    }\n\n    struct Round {\n        uint256 startBlock;\n        uint256 lockBlock;\n        uint256 secretSentBlock;\n        bytes32 bankHash;\n        uint256 bankSecret;\n        uint256 totalAmount;\n        uint256 maxBetAmount;\n        uint256[6] betAmounts;\n        uint256 lcBackAmount;\n        uint256 bonusAmount;\n        uint256 swapLcAmount;\n        uint256 betUsers;\n        uint32 finalNumber;\n        Status status;\n    }\n\n    struct BetInfo {\n        uint256 amount;\n        uint16 numberCount;    \n        bool[6] numbers;\n        bool claimed; // default false\n        bool lcClaimed; // default false\n    }\n\n    struct BankerInfo {\n        uint256 diceTokenAmount;\n        uint256 avgBuyValue;\n    }\n\n    mapping(uint256 => Round) public rounds;\n    mapping(uint256 => mapping(address => BetInfo)) public ledger;\n    mapping(address => uint256[]) public userRounds;\n    mapping(address => BankerInfo) public bankerInfo;\n\n    event RatesUpdated(uint256 indexed block, uint256 gapRate, uint256 lcBackRate, uint256 bonusRate, uint256 lotteryRate, uint256 lcLotteryRate);\n    event AmountsUpdated(uint256 indexed block, uint256 minBetAmount, uint256 feeAmount, uint256 maxBankerAmount);\n    event RatiosUpdated(uint256 indexed block, uint256 maxBetRatio, uint256 maxExposureRatio);\n    event StartRound(uint256 indexed epoch, uint256 blockNumber, bytes32 bankHash);\n    event LockRound(uint256 indexed epoch, uint256 blockNumber);\n    event SendSecretRound(uint256 indexed epoch, uint256 blockNumber, uint256 bankSecret, uint32 finalNumber);\n    event BetNumber(address indexed sender, uint256 indexed currentEpoch, bool[6] numbers, uint256 amount);\n    event Claim(address indexed sender, uint256 indexed currentEpoch, uint256 amount);\n    event ClaimBonusLC(address indexed sender, uint256 amount);\n    event ClaimBonus(uint256 amount);\n    event RewardsCalculated(uint256 indexed epoch,uint256 lcbackamount,uint256 bonusamount,uint256 swaplcamount);\n    event EndPlayerTime(uint256 epoch, uint256 blockNumber);\n    event EndBankerTime(uint256 epoch, uint256 blockNumber);\n    event UpdateNetValue(uint256 epoch, uint256 blockNumber, uint256 netValue);\n    event Deposit(address indexed user, uint256 tokenAmount);    \n    event Withdraw(address indexed user, uint256 diceTokenAmount);    \n\n    constructor(\n        address _tokenAddress,\n        address _lcTokenAddress,\n        address _diceTokenAddress,\n        address _masterChefAddress,\n        uint256 _masterChefBonusId,\n        uint256 _intervalBlocks,\n        uint256 _playerTimeBlocks,\n        uint256 _bankerTimeBlocks,\n        uint256 _minBetAmount,\n        uint256 _feeAmount,\n        uint256 _maxBankerAmount\n    ) public {\n        token = IBEP20(_tokenAddress);\n        lcToken = IBEP20(_lcTokenAddress);\n        diceToken = DiceToken(_diceTokenAddress);\n        masterChefAddress = _masterChefAddress;\n        masterChefBonusId = _masterChefBonusId;\n        intervalBlocks = _intervalBlocks;\n        playerTimeBlocks = _playerTimeBlocks;\n        bankerTimeBlocks = _bankerTimeBlocks;\n        minBetAmount = _minBetAmount;\n        feeAmount = _feeAmount;\n        maxBankerAmount = _maxBankerAmount;\n        netValue = uint256(1e12);\n        _pause();\n    }\n\n    modifier notContract() {\n        require(!_isContract(msg.sender), \"no contract\");\n        require(msg.sender == tx.origin, \"no proxy\");\n        _;\n    }\n\n    modifier onlyAdmin() {\n        require(msg.sender == adminAddress, \"admin: wut?\");\n        _;\n    }\n\n    // set blocks\n    function setBlocks(uint256 _intervalBlocks, uint256 _playerTimeBlocks, uint256 _bankerTimeBlocks) external onlyAdmin {\n        intervalBlocks = _intervalBlocks;\n        playerTimeBlocks = _playerTimeBlocks;\n        bankerTimeBlocks = _bankerTimeBlocks;\n    }\n\n    // set rates\n    function setRates(uint256 _gapRate, uint256 _lcBackRate, uint256 _bonusRate, uint256 _lotteryRate, uint256 _lcLotteryRate) external onlyAdmin {\n        require(_gapRate <= 1000, \"gapRate lt 10%\");\n        require(_lcBackRate.add(_bonusRate).add(_lotteryRate).add(_lcLotteryRate) <= TOTAL_RATE, \"rateSum\");\n        gapRate = _gapRate;\n        lcBackRate = _lcBackRate;\n        bonusRate = _bonusRate;\n        lotteryRate = _lotteryRate;\n        lcLotteryRate = _lcLotteryRate;\n        emit RatesUpdated(block.number, gapRate, lcBackRate, bonusRate, lotteryRate, lcLotteryRate);\n    }\n\n    // set amounts\n    function setAmounts(uint256 _minBetAmount, uint256 _feeAmount, uint256 _maxBankerAmount) external onlyAdmin {\n        minBetAmount = _minBetAmount;\n        feeAmount = _feeAmount;\n        maxBankerAmount = _maxBankerAmount;\n        emit AmountsUpdated(block.number, minBetAmount, feeAmount, maxBankerAmount);\n    }\n\n    // set ratios\n    function setRatios(uint256 _maxBetRatio, uint256 _maxExposureRatio) external onlyAdmin {\n        maxBetRatio = _maxBetRatio;\n        maxExposureRatio = _maxExposureRatio;\n        emit RatiosUpdated(block.number, maxBetRatio, maxExposureRatio);\n    }\n\n    // set admin address\n    function setAdmin(address _adminAddress, address _lcAdminAddress) external onlyOwner {\n        require(_adminAddress != address(0) && _lcAdminAddress != address(0), \"Zero\");\n        adminAddress = _adminAddress;\n        lcAdminAddress = _lcAdminAddress;\n    }\n\n    // End banker time\n    function endBankerTime(uint256 epoch, bytes32 bankHash) external onlyAdmin whenPaused {\n        require(epoch == currentEpoch + 1, \"Epoch\");\n        require(bankerAmount > 0, \"bankerAmount gt 0\");\n        prevBankerAmount = bankerAmount;\n        _unpause();\n        emit EndBankerTime(currentEpoch, block.number);\n        \n        currentEpoch = currentEpoch + 1;\n        _startRound(currentEpoch, bankHash);\n        playerEndBlock = rounds[currentEpoch].startBlock.add(playerTimeBlocks);\n        bankerEndBlock = rounds[currentEpoch].startBlock.add(bankerTimeBlocks);\n    }\n\n    // Start the next round n, lock for round n-1\n    function executeRound(uint256 epoch, bytes32 bankHash) external onlyAdmin whenNotPaused{\n        require(epoch == currentEpoch, \"Epoch\");\n\n        // CurrentEpoch refers to previous round (n-1)\n        lockRound(currentEpoch);\n\n        // Increment currentEpoch to current round (n)\n        currentEpoch = currentEpoch + 1;\n        _startRound(currentEpoch, bankHash);\n        require(rounds[currentEpoch].startBlock < playerEndBlock, \"startBlock\");\n        require(rounds[currentEpoch].lockBlock <= playerEndBlock, \"lockBlock\");\n    }\n\n    // end player time, triggers banker time\n    function endPlayerTime(uint256 epoch, uint256 bankSecret) external onlyAdmin whenNotPaused{\n        require(epoch == currentEpoch, \"epoch\");\n        sendSecret(epoch, bankSecret);\n        _pause();\n        _updateNetValue(epoch);\n        _claimBonusAndLottery();\n        emit EndPlayerTime(currentEpoch, block.number);\n    }\n\n    // end player time without caring last round\n    function endPlayerTimeImmediately(uint256 epoch) external onlyAdmin whenNotPaused{\n        require(epoch == currentEpoch, \"epoch\");\n        _pause();\n        _updateNetValue(epoch);\n        _claimBonusAndLottery();\n        emit EndPlayerTime(currentEpoch, block.number);\n    }\n\n    // update net value\n    function _updateNetValue(uint256 epoch) internal whenPaused{    \n        netValue = netValue.mul(bankerAmount).div(prevBankerAmount);\n        emit UpdateNetValue(epoch, block.number, netValue);\n    }\n\n    // send bankSecret\n    function sendSecret(uint256 epoch, uint256 bankSecret) public onlyAdmin whenNotPaused{\n        Round storage round = rounds[epoch];\n        require(round.lockBlock != 0 || round.status == Status.Lock, \"Has locked\");\n        require(block.number >= round.lockBlock, \"After lockBlock\");\n        require(block.number <= round.lockBlock.add(intervalBlocks), \"Within intervalBlocks\");\n        require(round.bankSecret == 0, \"Revealed\");\n        require(keccak256(abi.encodePacked(bankSecret)) == round.bankHash, \"Not matching\");\n\n        _safeSendSecret(epoch, bankSecret);\n        _calculateRewards(epoch);\n    }\n\n    function _safeSendSecret(uint256 epoch, uint256 bankSecret) internal whenNotPaused {\n        Round storage round = rounds[epoch];\n        round.secretSentBlock = block.number;\n        round.bankSecret = bankSecret;\n        uint256 random = round.bankSecret ^ round.betUsers ^ block.difficulty;\n        round.finalNumber = uint32(random % 6);\n        round.status = Status.Claimable;\n\n        emit SendSecretRound(epoch, block.number, bankSecret, round.finalNumber);\n    }\n\n    // bet number\n    function betNumber(bool[6] calldata numbers, uint256 amount) external payable whenNotPaused notContract nonReentrant {\n        Round storage round = rounds[currentEpoch];\n        require(msg.value >= feeAmount, \"FeeAmount\");\n        require(round.status == Status.Open, \"Not Open\");\n        require(block.number > round.startBlock && block.number < round.lockBlock, \"Not bettable\");\n        require(ledger[currentEpoch][msg.sender].amount == 0, \"Bet once\");\n        uint16 numberCount = 0;\n        uint256 maxSingleBetAmount = 0;\n        for (uint32 i = 0; i < 6; i ++) {\n            if (numbers[i]) {\n                numberCount = numberCount + 1;    \n                if(round.betAmounts[i] > maxSingleBetAmount){\n                    maxSingleBetAmount = round.betAmounts[i];\n                }\n            }\n        }\n        require(numberCount > 0, \"numberCount > 0\");\n        require(amount >= minBetAmount.mul(uint256(numberCount)), \"minBetAmount limit\");\n        require(amount <= round.maxBetAmount.mul(uint256(numberCount)), \"maxBetAmount limit\");\n        if(numberCount == 1){\n            require(maxSingleBetAmount.add(amount).sub(round.totalAmount.sub(maxSingleBetAmount)) < bankerAmount.mul(maxExposureRatio).div(TOTAL_RATE), 'MaxExposure Limit');\n        }\n        \n        if (feeAmount > 0){\n            _safeTransferBNB(adminAddress, feeAmount);\n        }\n\n        token.safeTransferFrom(address(msg.sender), address(this), amount);\n\n        // Update round data\n        round.totalAmount = round.totalAmount.add(amount);\n        round.betUsers = round.betUsers.add(1);\n        uint256 betAmount = amount.div(uint256(numberCount));\n        for (uint32 i = 0; i < 6; i ++) {\n            if (numbers[i]) {\n                round.betAmounts[i] = round.betAmounts[i].add(betAmount);\n            }\n        }\n\n        // Update user data\n        BetInfo storage betInfo = ledger[currentEpoch][msg.sender];\n        betInfo.numbers = numbers;\n        betInfo.amount = amount;\n        betInfo.numberCount = numberCount;\n        userRounds[msg.sender].push(currentEpoch);\n\n        emit BetNumber(msg.sender, currentEpoch, numbers, amount);\n    }\n\n\n    // Claim reward\n    function claim(uint256 epoch) external notContract nonReentrant {\n        require(rounds[epoch].startBlock != 0, \"Not started\");\n        require(block.number > rounds[epoch].lockBlock, \"Not locked\");\n        require(!ledger[epoch][msg.sender].claimed, \"Rewards claimed\");\n\n        uint256 reward;\n        BetInfo storage betInfo = ledger[epoch][msg.sender];\n        // Round valid, claim rewards\n        if (rounds[epoch].status == Status.Claimable) {\n            require(claimable(epoch, msg.sender), \"Not claimable\");\n            uint256 singleAmount = betInfo.amount.div(uint256(betInfo.numberCount));\n            reward = singleAmount.mul(5).mul(TOTAL_RATE.sub(gapRate)).div(TOTAL_RATE);\n            reward = reward.add(singleAmount);\n        }\n        // Round invalid, refund bet amount\n        else {\n            require(refundable(epoch, msg.sender), \"Not refundable\");\n            reward = ledger[epoch][msg.sender].amount;\n        }\n\n        betInfo.claimed = true;\n        token.safeTransfer(msg.sender, reward);\n\n        emit Claim(msg.sender, epoch, reward);\n    }\n\n    // Claim lc back\n    function claimLcBack(address user) external notContract nonReentrant {\n        (uint256 lcAmount, uint256 startIndex, uint256 endIndex) = pendingLcBack(user);\n\n        if (lcAmount > 0){\n            uint256 epoch;\n            for(uint256 i = startIndex; i < endIndex; i ++){\n                epoch = userRounds[user][i];\n                ledger[epoch][user].lcClaimed = true;\n            }\n\n            lcToken.safeTransfer(user, lcAmount);\n        }\n        emit ClaimBonusLC(user, lcAmount);\n    }\n\n    // View pending lc back\n    function pendingLcBack(address user) public view returns (uint256 lcAmount, uint256 startIndex, uint256 endIndex) {\n        uint256 epoch;\n        uint256 roundLcAmount = 0;\n        lcAmount = 0;\n        startIndex = 0;\n        endIndex = userRounds[user].length;\n        for (uint256 i = userRounds[user].length - 1; i >= 0; i --){\n            epoch = userRounds[user][i];\n            BetInfo storage betInfo = ledger[epoch][msg.sender];\n            if (betInfo.lcClaimed){\n                startIndex = i.add(1);\n                break;\n            }else{\n                Round storage round = rounds[epoch];\n                if (round.status == Status.Claimable){\n                    if (betInfo.numbers[round.finalNumber]){\n                        roundLcAmount = betInfo.amount.div(uint256(betInfo.numberCount)).mul(5).mul(gapRate).div(TOTAL_RATE).mul(lcBackRate).div(TOTAL_RATE);\n                        if (betInfo.numberCount > 1){\n                            roundLcAmount = roundLcAmount.add(betInfo.amount.div(uint256(betInfo.numberCount)).mul(uint256(betInfo.numberCount - 1)).mul(gapRate).div(TOTAL_RATE).mul(lcBackRate).div(TOTAL_RATE));\n                        }\n                    }else{\n                        roundLcAmount = betInfo.amount.mul(gapRate).div(TOTAL_RATE).mul(lcBackRate).div(TOTAL_RATE);\n                    }\n\n                    roundLcAmount = roundLcAmount.mul(round.swapLcAmount).div(round.lcBackAmount);\n                    lcAmount = lcAmount.add(roundLcAmount);\n                }\n            }\n        }\n    }\n\n    // Claim all bonus to masterChef\n    function _claimBonusAndLottery() internal {\n        uint256 tmpAmount = 0;\n        if(totalBonusAmount > 0){\n            tmpAmount = totalBonusAmount;\n            totalBonusAmount = 0;\n            token.safeTransfer(masterChefAddress, tmpAmount);\n            IMasterChef(masterChefAddress).updateBonus(masterChefBonusId);\n            emit ClaimBonus(tmpAmount);\n        } \n        if(totalLotteryAmount > 0){\n            tmpAmount = totalLotteryAmount;\n            totalLotteryAmount = 0;\n            token.safeTransfer(adminAddress, tmpAmount);\n        }\n        if(totalLcLotteryAmount > 0){\n            tmpAmount = totalLcLotteryAmount;\n            totalLcLotteryAmount = 0;\n            token.safeTransfer(lcAdminAddress, tmpAmount);\n        }\n    }\n\n    // Return round epochs that a user has participated\n    function getUserRounds(\n        address user,\n        uint256 cursor,\n        uint256 size\n    ) external view returns (uint256[] memory, uint256) {\n        uint256 length = size;\n        if (length > userRounds[user].length - cursor) {\n            length = userRounds[user].length - cursor;\n        }\n\n        uint256[] memory values = new uint256[](length);\n        for (uint256 i = 0; i < length; i++) {\n            values[i] = userRounds[user][cursor.add(i)];\n        }\n\n        return (values, cursor.add(length));\n    }\n\n    function getUserNumbers(uint256 epoch, address user) external view returns (bool[6] memory){\n        return ledger[epoch][user].numbers;\n    }\n\n    // Get the claimable stats of specific epoch and user account\n    function claimable(uint256 epoch, address user) public view returns (bool) {\n        return (rounds[epoch].status == Status.Claimable) && (ledger[epoch][user].numbers[rounds[epoch].finalNumber]);\n    }\n\n    // Get the refundable stats of specific epoch and user account\n    function refundable(uint256 epoch, address user) public view returns (bool) {\n        return (rounds[epoch].status != Status.Claimable) && block.number > rounds[epoch].lockBlock.add(intervalBlocks) && ledger[epoch][user].amount != 0;\n    }\n\n    // Manual Start round. Previous round n-1 must lock\n    function manualStartRound(bytes32 bankHash) external onlyAdmin whenNotPaused {\n        require(block.number >= rounds[currentEpoch].lockBlock, \"Manual start\");\n        currentEpoch = currentEpoch + 1;\n        _startRound(currentEpoch, bankHash);\n    }\n\n    function _startRound(uint256 epoch, bytes32 bankHash) internal {\n        Round storage round = rounds[epoch];\n        round.startBlock = block.number;\n        round.lockBlock = block.number.add(intervalBlocks);\n        round.bankHash = bankHash;\n        round.totalAmount = 0;\n        round.maxBetAmount = bankerAmount.mul(maxBetRatio).div(TOTAL_RATE);\n        round.status = Status.Open;\n\n        emit StartRound(epoch, block.number, bankHash);\n    }\n\n    // Lock round\n    function lockRound(uint256 epoch) public whenNotPaused {\n        Round storage round = rounds[epoch];\n        require(round.startBlock != 0, \"Has started\");\n        require(block.number >= round.lockBlock, \"After lockBlock\");\n        require(block.number <= round.lockBlock.add(intervalBlocks), \"Within intervalBlocks\");\n        round.status = Status.Lock;\n        emit LockRound(epoch, block.number);\n    }\n\n    // Calculate rewards for round\n    function _calculateRewards(uint256 epoch) internal {\n        require(lcBackRate.add(bonusRate) <= TOTAL_RATE, \"RateSum\");\n        require(rounds[epoch].bonusAmount == 0, \"Rewards calculated\");\n        Round storage round = rounds[epoch];\n\n        { // avoid stack too deep\n            uint256 lcBackAmount = 0;\n            uint256 bonusAmount = 0;\n            uint256 tmpAmount = 0;\n            uint256 gapAmount = 0;\n            uint256 tmpBankerAmount = bankerAmount;\n            for (uint32 i = 0; i < 6; i ++){\n                if (i == round.finalNumber){\n                    tmpBankerAmount = tmpBankerAmount.sub(round.betAmounts[i].mul(5).mul(TOTAL_RATE.sub(gapRate)).div(TOTAL_RATE));\n                    gapAmount = gapAmount = round.betAmounts[i].mul(5).mul(gapRate).div(TOTAL_RATE);\n                }else{\n                    tmpBankerAmount = tmpBankerAmount.add(round.betAmounts[i]);\n                    gapAmount = round.betAmounts[i].mul(gapRate).div(TOTAL_RATE);\n                }\n                tmpAmount = gapAmount.mul(lcBackRate).div(TOTAL_RATE);\n                lcBackAmount = lcBackAmount.add(tmpAmount);\n                tmpBankerAmount = tmpBankerAmount.sub(tmpAmount);\n\n                tmpAmount = gapAmount.mul(bonusRate).div(TOTAL_RATE);\n                bonusAmount = bonusAmount.add(tmpAmount);\n                tmpBankerAmount = tmpBankerAmount.sub(tmpAmount); \n            }\n            round.lcBackAmount = lcBackAmount;\n            round.bonusAmount = bonusAmount;\n            bankerAmount = tmpBankerAmount;\n    \n            if(address(token) == address(lcToken)){\n                round.swapLcAmount = lcBackAmount;\n            }else if(address(swapRouter) != address(0)){\n                address[] memory path = new address[](2);\n                path[0] = address(token);\n                path[1] = address(lcToken);\n                uint256 lcAmout = swapRouter.swapExactTokensForTokens(round.lcBackAmount, 0, path, address(this), block.timestamp + (5 minutes))[1];\n                round.swapLcAmount = lcAmout;\n            }\n            totalBonusAmount = totalBonusAmount.add(bonusAmount);\n        }\n\n        { // avoid stack too deep\n            uint256 lotteryAmount = 0;\n            uint256 lcLotteryAmount = 0;\n            uint256 tmpAmount = 0;\n            uint256 gapAmount = 0;\n            uint256 tmpBankerAmount = bankerAmount;\n            for (uint32 i = 0; i < 6; i ++){\n                if (i == round.finalNumber){\n                    gapAmount = gapAmount = round.betAmounts[i].mul(5).mul(gapRate).div(TOTAL_RATE);\n                }else{\n                    gapAmount = round.betAmounts[i].mul(gapRate).div(TOTAL_RATE);\n                }\n                tmpAmount = gapAmount.mul(lotteryRate).div(TOTAL_RATE);\n                lotteryAmount = lotteryAmount.add(tmpAmount);\n                tmpBankerAmount = tmpBankerAmount.sub(tmpAmount);\n\n                tmpAmount = gapAmount.mul(lcLotteryRate).div(TOTAL_RATE);\n                lcLotteryAmount = lcLotteryAmount.add(tmpAmount);\n                tmpBankerAmount = tmpBankerAmount.sub(tmpAmount); \n            }\n            bankerAmount = tmpBankerAmount;\n    \n            totalLotteryAmount = totalLotteryAmount.add(lotteryAmount);\n            totalLcLotteryAmount = totalLcLotteryAmount.add(lcLotteryAmount);\n        }\n\n        emit RewardsCalculated(epoch, round.lcBackAmount, round.bonusAmount, round.swapLcAmount);\n    }\n\n\n    // Deposit token to Dice as a banker, get Syrup back.\n    function deposit(uint256 _tokenAmount) public whenPaused nonReentrant notContract {\n        require(_tokenAmount > 0, \"Amount > 0\");\n        require(bankerAmount.add(_tokenAmount) < maxBankerAmount, 'maxBankerAmount Limit');\n        BankerInfo storage banker = bankerInfo[msg.sender];\n        token.safeTransferFrom(address(msg.sender), address(this), _tokenAmount);\n        uint256 diceTokenAmount = _tokenAmount.mul(1e12).div(netValue);\n        diceToken.mint(address(msg.sender), diceTokenAmount);\n        uint256 totalDiceTokenAmount = banker.diceTokenAmount.add(diceTokenAmount);\n        banker.avgBuyValue = banker.avgBuyValue.mul(banker.diceTokenAmount).div(1e12).add(_tokenAmount).mul(1e12).div(totalDiceTokenAmount);\n        banker.diceTokenAmount = totalDiceTokenAmount;\n        bankerAmount = bankerAmount.add(_tokenAmount);\n        emit Deposit(msg.sender, _tokenAmount);    \n    }\n\n    // Withdraw syrup from dice to get token back\n    function withdraw(uint256 _diceTokenAmount) public whenPaused nonReentrant notContract {\n        require(_diceTokenAmount > 0, \"diceTokenAmount > 0\");\n        BankerInfo storage banker = bankerInfo[msg.sender];\n        banker.diceTokenAmount = banker.diceTokenAmount.sub(_diceTokenAmount); \n        SafeBEP20.safeTransferFrom(diceToken, msg.sender, address(diceToken), _diceTokenAmount);\n        diceToken.burn(address(diceToken), _diceTokenAmount);\n        uint256 tokenAmount = _diceTokenAmount.mul(netValue).div(1e12);\n        bankerAmount = bankerAmount.sub(tokenAmount);\n        token.safeTransfer(address(msg.sender), tokenAmount);\n\n        emit Withdraw(msg.sender, _diceTokenAmount);\n    }\n\n    // View function to see banker diceToken Value on frontend.\n    function canWithdrawToken(address bankerAddress) external view returns (uint256){\n        return bankerInfo[bankerAddress].diceTokenAmount.mul(netValue).div(1e12);    \n    }\n\n    // View function to see banker diceToken Value on frontend.\n    function calProfitRate(address bankerAddress) external view returns (uint256){\n        return netValue.mul(100).div(bankerInfo[bankerAddress].avgBuyValue);    \n    }\n\n    // Judge address is contract or not\n    function _isContract(address addr) internal view returns (bool) {\n        uint256 size;\n        assembly {\n            size := extcodesize(addr)\n        }\n        return size > 0;\n    }\n\n    // Update the swap router.\n    function updateSwapRouter(address _router) external onlyAdmin {\n        require(_router != address(0), \"Zero\");\n        swapRouter = ILuckyChipRouter02(_router);\n    }\n\n    function _safeTransferBNB(address to, uint256 value) internal {\n        (bool success, ) = to.call{gas: 23000, value: value}(\"\");\n        require(success, 'BNB_TRANSFER_FAILED');\n    }\n}\n\n",
  "sourcePath": "/home/ubuntu/defi/luckychip/dice/contracts/Dice.sol",
  "compiler": {
    "name": "solc",
    "version": "0.6.12+commit.27d51765.Emscripten.clang"
  },
  "schemaVersion": "3.4.1",
  "updatedAt": "2021-08-24T16:04:43.215Z",
  "networkType": "ethereum",
  "devdoc": {
    "kind": "dev",
    "methods": {
      "owner()": {
        "details": "Returns the address of the current owner."
      },
      "paused()": {
        "details": "Returns true if the contract is paused, and false otherwise."
      },
      "renounceOwnership()": {
        "details": "Leaves the contract without owner. It will not be possible to call `onlyOwner` functions anymore. Can only be called by the current owner. NOTE: Renouncing ownership will leave the contract without an owner, thereby removing any functionality that is only available to the owner."
      },
      "transferOwnership(address)": {
        "details": "Transfers ownership of the contract to a new account (`newOwner`). Can only be called by the current owner."
      }
    },
    "version": 1
  },
  "userdoc": {
    "kind": "user",
    "methods": {},
    "version": 1
  }
}