{
  "contractName": "DiceLimit",
  "abi": [
    {
      "inputs": [],
      "stateMutability": "nonpayable",
      "type": "constructor"
    },
    {
      "anonymous": false,
      "inputs": [
        {
          "indexed": true,
          "internalType": "uint256",
          "name": "block",
          "type": "uint256"
        },
        {
          "indexed": false,
          "internalType": "uint256",
          "name": "feeAmount",
          "type": "uint256"
        }
      ],
      "name": "FeeAmountUpdated",
      "type": "event"
    },
    {
      "anonymous": false,
      "inputs": [
        {
          "indexed": true,
          "internalType": "uint256",
          "name": "block",
          "type": "uint256"
        },
        {
          "indexed": false,
          "internalType": "uint256",
          "name": "maxBetRatio",
          "type": "uint256"
        }
      ],
      "name": "MaxBetRatioUpdated",
      "type": "event"
    },
    {
      "anonymous": false,
      "inputs": [
        {
          "indexed": true,
          "internalType": "uint256",
          "name": "block",
          "type": "uint256"
        },
        {
          "indexed": false,
          "internalType": "uint256",
          "name": "minBetAmount",
          "type": "uint256"
        }
      ],
      "name": "MinBetAmountUpdated",
      "type": "event"
    },
    {
      "anonymous": false,
      "inputs": [
        {
          "indexed": true,
          "internalType": "address",
          "name": "previousOwner",
          "type": "address"
        },
        {
          "indexed": true,
          "internalType": "address",
          "name": "newOwner",
          "type": "address"
        }
      ],
      "name": "OwnershipTransferred",
      "type": "event"
    },
    {
      "anonymous": false,
      "inputs": [
        {
          "indexed": true,
          "internalType": "uint256",
          "name": "block",
          "type": "uint256"
        },
        {
          "indexed": false,
          "internalType": "uint256",
          "name": "gapRate",
          "type": "uint256"
        },
        {
          "indexed": false,
          "internalType": "uint256",
          "name": "lcBackRate",
          "type": "uint256"
        },
        {
          "indexed": false,
          "internalType": "uint256",
          "name": "bonusRate",
          "type": "uint256"
        }
      ],
      "name": "RatesUpdated",
      "type": "event"
    },
    {
      "inputs": [],
      "name": "TOTAL_RATE",
      "outputs": [
        {
          "internalType": "uint256",
          "name": "",
          "type": "uint256"
        }
      ],
      "stateMutability": "view",
      "type": "function"
    },
    {
      "inputs": [],
      "name": "adminAddress",
      "outputs": [
        {
          "internalType": "address",
          "name": "",
          "type": "address"
        }
      ],
      "stateMutability": "view",
      "type": "function"
    },
    {
      "inputs": [],
      "name": "bankerTimeBlocks",
      "outputs": [
        {
          "internalType": "uint256",
          "name": "",
          "type": "uint256"
        }
      ],
      "stateMutability": "view",
      "type": "function"
    },
    {
      "inputs": [],
      "name": "bonusRate",
      "outputs": [
        {
          "internalType": "uint256",
          "name": "",
          "type": "uint256"
        }
      ],
      "stateMutability": "view",
      "type": "function"
    },
    {
      "inputs": [],
      "name": "feeAmount",
      "outputs": [
        {
          "internalType": "uint256",
          "name": "",
          "type": "uint256"
        }
      ],
      "stateMutability": "view",
      "type": "function"
    },
    {
      "inputs": [],
      "name": "gapRate",
      "outputs": [
        {
          "internalType": "uint256",
          "name": "",
          "type": "uint256"
        }
      ],
      "stateMutability": "view",
      "type": "function"
    },
    {
      "inputs": [],
      "name": "intervalBlocks",
      "outputs": [
        {
          "internalType": "uint256",
          "name": "",
          "type": "uint256"
        }
      ],
      "stateMutability": "view",
      "type": "function"
    },
    {
      "inputs": [],
      "name": "lcBackRate",
      "outputs": [
        {
          "internalType": "uint256",
          "name": "",
          "type": "uint256"
        }
      ],
      "stateMutability": "view",
      "type": "function"
    },
    {
      "inputs": [],
      "name": "maxBankerAmount",
      "outputs": [
        {
          "internalType": "uint256",
          "name": "",
          "type": "uint256"
        }
      ],
      "stateMutability": "view",
      "type": "function"
    },
    {
      "inputs": [],
      "name": "maxBetRatio",
      "outputs": [
        {
          "internalType": "uint256",
          "name": "",
          "type": "uint256"
        }
      ],
      "stateMutability": "view",
      "type": "function"
    },
    {
      "inputs": [],
      "name": "minBetAmount",
      "outputs": [
        {
          "internalType": "uint256",
          "name": "",
          "type": "uint256"
        }
      ],
      "stateMutability": "view",
      "type": "function"
    },
    {
      "inputs": [],
      "name": "owner",
      "outputs": [
        {
          "internalType": "address",
          "name": "",
          "type": "address"
        }
      ],
      "stateMutability": "view",
      "type": "function"
    },
    {
      "inputs": [],
      "name": "playerTimeBlocks",
      "outputs": [
        {
          "internalType": "uint256",
          "name": "",
          "type": "uint256"
        }
      ],
      "stateMutability": "view",
      "type": "function"
    },
    {
      "inputs": [],
      "name": "renounceOwnership",
      "outputs": [],
      "stateMutability": "nonpayable",
      "type": "function"
    },
    {
      "inputs": [
        {
          "internalType": "address",
          "name": "newOwner",
          "type": "address"
        }
      ],
      "name": "transferOwnership",
      "outputs": [],
      "stateMutability": "nonpayable",
      "type": "function"
    },
    {
      "inputs": [
        {
          "internalType": "uint256",
          "name": "_intervalBlocks",
          "type": "uint256"
        },
        {
          "internalType": "uint256",
          "name": "_playerTimeBlocks",
          "type": "uint256"
        },
        {
          "internalType": "uint256",
          "name": "_bankerTimeBlocks",
          "type": "uint256"
        }
      ],
      "name": "setBlocks",
      "outputs": [],
      "stateMutability": "nonpayable",
      "type": "function"
    },
    {
      "inputs": [
        {
          "internalType": "uint256",
          "name": "_gapRate",
          "type": "uint256"
        },
        {
          "internalType": "uint256",
          "name": "_lcBackRate",
          "type": "uint256"
        },
        {
          "internalType": "uint256",
          "name": "_bonusRate",
          "type": "uint256"
        }
      ],
      "name": "setRates",
      "outputs": [],
      "stateMutability": "nonpayable",
      "type": "function"
    },
    {
      "inputs": [
        {
          "internalType": "uint256",
          "name": "_minBetAmount",
          "type": "uint256"
        }
      ],
      "name": "setMinBetAmount",
      "outputs": [],
      "stateMutability": "nonpayable",
      "type": "function"
    },
    {
      "inputs": [
        {
          "internalType": "uint256",
          "name": "_maxBetRatio",
          "type": "uint256"
        }
      ],
      "name": "setMaxBetRatio",
      "outputs": [],
      "stateMutability": "nonpayable",
      "type": "function"
    },
    {
      "inputs": [
        {
          "internalType": "uint256",
          "name": "_feeAmount",
          "type": "uint256"
        }
      ],
      "name": "setFeeAmount",
      "outputs": [],
      "stateMutability": "nonpayable",
      "type": "function"
    },
    {
      "inputs": [
        {
          "internalType": "address",
          "name": "_adminAddress",
          "type": "address"
        }
      ],
      "name": "setAdmin",
      "outputs": [],
      "stateMutability": "nonpayable",
      "type": "function"
    }
  ],
  "bytecode": "0x60806040526101f46004556103e86005556103e8600655600560085534801561002757600080fd5b506000610032610081565b600080546001600160a01b0319166001600160a01b0383169081178255604051929350917f8be0079c531659141344cd1fd0a4f28419497f9722a3daafe3b4186f6b6457e0908290a350610085565b3390565b610d6e806100946000396000f3fe608060405234801561001057600080fd5b50600436106101775760003560e01c8063704b6c02116100d8578063c17bcdee1161008c578063f2fde38b11610066578063f2fde38b146102f5578063fa968eea14610328578063fc6f94681461033057610177565b8063c17bcdee146102bc578063d004f38b146102c4578063e13b7870146102ed57610177565b80638da5cb5b116100bd5780638da5cb5b1461027b578063b29c299b146102ac578063b78ae011146102b457610177565b8063704b6c0214610240578063715018a61461027357610177565b80635699d0d71161012f57806369e154041161011457806369e15404146101fe5780636b392680146102065780636c1885931461022357610177565b80635699d0d7146101ee5780635af123f4146101f657610177565b806339295fb51161016057806339295fb51461019e5780633fcceacc146101c957806341b6d554146101d157610177565b8063094a0e5f1461017c5780631ec9f34b14610196575b600080fd5b610184610338565b60408051918252519081900360200190f35b61018461033e565b6101c7600480360360608110156101b457600080fd5b5080359060208101359060400135610344565b005b6101846103d8565b6101c7600480360360208110156101e757600080fd5b50356103de565b6101846104a2565b6101846104a8565b6101846104ae565b6101c76004803603602081101561021c57600080fd5b50356104b4565b6101c76004803603602081101561023957600080fd5b5035610578565b6101c76004803603602081101561025657600080fd5b503573ffffffffffffffffffffffffffffffffffffffff1661063c565b6101c76107ad565b6102836108c4565b6040805173ffffffffffffffffffffffffffffffffffffffff9092168252519081900360200190f35b6101846108e0565b6101846108e6565b6101846108ec565b6101c7600480360360608110156102da57600080fd5b50803590602081013590604001356108f2565b610184610aa4565b6101c76004803603602081101561030b57600080fd5b503573ffffffffffffffffffffffffffffffffffffffff16610aaa565b610184610c4b565b610283610c51565b60035481565b60015481565b600b5473ffffffffffffffffffffffffffffffffffffffff1633146103ca57604080517f08c379a000000000000000000000000000000000000000000000000000000000815260206004820152600b60248201527f61646d696e3a207775743f000000000000000000000000000000000000000000604482015290519081900360640190fd5b600192909255600255600355565b60025481565b600b5473ffffffffffffffffffffffffffffffffffffffff16331461046457604080517f08c379a000000000000000000000000000000000000000000000000000000000815260206004820152600b60248201527f61646d696e3a207775743f000000000000000000000000000000000000000000604482015290519081900360640190fd5b600881905560408051828152905143917fe9dbf362c3f800f55b82e4fffe8e3cc02fb845bf408ff033a811b35ff447a5b5919081900360200190a250565b600a5481565b60065481565b60095481565b600b5473ffffffffffffffffffffffffffffffffffffffff16331461053a57604080517f08c379a000000000000000000000000000000000000000000000000000000000815260206004820152600b60248201527f61646d696e3a207775743f000000000000000000000000000000000000000000604482015290519081900360640190fd5b600981905560408051828152905143917fb6600428041f36ab218d984115a85adc1ffb17cb85a81801032cb590a8a8bc99919081900360200190a250565b600b5473ffffffffffffffffffffffffffffffffffffffff1633146105fe57604080517f08c379a000000000000000000000000000000000000000000000000000000000815260206004820152600b60248201527f61646d696e3a207775743f000000000000000000000000000000000000000000604482015290519081900360640190fd5b600781905560408051828152905143917f82480e97991520549ac4b5d0e1d97edb3bfac2666202923b6903d2a953dc7608919081900360200190a250565b610644610c6d565b73ffffffffffffffffffffffffffffffffffffffff166106626108c4565b73ffffffffffffffffffffffffffffffffffffffff16146106e457604080517f08c379a000000000000000000000000000000000000000000000000000000000815260206004820181905260248201527f4f776e61626c653a2063616c6c6572206973206e6f7420746865206f776e6572604482015290519081900360640190fd5b73ffffffffffffffffffffffffffffffffffffffff811661076657604080517f08c379a000000000000000000000000000000000000000000000000000000000815260206004820152601660248201527f43616e6e6f74206265207a65726f206164647265737300000000000000000000604482015290519081900360640190fd5b600b80547fffffffffffffffffffffffff00000000000000000000000000000000000000001673ffffffffffffffffffffffffffffffffffffffff92909216919091179055565b6107b5610c6d565b73ffffffffffffffffffffffffffffffffffffffff166107d36108c4565b73ffffffffffffffffffffffffffffffffffffffff161461085557604080517f08c379a000000000000000000000000000000000000000000000000000000000815260206004820181905260248201527f4f776e61626c653a2063616c6c6572206973206e6f7420746865206f776e6572604482015290519081900360640190fd5b6000805460405173ffffffffffffffffffffffffffffffffffffffff909116907f8be0079c531659141344cd1fd0a4f28419497f9722a3daafe3b4186f6b6457e0908390a3600080547fffffffffffffffffffffffff0000000000000000000000000000000000000000169055565b60005473ffffffffffffffffffffffffffffffffffffffff1690565b61271081565b60055481565b60085481565b600b5473ffffffffffffffffffffffffffffffffffffffff16331461097857604080517f08c379a000000000000000000000000000000000000000000000000000000000815260206004820152600b60248201527f61646d696e3a207775743f000000000000000000000000000000000000000000604482015290519081900360640190fd5b6103e88311156109e957604080517f08c379a000000000000000000000000000000000000000000000000000000000815260206004820152600e60248201527f67617052617465203c3d20313025000000000000000000000000000000000000604482015290519081900360640190fd5b6127106109f68383610c71565b1115610a4d576040517f08c379a0000000000000000000000000000000000000000000000000000000008152600401808060200182810382526026815260200180610ced6026913960400191505060405180910390fd5b6004839055600582905560068190556040805184815260208101849052808201839052905143917f83ee137d4eea1eef0029a0cb811df31b555f216d3a45c791729e226eb145a7d5919081900360600190a2505050565b60045481565b610ab2610c6d565b73ffffffffffffffffffffffffffffffffffffffff16610ad06108c4565b73ffffffffffffffffffffffffffffffffffffffff1614610b5257604080517f08c379a000000000000000000000000000000000000000000000000000000000815260206004820181905260248201527f4f776e61626c653a2063616c6c6572206973206e6f7420746865206f776e6572604482015290519081900360640190fd5b73ffffffffffffffffffffffffffffffffffffffff8116610bbe576040517f08c379a0000000000000000000000000000000000000000000000000000000008152600401808060200182810382526026815260200180610d136026913960400191505060405180910390fd5b6000805460405173ffffffffffffffffffffffffffffffffffffffff808516939216917f8be0079c531659141344cd1fd0a4f28419497f9722a3daafe3b4186f6b6457e091a3600080547fffffffffffffffffffffffff00000000000000000000000000000000000000001673ffffffffffffffffffffffffffffffffffffffff92909216919091179055565b60075481565b600b5473ffffffffffffffffffffffffffffffffffffffff1681565b3390565b600082820183811015610ce557604080517f08c379a000000000000000000000000000000000000000000000000000000000815260206004820152601b60248201527f536166654d6174683a206164646974696f6e206f766572666c6f770000000000604482015290519081900360640190fd5b939250505056fe5f6c634261636b52617465202b205f626f6e757352617465203c3d20544f54414c5f524154454f776e61626c653a206e6577206f776e657220697320746865207a65726f2061646472657373a26469706673582212204c88a0e93216587dc156b60d42e792e715aec98121b8851518bfdf2cec0e3db764736f6c634300060c0033",
  "immutableReferences": {},
  "source": "// SPDX-License-Identifier: MIT\r\n\r\npragma solidity 0.6.12;\r\n\r\nimport \"@openzeppelin/contracts/access/Ownable.sol\";\r\nimport \"@openzeppelin/contracts/math/SafeMath.sol\";\r\nimport \"@openzeppelin/contracts/utils/Address.sol\";\r\n\r\n// Dice Limit\r\ncontract DiceLimit is Ownable {\r\n    using SafeMath for uint256;\r\n    using Address for address;\r\n\r\n    uint256 public intervalBlocks;\r\n    uint256 public playerTimeBlocks;\r\n    uint256 public bankerTimeBlocks;\r\n    uint256 public constant TOTAL_RATE = 10000; // 100%\r\n    uint256 public gapRate = 500;\r\n    uint256 public lcBackRate = 1000; // 10% in gap\r\n    uint256 public bonusRate = 1000; // 10% in gap\r\n    uint256 public minBetAmount;\r\n    uint256 public maxBetRatio = 5;\r\n    uint256 public feeAmount;\r\n    uint256 public maxBankerAmount;\r\n    address public adminAddress;\r\n\r\n    event RatesUpdated(uint256 indexed block, uint256 gapRate, uint256 lcBackRate, uint256 bonusRate);\r\n    event MinBetAmountUpdated(uint256 indexed block, uint256 minBetAmount);\r\n    event MaxBetRatioUpdated(uint256 indexed block, uint256 maxBetRatio);\r\n    event FeeAmountUpdated(uint256 indexed block, uint256 feeAmount);\r\n\r\n\tconstructor() public {}\r\n\r\n    modifier onlyAdmin() {\r\n        require(msg.sender == adminAddress, \"admin: wut?\");\r\n        _;\r\n    }\r\n\r\n    // set blocks\r\n    function setBlocks(uint256 _intervalBlocks, uint256 _playerTimeBlocks, uint256 _bankerTimeBlocks) external onlyAdmin {\r\n        intervalBlocks = _intervalBlocks;\r\n        playerTimeBlocks = _playerTimeBlocks;\r\n        bankerTimeBlocks = _bankerTimeBlocks;\r\n    }\r\n\r\n    // set rates\r\n    function setRates(uint256 _gapRate, uint256 _lcBackRate, uint256 _bonusRate) external onlyAdmin {\r\n        require(_gapRate <= 1000, \"gapRate <= 10%\");\r\n        require(_lcBackRate.add(_bonusRate) <= TOTAL_RATE, \"_lcBackRate + _bonusRate <= TOTAL_RATE\");\r\n        gapRate = _gapRate;\r\n        lcBackRate = _lcBackRate;\r\n        bonusRate = _bonusRate;\r\n\r\n        emit RatesUpdated(block.number, gapRate, lcBackRate, bonusRate);\r\n    }\r\n\r\n    // set minBetAmount\r\n    function setMinBetAmount(uint256 _minBetAmount) external onlyAdmin {\r\n        minBetAmount = _minBetAmount;\r\n        emit MinBetAmountUpdated(block.number, minBetAmount);\r\n    }\r\n\r\n    // set maxBetRatio\r\n    function setMaxBetRatio(uint256 _maxBetRatio) external onlyAdmin {\r\n        maxBetRatio = _maxBetRatio;\r\n        emit MaxBetRatioUpdated(block.number, maxBetRatio);\r\n    }\r\n\r\n    // set feeAmount\r\n    function setFeeAmount(uint256 _feeAmount) external onlyAdmin {\r\n        feeAmount = _feeAmount;\r\n        emit FeeAmountUpdated(block.number, feeAmount);\r\n    }\r\n\r\n    // set admin address\r\n    function setAdmin(address _adminAddress) external onlyOwner {\r\n        require(_adminAddress != address(0), \"Cannot be zero address\");\r\n        adminAddress = _adminAddress;\r\n    }\r\n}\r\n",
  "sourcePath": "D:\\falseman\\2021-06-25\\luckychip-smart-contracts\\dice\\contracts\\DiceLimit.sol",
  "compiler": {
    "name": "solc",
    "version": "0.6.12+commit.27d51765.Emscripten.clang"
  },
  "schemaVersion": "3.4.2",
  "updatedAt": "2021-08-05T17:56:42.514Z",
  "devdoc": {
    "kind": "dev",
    "methods": {
      "owner()": {
        "details": "Returns the address of the current owner."
      },
      "renounceOwnership()": {
        "details": "Leaves the contract without owner. It will not be possible to call `onlyOwner` functions anymore. Can only be called by the current owner. NOTE: Renouncing ownership will leave the contract without an owner, thereby removing any functionality that is only available to the owner."
      },
      "transferOwnership(address)": {
        "details": "Transfers ownership of the contract to a new account (`newOwner`). Can only be called by the current owner."
      }
    },
    "version": 1
  },
  "userdoc": {
    "kind": "user",
    "methods": {},
    "version": 1
  }
}