{
  "contractName": "Dice",
  "abi": [
    {
      "inputs": [
        {
          "internalType": "address",
          "name": "_tokenAddress",
          "type": "address"
        },
        {
          "internalType": "address",
          "name": "_lcTokenAddress",
          "type": "address"
        },
        {
          "internalType": "address",
          "name": "_diceTokenAddress",
          "type": "address"
        },
        {
          "internalType": "address",
          "name": "_masterChefAddress",
          "type": "address"
        },
        {
          "internalType": "uint256",
          "name": "_masterChefBonusId",
          "type": "uint256"
        },
        {
          "internalType": "uint256",
          "name": "_intervalBlocks",
          "type": "uint256"
        },
        {
          "internalType": "uint256",
          "name": "_playerTimeBlocks",
          "type": "uint256"
        },
        {
          "internalType": "uint256",
          "name": "_bankerTimeBlocks",
          "type": "uint256"
        },
        {
          "internalType": "uint256",
          "name": "_minBetAmount",
          "type": "uint256"
        },
        {
          "internalType": "uint256",
          "name": "_feeAmount",
          "type": "uint256"
        },
        {
          "internalType": "uint256",
          "name": "_maxBankerAmount",
          "type": "uint256"
        }
      ],
      "stateMutability": "nonpayable",
      "type": "constructor"
    },
    {
      "anonymous": false,
      "inputs": [
        {
          "indexed": true,
          "internalType": "uint256",
          "name": "block",
          "type": "uint256"
        },
        {
          "indexed": false,
          "internalType": "uint256",
          "name": "minBetAmount",
          "type": "uint256"
        },
        {
          "indexed": false,
          "internalType": "uint256",
          "name": "feeAmount",
          "type": "uint256"
        },
        {
          "indexed": false,
          "internalType": "uint256",
          "name": "maxBankerAmount",
          "type": "uint256"
        }
      ],
      "name": "AmountsUpdated",
      "type": "event"
    },
    {
      "anonymous": false,
      "inputs": [
        {
          "indexed": true,
          "internalType": "address",
          "name": "sender",
          "type": "address"
        },
        {
          "indexed": true,
          "internalType": "uint256",
          "name": "currentEpoch",
          "type": "uint256"
        },
        {
          "indexed": false,
          "internalType": "bool[6]",
          "name": "numbers",
          "type": "bool[6]"
        },
        {
          "indexed": false,
          "internalType": "uint256",
          "name": "amount",
          "type": "uint256"
        }
      ],
      "name": "BetNumber",
      "type": "event"
    },
    {
      "anonymous": false,
      "inputs": [
        {
          "indexed": true,
          "internalType": "address",
          "name": "sender",
          "type": "address"
        },
        {
          "indexed": true,
          "internalType": "uint256",
          "name": "currentEpoch",
          "type": "uint256"
        },
        {
          "indexed": false,
          "internalType": "uint256",
          "name": "amount",
          "type": "uint256"
        }
      ],
      "name": "Claim",
      "type": "event"
    },
    {
      "anonymous": false,
      "inputs": [
        {
          "indexed": false,
          "internalType": "uint256",
          "name": "amount",
          "type": "uint256"
        }
      ],
      "name": "ClaimBonus",
      "type": "event"
    },
    {
      "anonymous": false,
      "inputs": [
        {
          "indexed": true,
          "internalType": "address",
          "name": "sender",
          "type": "address"
        },
        {
          "indexed": false,
          "internalType": "uint256",
          "name": "amount",
          "type": "uint256"
        }
      ],
      "name": "ClaimBonusLC",
      "type": "event"
    },
    {
      "anonymous": false,
      "inputs": [
        {
          "indexed": true,
          "internalType": "address",
          "name": "user",
          "type": "address"
        },
        {
          "indexed": false,
          "internalType": "uint256",
          "name": "tokenAmount",
          "type": "uint256"
        }
      ],
      "name": "Deposit",
      "type": "event"
    },
    {
      "anonymous": false,
      "inputs": [
        {
          "indexed": false,
          "internalType": "uint256",
          "name": "epoch",
          "type": "uint256"
        },
        {
          "indexed": false,
          "internalType": "uint256",
          "name": "blockNumber",
          "type": "uint256"
        }
      ],
      "name": "EndBankerTime",
      "type": "event"
    },
    {
      "anonymous": false,
      "inputs": [
        {
          "indexed": false,
          "internalType": "uint256",
          "name": "epoch",
          "type": "uint256"
        },
        {
          "indexed": false,
          "internalType": "uint256",
          "name": "blockNumber",
          "type": "uint256"
        }
      ],
      "name": "EndPlayerTime",
      "type": "event"
    },
    {
      "anonymous": false,
      "inputs": [
        {
          "indexed": true,
          "internalType": "uint256",
          "name": "epoch",
          "type": "uint256"
        },
        {
          "indexed": false,
          "internalType": "uint256",
          "name": "blockNumber",
          "type": "uint256"
        }
      ],
      "name": "LockRound",
      "type": "event"
    },
    {
      "anonymous": false,
      "inputs": [
        {
          "indexed": true,
          "internalType": "address",
          "name": "previousOwner",
          "type": "address"
        },
        {
          "indexed": true,
          "internalType": "address",
          "name": "newOwner",
          "type": "address"
        }
      ],
      "name": "OwnershipTransferred",
      "type": "event"
    },
    {
      "anonymous": false,
      "inputs": [
        {
          "indexed": false,
          "internalType": "address",
          "name": "account",
          "type": "address"
        }
      ],
      "name": "Paused",
      "type": "event"
    },
    {
      "anonymous": false,
      "inputs": [
        {
          "indexed": true,
          "internalType": "uint256",
          "name": "block",
          "type": "uint256"
        },
        {
          "indexed": false,
          "internalType": "uint256",
          "name": "gapRate",
          "type": "uint256"
        },
        {
          "indexed": false,
          "internalType": "uint256",
          "name": "lcBackRate",
          "type": "uint256"
        },
        {
          "indexed": false,
          "internalType": "uint256",
          "name": "bonusRate",
          "type": "uint256"
        }
      ],
      "name": "RatesUpdated",
      "type": "event"
    },
    {
      "anonymous": false,
      "inputs": [
        {
          "indexed": true,
          "internalType": "uint256",
          "name": "block",
          "type": "uint256"
        },
        {
          "indexed": false,
          "internalType": "uint256",
          "name": "maxBetRatio",
          "type": "uint256"
        },
        {
          "indexed": false,
          "internalType": "uint256",
          "name": "maxExposureRatio",
          "type": "uint256"
        }
      ],
      "name": "RatiosUpdated",
      "type": "event"
    },
    {
      "anonymous": false,
      "inputs": [
        {
          "indexed": true,
          "internalType": "uint256",
          "name": "epoch",
          "type": "uint256"
        },
        {
          "indexed": false,
          "internalType": "uint256",
          "name": "lcbackamount",
          "type": "uint256"
        },
        {
          "indexed": false,
          "internalType": "uint256",
          "name": "bonusamount",
          "type": "uint256"
        },
        {
          "indexed": false,
          "internalType": "uint256",
          "name": "swaplcamount",
          "type": "uint256"
        }
      ],
      "name": "RewardsCalculated",
      "type": "event"
    },
    {
      "anonymous": false,
      "inputs": [
        {
          "indexed": true,
          "internalType": "uint256",
          "name": "epoch",
          "type": "uint256"
        },
        {
          "indexed": false,
          "internalType": "uint256",
          "name": "blockNumber",
          "type": "uint256"
        },
        {
          "indexed": false,
          "internalType": "uint256",
          "name": "bankSecret",
          "type": "uint256"
        },
        {
          "indexed": false,
          "internalType": "uint32",
          "name": "finalNumber",
          "type": "uint32"
        }
      ],
      "name": "SendSecretRound",
      "type": "event"
    },
    {
      "anonymous": false,
      "inputs": [
        {
          "indexed": true,
          "internalType": "uint256",
          "name": "epoch",
          "type": "uint256"
        },
        {
          "indexed": false,
          "internalType": "uint256",
          "name": "blockNumber",
          "type": "uint256"
        },
        {
          "indexed": false,
          "internalType": "bytes32",
          "name": "bankHash",
          "type": "bytes32"
        }
      ],
      "name": "StartRound",
      "type": "event"
    },
    {
      "anonymous": false,
      "inputs": [
        {
          "indexed": true,
          "internalType": "address",
          "name": "router",
          "type": "address"
        }
      ],
      "name": "SwapRouterUpdated",
      "type": "event"
    },
    {
      "anonymous": false,
      "inputs": [
        {
          "indexed": false,
          "internalType": "address",
          "name": "account",
          "type": "address"
        }
      ],
      "name": "Unpaused",
      "type": "event"
    },
    {
      "anonymous": false,
      "inputs": [
        {
          "indexed": false,
          "internalType": "uint256",
          "name": "epoch",
          "type": "uint256"
        },
        {
          "indexed": false,
          "internalType": "uint256",
          "name": "blockNumber",
          "type": "uint256"
        },
        {
          "indexed": false,
          "internalType": "uint256",
          "name": "netValue",
          "type": "uint256"
        }
      ],
      "name": "UpdateNetValue",
      "type": "event"
    },
    {
      "anonymous": false,
      "inputs": [
        {
          "indexed": true,
          "internalType": "address",
          "name": "user",
          "type": "address"
        },
        {
          "indexed": false,
          "internalType": "uint256",
          "name": "diceTokenAmount",
          "type": "uint256"
        }
      ],
      "name": "Withdraw",
      "type": "event"
    },
    {
      "inputs": [],
      "name": "TOTAL_RATE",
      "outputs": [
        {
          "internalType": "uint256",
          "name": "",
          "type": "uint256"
        }
      ],
      "stateMutability": "view",
      "type": "function",
      "constant": true
    },
    {
      "inputs": [],
      "name": "adminAddress",
      "outputs": [
        {
          "internalType": "address",
          "name": "",
          "type": "address"
        }
      ],
      "stateMutability": "view",
      "type": "function",
      "constant": true
    },
    {
      "inputs": [],
      "name": "bankerAmount",
      "outputs": [
        {
          "internalType": "uint256",
          "name": "",
          "type": "uint256"
        }
      ],
      "stateMutability": "view",
      "type": "function",
      "constant": true
    },
    {
      "inputs": [],
      "name": "bankerEndBlock",
      "outputs": [
        {
          "internalType": "uint256",
          "name": "",
          "type": "uint256"
        }
      ],
      "stateMutability": "view",
      "type": "function",
      "constant": true
    },
    {
      "inputs": [
        {
          "internalType": "address",
          "name": "",
          "type": "address"
        }
      ],
      "name": "bankerInfo",
      "outputs": [
        {
          "internalType": "uint256",
          "name": "diceTokenAmount",
          "type": "uint256"
        },
        {
          "internalType": "uint256",
          "name": "avgBuyValue",
          "type": "uint256"
        }
      ],
      "stateMutability": "view",
      "type": "function",
      "constant": true
    },
    {
      "inputs": [],
      "name": "bankerTimeBlocks",
      "outputs": [
        {
          "internalType": "uint256",
          "name": "",
          "type": "uint256"
        }
      ],
      "stateMutability": "view",
      "type": "function",
      "constant": true
    },
    {
      "inputs": [],
      "name": "bonusRate",
      "outputs": [
        {
          "internalType": "uint256",
          "name": "",
          "type": "uint256"
        }
      ],
      "stateMutability": "view",
      "type": "function",
      "constant": true
    },
    {
      "inputs": [],
      "name": "currentEpoch",
      "outputs": [
        {
          "internalType": "uint256",
          "name": "",
          "type": "uint256"
        }
      ],
      "stateMutability": "view",
      "type": "function",
      "constant": true
    },
    {
      "inputs": [],
      "name": "diceToken",
      "outputs": [
        {
          "internalType": "contract DiceToken",
          "name": "",
          "type": "address"
        }
      ],
      "stateMutability": "view",
      "type": "function",
      "constant": true
    },
    {
      "inputs": [],
      "name": "feeAmount",
      "outputs": [
        {
          "internalType": "uint256",
          "name": "",
          "type": "uint256"
        }
      ],
      "stateMutability": "view",
      "type": "function",
      "constant": true
    },
    {
      "inputs": [],
      "name": "gapRate",
      "outputs": [
        {
          "internalType": "uint256",
          "name": "",
          "type": "uint256"
        }
      ],
      "stateMutability": "view",
      "type": "function",
      "constant": true
    },
    {
      "inputs": [],
      "name": "intervalBlocks",
      "outputs": [
        {
          "internalType": "uint256",
          "name": "",
          "type": "uint256"
        }
      ],
      "stateMutability": "view",
      "type": "function",
      "constant": true
    },
    {
      "inputs": [],
      "name": "lcBackRate",
      "outputs": [
        {
          "internalType": "uint256",
          "name": "",
          "type": "uint256"
        }
      ],
      "stateMutability": "view",
      "type": "function",
      "constant": true
    },
    {
      "inputs": [],
      "name": "lcToken",
      "outputs": [
        {
          "internalType": "contract IBEP20",
          "name": "",
          "type": "address"
        }
      ],
      "stateMutability": "view",
      "type": "function",
      "constant": true
    },
    {
      "inputs": [
        {
          "internalType": "uint256",
          "name": "",
          "type": "uint256"
        },
        {
          "internalType": "address",
          "name": "",
          "type": "address"
        }
      ],
      "name": "ledger",
      "outputs": [
        {
          "internalType": "uint256",
          "name": "amount",
          "type": "uint256"
        },
        {
          "internalType": "uint16",
          "name": "numberCount",
          "type": "uint16"
        },
        {
          "internalType": "bool",
          "name": "claimed",
          "type": "bool"
        },
        {
          "internalType": "bool",
          "name": "lcClaimed",
          "type": "bool"
        }
      ],
      "stateMutability": "view",
      "type": "function",
      "constant": true
    },
    {
      "inputs": [],
      "name": "masterChefAddress",
      "outputs": [
        {
          "internalType": "address",
          "name": "",
          "type": "address"
        }
      ],
      "stateMutability": "view",
      "type": "function",
      "constant": true
    },
    {
      "inputs": [],
      "name": "masterChefBonusId",
      "outputs": [
        {
          "internalType": "uint256",
          "name": "",
          "type": "uint256"
        }
      ],
      "stateMutability": "view",
      "type": "function",
      "constant": true
    },
    {
      "inputs": [],
      "name": "maxBankerAmount",
      "outputs": [
        {
          "internalType": "uint256",
          "name": "",
          "type": "uint256"
        }
      ],
      "stateMutability": "view",
      "type": "function",
      "constant": true
    },
    {
      "inputs": [],
      "name": "maxBetRatio",
      "outputs": [
        {
          "internalType": "uint256",
          "name": "",
          "type": "uint256"
        }
      ],
      "stateMutability": "view",
      "type": "function",
      "constant": true
    },
    {
      "inputs": [],
      "name": "maxExposureRatio",
      "outputs": [
        {
          "internalType": "uint256",
          "name": "",
          "type": "uint256"
        }
      ],
      "stateMutability": "view",
      "type": "function",
      "constant": true
    },
    {
      "inputs": [],
      "name": "minBetAmount",
      "outputs": [
        {
          "internalType": "uint256",
          "name": "",
          "type": "uint256"
        }
      ],
      "stateMutability": "view",
      "type": "function",
      "constant": true
    },
    {
      "inputs": [],
      "name": "netValue",
      "outputs": [
        {
          "internalType": "uint256",
          "name": "",
          "type": "uint256"
        }
      ],
      "stateMutability": "view",
      "type": "function",
      "constant": true
    },
    {
      "inputs": [],
      "name": "owner",
      "outputs": [
        {
          "internalType": "address",
          "name": "",
          "type": "address"
        }
      ],
      "stateMutability": "view",
      "type": "function",
      "constant": true
    },
    {
      "inputs": [],
      "name": "paused",
      "outputs": [
        {
          "internalType": "bool",
          "name": "",
          "type": "bool"
        }
      ],
      "stateMutability": "view",
      "type": "function",
      "constant": true
    },
    {
      "inputs": [],
      "name": "playerEndBlock",
      "outputs": [
        {
          "internalType": "uint256",
          "name": "",
          "type": "uint256"
        }
      ],
      "stateMutability": "view",
      "type": "function",
      "constant": true
    },
    {
      "inputs": [],
      "name": "playerTimeBlocks",
      "outputs": [
        {
          "internalType": "uint256",
          "name": "",
          "type": "uint256"
        }
      ],
      "stateMutability": "view",
      "type": "function",
      "constant": true
    },
    {
      "inputs": [],
      "name": "prevBankerAmount",
      "outputs": [
        {
          "internalType": "uint256",
          "name": "",
          "type": "uint256"
        }
      ],
      "stateMutability": "view",
      "type": "function",
      "constant": true
    },
    {
      "inputs": [],
      "name": "renounceOwnership",
      "outputs": [],
      "stateMutability": "nonpayable",
      "type": "function"
    },
    {
      "inputs": [
        {
          "internalType": "uint256",
          "name": "",
          "type": "uint256"
        }
      ],
      "name": "rounds",
      "outputs": [
        {
          "internalType": "uint256",
          "name": "startBlock",
          "type": "uint256"
        },
        {
          "internalType": "uint256",
          "name": "lockBlock",
          "type": "uint256"
        },
        {
          "internalType": "uint256",
          "name": "secretSentBlock",
          "type": "uint256"
        },
        {
          "internalType": "bytes32",
          "name": "bankHash",
          "type": "bytes32"
        },
        {
          "internalType": "uint256",
          "name": "bankSecret",
          "type": "uint256"
        },
        {
          "internalType": "uint256",
          "name": "totalAmount",
          "type": "uint256"
        },
        {
          "internalType": "uint256",
          "name": "maxBetAmount",
          "type": "uint256"
        },
        {
          "internalType": "uint256",
          "name": "lcBackAmount",
          "type": "uint256"
        },
        {
          "internalType": "uint256",
          "name": "bonusAmount",
          "type": "uint256"
        },
        {
          "internalType": "uint256",
          "name": "swapLcAmount",
          "type": "uint256"
        },
        {
          "internalType": "uint256",
          "name": "betUsers",
          "type": "uint256"
        },
        {
          "internalType": "uint32",
          "name": "finalNumber",
          "type": "uint32"
        },
        {
          "internalType": "enum Dice.Status",
          "name": "status",
          "type": "uint8"
        }
      ],
      "stateMutability": "view",
      "type": "function",
      "constant": true
    },
    {
      "inputs": [],
      "name": "swapRouter",
      "outputs": [
        {
          "internalType": "contract ILuckyChipRouter02",
          "name": "",
          "type": "address"
        }
      ],
      "stateMutability": "view",
      "type": "function",
      "constant": true
    },
    {
      "inputs": [],
      "name": "token",
      "outputs": [
        {
          "internalType": "contract IBEP20",
          "name": "",
          "type": "address"
        }
      ],
      "stateMutability": "view",
      "type": "function",
      "constant": true
    },
    {
      "inputs": [],
      "name": "totalBonusAmount",
      "outputs": [
        {
          "internalType": "uint256",
          "name": "",
          "type": "uint256"
        }
      ],
      "stateMutability": "view",
      "type": "function",
      "constant": true
    },
    {
      "inputs": [
        {
          "internalType": "address",
          "name": "newOwner",
          "type": "address"
        }
      ],
      "name": "transferOwnership",
      "outputs": [],
      "stateMutability": "nonpayable",
      "type": "function"
    },
    {
      "inputs": [
        {
          "internalType": "address",
          "name": "",
          "type": "address"
        },
        {
          "internalType": "uint256",
          "name": "",
          "type": "uint256"
        }
      ],
      "name": "userRounds",
      "outputs": [
        {
          "internalType": "uint256",
          "name": "",
          "type": "uint256"
        }
      ],
      "stateMutability": "view",
      "type": "function",
      "constant": true
    },
    {
      "inputs": [
        {
          "internalType": "uint256",
          "name": "_intervalBlocks",
          "type": "uint256"
        },
        {
          "internalType": "uint256",
          "name": "_playerTimeBlocks",
          "type": "uint256"
        },
        {
          "internalType": "uint256",
          "name": "_bankerTimeBlocks",
          "type": "uint256"
        }
      ],
      "name": "setBlocks",
      "outputs": [],
      "stateMutability": "nonpayable",
      "type": "function"
    },
    {
      "inputs": [
        {
          "internalType": "uint256",
          "name": "_gapRate",
          "type": "uint256"
        },
        {
          "internalType": "uint256",
          "name": "_lcBackRate",
          "type": "uint256"
        },
        {
          "internalType": "uint256",
          "name": "_bonusRate",
          "type": "uint256"
        }
      ],
      "name": "setRates",
      "outputs": [],
      "stateMutability": "nonpayable",
      "type": "function"
    },
    {
      "inputs": [
        {
          "internalType": "uint256",
          "name": "_minBetAmount",
          "type": "uint256"
        },
        {
          "internalType": "uint256",
          "name": "_feeAmount",
          "type": "uint256"
        },
        {
          "internalType": "uint256",
          "name": "_maxBankerAmount",
          "type": "uint256"
        }
      ],
      "name": "setAmounts",
      "outputs": [],
      "stateMutability": "nonpayable",
      "type": "function"
    },
    {
      "inputs": [
        {
          "internalType": "uint256",
          "name": "_maxBetRatio",
          "type": "uint256"
        },
        {
          "internalType": "uint256",
          "name": "_maxExposureRatio",
          "type": "uint256"
        }
      ],
      "name": "setRatios",
      "outputs": [],
      "stateMutability": "nonpayable",
      "type": "function"
    },
    {
      "inputs": [
        {
          "internalType": "address",
          "name": "_adminAddress",
          "type": "address"
        }
      ],
      "name": "setAdmin",
      "outputs": [],
      "stateMutability": "nonpayable",
      "type": "function"
    },
    {
      "inputs": [
        {
          "internalType": "uint256",
          "name": "epoch",
          "type": "uint256"
        },
        {
          "internalType": "bytes32",
          "name": "bankHash",
          "type": "bytes32"
        }
      ],
      "name": "endBankerTime",
      "outputs": [],
      "stateMutability": "nonpayable",
      "type": "function"
    },
    {
      "inputs": [
        {
          "internalType": "uint256",
          "name": "epoch",
          "type": "uint256"
        },
        {
          "internalType": "bytes32",
          "name": "bankHash",
          "type": "bytes32"
        }
      ],
      "name": "executeRound",
      "outputs": [],
      "stateMutability": "nonpayable",
      "type": "function"
    },
    {
      "inputs": [
        {
          "internalType": "uint256",
          "name": "epoch",
          "type": "uint256"
        },
        {
          "internalType": "uint256",
          "name": "bankSecret",
          "type": "uint256"
        }
      ],
      "name": "endPlayerTime",
      "outputs": [],
      "stateMutability": "nonpayable",
      "type": "function"
    },
    {
      "inputs": [
        {
          "internalType": "uint256",
          "name": "epoch",
          "type": "uint256"
        }
      ],
      "name": "endPlayerTimeImmediately",
      "outputs": [],
      "stateMutability": "nonpayable",
      "type": "function"
    },
    {
      "inputs": [
        {
          "internalType": "uint256",
          "name": "epoch",
          "type": "uint256"
        },
        {
          "internalType": "uint256",
          "name": "bankSecret",
          "type": "uint256"
        }
      ],
      "name": "sendSecret",
      "outputs": [],
      "stateMutability": "nonpayable",
      "type": "function"
    },
    {
      "inputs": [
        {
          "internalType": "bool[6]",
          "name": "numbers",
          "type": "bool[6]"
        },
        {
          "internalType": "uint256",
          "name": "amount",
          "type": "uint256"
        }
      ],
      "name": "betNumber",
      "outputs": [],
      "stateMutability": "payable",
      "type": "function",
      "payable": true
    },
    {
      "inputs": [
        {
          "internalType": "uint256",
          "name": "epoch",
          "type": "uint256"
        }
      ],
      "name": "claim",
      "outputs": [],
      "stateMutability": "nonpayable",
      "type": "function"
    },
    {
      "inputs": [
        {
          "internalType": "address",
          "name": "user",
          "type": "address"
        }
      ],
      "name": "claimLcBack",
      "outputs": [],
      "stateMutability": "nonpayable",
      "type": "function"
    },
    {
      "inputs": [
        {
          "internalType": "address",
          "name": "user",
          "type": "address"
        }
      ],
      "name": "pendingLcBack",
      "outputs": [
        {
          "internalType": "uint256",
          "name": "",
          "type": "uint256"
        }
      ],
      "stateMutability": "view",
      "type": "function",
      "constant": true
    },
    {
      "inputs": [
        {
          "internalType": "address",
          "name": "user",
          "type": "address"
        },
        {
          "internalType": "uint256",
          "name": "cursor",
          "type": "uint256"
        },
        {
          "internalType": "uint256",
          "name": "size",
          "type": "uint256"
        }
      ],
      "name": "getUserRounds",
      "outputs": [
        {
          "internalType": "uint256[]",
          "name": "",
          "type": "uint256[]"
        },
        {
          "internalType": "uint256",
          "name": "",
          "type": "uint256"
        }
      ],
      "stateMutability": "view",
      "type": "function",
      "constant": true
    },
    {
      "inputs": [
        {
          "internalType": "uint256",
          "name": "epoch",
          "type": "uint256"
        },
        {
          "internalType": "address",
          "name": "user",
          "type": "address"
        }
      ],
      "name": "claimable",
      "outputs": [
        {
          "internalType": "bool",
          "name": "",
          "type": "bool"
        }
      ],
      "stateMutability": "view",
      "type": "function",
      "constant": true
    },
    {
      "inputs": [
        {
          "internalType": "uint256",
          "name": "epoch",
          "type": "uint256"
        },
        {
          "internalType": "address",
          "name": "user",
          "type": "address"
        }
      ],
      "name": "refundable",
      "outputs": [
        {
          "internalType": "bool",
          "name": "",
          "type": "bool"
        }
      ],
      "stateMutability": "view",
      "type": "function",
      "constant": true
    },
    {
      "inputs": [
        {
          "internalType": "bytes32",
          "name": "bankHash",
          "type": "bytes32"
        }
      ],
      "name": "manualStartRound",
      "outputs": [],
      "stateMutability": "nonpayable",
      "type": "function"
    },
    {
      "inputs": [
        {
          "internalType": "uint256",
          "name": "epoch",
          "type": "uint256"
        }
      ],
      "name": "lockRound",
      "outputs": [],
      "stateMutability": "nonpayable",
      "type": "function"
    },
    {
      "inputs": [
        {
          "internalType": "uint256",
          "name": "_tokenAmount",
          "type": "uint256"
        }
      ],
      "name": "deposit",
      "outputs": [],
      "stateMutability": "nonpayable",
      "type": "function"
    },
    {
      "inputs": [
        {
          "internalType": "uint256",
          "name": "_diceTokenAmount",
          "type": "uint256"
        }
      ],
      "name": "withdraw",
      "outputs": [],
      "stateMutability": "nonpayable",
      "type": "function"
    },
    {
      "inputs": [
        {
          "internalType": "address",
          "name": "bankerAddress",
          "type": "address"
        }
      ],
      "name": "canWithdrawToken",
      "outputs": [
        {
          "internalType": "uint256",
          "name": "",
          "type": "uint256"
        }
      ],
      "stateMutability": "view",
      "type": "function",
      "constant": true
    },
    {
      "inputs": [
        {
          "internalType": "address",
          "name": "bankerAddress",
          "type": "address"
        }
      ],
      "name": "calProfitRate",
      "outputs": [
        {
          "internalType": "uint256",
          "name": "",
          "type": "uint256"
        }
      ],
      "stateMutability": "view",
      "type": "function",
      "constant": true
    },
    {
      "inputs": [
        {
          "internalType": "address",
          "name": "_router",
          "type": "address"
        }
      ],
      "name": "updateSwapRouter",
      "outputs": [],
      "stateMutability": "nonpayable",
      "type": "function"
    }
  ],
  "bytecode": "0x60806040526101f4600e556103e8600f556103e8601055600560125561012c6013553480156200002e57600080fd5b506040516200617f3803806200617f83398181016040526101608110156200005557600080fd5b508051602082015160408301516060840151608085015160a086015160c087015160e08801516101008901516101208a0151610140909a0151989997989697959694959394929391929091906000620000ad62000196565b600080546001600160a01b0319166001600160a01b0383169081178255604051929350917f8be0079c531659141344cd1fd0a4f28419497f9722a3daafe3b4186f6b6457e0908290a350600180556002805460ff19169055601880546001600160a01b03808e166001600160a01b031992831617909255601980548d8416908316179055601a80548c841690831617905560178054928b1692909116919091179055600a879055600b869055600c859055600d84905560118390556014829055601581905564e8d4a51000600555620001856200019a565b505050505050505050505062000248565b3390565b620001a46200023f565b15620001ea576040805162461bcd60e51b815260206004820152601060248201526f14185d5cd8589b194e881c185d5cd95960821b604482015290519081900360640190fd5b6002805460ff191660011790557f62e78cea01bee320cd4e420270b5ea74000d11b0c9f74754ebdbfc544b05a2586200022262000196565b604080516001600160a01b039092168252519081900360200190a1565b60025460ff1690565b615f2780620002586000396000f3fe6080604052600436106103815760003560e01c80638ab9ff71116101d1578063c31c9c0711610102578063e89cd14a116100a0578063fa968eea1161006f578063fa968eea14610d3b578063fc0c546a14610d50578063fc6f946814610d65578063ff41e8b114610d7a57610381565b8063e89cd14a14610c78578063f1b9e1e714610c8d578063f1d9f90c14610ca2578063f2fde38b14610cfb57610381565b8063da7af9d1116100dc578063da7af9d114610bc8578063dcb4c32314610c08578063dd1f759614610c1d578063e13b787014610c6357610381565b8063c31c9c0714610b4d578063d004f38b14610b62578063d748a98714610b9857610381565b8063b29c299b1161016f578063b78ae01111610149578063b78ae01114610aad578063b98b677f14610ac2578063bc5dda5014610b02578063c17bcdee14610b3857610381565b8063b29c299b14610a59578063b53a6f7a14610a6e578063b6b55f2514610a8357610381565b8063951fd600116101ab578063951fd60014610912578063a0c7f71c146109b9578063a661ef39146109ff578063abc5ca9814610a2957610381565b80638ab9ff71146108435780638c65c81f146108585780638da5cb5b146108fd57610381565b80635af123f4116102b6578063704b6c02116102545780637bf41254116102235780637bf412541461079457806380cfe921146107da5780638764e02c146108045780638ab4ca8a1461081957610381565b8063704b6c02146106b9578063715018a6146106f95780637285c58b1461070e578063766718081461077f57610381565b80635d38075e116102905780635d38075e146106235780635eed5a2c146106445780636639dd931461067457806369e15404146106a457610381565b80635af123f4146105a55780635b7932c2146105ba5780635c975abb146105fa57610381565b80632e1a7d4d116103235780633fcceacc116102fd5780633fcceacc1461050b5780634c34b53a146105205780635699d0d71461056057806359512af81461057557610381565b80632e1a7d4d1461047f578063379607f5146104ab57806339295fb5146104d557610381565b8063158414571161035f57806315841457146103d75780631ec9f34b14610417578063221e2e601461042c578063285d8afd1461046a57610381565b806308d949fa14610386578063094a0e5f146103ad5780630a6625f0146103c2575b600080fd5b34801561039257600080fd5b5061039b610d8f565b60408051918252519081900360200190f35b3480156103b957600080fd5b5061039b610d95565b3480156103ce57600080fd5b5061039b610d9b565b3480156103e357600080fd5b5061039b600480360360208110156103fa57600080fd5b503573ffffffffffffffffffffffffffffffffffffffff16610da1565b34801561042357600080fd5b5061039b610ded565b34801561043857600080fd5b50610441610df3565b6040805173ffffffffffffffffffffffffffffffffffffffff9092168252519081900360200190f35b34801561047657600080fd5b5061039b610e0f565b34801561048b57600080fd5b506104a9600480360360208110156104a257600080fd5b5035610e15565b005b3480156104b757600080fd5b506104a9600480360360208110156104ce57600080fd5b50356111bb565b3480156104e157600080fd5b506104a9600480360360608110156104f857600080fd5b50803590602081013590604001356116da565b34801561051757600080fd5b5061039b61176e565b34801561052c57600080fd5b506104a96004803603602081101561054357600080fd5b503573ffffffffffffffffffffffffffffffffffffffff16611774565b34801561056c57600080fd5b5061039b611bee565b34801561058157600080fd5b506104a96004803603604081101561059857600080fd5b5080359060200135611bf4565b3480156105b157600080fd5b5061039b611dc1565b3480156105c657600080fd5b5061039b600480360360208110156105dd57600080fd5b503573ffffffffffffffffffffffffffffffffffffffff16611dc7565b34801561060657600080fd5b5061060f61203d565b604080519115158252519081900360200190f35b6104a9600480360360e081101561063957600080fd5b5060c0810135612046565b34801561065057600080fd5b506104a96004803603604081101561066757600080fd5b50803590602001356128a8565b34801561068057600080fd5b506104a96004803603604081101561069757600080fd5b5080359060200135612b14565b3480156106b057600080fd5b5061039b612be2565b3480156106c557600080fd5b506104a9600480360360208110156106dc57600080fd5b503573ffffffffffffffffffffffffffffffffffffffff16612be8565b34801561070557600080fd5b506104a9612d59565b34801561071a57600080fd5b506107546004803603604081101561073157600080fd5b508035906020013573ffffffffffffffffffffffffffffffffffffffff16612e70565b6040805194855261ffff90931660208501529015158383015215156060830152519081900360800190f35b34801561078b57600080fd5b5061039b612eac565b3480156107a057600080fd5b5061060f600480360360408110156107b757600080fd5b508035906020013573ffffffffffffffffffffffffffffffffffffffff16612eb2565b3480156107e657600080fd5b506104a9600480360360208110156107fd57600080fd5b5035612f49565b34801561081057600080fd5b5061039b6130c8565b34801561082557600080fd5b506104a96004803603602081101561083c57600080fd5b50356130ce565b34801561084f57600080fd5b50610441613304565b34801561086457600080fd5b506108826004803603602081101561087b57600080fd5b5035613320565b604051808e81526020018d81526020018c81526020018b81526020018a81526020018981526020018881526020018781526020018681526020018581526020018481526020018363ffffffff1681526020018260048111156108e057fe5b81526020019d505050505050505050505050505060405180910390f35b34801561090957600080fd5b50610441613392565b34801561091e57600080fd5b5061095e6004803603606081101561093557600080fd5b5073ffffffffffffffffffffffffffffffffffffffff81351690602081013590604001356133ae565b6040518080602001838152602001828103825284818151815260200191508051906020019060200280838360005b838110156109a457818101518382015260200161098c565b50505050905001935050505060405180910390f35b3480156109c557600080fd5b5061060f600480360360408110156109dc57600080fd5b508035906020013573ffffffffffffffffffffffffffffffffffffffff166134dd565b348015610a0b57600080fd5b506104a960048036036020811015610a2257600080fd5b5035613583565b348015610a3557600080fd5b506104a960048036036040811015610a4c57600080fd5b5080359060200135613745565b348015610a6557600080fd5b5061039b6139d9565b348015610a7a57600080fd5b5061039b6139df565b348015610a8f57600080fd5b506104a960048036036020811015610aa657600080fd5b50356139e5565b348015610ab957600080fd5b5061039b613e39565b348015610ace57600080fd5b506104a960048036036020811015610ae557600080fd5b503573ffffffffffffffffffffffffffffffffffffffff16613e3f565b348015610b0e57600080fd5b506104a960048036036060811015610b2557600080fd5b5080359060208101359060400135613fbc565b348015610b4457600080fd5b5061039b614099565b348015610b5957600080fd5b5061044161409f565b348015610b6e57600080fd5b506104a960048036036060811015610b8557600080fd5b50803590602081013590604001356140bb565b348015610ba457600080fd5b506104a960048036036040811015610bbb57600080fd5b508035906020013561426d565b348015610bd457600080fd5b5061039b60048036036020811015610beb57600080fd5b503573ffffffffffffffffffffffffffffffffffffffff1661464e565b348015610c1457600080fd5b5061039b61468a565b348015610c2957600080fd5b5061039b60048036036040811015610c4057600080fd5b5073ffffffffffffffffffffffffffffffffffffffff8135169060200135614690565b348015610c6f57600080fd5b5061039b6146be565b348015610c8457600080fd5b5061039b6146c4565b348015610c9957600080fd5b5061039b6146ca565b348015610cae57600080fd5b50610ce260048036036020811015610cc557600080fd5b503573ffffffffffffffffffffffffffffffffffffffff166146d0565b6040805192835260208301919091528051918290030190f35b348015610d0757600080fd5b506104a960048036036020811015610d1e57600080fd5b503573ffffffffffffffffffffffffffffffffffffffff166146e9565b348015610d4757600080fd5b5061039b61488a565b348015610d5c57600080fd5b50610441614890565b348015610d7157600080fd5b506104416148ac565b348015610d8657600080fd5b506104416148c8565b600a5481565b600d5481565b60095481565b60055473ffffffffffffffffffffffffffffffffffffffff82166000908152601f60205260408120549091610de79164e8d4a5100091610de191906148e4565b90614957565b92915050565b600b5481565b60175473ffffffffffffffffffffffffffffffffffffffff1681565b60055481565b610e1d61203d565b610e8857604080517f08c379a000000000000000000000000000000000000000000000000000000000815260206004820152601460248201527f5061757361626c653a206e6f7420706175736564000000000000000000000000604482015290519081900360640190fd5b60026001541415610efa57604080517f08c379a000000000000000000000000000000000000000000000000000000000815260206004820152601f60248201527f5265656e7472616e637947756172643a207265656e7472616e742063616c6c00604482015290519081900360640190fd5b6002600155610f08336149d8565b15610f7457604080517f08c379a000000000000000000000000000000000000000000000000000000000815260206004820152601460248201527f636f6e7472616374206e6f7420616c6c6f776564000000000000000000000000604482015290519081900360640190fd5b333214610fe257604080517f08c379a000000000000000000000000000000000000000000000000000000000815260206004820152601a60248201527f70726f787920636f6e7472616374206e6f7420616c6c6f776564000000000000604482015290519081900360640190fd5b6000811161105157604080517f08c379a000000000000000000000000000000000000000000000000000000000815260206004820152601360248201527f64696365546f6b656e416d6f756e74203e203000000000000000000000000000604482015290519081900360640190fd5b336000908152601f60205260409020805461106c90836149de565b8155601a546110939073ffffffffffffffffffffffffffffffffffffffff16338185614a55565b601a54604080517f9dc29fac00000000000000000000000000000000000000000000000000000000815273ffffffffffffffffffffffffffffffffffffffff909216600483018190526024830185905290519091639dc29fac91604480830192600092919082900301818387803b15801561110d57600080fd5b505af1158015611121573d6000803e3d6000fd5b50505050600061114564e8d4a51000610de1600554866148e490919063ffffffff16565b60045490915061115590826149de565b60045560185461117c9073ffffffffffffffffffffffffffffffffffffffff163383614af0565b60408051848152905133917f884edad9ce6fa2440d8a54cc123490eb96d2768479d49ff9c7366125a9424364919081900360200190a250506001805550565b6111c4336149d8565b1561123057604080517f08c379a000000000000000000000000000000000000000000000000000000000815260206004820152601460248201527f636f6e7472616374206e6f7420616c6c6f776564000000000000000000000000604482015290519081900360640190fd5b33321461129e57604080517f08c379a000000000000000000000000000000000000000000000000000000000815260206004820152601a60248201527f70726f787920636f6e7472616374206e6f7420616c6c6f776564000000000000604482015290519081900360640190fd5b6002600154141561131057604080517f08c379a000000000000000000000000000000000000000000000000000000000815260206004820152601f60248201527f5265656e7472616e637947756172643a207265656e7472616e742063616c6c00604482015290519081900360640190fd5b60026001556000818152601c602052604090205461138f57604080517f08c379a000000000000000000000000000000000000000000000000000000000815260206004820152601560248201527f526f756e6420686173206e6f7420737461727465640000000000000000000000604482015290519081900360640190fd5b6000818152601c6020526040902060010154431161140e57604080517f08c379a000000000000000000000000000000000000000000000000000000000815260206004820152601460248201527f526f756e6420686173206e6f74206c6f636b6564000000000000000000000000604482015290519081900360640190fd5b6000818152601d6020908152604080832033845290915290206003015460ff161561149a57604080517f08c379a000000000000000000000000000000000000000000000000000000000815260206004820152600f60248201527f5265776172647320636c61696d65640000000000000000000000000000000000604482015290519081900360640190fd5b6000818152601d60209081526040808320338452909152812060036000848152601c6020526040902060110154640100000000900460ff1660048111156114dd57fe5b14156115b7576114ed83336134dd565b61155857604080517f08c379a000000000000000000000000000000000000000000000000000000000815260206004820152601660248201527f4e6f7420656c696769626c6520666f7220636c61696d00000000000000000000604482015290519081900360640190fd5b60018101548154600091611570919061ffff16614957565b90506115a3612710610de1611592600e546127106149de90919063ffffffff16565b61159d8560056148e4565b906148e4565b92506115af8382614b7d565b925050611649565b6115c18333612eb2565b61162c57604080517f08c379a000000000000000000000000000000000000000000000000000000000815260206004820152601760248201527f4e6f7420656c696769626c6520666f7220726566756e64000000000000000000604482015290519081900360640190fd5b6000838152601d6020908152604080832033845290915290205491505b6003810180547fffffffffffffffffffffffffffffffffffffffffffffffffffffffffffffff0016600117905560185461169a9073ffffffffffffffffffffffffffffffffffffffff163384614af0565b604080518381529051849133917f34fcbac0073d7c3d388e51312faf357774904998eeb8fca628b9e6f65ee1cbf79181900360200190a350506001805550565b60165473ffffffffffffffffffffffffffffffffffffffff16331461176057604080517f08c379a000000000000000000000000000000000000000000000000000000000815260206004820152600b60248201527f61646d696e3a207775743f000000000000000000000000000000000000000000604482015290519081900360640190fd5b600b92909255600c55600d55565b600c5481565b61177d336149d8565b156117e957604080517f08c379a000000000000000000000000000000000000000000000000000000000815260206004820152601460248201527f636f6e7472616374206e6f7420616c6c6f776564000000000000000000000000604482015290519081900360640190fd5b33321461185757604080517f08c379a000000000000000000000000000000000000000000000000000000000815260206004820152601a60248201527f70726f787920636f6e7472616374206e6f7420616c6c6f776564000000000000604482015290519081900360640190fd5b600260015414156118c957604080517f08c379a000000000000000000000000000000000000000000000000000000000815260206004820152601f60248201527f5265656e7472616e637947756172643a207265656e7472616e742063616c6c00604482015290519081900360640190fd5b600260015573ffffffffffffffffffffffffffffffffffffffff81166000908152601e6020526040812054819081907fffffffffffffffffffffffffffffffffffffffffffffffffffffffffffffffff015b73ffffffffffffffffffffffffffffffffffffffff85166000908152601e6020526040902080548290811061194c57fe5b6000918252602080832090910154808352601d82526040808420338552909252912060038101549194509060ff610100909104161561198b5750611b6d565b6000848152601c6020526040902060036011820154640100000000900460ff1660048111156119b657fe5b1415611b44576011810154600283019063ffffffff16600681106119d657fe5b602081049091015460ff601f9092166101000a90041615611aba57611a3b612710610de1600f5461159d612710610de1600e5461159d600561159d8c60010160009054906101000a900461ffff1661ffff168d6000015461495790919063ffffffff16565b60018381015491955061ffff9091161115611ab557600f54600e5460018401548454611ab293611aab9361271093610de19361159d9286928692859161ffff9081167fffffffffffffffffffffffffffffffffffffffffffffffffffffffffffffffff8101909116918391614957565b8590614b7d565b93505b611ae8565b611ae5612710610de1600f5461159d612710610de1600e5489600001546148e490919063ffffffff16565b93505b611b0781600d0154610de183600f0154876148e490919063ffffffff16565b9350611b138685614b7d565b6003830180547fffffffffffffffffffffffffffffffffffffffffffffffffffffffffffff00ff1661010017905595505b50507fffffffffffffffffffffffffffffffffffffffffffffffffffffffffffffffff0161191b565b508215611b9857601954611b989073ffffffffffffffffffffffffffffffffffffffff168585614af0565b60408051848152905173ffffffffffffffffffffffffffffffffffffffff8616917f6fd977b59a22052377ab87ebdf4b780c3439b6eb861aca3cb29218dadf6a05a1919081900360200190a25050600180555050565b60155481565b60165473ffffffffffffffffffffffffffffffffffffffff163314611c7a57604080517f08c379a000000000000000000000000000000000000000000000000000000000815260206004820152600b60248201527f61646d696e3a207775743f000000000000000000000000000000000000000000604482015290519081900360640190fd5b611c8261203d565b15611cee57604080517f08c379a000000000000000000000000000000000000000000000000000000000815260206004820152601060248201527f5061757361626c653a2070617573656400000000000000000000000000000000604482015290519081900360640190fd5b6006548214611d5e57604080517f08c379a000000000000000000000000000000000000000000000000000000000815260206004820152601560248201527f65706f6368203d3d2063757272656e7445706f63680000000000000000000000604482015290519081900360640190fd5b611d68828261426d565b611d70614bf1565b611d7982614ce3565b611d81614dba565b6006546040805191825242602083015280517f620494b8df07e75c9eb56fea25105fc50d24deb9b63f8f96d7630ac9fe9882589281900390910190a15050565b60105481565b73ffffffffffffffffffffffffffffffffffffffff81166000908152601e60205260408120548190819081907fffffffffffffffffffffffffffffffffffffffffffffffffffffffffffffffff015b73ffffffffffffffffffffffffffffffffffffffff86166000908152601e60205260409020805482908110611e4757fe5b6000918252602080832090910154808352601d82526040808420338552909252912060038101549194509060ff6101009091041615611e865750612033565b6000848152601c6020526040902060036011820154640100000000900460ff166004811115611eb157fe5b141561200a576011810154600283019063ffffffff1660068110611ed157fe5b602081049091015460ff601f9092166101000a90041615611fae57611f36612710610de1600f5461159d612710610de1600e5461159d600561159d8c60010160009054906101000a900461ffff1661ffff168d6000015461495790919063ffffffff16565b60018381015491955061ffff9091161115611fa957600f54600e5460018401548454611fa693611aab9361271093610de19361159d9286928692859161ffff9081167fffffffffffffffffffffffffffffffffffffffffffffffffffffffffffffffff8101909116918391614957565b93505b611fdc565b611fd9612710610de1600f5461159d612710610de1600e5489600001546148e490919063ffffffff16565b93505b611ffb81600d0154610de183600f0154876148e490919063ffffffff16565b93506120078685614b7d565b95505b50507fffffffffffffffffffffffffffffffffffffffffffffffffffffffffffffffff01611e16565b5091949350505050565b60025460ff1690565b61204e61203d565b156120ba57604080517f08c379a000000000000000000000000000000000000000000000000000000000815260206004820152601060248201527f5061757361626c653a2070617573656400000000000000000000000000000000604482015290519081900360640190fd5b6120c3336149d8565b1561212f57604080517f08c379a000000000000000000000000000000000000000000000000000000000815260206004820152601460248201527f636f6e7472616374206e6f7420616c6c6f776564000000000000000000000000604482015290519081900360640190fd5b33321461219d57604080517f08c379a000000000000000000000000000000000000000000000000000000000815260206004820152601a60248201527f70726f787920636f6e7472616374206e6f7420616c6c6f776564000000000000604482015290519081900360640190fd5b6002600154141561220f57604080517f08c379a000000000000000000000000000000000000000000000000000000000815260206004820152601f60248201527f5265656e7472616e637947756172643a207265656e7472616e742063616c6c00604482015290519081900360640190fd5b60026001556006546000908152601c6020526040902060145434101561229657604080517f08c379a000000000000000000000000000000000000000000000000000000000815260206004820152601560248201527f6d73672e76616c7565203e20666565416d6f756e740000000000000000000000604482015290519081900360640190fd5b60016011820154640100000000900460ff1660048111156122b357fe5b1461231f57604080517f08c379a000000000000000000000000000000000000000000000000000000000815260206004820152600e60248201527f526f756e64206e6f74204f70656e000000000000000000000000000000000000604482015290519081900360640190fd5b8054431180156123325750806001015443105b61239d57604080517f08c379a000000000000000000000000000000000000000000000000000000000815260206004820152601260248201527f526f756e64206e6f74206265747461626c650000000000000000000000000000604482015290519081900360640190fd5b6006546000908152601d602090815260408083203384529091529020541561242657604080517f08c379a000000000000000000000000000000000000000000000000000000000815260206004820152601260248201527f426574206f6e63652070657220726f756e640000000000000000000000000000604482015290519081900360640190fd5b60008060005b60068163ffffffff16101561249d57858163ffffffff166006811061244d57fe5b6020020135156124955782600101925081846007018263ffffffff166006811061247357fe5b0154111561249557836007018163ffffffff166006811061249057fe5b015491505b60010161242c565b5060008261ffff161161251157604080517f08c379a000000000000000000000000000000000000000000000000000000000815260206004820152600f60248201527f6e756d626572436f756e74203e20300000000000000000000000000000000000604482015290519081900360640190fd5b6011546125229061ffff84166148e4565b84101561257a576040517f08c379a0000000000000000000000000000000000000000000000000000000008152600401808060200182810382526027815260200180615ecb6027913960400191505060405180910390fd5b600683015461258d9061ffff84166148e4565b8411156125e5576040517f08c379a000000000000000000000000000000000000000000000000000000000815260040180806020018281038252602d815260200180615e9e602d913960400191505060405180910390fd5b8161ffff166001141561269e5761260f612710610de16013546004546148e490919063ffffffff16565b60058401546126329061262290846149de565b61262c8488614b7d565b906149de565b1061269e57604080517f08c379a000000000000000000000000000000000000000000000000000000000815260206004820152601160248201527f4d61784578706f73757265204c696d6974000000000000000000000000000000604482015290519081900360640190fd5b601454156126cc576016546014546126cc9173ffffffffffffffffffffffffffffffffffffffff1690614ebb565b6018546126f19073ffffffffffffffffffffffffffffffffffffffff16333087614a55565b60058301546127009085614b7d565b60058401556010830154612715906001614b7d565b6010840155600061272a8561ffff8516614957565b905060005b60068163ffffffff16101561279b57868163ffffffff166006811061275057fe5b6020020135156127935761277b82866007018363ffffffff166006811061277357fe5b015490614b7d565b856007018263ffffffff166006811061279057fe5b01555b60010161272f565b50600680546000908152601d602090815260408083203384529091529020906127ca9060028301908990615c0f565b50858155600180820180547fffffffffffffffffffffffffffffffffffffffffffffffffffffffffffff00001661ffff8716179055336000818152601e60209081526040808320600680548254978801835591855292909320909401919091555491517f8fff2ebc45155e71fa11f99b8a19002efe7096d6c87352d1fd0bcffbbddc8680908a908a90808360c080828437600083820152601f017fffffffffffffffffffffffffffffffffffffffffffffffffffffffffffffffe0169091019283525050604051908190036020019150a35050600180555050505050565b60165473ffffffffffffffffffffffffffffffffffffffff16331461292e57604080517f08c379a000000000000000000000000000000000000000000000000000000000815260206004820152600b60248201527f61646d696e3a207775743f000000000000000000000000000000000000000000604482015290519081900360640190fd5b61293661203d565b6129a157604080517f08c379a000000000000000000000000000000000000000000000000000000000815260206004820152601460248201527f5061757361626c653a206e6f7420706175736564000000000000000000000000604482015290519081900360640190fd5b6006546001018214612a1457604080517f08c379a000000000000000000000000000000000000000000000000000000000815260206004820152601960248201527f65706f6368203d3d2063757272656e7445706f6368202b203100000000000000604482015290519081900360640190fd5b600060045411612a6f576040517f08c379a000000000000000000000000000000000000000000000000000000000815260040180806020018281038252602a815260200180615de9602a913960400191505060405180910390fd5b600454600355612a7d614f77565b6006546040805191825242602083015280517fb97a357ed0379a8e44a2d9ccd587ce70b0ac625a5e678303ad10c8c84ca7f7609281900390910190a16006805460010190819055612ace908261503b565b600c546006546000908152601c6020526040902054612aec91614b7d565b600755600d546006546000908152601c6020526040902054612b0d91614b7d565b6008555050565b60165473ffffffffffffffffffffffffffffffffffffffff163314612b9a57604080517f08c379a000000000000000000000000000000000000000000000000000000000815260206004820152600b60248201527f61646d696e3a207775743f000000000000000000000000000000000000000000604482015290519081900360640190fd5b601282905560138190556040805183815260208101839052815143927fe2f5c8588887234e6a368ca64e432b81b636580fe80ac266013c33040122e040928290030190a25050565b60145481565b612bf06150f9565b73ffffffffffffffffffffffffffffffffffffffff16612c0e613392565b73ffffffffffffffffffffffffffffffffffffffff1614612c9057604080517f08c379a000000000000000000000000000000000000000000000000000000000815260206004820181905260248201527f4f776e61626c653a2063616c6c6572206973206e6f7420746865206f776e6572604482015290519081900360640190fd5b73ffffffffffffffffffffffffffffffffffffffff8116612d1257604080517f08c379a000000000000000000000000000000000000000000000000000000000815260206004820152601660248201527f43616e6e6f74206265207a65726f206164647265737300000000000000000000604482015290519081900360640190fd5b601680547fffffffffffffffffffffffff00000000000000000000000000000000000000001673ffffffffffffffffffffffffffffffffffffffff92909216919091179055565b612d616150f9565b73ffffffffffffffffffffffffffffffffffffffff16612d7f613392565b73ffffffffffffffffffffffffffffffffffffffff1614612e0157604080517f08c379a000000000000000000000000000000000000000000000000000000000815260206004820181905260248201527f4f776e61626c653a2063616c6c6572206973206e6f7420746865206f776e6572604482015290519081900360640190fd5b6000805460405173ffffffffffffffffffffffffffffffffffffffff909116907f8be0079c531659141344cd1fd0a4f28419497f9722a3daafe3b4186f6b6457e0908390a3600080547fffffffffffffffffffffffff0000000000000000000000000000000000000000169055565b601d602090815260009283526040808420909152908252902080546001820154600390920154909161ffff169060ff8082169161010090041684565b60065481565b600060036000848152601c6020526040902060110154640100000000900460ff166004811115612ede57fe5b14158015612f085750600b546000848152601c6020526040902060010154612f0591614b7d565b43115b8015612f4257506000838152601d6020908152604080832073ffffffffffffffffffffffffffffffffffffffff8616845290915290205415155b9392505050565b60165473ffffffffffffffffffffffffffffffffffffffff163314612fcf57604080517f08c379a000000000000000000000000000000000000000000000000000000000815260206004820152600b60248201527f61646d696e3a207775743f000000000000000000000000000000000000000000604482015290519081900360640190fd5b612fd761203d565b1561304357604080517f08c379a000000000000000000000000000000000000000000000000000000000815260206004820152601060248201527f5061757361626c653a2070617573656400000000000000000000000000000000604482015290519081900360640190fd5b6006546000908152601c60205260409020600101544310156130b0576040517f08c379a000000000000000000000000000000000000000000000000000000000815260040180806020018281038252602f815260200180615d99602f913960400191505060405180910390fd5b60068054600101908190556130c5908261503b565b50565b60035481565b6130d661203d565b1561314257604080517f08c379a000000000000000000000000000000000000000000000000000000000815260206004820152601060248201527f5061757361626c653a2070617573656400000000000000000000000000000000604482015290519081900360640190fd5b6000818152601c6020526040902080546131a7576040517f08c379a0000000000000000000000000000000000000000000000000000000008152600401808060200182810382526022815260200180615d516022913960400191505060405180910390fd5b806001015443101561321a57604080517f08c379a000000000000000000000000000000000000000000000000000000000815260206004820152601a60248201527f4c6f636b20726f756e64206166746572206c6f636b426c6f636b000000000000604482015290519081900360640190fd5b600b54600182015461322b91614b7d565b43111561329957604080517f08c379a000000000000000000000000000000000000000000000000000000000815260206004820181905260248201527f4c6f636b20726f756e642077697468696e20696e74657276616c426c6f636b73604482015290519081900360640190fd5b6011810180547fffffffffffffffffffffffffffffffffffffffffffffffffffffff00ffffffff1664020000000017905560408051438152905183917f2a10a104c1d678d140bb24df324113b019210a9ef40e150f0acf0dedde4bc68e919081900360200190a25050565b601a5473ffffffffffffffffffffffffffffffffffffffff1681565b601c6020526000908152604090208054600182015460028301546003840154600485015460058601546006870154600d880154600e890154600f8a015460108b01546011909b0154999a98999798969795969495939492939192909163ffffffff811690640100000000900460ff168d565b60005473ffffffffffffffffffffffffffffffffffffffff1690565b73ffffffffffffffffffffffffffffffffffffffff83166000908152601e602052604081205460609190839085900381111561340f575073ffffffffffffffffffffffffffffffffffffffff85166000908152601e60205260409020548490035b60608167ffffffffffffffff8111801561342857600080fd5b50604051908082528060200260200182016040528015613452578160200160208202803683370190505b50905060005b828110156134c35773ffffffffffffffffffffffffffffffffffffffff88166000908152601e6020526040902061348f8883614b7d565b8154811061349957fe5b90600052602060002001548282815181106134b057fe5b6020908102919091010152600101613458565b50806134cf8784614b7d565b935093505050935093915050565b600060036000848152601c6020526040902060110154640100000000900460ff16600481111561350957fe5b148015612f4257506000838152601d6020908152604080832073ffffffffffffffffffffffffffffffffffffffff861684528252808320868452601c9092529091206011015460029091019063ffffffff166006811061356557fe5b602081049091015460ff601f9092166101000a900416905092915050565b60165473ffffffffffffffffffffffffffffffffffffffff16331461360957604080517f08c379a000000000000000000000000000000000000000000000000000000000815260206004820152600b60248201527f61646d696e3a207775743f000000000000000000000000000000000000000000604482015290519081900360640190fd5b61361161203d565b1561367d57604080517f08c379a000000000000000000000000000000000000000000000000000000000815260206004820152601060248201527f5061757361626c653a2070617573656400000000000000000000000000000000604482015290519081900360640190fd5b60065481146136ed57604080517f08c379a000000000000000000000000000000000000000000000000000000000815260206004820152601560248201527f65706f6368203d3d2063757272656e7445706f63680000000000000000000000604482015290519081900360640190fd5b6136f5614bf1565b6136fe81614ce3565b613706614dba565b6006546040805191825242602083015280517f620494b8df07e75c9eb56fea25105fc50d24deb9b63f8f96d7630ac9fe9882589281900390910190a150565b60165473ffffffffffffffffffffffffffffffffffffffff1633146137cb57604080517f08c379a000000000000000000000000000000000000000000000000000000000815260206004820152600b60248201527f61646d696e3a207775743f000000000000000000000000000000000000000000604482015290519081900360640190fd5b6137d361203d565b1561383f57604080517f08c379a000000000000000000000000000000000000000000000000000000000815260206004820152601060248201527f5061757361626c653a2070617573656400000000000000000000000000000000604482015290519081900360640190fd5b60065482146138af57604080517f08c379a000000000000000000000000000000000000000000000000000000000815260206004820152601560248201527f65706f6368203d3d2063757272656e7445706f63680000000000000000000000604482015290519081900360640190fd5b6138ba6006546130ce565b60068054600101908190556138cf908261503b565b6007546006546000908152601c60205260409020541061395057604080517f08c379a000000000000000000000000000000000000000000000000000000000815260206004820152601b60248201527f7374617274426c6f636b203c20706c61796572456e64426c6f636b0000000000604482015290519081900360640190fd5b6007546006546000908152601c602052604090206001015411156139d557604080517f08c379a000000000000000000000000000000000000000000000000000000000815260206004820152601a60248201527f6c6f636b426c6f636b203c20706c61796572456e64426c6f636b000000000000604482015290519081900360640190fd5b5050565b61271081565b60045481565b6139ed61203d565b613a5857604080517f08c379a000000000000000000000000000000000000000000000000000000000815260206004820152601460248201527f5061757361626c653a206e6f7420706175736564000000000000000000000000604482015290519081900360640190fd5b60026001541415613aca57604080517f08c379a000000000000000000000000000000000000000000000000000000000815260206004820152601f60248201527f5265656e7472616e637947756172643a207265656e7472616e742063616c6c00604482015290519081900360640190fd5b6002600155613ad8336149d8565b15613b4457604080517f08c379a000000000000000000000000000000000000000000000000000000000815260206004820152601460248201527f636f6e7472616374206e6f7420616c6c6f776564000000000000000000000000604482015290519081900360640190fd5b333214613bb257604080517f08c379a000000000000000000000000000000000000000000000000000000000815260206004820152601a60248201527f70726f787920636f6e7472616374206e6f7420616c6c6f776564000000000000604482015290519081900360640190fd5b60008111613c2157604080517f08c379a000000000000000000000000000000000000000000000000000000000815260206004820152601260248201527f4465706f73697420616d6f756e74203e20300000000000000000000000000000604482015290519081900360640190fd5b601554600454613c319083614b7d565b10613c9d57604080517f08c379a000000000000000000000000000000000000000000000000000000000815260206004820152601560248201527f6d617842616e6b6572416d6f756e74204c696d69740000000000000000000000604482015290519081900360640190fd5b336000818152601f602052604090206018549091613cd39173ffffffffffffffffffffffffffffffffffffffff16903085614a55565b600554600090613cec90610de18564e8d4a510006148e4565b601a54604080517f40c10f1900000000000000000000000000000000000000000000000000000000815233600482015260248101849052905192935073ffffffffffffffffffffffffffffffffffffffff909116916340c10f19916044808201926020929091908290030181600087803b158015613d6957600080fd5b505af1158015613d7d573d6000803e3d6000fd5b505050506040513d6020811015613d9357600080fd5b50508154600090613da49083614b7d565b9050613de181610de164e8d4a5100061159d88613ddb64e8d4a51000610de18b600001548c600101546148e490919063ffffffff16565b90614b7d565b6001840155808355600454613df69085614b7d565b60045560408051858152905133917fe1fffcc4923d04b559f4d29a8bfc6cda04eb5b0d3c460751c2402c5c5cc9109c919081900360200190a25050600180555050565b600f5481565b60165473ffffffffffffffffffffffffffffffffffffffff163314613ec557604080517f08c379a000000000000000000000000000000000000000000000000000000000815260206004820152600b60248201527f61646d696e3a207775743f000000000000000000000000000000000000000000604482015290519081900360640190fd5b73ffffffffffffffffffffffffffffffffffffffff8116613f4757604080517f08c379a000000000000000000000000000000000000000000000000000000000815260206004820152601d60248201527f444943453a20496e76616c696420726f7574657220616464726573732e000000604482015290519081900360640190fd5b601b80547fffffffffffffffffffffffff00000000000000000000000000000000000000001673ffffffffffffffffffffffffffffffffffffffff83811691909117918290556040519116907f36db479a3b4d3672bd6f5fca4484283f60b5ac70647b1ceec13ecbb1d030a2df90600090a250565b60165473ffffffffffffffffffffffffffffffffffffffff16331461404257604080517f08c379a000000000000000000000000000000000000000000000000000000000815260206004820152600b60248201527f61646d696e3a207775743f000000000000000000000000000000000000000000604482015290519081900360640190fd5b6011839055601482905560158190556040805184815260208101849052808201839052905143917f08fcf843611805166678c79ce15ba4e48e0761763f021569ddd752ac73cdc2b9919081900360600190a2505050565b60125481565b601b5473ffffffffffffffffffffffffffffffffffffffff1681565b60165473ffffffffffffffffffffffffffffffffffffffff16331461414157604080517f08c379a000000000000000000000000000000000000000000000000000000000815260206004820152600b60248201527f61646d696e3a207775743f000000000000000000000000000000000000000000604482015290519081900360640190fd5b6103e88311156141b257604080517f08c379a000000000000000000000000000000000000000000000000000000000815260206004820152600e60248201527f67617052617465203c3d20313025000000000000000000000000000000000000604482015290519081900360640190fd5b6127106141bf8383614b7d565b1115614216576040517f08c379a0000000000000000000000000000000000000000000000000000000008152600401808060200182810382526026815260200180615d056026913960400191505060405180910390fd5b600e839055600f82905560108190556040805184815260208101849052808201839052905143917f83ee137d4eea1eef0029a0cb811df31b555f216d3a45c791729e226eb145a7d5919081900360600190a2505050565b60165473ffffffffffffffffffffffffffffffffffffffff1633146142f357604080517f08c379a000000000000000000000000000000000000000000000000000000000815260206004820152600b60248201527f61646d696e3a207775743f000000000000000000000000000000000000000000604482015290519081900360640190fd5b6142fb61203d565b1561436757604080517f08c379a000000000000000000000000000000000000000000000000000000000815260206004820152601060248201527f5061757361626c653a2070617573656400000000000000000000000000000000604482015290519081900360640190fd5b6000828152601c6020526040902060018101546143e557604080517f08c379a000000000000000000000000000000000000000000000000000000000815260206004820181905260248201527f456e6420726f756e6420616674657220726f756e6420686173206c6f636b6564604482015290519081900360640190fd5b60026011820154640100000000900460ff16600481111561440257fe5b1461446e57604080517f08c379a000000000000000000000000000000000000000000000000000000000815260206004820181905260248201527f456e6420726f756e6420616674657220726f756e6420686173206c6f636b6564604482015290519081900360640190fd5b80600101544310156144e157604080517f08c379a000000000000000000000000000000000000000000000000000000000815260206004820152601b60248201527f53656e6420736563726574206166746572206c6f636b426c6f636b0000000000604482015290519081900360640190fd5b600b5460018201546144f291614b7d565b43111561454a576040517f08c379a0000000000000000000000000000000000000000000000000000000008152600401808060200182810382526021815260200180615dc86021913960400191505060405180910390fd5b6004810154156145bb57604080517f08c379a000000000000000000000000000000000000000000000000000000000815260206004820152601060248201527f416c72656164792072657665616c656400000000000000000000000000000000604482015290519081900360640190fd5b6003810154604080516020808201869052825180830382018152918301909252805191012014614636576040517f08c379a0000000000000000000000000000000000000000000000000000000008152600401808060200182810382526023815260200180615e376023913960400191505060405180910390fd5b61464083836150fd565b61464983615256565b505050565b73ffffffffffffffffffffffffffffffffffffffff81166000908152601f6020526040812060010154600554610de79190610de19060646148e4565b60085481565b601e60205281600052604060002081815481106146a957fe5b90600052602060002001600091509150505481565b600e5481565b60135481565b60075481565b601f602052600090815260409020805460019091015482565b6146f16150f9565b73ffffffffffffffffffffffffffffffffffffffff1661470f613392565b73ffffffffffffffffffffffffffffffffffffffff161461479157604080517f08c379a000000000000000000000000000000000000000000000000000000000815260206004820181905260248201527f4f776e61626c653a2063616c6c6572206973206e6f7420746865206f776e6572604482015290519081900360640190fd5b73ffffffffffffffffffffffffffffffffffffffff81166147fd576040517f08c379a0000000000000000000000000000000000000000000000000000000008152600401808060200182810382526026815260200180615d2b6026913960400191505060405180910390fd5b6000805460405173ffffffffffffffffffffffffffffffffffffffff808516939216917f8be0079c531659141344cd1fd0a4f28419497f9722a3daafe3b4186f6b6457e091a3600080547fffffffffffffffffffffffff00000000000000000000000000000000000000001673ffffffffffffffffffffffffffffffffffffffff92909216919091179055565b60115481565b60185473ffffffffffffffffffffffffffffffffffffffff1681565b60165473ffffffffffffffffffffffffffffffffffffffff1681565b60195473ffffffffffffffffffffffffffffffffffffffff1681565b6000826148f357506000610de7565b8282028284828161490057fe5b0414612f42576040517f08c379a0000000000000000000000000000000000000000000000000000000008152600401808060200182810382526021815260200180615e5a6021913960400191505060405180910390fd5b60008082116149c757604080517f08c379a000000000000000000000000000000000000000000000000000000000815260206004820152601a60248201527f536166654d6174683a206469766973696f6e206279207a65726f000000000000604482015290519081900360640190fd5b8183816149d057fe5b049392505050565b3b151590565b600082821115614a4f57604080517f08c379a000000000000000000000000000000000000000000000000000000000815260206004820152601e60248201527f536166654d6174683a207375627472616374696f6e206f766572666c6f770000604482015290519081900360640190fd5b50900390565b6040805173ffffffffffffffffffffffffffffffffffffffff80861660248301528416604482015260648082018490528251808303909101815260849091019091526020810180517bffffffffffffffffffffffffffffffffffffffffffffffffffffffff167f23b872dd00000000000000000000000000000000000000000000000000000000179052614aea9085906158a7565b50505050565b6040805173ffffffffffffffffffffffffffffffffffffffff8416602482015260448082018490528251808303909101815260649091019091526020810180517bffffffffffffffffffffffffffffffffffffffffffffffffffffffff167fa9059cbb000000000000000000000000000000000000000000000000000000001790526146499084906158a7565b600082820183811015612f4257604080517f08c379a000000000000000000000000000000000000000000000000000000000815260206004820152601b60248201527f536166654d6174683a206164646974696f6e206f766572666c6f770000000000604482015290519081900360640190fd5b614bf961203d565b15614c6557604080517f08c379a000000000000000000000000000000000000000000000000000000000815260206004820152601060248201527f5061757361626c653a2070617573656400000000000000000000000000000000604482015290519081900360640190fd5b600280547fffffffffffffffffffffffffffffffffffffffffffffffffffffffffffffff001660011790557f62e78cea01bee320cd4e420270b5ea74000d11b0c9f74754ebdbfc544b05a258614cb96150f9565b6040805173ffffffffffffffffffffffffffffffffffffffff9092168252519081900360200190a1565b614ceb61203d565b614d5657604080517f08c379a000000000000000000000000000000000000000000000000000000000815260206004820152601460248201527f5061757361626c653a206e6f7420706175736564000000000000000000000000604482015290519081900360640190fd5b614d73600354610de16004546005546148e490919063ffffffff16565b60058190556040805183815242602082015280820192909252517f95469f147cc262e5fccd74055a3cb233412f6bcf9a302bbc231d02b6b71a488b9181900360600190a150565b60095415614eb957600980546000909155601754601854614df59173ffffffffffffffffffffffffffffffffffffffff918216911683614af0565b601754600a54604080517f9f8dbb7b00000000000000000000000000000000000000000000000000000000815260048101929092525173ffffffffffffffffffffffffffffffffffffffff90921691639f8dbb7b9160248082019260009290919082900301818387803b158015614e6b57600080fd5b505af1158015614e7f573d6000803e3d6000fd5b50506040805184815290517f99bfec7bb1f89aca0e348998b13dc0b1f047b71528153fcabd586d4f7339abf89350908190036020019150a1505b565b60405160009073ffffffffffffffffffffffffffffffffffffffff8416906159d890849084818181858888f193505050503d8060008114614f18576040519150601f19603f3d011682016040523d82523d6000602084013e614f1d565b606091505b5050905080614649576040517f08c379a0000000000000000000000000000000000000000000000000000000008152600401808060200182810382526023815260200180615e7b6023913960400191505060405180910390fd5b614f7f61203d565b614fea57604080517f08c379a000000000000000000000000000000000000000000000000000000000815260206004820152601460248201527f5061757361626c653a206e6f7420706175736564000000000000000000000000604482015290519081900360640190fd5b600280547fffffffffffffffffffffffffffffffffffffffffffffffffffffffffffffff001690557f5db9ee0a495bf2e6ff9c91a7834c1ba4fdd244a5e8aa4e537bd38aeae4b073aa614cb96150f9565b6000828152601c6020526040902043808255600b5461505a9190614b7d565b600182015560038101829055600060058201556012546004546150849161271091610de1916148e4565b60068201556011810180547fffffffffffffffffffffffffffffffffffffffffffffffffffffff00ffffffff166401000000001790556040805143815260208101849052815185927fb9413afe4aa8b9bd9b95231fb3ce86db2070c997ffaaf2359570376259653cc6928290030190a2505050565b3390565b61510561203d565b1561517157604080517f08c379a000000000000000000000000000000000000000000000000000000000815260206004820152601060248201527f5061757361626c653a2070617573656400000000000000000000000000000000604482015290519081900360640190fd5b6000828152601c60205260409020436002820155600481018290556010810154821844186006816011840180547fffffffffffffffffffffffffffffffffffffffffffffffffffffffff00000000169290910663ffffffff1691909117808255600391907fffffffffffffffffffffffffffffffffffffffffffffffffffffff00ffffffff166401000000008302179055506011820154604080514381526020810186905263ffffffff909216828201525185917ff12b3b25d193d87bfaff62f011c9f2b3b0631ec2ed1f63fabd3a3066391dbf50919081900360600190a250505050565b612710615270601054600f54614b7d90919063ffffffff16565b11156152c7576040517f08c379a0000000000000000000000000000000000000000000000000000000008152600401808060200182810382526024815260200180615e136024913960400191505060405180910390fd5b6000818152601c60205260409020600e01541561534557604080517f08c379a000000000000000000000000000000000000000000000000000000000815260206004820152601260248201527f526577617264732063616c63756c617465640000000000000000000000000000604482015290519081900360640190fd5b6000818152601c602052604081209080805b60068163ffffffff16101561552f57601184015463ffffffff8281169116141561546e5760006153b7612710610de1600f5461159d612710610de1600e5461159d60058e6007018c63ffffffff16600681106153af57fe5b0154906148e4565b90506153c38482614b7d565b935060006153f9612710610de160105461159d612710610de1600e5461159d60058f6007018d63ffffffff16600681106153af57fe5b90506154058482614b7d565b93506000615443612710610de1615429600e546127106149de90919063ffffffff16565b61159d60058c6007018a63ffffffff16600681106153af57fe5b90506154628261262c8561262c856004546149de90919063ffffffff16565b60045550615527915050565b600061549d612710610de1600f5461159d612710610de1600e548c6007018a63ffffffff16600681106153af57fe5b90506154a98482614b7d565b935060006154da612710610de160105461159d612710610de1600e548d6007018b63ffffffff16600681106153af57fe5b90506154e68482614b7d565b93506000866007018463ffffffff16600681106154ff57fe5b015490506155208261262c8561262c85600454614b7d90919063ffffffff16565b6004555050505b600101615357565b50600d8301829055600e830181905560195460185473ffffffffffffffffffffffffffffffffffffffff9081169116141561557057600f8301829055615841565b601b5473ffffffffffffffffffffffffffffffffffffffff16156158415760408051600280825260608083018452926020830190803683375050601854825192935073ffffffffffffffffffffffffffffffffffffffff16918391506000906155d557fe5b73ffffffffffffffffffffffffffffffffffffffff928316602091820292909201015260195482519116908290600190811061560d57fe5b602002602001019073ffffffffffffffffffffffffffffffffffffffff16908173ffffffffffffffffffffffffffffffffffffffff16815250506000601b60009054906101000a900473ffffffffffffffffffffffffffffffffffffffff1673ffffffffffffffffffffffffffffffffffffffff166338ed173986600d0154600085304261012c016040518663ffffffff1660e01b815260040180868152602001858152602001806020018473ffffffffffffffffffffffffffffffffffffffff168152602001838152602001828103825285818151815260200191508051906020019060200280838360005b838110156157125781810151838201526020016156fa565b505050509050019650505050505050600060405180830381600087803b15801561573b57600080fd5b505af115801561574f573d6000803e3d6000fd5b505050506040513d6000823e601f3d9081017fffffffffffffffffffffffffffffffffffffffffffffffffffffffffffffffe0168201604052602081101561579657600080fd5b81019080805160405193929190846401000000008211156157b657600080fd5b9083019060208201858111156157cb57600080fd5b82518660208202830111640100000000821117156157e857600080fd5b82525081516020918201928201910280838360005b838110156158155781810151838201526020016157fd565b5050505090500160405250505060018151811061582e57fe5b6020908102919091010151600f86015550505b60095461584e9082614b7d565b600955600d830154600e840154600f850154604080519384526020840192909252828201525185917f6dfdfcb09c8804d0058826cd2539f1acfbe3cb887c9be03d928035bce0f1a58d919081900360600190a250505050565b6060615909826040518060400160405280602081526020017f5361666542455032303a206c6f772d6c6576656c2063616c6c206661696c65648152508573ffffffffffffffffffffffffffffffffffffffff1661597f9092919063ffffffff16565b8051909150156146495780806020019051602081101561592857600080fd5b5051614649576040517f08c379a000000000000000000000000000000000000000000000000000000000815260040180806020018281038252602a815260200180615cdb602a913960400191505060405180910390fd5b606061598e8484600085615996565b949350505050565b6060824710156159f1576040517f08c379a0000000000000000000000000000000000000000000000000000000008152600401808060200182810382526026815260200180615d736026913960400191505060405180910390fd5b6159fa856149d8565b615a6557604080517f08c379a000000000000000000000000000000000000000000000000000000000815260206004820152601d60248201527f416464726573733a2063616c6c20746f206e6f6e2d636f6e7472616374000000604482015290519081900360640190fd5b600060608673ffffffffffffffffffffffffffffffffffffffff1685876040518082805190602001908083835b60208310615acf57805182527fffffffffffffffffffffffffffffffffffffffffffffffffffffffffffffffe09092019160209182019101615a92565b6001836020036101000a03801982511681845116808217855250505050505090500191505060006040518083038185875af1925050503d8060008114615b31576040519150601f19603f3d011682016040523d82523d6000602084013e615b36565b606091505b5091509150615b46828286615b51565b979650505050505050565b60608315615b60575081612f42565b825115615b705782518084602001fd5b816040517f08c379a00000000000000000000000000000000000000000000000000000000081526004018080602001828103825283818151815260200191508051906020019080838360005b83811015615bd4578181015183820152602001615bbc565b50505050905090810190601f168015615c015780820380516001836020036101000a031916815260200191505b509250505060405180910390fd5b600183019183908215615c935791602002820160005b83821115615c64578335151583826101000a81548160ff0219169083151502179055509260200192600101602081600001049283019260010302615c25565b8015615c915782816101000a81549060ff0219169055600101602081600001049283019260010302615c64565b505b50615c9f929150615ca3565b5090565b5b80821115615c9f5780547fffffffffffffffffffffffffffffffffffffffffffffffffffffffffffffff00168155600101615ca456fe5361666542455032303a204245503230206f7065726174696f6e20646964206e6f7420737563636565645f6c634261636b52617465202b205f626f6e757352617465203c3d20544f54414c5f524154454f776e61626c653a206e6577206f776e657220697320746865207a65726f20616464726573734c6f636b20726f756e6420616674657220726f756e64206861732073746172746564416464726573733a20696e73756666696369656e742062616c616e636520666f722063616c6c4d616e75616c207374617274206e657720726f756e642061667465722063757272656e7420726f756e64206c6f636b53656e64207365637265742077697468696e20696e74657276616c426c6f636b73526f756e642063616e207374617274206f6e6c79207768656e2062616e6b6572416d6f756e74203e20306c634261636b52617465202b20626f6e757352617465203c3d20544f54414c5f5241544542616e6b2072657665616c206e6f74206d61746368696e6720636f6d6d69746d656e74536166654d6174683a206d756c7469706c69636174696f6e206f766572666c6f775472616e7366657248656c7065723a20424e425f5452414e534645525f4641494c4544426574416d6f756e74203c3d20726f756e642e6d6178426574416d6f756e74202a206e756d626572436f756e74426574416d6f756e74203e3d206d696e426574416d6f756e74202a206e756d626572436f756e74a2646970667358221220fce9c412fd28a4dcce4a75b1cebd0b2bd2bfd276cafa74709f5a8f487f267b5e64736f6c634300060c0033",
  "immutableReferences": {},
  "source": "// SPDX-License-Identifier: MIT\n\npragma solidity 0.6.12;\n\nimport \"@openzeppelin/contracts/math/SafeMath.sol\";\nimport \"@openzeppelin/contracts/access/Ownable.sol\";\nimport \"@openzeppelin/contracts/utils/Pausable.sol\";\nimport \"@openzeppelin/contracts/utils/ReentrancyGuard.sol\";\nimport \"./DiceToken.sol\";\nimport \"./libs/IBEP20.sol\";\nimport \"./libs/SafeBEP20.sol\";\nimport \"./libs/ILuckyChipRouter02.sol\";\nimport \"./libs/IMasterChef.sol\";\n\ncontract Dice is Ownable, ReentrancyGuard, Pausable {\n    using SafeMath for uint256;\n    using SafeBEP20 for IBEP20;\n\n    uint256 public prevBankerAmount;\n    uint256 public bankerAmount;\n    uint256 public netValue;\n    uint256 public currentEpoch;\n    uint256 public playerEndBlock;\n    uint256 public bankerEndBlock;\n    uint256 public totalBonusAmount;\n    uint256 public masterChefBonusId;\n    uint256 public intervalBlocks;\n    uint256 public playerTimeBlocks;\n    uint256 public bankerTimeBlocks;\n    uint256 public constant TOTAL_RATE = 10000; // 100%\n    uint256 public gapRate = 500;\n    uint256 public lcBackRate = 1000; // 10% in gap\n    uint256 public bonusRate = 1000; // 10% in gap\n    uint256 public minBetAmount;\n    uint256 public maxBetRatio = 5;\n    uint256 public maxExposureRatio = 300;\n    uint256 public feeAmount;\n    uint256 public maxBankerAmount;\n\n    address public adminAddress;\n    address public masterChefAddress;\n    IBEP20 public token;\n    IBEP20 public lcToken;\n    DiceToken public diceToken;    \n    ILuckyChipRouter02 public swapRouter;\n\n    enum Status {\n        Pending,\n        Open,\n        Lock,\n        Claimable,\n        Expired\n    }\n\n    struct Round {\n        uint256 startBlock;\n        uint256 lockBlock;\n        uint256 secretSentBlock;\n        bytes32 bankHash;\n        uint256 bankSecret;\n        uint256 totalAmount;\n        uint256 maxBetAmount;\n        uint256[6] betAmounts;\n        uint256 lcBackAmount;\n        uint256 bonusAmount;\n        uint256 swapLcAmount;\n        uint256 betUsers;\n        uint32 finalNumber;\n        Status status;\n    }\n\n    struct BetInfo {\n        uint256 amount;\n        uint16 numberCount;    \n        bool[6] numbers;\n        bool claimed; // default false\n        bool lcClaimed; // default false\n    }\n\n    struct BankerInfo {\n        uint256 diceTokenAmount;\n        uint256 avgBuyValue;\n    }\n\n    mapping(uint256 => Round) public rounds;\n    mapping(uint256 => mapping(address => BetInfo)) public ledger;\n    mapping(address => uint256[]) public userRounds;\n    mapping(address => BankerInfo) public bankerInfo;\n\n    event RatesUpdated(uint256 indexed block, uint256 gapRate, uint256 lcBackRate, uint256 bonusRate);\n    event AmountsUpdated(uint256 indexed block, uint256 minBetAmount, uint256 feeAmount, uint256 maxBankerAmount);\n    event RatiosUpdated(uint256 indexed block, uint256 maxBetRatio, uint256 maxExposureRatio);\n    event StartRound(uint256 indexed epoch, uint256 blockNumber, bytes32 bankHash);\n    event LockRound(uint256 indexed epoch, uint256 blockNumber);\n    event SendSecretRound(uint256 indexed epoch, uint256 blockNumber, uint256 bankSecret, uint32 finalNumber);\n    event BetNumber(address indexed sender, uint256 indexed currentEpoch, bool[6] numbers, uint256 amount);\n    event Claim(address indexed sender, uint256 indexed currentEpoch, uint256 amount);\n    event ClaimBonusLC(address indexed sender, uint256 amount);\n    event ClaimBonus(uint256 amount);\n    event RewardsCalculated(\n        uint256 indexed epoch,\n        uint256 lcbackamount,\n        uint256 bonusamount,\n        uint256 swaplcamount\n    );\n    event SwapRouterUpdated(address indexed router);\n    event EndPlayerTime(uint256 epoch, uint256 blockNumber);\n    event EndBankerTime(uint256 epoch, uint256 blockNumber);\n    event UpdateNetValue(uint256 epoch, uint256 blockNumber, uint256 netValue);\n    event Deposit(address indexed user, uint256 tokenAmount);    \n    event Withdraw(address indexed user, uint256 diceTokenAmount);    \n\n    constructor(\n        address _tokenAddress,\n        address _lcTokenAddress,\n        address _diceTokenAddress,\n        address _masterChefAddress,\n        uint256 _masterChefBonusId,\n        uint256 _intervalBlocks,\n        uint256 _playerTimeBlocks,\n        uint256 _bankerTimeBlocks,\n        uint256 _minBetAmount,\n        uint256 _feeAmount,\n        uint256 _maxBankerAmount\n    ) public {\n        token = IBEP20(_tokenAddress);\n        lcToken = IBEP20(_lcTokenAddress);\n        diceToken = DiceToken(_diceTokenAddress);\n        masterChefAddress = _masterChefAddress;\n        masterChefBonusId = _masterChefBonusId;\n        intervalBlocks = _intervalBlocks;\n        playerTimeBlocks = _playerTimeBlocks;\n        bankerTimeBlocks = _bankerTimeBlocks;\n        minBetAmount = _minBetAmount;\n        feeAmount = _feeAmount;\n        maxBankerAmount = _maxBankerAmount;\n        netValue = uint256(1e12);\n        _pause();\n    }\n\n    modifier notContract() {\n        require(!_isContract(msg.sender), \"contract not allowed\");\n        require(msg.sender == tx.origin, \"proxy contract not allowed\");\n        _;\n    }\n\n    modifier onlyAdmin() {\n        require(msg.sender == adminAddress, \"admin: wut?\");\n        _;\n    }\n\n    // set blocks\n    function setBlocks(uint256 _intervalBlocks, uint256 _playerTimeBlocks, uint256 _bankerTimeBlocks) external onlyAdmin {\n        intervalBlocks = _intervalBlocks;\n        playerTimeBlocks = _playerTimeBlocks;\n        bankerTimeBlocks = _bankerTimeBlocks;\n    }\n\n    // set rates\n    function setRates(uint256 _gapRate, uint256 _lcBackRate, uint256 _bonusRate) external onlyAdmin {\n        require(_gapRate <= 1000, \"gapRate <= 10%\");\n        require(_lcBackRate.add(_bonusRate) <= TOTAL_RATE, \"_lcBackRate + _bonusRate <= TOTAL_RATE\");\n        gapRate = _gapRate;\n        lcBackRate = _lcBackRate;\n        bonusRate = _bonusRate;\n\n        emit RatesUpdated(block.number, gapRate, lcBackRate, bonusRate);\n    }\n\n    // set amounts\n    function setAmounts(uint256 _minBetAmount, uint256 _feeAmount, uint256 _maxBankerAmount) external onlyAdmin {\n        minBetAmount = _minBetAmount;\n        feeAmount = _feeAmount;\n        maxBankerAmount = _maxBankerAmount;\n        emit AmountsUpdated(block.number, minBetAmount, feeAmount, maxBankerAmount);\n    }\n\n    // set ratios\n    function setRatios(uint256 _maxBetRatio, uint256 _maxExposureRatio) external onlyAdmin {\n        maxBetRatio = _maxBetRatio;\n        maxExposureRatio = _maxExposureRatio;\n        emit RatiosUpdated(block.number, maxBetRatio, maxExposureRatio);\n    }\n\n    // set admin address\n    function setAdmin(address _adminAddress) external onlyOwner {\n        require(_adminAddress != address(0), \"Cannot be zero address\");\n        adminAddress = _adminAddress;\n    }\n\n    // End banker time\n    function endBankerTime(uint256 epoch, bytes32 bankHash) external onlyAdmin whenPaused {\n        require(epoch == currentEpoch + 1, \"epoch == currentEpoch + 1\");\n        require(bankerAmount > 0, \"Round can start only when bankerAmount > 0\");\n        prevBankerAmount = bankerAmount;\n        _unpause();\n        emit EndBankerTime(currentEpoch, block.timestamp);\n        \n        currentEpoch = currentEpoch + 1;\n        _startRound(currentEpoch, bankHash);\n        playerEndBlock = rounds[currentEpoch].startBlock.add(playerTimeBlocks);\n        bankerEndBlock = rounds[currentEpoch].startBlock.add(bankerTimeBlocks);\n    }\n\n    // Start the next round n, lock for round n-1\n    function executeRound(uint256 epoch, bytes32 bankHash) external onlyAdmin whenNotPaused{\n        require(epoch == currentEpoch, \"epoch == currentEpoch\");\n\n        // CurrentEpoch refers to previous round (n-1)\n        lockRound(currentEpoch);\n\n        // Increment currentEpoch to current round (n)\n        currentEpoch = currentEpoch + 1;\n        _startRound(currentEpoch, bankHash);\n        require(rounds[currentEpoch].startBlock < playerEndBlock, \"startBlock < playerEndBlock\");\n        require(rounds[currentEpoch].lockBlock <= playerEndBlock, \"lockBlock < playerEndBlock\");\n    }\n\n    // end player time, triggers banker time\n    function endPlayerTime(uint256 epoch, uint256 bankSecret) external onlyAdmin whenNotPaused{\n        require(epoch == currentEpoch, \"epoch == currentEpoch\");\n        sendSecret(epoch, bankSecret);\n        _pause();\n        _updateNetValue(epoch);\n\t\t_claimBonus();\n        emit EndPlayerTime(currentEpoch, block.timestamp);\n    }\n\n    // end player time without caring last round\n    function endPlayerTimeImmediately(uint256 epoch) external onlyAdmin whenNotPaused{\n        require(epoch == currentEpoch, \"epoch == currentEpoch\");\n        _pause();\n        _updateNetValue(epoch);\n\t\t_claimBonus();\n        emit EndPlayerTime(currentEpoch, block.timestamp);\n    }\n\n    // update net value\n    function _updateNetValue(uint256 epoch) internal whenPaused{    \n        netValue = netValue.mul(bankerAmount).div(prevBankerAmount);\n        emit UpdateNetValue(epoch, block.timestamp, netValue);\n    }\n\n    // send bankSecret\n    function sendSecret(uint256 epoch, uint256 bankSecret) public onlyAdmin whenNotPaused{\n\t\tRound storage round = rounds[epoch];\n        require(round.lockBlock != 0, \"End round after round has locked\");\n        require(round.status == Status.Lock, \"End round after round has locked\");\n        require(block.number >= round.lockBlock, \"Send secret after lockBlock\");\n        require(block.number <= round.lockBlock.add(intervalBlocks), \"Send secret within intervalBlocks\");\n        require(round.bankSecret == 0, \"Already revealed\");\n        require(keccak256(abi.encodePacked(bankSecret)) == round.bankHash, \"Bank reveal not matching commitment\");\n\n        _safeSendSecret(epoch, bankSecret);\n        _calculateRewards(epoch);\n    }\n\n    function _safeSendSecret(uint256 epoch, uint256 bankSecret) internal whenNotPaused {\n        Round storage round = rounds[epoch];\n        round.secretSentBlock = block.number;\n        round.bankSecret = bankSecret;\n        uint256 random = round.bankSecret ^ round.betUsers ^ block.difficulty;\n        round.finalNumber = uint32(random % 6);\n        round.status = Status.Claimable;\n\n        emit SendSecretRound(epoch, block.number, bankSecret, round.finalNumber);\n    }\n\n    // bet number\n    function betNumber(bool[6] calldata numbers, uint256 amount) external payable whenNotPaused notContract nonReentrant {\n        Round storage round = rounds[currentEpoch];\n\t\trequire(msg.value >= feeAmount, \"msg.value > feeAmount\");\n        require(round.status == Status.Open, \"Round not Open\");\n        require(block.number > round.startBlock && block.number < round.lockBlock, \"Round not bettable\");\n        require(ledger[currentEpoch][msg.sender].amount == 0, \"Bet once per round\");\n        uint16 numberCount = 0;\n        uint256 maxSingleBetAmount = 0;\n        for (uint32 i = 0; i < 6; i ++) {\n            if (numbers[i]) {\n                numberCount = numberCount + 1;    \n                if(round.betAmounts[i] > maxSingleBetAmount){\n                    maxSingleBetAmount = round.betAmounts[i];\n                }\n            }\n        }\n        require(numberCount > 0, \"numberCount > 0\");\n        require(amount >= minBetAmount.mul(uint256(numberCount)), \"BetAmount >= minBetAmount * numberCount\");\n        require(amount <= round.maxBetAmount.mul(uint256(numberCount)), \"BetAmount <= round.maxBetAmount * numberCount\");\n        if(numberCount == 1){\n            require(maxSingleBetAmount.add(amount).sub(round.totalAmount.sub(maxSingleBetAmount)) < bankerAmount.mul(maxExposureRatio).div(TOTAL_RATE), 'MaxExposure Limit');\n        }\n        \n\t\tif (feeAmount > 0){\n            _safeTransferBNB(adminAddress, feeAmount);\n        }\n\n        token.safeTransferFrom(address(msg.sender), address(this), amount);\n\n        // Update round data\n        round.totalAmount = round.totalAmount.add(amount);\n        round.betUsers = round.betUsers.add(1);\n        uint256 betAmount = amount.div(uint256(numberCount));\n        for (uint32 i = 0; i < 6; i ++) {\n            if (numbers[i]) {\n                round.betAmounts[i] = round.betAmounts[i].add(betAmount);\n            }\n        }\n\n        // Update user data\n        BetInfo storage betInfo = ledger[currentEpoch][msg.sender];\n        betInfo.numbers = numbers;\n        betInfo.amount = amount;\n        betInfo.numberCount = numberCount;\n        userRounds[msg.sender].push(currentEpoch);\n\n        emit BetNumber(msg.sender, currentEpoch, numbers, amount);\n    }\n\n\n    // Claim reward\n    function claim(uint256 epoch) external notContract nonReentrant {\n        require(rounds[epoch].startBlock != 0, \"Round has not started\");\n        require(block.number > rounds[epoch].lockBlock, \"Round has not locked\");\n        require(!ledger[epoch][msg.sender].claimed, \"Rewards claimed\");\n\n        uint256 reward;\n        BetInfo storage betInfo = ledger[epoch][msg.sender];\n        // Round valid, claim rewards\n        if (rounds[epoch].status == Status.Claimable) {\n            require(claimable(epoch, msg.sender), \"Not eligible for claim\");\n\t\t\tuint256 singleAmount = betInfo.amount.div(uint256(betInfo.numberCount));\n            reward = singleAmount.mul(5).mul(TOTAL_RATE.sub(gapRate)).div(TOTAL_RATE);\n\t\t\treward = reward.add(singleAmount);\n        }\n        // Round invalid, refund bet amount\n        else {\n            require(refundable(epoch, msg.sender), \"Not eligible for refund\");\n            reward = ledger[epoch][msg.sender].amount;\n        }\n\n        betInfo.claimed = true;\n        token.safeTransfer(msg.sender, reward);\n\n        emit Claim(msg.sender, epoch, reward);\n    }\n\n    // Claim lc back\n    function claimLcBack(address user) external notContract nonReentrant {\n        uint256 lcAmount = 0;    \n        uint256 epoch;\n        uint256 roundLcAmount = 0;\n        for (uint256 i = userRounds[user].length - 1; i >= 0; i --){\n            epoch = userRounds[user][i];\n            BetInfo storage betInfo = ledger[epoch][msg.sender];\n            if (betInfo.lcClaimed){\n                break;\n            }else{\n\t\t\t\tRound storage round = rounds[epoch];\n                if (round.status == Status.Claimable){\n                    if (betInfo.numbers[round.finalNumber]){\n                        roundLcAmount = betInfo.amount.div(uint256(betInfo.numberCount)).mul(5).mul(gapRate).div(TOTAL_RATE).mul(lcBackRate).div(TOTAL_RATE);\n                        if (betInfo.numberCount > 1){\n                            roundLcAmount = roundLcAmount.add(betInfo.amount.div(uint256(betInfo.numberCount)).mul(uint256(betInfo.numberCount - 1)).mul(gapRate).div(TOTAL_RATE).mul(lcBackRate).div(TOTAL_RATE));\n                        }\n                    }else{\n                        roundLcAmount = betInfo.amount.mul(gapRate).div(TOTAL_RATE).mul(lcBackRate).div(TOTAL_RATE);\n                    }\n\n\t\t\t\t\troundLcAmount = roundLcAmount.mul(round.swapLcAmount).div(round.lcBackAmount);\n                    lcAmount = lcAmount.add(roundLcAmount);\n                    betInfo.lcClaimed = true;\n                }\n            }\n        }\n\n\t\tif (lcAmount > 0){\n\t\t\tlcToken.safeTransfer(user, lcAmount);\n\t\t}\n        emit ClaimBonusLC(user, lcAmount);\n    }\n\n    // View pending lc back\n    function pendingLcBack(address user) external view returns (uint256) {\n\t\tuint256 lcAmount = 0;\n        uint256 epoch;\n        uint256 roundLcAmount = 0;\n        for (uint256 i = userRounds[user].length - 1; i >= 0; i --){\n            epoch = userRounds[user][i];\n            BetInfo storage betInfo = ledger[epoch][msg.sender];\n            if (betInfo.lcClaimed){\n                break;\n            }else{\n                Round storage round = rounds[epoch];\n                if (round.status == Status.Claimable){\n                    if (betInfo.numbers[round.finalNumber]){\n                        roundLcAmount = betInfo.amount.div(uint256(betInfo.numberCount)).mul(5).mul(gapRate).div(TOTAL_RATE).mul(lcBackRate).div(TOTAL_RATE);\n                        if (betInfo.numberCount > 1){\n                            roundLcAmount = roundLcAmount.add(betInfo.amount.div(uint256(betInfo.numberCount)).mul(uint256(betInfo.numberCount - 1)).mul(gapRate).div(TOTAL_RATE).mul(lcBackRate).div(TOTAL_RATE));\n                        }\n                    }else{\n                        roundLcAmount = betInfo.amount.mul(gapRate).div(TOTAL_RATE).mul(lcBackRate).div(TOTAL_RATE);\n                    }\n\n                    roundLcAmount = roundLcAmount.mul(round.swapLcAmount).div(round.lcBackAmount);\n                    lcAmount = lcAmount.add(roundLcAmount);\n                }\n            }\n        }\n\n        return lcAmount;    \n    }\n\n    // Claim all bonus to masterChef\n    function _claimBonus() internal {\n\t\tif( totalBonusAmount > 0){\n\t\t\tuint256 tmpBonusAmount = totalBonusAmount;\n\t        totalBonusAmount = 0;\n\t\t\ttoken.safeTransfer(masterChefAddress, tmpBonusAmount);\n\t\t\tIMasterChef(masterChefAddress).updateBonus(masterChefBonusId);\n\t        emit ClaimBonus(tmpBonusAmount);\n\t\t}\n    }\n\n    // Return round epochs that a user has participated\n    function getUserRounds(\n        address user,\n        uint256 cursor,\n        uint256 size\n    ) external view returns (uint256[] memory, uint256) {\n        uint256 length = size;\n        if (length > userRounds[user].length - cursor) {\n            length = userRounds[user].length - cursor;\n        }\n\n        uint256[] memory values = new uint256[](length);\n        for (uint256 i = 0; i < length; i++) {\n            values[i] = userRounds[user][cursor.add(i)];\n        }\n\n        return (values, cursor.add(length));\n    }\n\n    // Get the claimable stats of specific epoch and user account\n    function claimable(uint256 epoch, address user) public view returns (bool) {\n        return (rounds[epoch].status == Status.Claimable) && (ledger[epoch][user].numbers[rounds[epoch].finalNumber]);\n    }\n\n    // Get the refundable stats of specific epoch and user account\n    function refundable(uint256 epoch, address user) public view returns (bool) {\n        return (rounds[epoch].status != Status.Claimable) && block.number > rounds[epoch].lockBlock.add(intervalBlocks) && ledger[epoch][user].amount != 0;\n    }\n\n    // Manual Start round. Previous round n-1 must lock\n    function manualStartRound(bytes32 bankHash) external onlyAdmin whenNotPaused {\n        require(block.number >= rounds[currentEpoch].lockBlock, \"Manual start new round after current round lock\");\n        currentEpoch = currentEpoch + 1;\n        _startRound(currentEpoch, bankHash);\n    }\n\n    function _startRound(uint256 epoch, bytes32 bankHash) internal {\n        Round storage round = rounds[epoch];\n        round.startBlock = block.number;\n        round.lockBlock = block.number.add(intervalBlocks);\n        round.bankHash = bankHash;\n        round.totalAmount = 0;\n\t\tround.maxBetAmount = bankerAmount.mul(maxBetRatio).div(TOTAL_RATE);\n        round.status = Status.Open;\n\n        emit StartRound(epoch, block.number, bankHash);\n    }\n\n    // Lock round\n    function lockRound(uint256 epoch) public whenNotPaused {\n        Round storage round = rounds[epoch];\n        require(round.startBlock != 0, \"Lock round after round has started\");\n        require(block.number >= round.lockBlock, \"Lock round after lockBlock\");\n        require(block.number <= round.lockBlock.add(intervalBlocks), \"Lock round within intervalBlocks\");\n        round.status = Status.Lock;\n        emit LockRound(epoch, block.number);\n    }\n\n    // Calculate rewards for round\n    function _calculateRewards(uint256 epoch) internal {\n        require(lcBackRate.add(bonusRate) <= TOTAL_RATE, \"lcBackRate + bonusRate <= TOTAL_RATE\");\n        require(rounds[epoch].bonusAmount == 0, \"Rewards calculated\");\n        Round storage round = rounds[epoch];\n\n        uint256 lcBackAmount = 0;\n        uint256 bonusAmount = 0;\n        for (uint32 i = 0; i < 6; i ++){\n            if (i == round.finalNumber){\n                uint256 tmpLcBackAmount = round.betAmounts[i].mul(5).mul(gapRate).div(TOTAL_RATE).mul(lcBackRate).div(TOTAL_RATE);\n                lcBackAmount = lcBackAmount.add(tmpLcBackAmount);\n                uint256 tmpBonusAmount = round.betAmounts[i].mul(5).mul(gapRate).div(TOTAL_RATE).mul(bonusRate).div(TOTAL_RATE);\n                bonusAmount = bonusAmount.add(tmpBonusAmount);\n                uint256 playerWinAmount = round.betAmounts[i].mul(5).mul(TOTAL_RATE.sub(gapRate)).div(TOTAL_RATE);\n                bankerAmount = bankerAmount.sub(playerWinAmount).sub(tmpLcBackAmount).sub(tmpBonusAmount);\n            }else{\n                uint256 tmpLcBackAmount = round.betAmounts[i].mul(gapRate).div(TOTAL_RATE).mul(lcBackRate).div(TOTAL_RATE);\n                lcBackAmount = lcBackAmount.add(tmpLcBackAmount);\n                uint256 tmpBonusAmount = round.betAmounts[i].mul(gapRate).div(TOTAL_RATE).mul(bonusRate).div(TOTAL_RATE);\n                bonusAmount = bonusAmount.add(tmpBonusAmount);\n                uint256 playerLostAmount = round.betAmounts[i];\n                bankerAmount = bankerAmount.add(playerLostAmount).sub(tmpLcBackAmount).sub(tmpBonusAmount);\n            }    \n        }\n\n        round.lcBackAmount = lcBackAmount;\n        round.bonusAmount = bonusAmount;\n\n\t\tif(address(token) == address(lcToken)){\n\t\t\tround.swapLcAmount = lcBackAmount;\n\t\t}else if(address(swapRouter) != address(0)){\n            address[] memory path = new address[](2);\n            path[0] = address(token);\n            path[1] = address(lcToken);\n            uint256 lcAmout = swapRouter.swapExactTokensForTokens(round.lcBackAmount, 0, path, address(this), block.timestamp + (5 minutes))[1];\n            round.swapLcAmount = lcAmout;\n        }\n        totalBonusAmount = totalBonusAmount.add(bonusAmount);\n\n        emit RewardsCalculated(epoch, round.lcBackAmount, round.bonusAmount, round.swapLcAmount);\n    }\n\n    // Deposit token to Dice as a banker, get Syrup back.\n    function deposit(uint256 _tokenAmount) public whenPaused nonReentrant notContract {\n        require(_tokenAmount > 0, \"Deposit amount > 0\");\n        require(bankerAmount.add(_tokenAmount) < maxBankerAmount, 'maxBankerAmount Limit');\n        BankerInfo storage banker = bankerInfo[msg.sender];\n        token.safeTransferFrom(address(msg.sender), address(this), _tokenAmount);\n        uint256 diceTokenAmount = _tokenAmount.mul(1e12).div(netValue);\n        diceToken.mint(address(msg.sender), diceTokenAmount);\n        uint256 totalDiceTokenAmount = banker.diceTokenAmount.add(diceTokenAmount);\n        banker.avgBuyValue = banker.avgBuyValue.mul(banker.diceTokenAmount).div(1e12).add(_tokenAmount).mul(1e12).div(totalDiceTokenAmount);\n        banker.diceTokenAmount = totalDiceTokenAmount;\n        bankerAmount = bankerAmount.add(_tokenAmount);\n        emit Deposit(msg.sender, _tokenAmount);    \n    }\n\n    // Withdraw syrup from dice to get token back\n    function withdraw(uint256 _diceTokenAmount) public whenPaused nonReentrant notContract {\n        require(_diceTokenAmount > 0, \"diceTokenAmount > 0\");\n        BankerInfo storage banker = bankerInfo[msg.sender];\n        banker.diceTokenAmount = banker.diceTokenAmount.sub(_diceTokenAmount); \n        SafeBEP20.safeTransferFrom(diceToken, msg.sender, address(diceToken), _diceTokenAmount);\n        diceToken.burn(address(diceToken), _diceTokenAmount);\n        uint256 tokenAmount = _diceTokenAmount.mul(netValue).div(1e12);\n        bankerAmount = bankerAmount.sub(tokenAmount);\n        token.safeTransfer(address(msg.sender), tokenAmount);\n\n        emit Withdraw(msg.sender, _diceTokenAmount);\n    }\n\n    // View function to see banker diceToken Value on frontend.\n    function canWithdrawToken(address bankerAddress) external view returns (uint256){\n        return bankerInfo[bankerAddress].diceTokenAmount.mul(netValue).div(1e12);    \n    }\n\n    // View function to see banker diceToken Value on frontend.\n    function calProfitRate(address bankerAddress) external view returns (uint256){\n        return netValue.mul(100).div(bankerInfo[bankerAddress].avgBuyValue);    \n    }\n\n    // Judge address is contract or not\n    function _isContract(address addr) internal view returns (bool) {\n        uint256 size;\n        assembly {\n            size := extcodesize(addr)\n        }\n        return size > 0;\n    }\n\n    // Update the swap router.\n    function updateSwapRouter(address _router) external onlyAdmin {\n        require(_router != address(0), \"DICE: Invalid router address.\");\n        swapRouter = ILuckyChipRouter02(_router);\n        emit SwapRouterUpdated(address(swapRouter));\n    }\n\n\tfunction _safeTransferBNB(address to, uint256 value) internal {\n        (bool success, ) = to.call{gas: 23000, value: value}(\"\");\n        require(success, 'TransferHelper: BNB_TRANSFER_FAILED');\n    }\n}\n\n",
  "sourcePath": "/home/ubuntu/defi/luckychip/dice/contracts/Dice.sol",
  "compiler": {
    "name": "solc",
    "version": "0.6.12+commit.27d51765.Emscripten.clang"
  },
  "schemaVersion": "3.4.1",
  "updatedAt": "2021-08-06T09:56:05.885Z",
  "networkType": "ethereum",
  "devdoc": {
    "kind": "dev",
    "methods": {
      "owner()": {
        "details": "Returns the address of the current owner."
      },
      "paused()": {
        "details": "Returns true if the contract is paused, and false otherwise."
      },
      "renounceOwnership()": {
        "details": "Leaves the contract without owner. It will not be possible to call `onlyOwner` functions anymore. Can only be called by the current owner. NOTE: Renouncing ownership will leave the contract without an owner, thereby removing any functionality that is only available to the owner."
      },
      "transferOwnership(address)": {
        "details": "Transfers ownership of the contract to a new account (`newOwner`). Can only be called by the current owner."
      }
    },
    "version": 1
  },
  "userdoc": {
    "kind": "user",
    "methods": {},
    "version": 1
  }
}