{
  "contractName": "Dice",
  "abi": [
    {
      "inputs": [
        {
          "internalType": "address",
          "name": "_tokenAddress",
          "type": "address"
        },
        {
          "internalType": "address",
          "name": "_lcTokenAddress",
          "type": "address"
        },
        {
          "internalType": "address",
          "name": "_diceTokenAddress",
          "type": "address"
        },
        {
          "internalType": "address",
          "name": "_masterChefAddress",
          "type": "address"
        },
        {
          "internalType": "uint256",
          "name": "_masterChefBonusId",
          "type": "uint256"
        },
        {
          "internalType": "uint256",
          "name": "_intervalBlocks",
          "type": "uint256"
        },
        {
          "internalType": "uint256",
          "name": "_playerTimeBlocks",
          "type": "uint256"
        },
        {
          "internalType": "uint256",
          "name": "_bankerTimeBlocks",
          "type": "uint256"
        },
        {
          "internalType": "uint256",
          "name": "_minBetAmount",
          "type": "uint256"
        },
        {
          "internalType": "uint256",
          "name": "_feeAmount",
          "type": "uint256"
        }
      ],
      "stateMutability": "nonpayable",
      "type": "constructor"
    },
    {
      "anonymous": false,
      "inputs": [
        {
          "indexed": true,
          "internalType": "address",
          "name": "sender",
          "type": "address"
        },
        {
          "indexed": true,
          "internalType": "uint256",
          "name": "currentEpoch",
          "type": "uint256"
        },
        {
          "indexed": false,
          "internalType": "bool[6]",
          "name": "numbers",
          "type": "bool[6]"
        },
        {
          "indexed": false,
          "internalType": "uint256",
          "name": "amount",
          "type": "uint256"
        }
      ],
      "name": "BetNumber",
      "type": "event"
    },
    {
      "anonymous": false,
      "inputs": [
        {
          "indexed": true,
          "internalType": "address",
          "name": "sender",
          "type": "address"
        },
        {
          "indexed": true,
          "internalType": "uint256",
          "name": "currentEpoch",
          "type": "uint256"
        },
        {
          "indexed": false,
          "internalType": "uint256",
          "name": "amount",
          "type": "uint256"
        }
      ],
      "name": "Claim",
      "type": "event"
    },
    {
      "anonymous": false,
      "inputs": [
        {
          "indexed": false,
          "internalType": "uint256",
          "name": "amount",
          "type": "uint256"
        }
      ],
      "name": "ClaimBonus",
      "type": "event"
    },
    {
      "anonymous": false,
      "inputs": [
        {
          "indexed": true,
          "internalType": "address",
          "name": "sender",
          "type": "address"
        },
        {
          "indexed": false,
          "internalType": "uint256",
          "name": "amount",
          "type": "uint256"
        }
      ],
      "name": "ClaimBonusLC",
      "type": "event"
    },
    {
      "anonymous": false,
      "inputs": [
        {
          "indexed": true,
          "internalType": "address",
          "name": "user",
          "type": "address"
        },
        {
          "indexed": false,
          "internalType": "uint256",
          "name": "tokenAmount",
          "type": "uint256"
        }
      ],
      "name": "Deposit",
      "type": "event"
    },
    {
      "anonymous": false,
      "inputs": [
        {
          "indexed": false,
          "internalType": "uint256",
          "name": "epoch",
          "type": "uint256"
        },
        {
          "indexed": false,
          "internalType": "uint256",
          "name": "blockNumber",
          "type": "uint256"
        }
      ],
      "name": "EndBankerTime",
      "type": "event"
    },
    {
      "anonymous": false,
      "inputs": [
        {
          "indexed": false,
          "internalType": "uint256",
          "name": "epoch",
          "type": "uint256"
        },
        {
          "indexed": false,
          "internalType": "uint256",
          "name": "blockNumber",
          "type": "uint256"
        }
      ],
      "name": "EndPlayerTime",
      "type": "event"
    },
    {
      "anonymous": false,
      "inputs": [
        {
          "indexed": true,
          "internalType": "uint256",
          "name": "block",
          "type": "uint256"
        },
        {
          "indexed": false,
          "internalType": "uint256",
          "name": "feeAmount",
          "type": "uint256"
        }
      ],
      "name": "FeeAmountUpdated",
      "type": "event"
    },
    {
      "anonymous": false,
      "inputs": [
        {
          "indexed": true,
          "internalType": "uint256",
          "name": "epoch",
          "type": "uint256"
        },
        {
          "indexed": false,
          "internalType": "uint256",
          "name": "blockNumber",
          "type": "uint256"
        }
      ],
      "name": "LockRound",
      "type": "event"
    },
    {
      "anonymous": false,
      "inputs": [
        {
          "indexed": true,
          "internalType": "uint256",
          "name": "block",
          "type": "uint256"
        },
        {
          "indexed": false,
          "internalType": "uint256",
          "name": "maxBetRatio",
          "type": "uint256"
        }
      ],
      "name": "MaxBetRatioUpdated",
      "type": "event"
    },
    {
      "anonymous": false,
      "inputs": [
        {
          "indexed": true,
          "internalType": "uint256",
          "name": "block",
          "type": "uint256"
        },
        {
          "indexed": false,
          "internalType": "uint256",
          "name": "minBetAmount",
          "type": "uint256"
        }
      ],
      "name": "MinBetAmountUpdated",
      "type": "event"
    },
    {
      "anonymous": false,
      "inputs": [
        {
          "indexed": true,
          "internalType": "address",
          "name": "previousOwner",
          "type": "address"
        },
        {
          "indexed": true,
          "internalType": "address",
          "name": "newOwner",
          "type": "address"
        }
      ],
      "name": "OwnershipTransferred",
      "type": "event"
    },
    {
      "anonymous": false,
      "inputs": [
        {
          "indexed": false,
          "internalType": "address",
          "name": "account",
          "type": "address"
        }
      ],
      "name": "Paused",
      "type": "event"
    },
    {
      "anonymous": false,
      "inputs": [
        {
          "indexed": true,
          "internalType": "uint256",
          "name": "block",
          "type": "uint256"
        },
        {
          "indexed": false,
          "internalType": "uint256",
          "name": "gapRate",
          "type": "uint256"
        },
        {
          "indexed": false,
          "internalType": "uint256",
          "name": "lcBackRate",
          "type": "uint256"
        },
        {
          "indexed": false,
          "internalType": "uint256",
          "name": "bonusRate",
          "type": "uint256"
        }
      ],
      "name": "RatesUpdated",
      "type": "event"
    },
    {
      "anonymous": false,
      "inputs": [
        {
          "indexed": true,
          "internalType": "uint256",
          "name": "epoch",
          "type": "uint256"
        },
        {
          "indexed": false,
          "internalType": "uint256",
          "name": "lcbackamount",
          "type": "uint256"
        },
        {
          "indexed": false,
          "internalType": "uint256",
          "name": "bonusamount",
          "type": "uint256"
        },
        {
          "indexed": false,
          "internalType": "uint256",
          "name": "swaplcamount",
          "type": "uint256"
        }
      ],
      "name": "RewardsCalculated",
      "type": "event"
    },
    {
      "anonymous": false,
      "inputs": [
        {
          "indexed": true,
          "internalType": "uint256",
          "name": "epoch",
          "type": "uint256"
        },
        {
          "indexed": false,
          "internalType": "uint256",
          "name": "blockNumber",
          "type": "uint256"
        },
        {
          "indexed": false,
          "internalType": "uint256",
          "name": "bankSecret",
          "type": "uint256"
        },
        {
          "indexed": false,
          "internalType": "uint32",
          "name": "finalNumber",
          "type": "uint32"
        }
      ],
      "name": "SendSecretRound",
      "type": "event"
    },
    {
      "anonymous": false,
      "inputs": [
        {
          "indexed": true,
          "internalType": "uint256",
          "name": "epoch",
          "type": "uint256"
        },
        {
          "indexed": false,
          "internalType": "uint256",
          "name": "blockNumber",
          "type": "uint256"
        },
        {
          "indexed": false,
          "internalType": "bytes32",
          "name": "bankHash",
          "type": "bytes32"
        }
      ],
      "name": "StartRound",
      "type": "event"
    },
    {
      "anonymous": false,
      "inputs": [
        {
          "indexed": true,
          "internalType": "address",
          "name": "router",
          "type": "address"
        }
      ],
      "name": "SwapRouterUpdated",
      "type": "event"
    },
    {
      "anonymous": false,
      "inputs": [
        {
          "indexed": false,
          "internalType": "address",
          "name": "account",
          "type": "address"
        }
      ],
      "name": "Unpaused",
      "type": "event"
    },
    {
      "anonymous": false,
      "inputs": [
        {
          "indexed": false,
          "internalType": "uint256",
          "name": "epoch",
          "type": "uint256"
        },
        {
          "indexed": false,
          "internalType": "uint256",
          "name": "blockNumber",
          "type": "uint256"
        },
        {
          "indexed": false,
          "internalType": "uint256",
          "name": "netValue",
          "type": "uint256"
        }
      ],
      "name": "UpdateNetValue",
      "type": "event"
    },
    {
      "anonymous": false,
      "inputs": [
        {
          "indexed": true,
          "internalType": "address",
          "name": "user",
          "type": "address"
        },
        {
          "indexed": false,
          "internalType": "uint256",
          "name": "diceTokenAmount",
          "type": "uint256"
        }
      ],
      "name": "Withdraw",
      "type": "event"
    },
    {
      "inputs": [],
      "name": "TOTAL_RATE",
      "outputs": [
        {
          "internalType": "uint256",
          "name": "",
          "type": "uint256"
        }
      ],
      "stateMutability": "view",
      "type": "function"
    },
    {
      "inputs": [],
      "name": "adminAddress",
      "outputs": [
        {
          "internalType": "address",
          "name": "",
          "type": "address"
        }
      ],
      "stateMutability": "view",
      "type": "function"
    },
    {
      "inputs": [],
      "name": "bankerAmount",
      "outputs": [
        {
          "internalType": "uint256",
          "name": "",
          "type": "uint256"
        }
      ],
      "stateMutability": "view",
      "type": "function"
    },
    {
      "inputs": [],
      "name": "bankerEndBlock",
      "outputs": [
        {
          "internalType": "uint256",
          "name": "",
          "type": "uint256"
        }
      ],
      "stateMutability": "view",
      "type": "function"
    },
    {
      "inputs": [
        {
          "internalType": "address",
          "name": "",
          "type": "address"
        }
      ],
      "name": "bankerInfo",
      "outputs": [
        {
          "internalType": "uint256",
          "name": "diceTokenAmount",
          "type": "uint256"
        },
        {
          "internalType": "uint256",
          "name": "avgBuyValue",
          "type": "uint256"
        }
      ],
      "stateMutability": "view",
      "type": "function"
    },
    {
      "inputs": [],
      "name": "bankerTimeBlocks",
      "outputs": [
        {
          "internalType": "uint256",
          "name": "",
          "type": "uint256"
        }
      ],
      "stateMutability": "view",
      "type": "function"
    },
    {
      "inputs": [],
      "name": "bonusRate",
      "outputs": [
        {
          "internalType": "uint256",
          "name": "",
          "type": "uint256"
        }
      ],
      "stateMutability": "view",
      "type": "function"
    },
    {
      "inputs": [],
      "name": "currentEpoch",
      "outputs": [
        {
          "internalType": "uint256",
          "name": "",
          "type": "uint256"
        }
      ],
      "stateMutability": "view",
      "type": "function"
    },
    {
      "inputs": [],
      "name": "diceToken",
      "outputs": [
        {
          "internalType": "contract DiceToken",
          "name": "",
          "type": "address"
        }
      ],
      "stateMutability": "view",
      "type": "function"
    },
    {
      "inputs": [],
      "name": "feeAmount",
      "outputs": [
        {
          "internalType": "uint256",
          "name": "",
          "type": "uint256"
        }
      ],
      "stateMutability": "view",
      "type": "function"
    },
    {
      "inputs": [],
      "name": "gapRate",
      "outputs": [
        {
          "internalType": "uint256",
          "name": "",
          "type": "uint256"
        }
      ],
      "stateMutability": "view",
      "type": "function"
    },
    {
      "inputs": [],
      "name": "intervalBlocks",
      "outputs": [
        {
          "internalType": "uint256",
          "name": "",
          "type": "uint256"
        }
      ],
      "stateMutability": "view",
      "type": "function"
    },
    {
      "inputs": [],
      "name": "lcBackRate",
      "outputs": [
        {
          "internalType": "uint256",
          "name": "",
          "type": "uint256"
        }
      ],
      "stateMutability": "view",
      "type": "function"
    },
    {
      "inputs": [],
      "name": "lcToken",
      "outputs": [
        {
          "internalType": "contract IBEP20",
          "name": "",
          "type": "address"
        }
      ],
      "stateMutability": "view",
      "type": "function"
    },
    {
      "inputs": [
        {
          "internalType": "uint256",
          "name": "",
          "type": "uint256"
        },
        {
          "internalType": "address",
          "name": "",
          "type": "address"
        }
      ],
      "name": "ledger",
      "outputs": [
        {
          "internalType": "uint256",
          "name": "amount",
          "type": "uint256"
        },
        {
          "internalType": "uint16",
          "name": "numberCount",
          "type": "uint16"
        },
        {
          "internalType": "bool",
          "name": "claimed",
          "type": "bool"
        },
        {
          "internalType": "bool",
          "name": "lcClaimed",
          "type": "bool"
        }
      ],
      "stateMutability": "view",
      "type": "function"
    },
    {
      "inputs": [],
      "name": "masterChefAddress",
      "outputs": [
        {
          "internalType": "address",
          "name": "",
          "type": "address"
        }
      ],
      "stateMutability": "view",
      "type": "function"
    },
    {
      "inputs": [],
      "name": "masterChefBonusId",
      "outputs": [
        {
          "internalType": "uint256",
          "name": "",
          "type": "uint256"
        }
      ],
      "stateMutability": "view",
      "type": "function"
    },
    {
      "inputs": [],
      "name": "maxBankerAmount",
      "outputs": [
        {
          "internalType": "uint256",
          "name": "",
          "type": "uint256"
        }
      ],
      "stateMutability": "view",
      "type": "function"
    },
    {
      "inputs": [],
      "name": "maxBetRatio",
      "outputs": [
        {
          "internalType": "uint256",
          "name": "",
          "type": "uint256"
        }
      ],
      "stateMutability": "view",
      "type": "function"
    },
    {
      "inputs": [],
      "name": "minBetAmount",
      "outputs": [
        {
          "internalType": "uint256",
          "name": "",
          "type": "uint256"
        }
      ],
      "stateMutability": "view",
      "type": "function"
    },
    {
      "inputs": [],
      "name": "netValue",
      "outputs": [
        {
          "internalType": "uint256",
          "name": "",
          "type": "uint256"
        }
      ],
      "stateMutability": "view",
      "type": "function"
    },
    {
      "inputs": [],
      "name": "owner",
      "outputs": [
        {
          "internalType": "address",
          "name": "",
          "type": "address"
        }
      ],
      "stateMutability": "view",
      "type": "function"
    },
    {
      "inputs": [],
      "name": "paused",
      "outputs": [
        {
          "internalType": "bool",
          "name": "",
          "type": "bool"
        }
      ],
      "stateMutability": "view",
      "type": "function"
    },
    {
      "inputs": [],
      "name": "playerEndBlock",
      "outputs": [
        {
          "internalType": "uint256",
          "name": "",
          "type": "uint256"
        }
      ],
      "stateMutability": "view",
      "type": "function"
    },
    {
      "inputs": [],
      "name": "playerTimeBlocks",
      "outputs": [
        {
          "internalType": "uint256",
          "name": "",
          "type": "uint256"
        }
      ],
      "stateMutability": "view",
      "type": "function"
    },
    {
      "inputs": [],
      "name": "prevBankerAmount",
      "outputs": [
        {
          "internalType": "uint256",
          "name": "",
          "type": "uint256"
        }
      ],
      "stateMutability": "view",
      "type": "function"
    },
    {
      "inputs": [],
      "name": "renounceOwnership",
      "outputs": [],
      "stateMutability": "nonpayable",
      "type": "function"
    },
    {
      "inputs": [
        {
          "internalType": "uint256",
          "name": "",
          "type": "uint256"
        }
      ],
      "name": "rounds",
      "outputs": [
        {
          "internalType": "uint256",
          "name": "startBlock",
          "type": "uint256"
        },
        {
          "internalType": "uint256",
          "name": "lockBlock",
          "type": "uint256"
        },
        {
          "internalType": "uint256",
          "name": "secretSentBlock",
          "type": "uint256"
        },
        {
          "internalType": "bytes32",
          "name": "bankHash",
          "type": "bytes32"
        },
        {
          "internalType": "uint256",
          "name": "bankSecret",
          "type": "uint256"
        },
        {
          "internalType": "uint256",
          "name": "totalAmount",
          "type": "uint256"
        },
        {
          "internalType": "uint256",
          "name": "maxBetAmount",
          "type": "uint256"
        },
        {
          "internalType": "uint256",
          "name": "lcBackAmount",
          "type": "uint256"
        },
        {
          "internalType": "uint256",
          "name": "bonusAmount",
          "type": "uint256"
        },
        {
          "internalType": "uint256",
          "name": "swapLcAmount",
          "type": "uint256"
        },
        {
          "internalType": "uint256",
          "name": "betUsers",
          "type": "uint256"
        },
        {
          "internalType": "uint32",
          "name": "finalNumber",
          "type": "uint32"
        },
        {
          "internalType": "enum Dice.Status",
          "name": "status",
          "type": "uint8"
        }
      ],
      "stateMutability": "view",
      "type": "function"
    },
    {
      "inputs": [
        {
          "internalType": "address",
          "name": "_adminAddress",
          "type": "address"
        }
      ],
      "name": "setAdmin",
      "outputs": [],
      "stateMutability": "nonpayable",
      "type": "function"
    },
    {
      "inputs": [
        {
          "internalType": "uint256",
          "name": "_intervalBlocks",
          "type": "uint256"
        },
        {
          "internalType": "uint256",
          "name": "_playerTimeBlocks",
          "type": "uint256"
        },
        {
          "internalType": "uint256",
          "name": "_bankerTimeBlocks",
          "type": "uint256"
        }
      ],
      "name": "setBlocks",
      "outputs": [],
      "stateMutability": "nonpayable",
      "type": "function"
    },
    {
      "inputs": [
        {
          "internalType": "uint256",
          "name": "_feeAmount",
          "type": "uint256"
        }
      ],
      "name": "setFeeAmount",
      "outputs": [],
      "stateMutability": "nonpayable",
      "type": "function"
    },
    {
      "inputs": [
        {
          "internalType": "uint256",
          "name": "_maxBetRatio",
          "type": "uint256"
        }
      ],
      "name": "setMaxBetRatio",
      "outputs": [],
      "stateMutability": "nonpayable",
      "type": "function"
    },
    {
      "inputs": [
        {
          "internalType": "uint256",
          "name": "_minBetAmount",
          "type": "uint256"
        }
      ],
      "name": "setMinBetAmount",
      "outputs": [],
      "stateMutability": "nonpayable",
      "type": "function"
    },
    {
      "inputs": [
        {
          "internalType": "uint256",
          "name": "_gapRate",
          "type": "uint256"
        },
        {
          "internalType": "uint256",
          "name": "_lcBackRate",
          "type": "uint256"
        },
        {
          "internalType": "uint256",
          "name": "_bonusRate",
          "type": "uint256"
        }
      ],
      "name": "setRates",
      "outputs": [],
      "stateMutability": "nonpayable",
      "type": "function"
    },
    {
      "inputs": [],
      "name": "swapRouter",
      "outputs": [
        {
          "internalType": "contract ILuckyChipRouter02",
          "name": "",
          "type": "address"
        }
      ],
      "stateMutability": "view",
      "type": "function"
    },
    {
      "inputs": [],
      "name": "token",
      "outputs": [
        {
          "internalType": "contract IBEP20",
          "name": "",
          "type": "address"
        }
      ],
      "stateMutability": "view",
      "type": "function"
    },
    {
      "inputs": [],
      "name": "totalBonusAmount",
      "outputs": [
        {
          "internalType": "uint256",
          "name": "",
          "type": "uint256"
        }
      ],
      "stateMutability": "view",
      "type": "function"
    },
    {
      "inputs": [
        {
          "internalType": "address",
          "name": "newOwner",
          "type": "address"
        }
      ],
      "name": "transferOwnership",
      "outputs": [],
      "stateMutability": "nonpayable",
      "type": "function"
    },
    {
      "inputs": [
        {
          "internalType": "address",
          "name": "",
          "type": "address"
        },
        {
          "internalType": "uint256",
          "name": "",
          "type": "uint256"
        }
      ],
      "name": "userRounds",
      "outputs": [
        {
          "internalType": "uint256",
          "name": "",
          "type": "uint256"
        }
      ],
      "stateMutability": "view",
      "type": "function"
    },
    {
      "inputs": [
        {
          "internalType": "uint256",
          "name": "epoch",
          "type": "uint256"
        },
        {
          "internalType": "bytes32",
          "name": "bankHash",
          "type": "bytes32"
        }
      ],
      "name": "endBankerTime",
      "outputs": [],
      "stateMutability": "nonpayable",
      "type": "function"
    },
    {
      "inputs": [
        {
          "internalType": "uint256",
          "name": "epoch",
          "type": "uint256"
        },
        {
          "internalType": "bytes32",
          "name": "bankHash",
          "type": "bytes32"
        }
      ],
      "name": "executeRound",
      "outputs": [],
      "stateMutability": "nonpayable",
      "type": "function"
    },
    {
      "inputs": [
        {
          "internalType": "uint256",
          "name": "epoch",
          "type": "uint256"
        },
        {
          "internalType": "uint256",
          "name": "bankSecret",
          "type": "uint256"
        }
      ],
      "name": "endPlayerTime",
      "outputs": [],
      "stateMutability": "nonpayable",
      "type": "function"
    },
    {
      "inputs": [
        {
          "internalType": "uint256",
          "name": "epoch",
          "type": "uint256"
        }
      ],
      "name": "endPlayerTimeImmediately",
      "outputs": [],
      "stateMutability": "nonpayable",
      "type": "function"
    },
    {
      "inputs": [
        {
          "internalType": "uint256",
          "name": "epoch",
          "type": "uint256"
        },
        {
          "internalType": "uint256",
          "name": "bankSecret",
          "type": "uint256"
        }
      ],
      "name": "sendSecret",
      "outputs": [],
      "stateMutability": "nonpayable",
      "type": "function"
    },
    {
      "inputs": [
        {
          "internalType": "bool[6]",
          "name": "numbers",
          "type": "bool[6]"
        },
        {
          "internalType": "uint256",
          "name": "amount",
          "type": "uint256"
        }
      ],
      "name": "betNumber",
      "outputs": [],
      "stateMutability": "payable",
      "type": "function"
    },
    {
      "inputs": [
        {
          "internalType": "uint256",
          "name": "epoch",
          "type": "uint256"
        }
      ],
      "name": "claim",
      "outputs": [],
      "stateMutability": "nonpayable",
      "type": "function"
    },
    {
      "inputs": [
        {
          "internalType": "address",
          "name": "user",
          "type": "address"
        }
      ],
      "name": "claimLcBack",
      "outputs": [],
      "stateMutability": "nonpayable",
      "type": "function"
    },
    {
      "inputs": [
        {
          "internalType": "address",
          "name": "user",
          "type": "address"
        }
      ],
      "name": "pendingLcBack",
      "outputs": [
        {
          "internalType": "uint256",
          "name": "",
          "type": "uint256"
        }
      ],
      "stateMutability": "view",
      "type": "function"
    },
    {
      "inputs": [
        {
          "internalType": "address",
          "name": "user",
          "type": "address"
        },
        {
          "internalType": "uint256",
          "name": "cursor",
          "type": "uint256"
        },
        {
          "internalType": "uint256",
          "name": "size",
          "type": "uint256"
        }
      ],
      "name": "getUserRounds",
      "outputs": [
        {
          "internalType": "uint256[]",
          "name": "",
          "type": "uint256[]"
        },
        {
          "internalType": "uint256",
          "name": "",
          "type": "uint256"
        }
      ],
      "stateMutability": "view",
      "type": "function"
    },
    {
      "inputs": [
        {
          "internalType": "uint256",
          "name": "epoch",
          "type": "uint256"
        },
        {
          "internalType": "address",
          "name": "user",
          "type": "address"
        }
      ],
      "name": "claimable",
      "outputs": [
        {
          "internalType": "bool",
          "name": "",
          "type": "bool"
        }
      ],
      "stateMutability": "view",
      "type": "function"
    },
    {
      "inputs": [
        {
          "internalType": "uint256",
          "name": "epoch",
          "type": "uint256"
        },
        {
          "internalType": "address",
          "name": "user",
          "type": "address"
        }
      ],
      "name": "refundable",
      "outputs": [
        {
          "internalType": "bool",
          "name": "",
          "type": "bool"
        }
      ],
      "stateMutability": "view",
      "type": "function"
    },
    {
      "inputs": [
        {
          "internalType": "bytes32",
          "name": "bankHash",
          "type": "bytes32"
        }
      ],
      "name": "manualStartRound",
      "outputs": [],
      "stateMutability": "nonpayable",
      "type": "function"
    },
    {
      "inputs": [
        {
          "internalType": "uint256",
          "name": "epoch",
          "type": "uint256"
        }
      ],
      "name": "lockRound",
      "outputs": [],
      "stateMutability": "nonpayable",
      "type": "function"
    },
    {
      "inputs": [
        {
          "internalType": "uint256",
          "name": "_tokenAmount",
          "type": "uint256"
        }
      ],
      "name": "deposit",
      "outputs": [],
      "stateMutability": "nonpayable",
      "type": "function"
    },
    {
      "inputs": [
        {
          "internalType": "uint256",
          "name": "_diceTokenAmount",
          "type": "uint256"
        }
      ],
      "name": "withdraw",
      "outputs": [],
      "stateMutability": "nonpayable",
      "type": "function"
    },
    {
      "inputs": [
        {
          "internalType": "address",
          "name": "bankerAddress",
          "type": "address"
        }
      ],
      "name": "canWithdrawToken",
      "outputs": [
        {
          "internalType": "uint256",
          "name": "",
          "type": "uint256"
        }
      ],
      "stateMutability": "view",
      "type": "function"
    },
    {
      "inputs": [
        {
          "internalType": "address",
          "name": "bankerAddress",
          "type": "address"
        }
      ],
      "name": "calProfitRate",
      "outputs": [
        {
          "internalType": "uint256",
          "name": "",
          "type": "uint256"
        }
      ],
      "stateMutability": "view",
      "type": "function"
    },
    {
      "inputs": [
        {
          "internalType": "address",
          "name": "_router",
          "type": "address"
        }
      ],
      "name": "updateSwapRouter",
      "outputs": [],
      "stateMutability": "nonpayable",
      "type": "function"
    }
  ],
  "bytecode": "0x60806040526101f46004556103e86005556103e860065560056008553480156200002857600080fd5b50604051620060733803806200607383398181016040526101408110156200004f57600080fd5b508051602082015160408301516060840151608085015160a086015160c087015160e0880151610100890151610120909901519798969795969495939492939192909160006200009e62000182565b600080546001600160a01b0319166001600160a01b0383169081178255604051929350917f8be0079c531659141344cd1fd0a4f28419497f9722a3daafe3b4186f6b6457e0908290a3506001600c819055600d805460ff19169055601780546001600160a01b03808e166001600160a01b031992831617909255601880548d8416908316179055601980548c841690831617905560168054928b16929091169190911790556015879055859055600284905560038390556007829055600981905564e8d4a510006010556200017262000186565b5050505050505050505062000234565b3390565b620001906200022b565b15620001d6576040805162461bcd60e51b815260206004820152601060248201526f14185d5cd8589b194e881c185d5cd95960821b604482015290519081900360640190fd5b600d805460ff191660011790557f62e78cea01bee320cd4e420270b5ea74000d11b0c9f74754ebdbfc544b05a2586200020e62000182565b604080516001600160a01b039092168252519081900360200190a1565b600d5460ff1690565b615e2f80620002446000396000f3fe6080604052600436106103815760003560e01c80638764e02c116101d1578063c17bcdee11610102578063e13b7870116100a0578063fa968eea1161006f578063fa968eea14610d3e578063fc0c546a14610d53578063fc6f946814610d68578063ff41e8b114610d7d57610381565b8063e13b787014610c7b578063f1b9e1e714610c90578063f1d9f90c14610ca5578063f2fde38b14610cfe57610381565b8063d748a987116100dc578063d748a98714610bb0578063da7af9d114610be0578063dcb4c32314610c20578063dd1f759614610c3557610381565b8063c17bcdee14610b50578063c31c9c0714610b65578063d004f38b14610b7a57610381565b8063a661ef391161016f578063b53a6f7a11610149578063b53a6f7a14610abc578063b6b55f2514610ad1578063b78ae01114610afb578063b98b677f14610b1057610381565b8063a661ef3914610a4d578063abc5ca9814610a77578063b29c299b14610aa757610381565b80638c65c81f116101ab5780638c65c81f146108a65780638da5cb5b1461094b578063951fd60014610960578063a0c7f71c14610a0757610381565b80638764e02c146108525780638ab4ca8a146108675780638ab9ff711461089157610381565b806359512af8116102b65780636b392680116102545780637285c58b116102235780637285c58b1461075c57806376671808146107cd5780637bf41254146107e257806380cfe9211461082857610381565b80636b392680146106b35780636c188593146106dd578063704b6c0214610707578063715018a61461074757610381565b80635c975abb116102905780635c975abb146106245780635d38075e1461064d5780635eed5a2c1461066e57806369e154041461069e57610381565b806359512af81461059f5780635af123f4146105cf5780635b7932c2146105e457610381565b80632e1a7d4d116103235780633fcceacc116102fd5780633fcceacc1461050b57806341b6d554146105205780634c34b53a1461054a5780635699d0d71461058a57610381565b80632e1a7d4d1461047f578063379607f5146104ab57806339295fb5146104d557610381565b8063158414571161035f57806315841457146103d75780631ec9f34b14610417578063221e2e601461042c578063285d8afd1461046a57610381565b806308d949fa14610386578063094a0e5f146103ad5780630a6625f0146103c2575b600080fd5b34801561039257600080fd5b5061039b610d92565b60408051918252519081900360200190f35b3480156103b957600080fd5b5061039b610d98565b3480156103ce57600080fd5b5061039b610d9e565b3480156103e357600080fd5b5061039b600480360360208110156103fa57600080fd5b503573ffffffffffffffffffffffffffffffffffffffff16610da4565b34801561042357600080fd5b5061039b610df0565b34801561043857600080fd5b50610441610df6565b6040805173ffffffffffffffffffffffffffffffffffffffff9092168252519081900360200190f35b34801561047657600080fd5b5061039b610e12565b34801561048b57600080fd5b506104a9600480360360208110156104a257600080fd5b5035610e18565b005b3480156104b757600080fd5b506104a9600480360360208110156104ce57600080fd5b50356111bf565b3480156104e157600080fd5b506104a9600480360360608110156104f857600080fd5b50803590602081013590604001356116df565b34801561051757600080fd5b5061039b611773565b34801561052c57600080fd5b506104a96004803603602081101561054357600080fd5b5035611779565b34801561055657600080fd5b506104a96004803603602081101561056d57600080fd5b503573ffffffffffffffffffffffffffffffffffffffff1661183d565b34801561059657600080fd5b5061039b611ca0565b3480156105ab57600080fd5b506104a9600480360360408110156105c257600080fd5b5080359060200135611ca6565b3480156105db57600080fd5b5061039b611e73565b3480156105f057600080fd5b5061039b6004803603602081101561060757600080fd5b503573ffffffffffffffffffffffffffffffffffffffff16611e79565b34801561063057600080fd5b506106396120d7565b604080519115158252519081900360200190f35b6104a9600480360360e081101561066357600080fd5b5060c08101356120e0565b34801561067a57600080fd5b506104a96004803603604081101561069157600080fd5b508035906020013561284d565b3480156106aa57600080fd5b5061039b612ab9565b3480156106bf57600080fd5b506104a9600480360360208110156106d657600080fd5b5035612abf565b3480156106e957600080fd5b506104a96004803603602081101561070057600080fd5b5035612b83565b34801561071357600080fd5b506104a96004803603602081101561072a57600080fd5b503573ffffffffffffffffffffffffffffffffffffffff16612c47565b34801561075357600080fd5b506104a9612db8565b34801561076857600080fd5b506107a26004803603604081101561077f57600080fd5b508035906020013573ffffffffffffffffffffffffffffffffffffffff16612ecf565b6040805194855261ffff90931660208501529015158383015215156060830152519081900360800190f35b3480156107d957600080fd5b5061039b612f0b565b3480156107ee57600080fd5b506106396004803603604081101561080557600080fd5b508035906020013573ffffffffffffffffffffffffffffffffffffffff16612f11565b34801561083457600080fd5b506104a96004803603602081101561084b57600080fd5b5035612fa9565b34801561085e57600080fd5b5061039b613128565b34801561087357600080fd5b506104a96004803603602081101561088a57600080fd5b503561312e565b34801561089d57600080fd5b50610441613364565b3480156108b257600080fd5b506108d0600480360360208110156108c957600080fd5b5035613380565b604051808e81526020018d81526020018c81526020018b81526020018a81526020018981526020018881526020018781526020018681526020018581526020018481526020018363ffffffff16815260200182600481111561092e57fe5b81526020019d505050505050505050505050505060405180910390f35b34801561095757600080fd5b506104416133f2565b34801561096c57600080fd5b506109ac6004803603606081101561098357600080fd5b5073ffffffffffffffffffffffffffffffffffffffff813516906020810135906040013561340e565b6040518080602001838152602001828103825284818151815260200191508051906020019060200280838360005b838110156109f25781810151838201526020016109da565b50505050905001935050505060405180910390f35b348015610a1357600080fd5b5061063960048036036040811015610a2a57600080fd5b508035906020013573ffffffffffffffffffffffffffffffffffffffff1661353d565b348015610a5957600080fd5b506104a960048036036020811015610a7057600080fd5b50356135e3565b348015610a8357600080fd5b506104a960048036036040811015610a9a57600080fd5b50803590602001356137a5565b348015610ab357600080fd5b5061039b613a39565b348015610ac857600080fd5b5061039b613a3f565b348015610add57600080fd5b506104a960048036036020811015610af457600080fd5b5035613a45565b348015610b0757600080fd5b5061039b613e1e565b348015610b1c57600080fd5b506104a960048036036020811015610b3357600080fd5b503573ffffffffffffffffffffffffffffffffffffffff16613e24565b348015610b5c57600080fd5b5061039b613fa1565b348015610b7157600080fd5b50610441613fa7565b348015610b8657600080fd5b506104a960048036036060811015610b9d57600080fd5b5080359060208101359060400135613fc3565b348015610bbc57600080fd5b506104a960048036036040811015610bd357600080fd5b5080359060200135614175565b348015610bec57600080fd5b5061039b60048036036020811015610c0357600080fd5b503573ffffffffffffffffffffffffffffffffffffffff16614556565b348015610c2c57600080fd5b5061039b614592565b348015610c4157600080fd5b5061039b60048036036040811015610c5857600080fd5b5073ffffffffffffffffffffffffffffffffffffffff8135169060200135614598565b348015610c8757600080fd5b5061039b6145c6565b348015610c9c57600080fd5b5061039b6145cc565b348015610cb157600080fd5b50610ce560048036036020811015610cc857600080fd5b503573ffffffffffffffffffffffffffffffffffffffff166145d2565b6040805192835260208301919091528051918290030190f35b348015610d0a57600080fd5b506104a960048036036020811015610d2157600080fd5b503573ffffffffffffffffffffffffffffffffffffffff166145eb565b348015610d4a57600080fd5b5061039b61478c565b348015610d5f57600080fd5b50610441614792565b348015610d7457600080fd5b506104416147ae565b348015610d8957600080fd5b506104416147ca565b60155481565b60035481565b60145481565b60105473ffffffffffffffffffffffffffffffffffffffff82166000908152601e60205260408120549091610dea9164e8d4a5100091610de491906147e6565b90614859565b92915050565b60015481565b60165473ffffffffffffffffffffffffffffffffffffffff1681565b60105481565b610e206120d7565b610e8b57604080517f08c379a000000000000000000000000000000000000000000000000000000000815260206004820152601460248201527f5061757361626c653a206e6f7420706175736564000000000000000000000000604482015290519081900360640190fd5b6002600c541415610efd57604080517f08c379a000000000000000000000000000000000000000000000000000000000815260206004820152601f60248201527f5265656e7472616e637947756172643a207265656e7472616e742063616c6c00604482015290519081900360640190fd5b6002600c55610f0b336148da565b15610f7757604080517f08c379a000000000000000000000000000000000000000000000000000000000815260206004820152601460248201527f636f6e7472616374206e6f7420616c6c6f776564000000000000000000000000604482015290519081900360640190fd5b333214610fe557604080517f08c379a000000000000000000000000000000000000000000000000000000000815260206004820152601a60248201527f70726f787920636f6e7472616374206e6f7420616c6c6f776564000000000000604482015290519081900360640190fd5b6000811161105457604080517f08c379a000000000000000000000000000000000000000000000000000000000815260206004820152601360248201527f64696365546f6b656e416d6f756e74203e203000000000000000000000000000604482015290519081900360640190fd5b336000908152601e60205260409020805461106f90836148e0565b81556019546110969073ffffffffffffffffffffffffffffffffffffffff16338185614957565b601954604080517f9dc29fac00000000000000000000000000000000000000000000000000000000815273ffffffffffffffffffffffffffffffffffffffff909216600483018190526024830185905290519091639dc29fac91604480830192600092919082900301818387803b15801561111057600080fd5b505af1158015611124573d6000803e3d6000fd5b50505050600061114864e8d4a51000610de4601054866147e690919063ffffffff16565b600f5490915061115890826148e0565b600f5560175461117f9073ffffffffffffffffffffffffffffffffffffffff1633836149f2565b60408051848152905133917f884edad9ce6fa2440d8a54cc123490eb96d2768479d49ff9c7366125a9424364919081900360200190a250506001600c5550565b6111c8336148da565b1561123457604080517f08c379a000000000000000000000000000000000000000000000000000000000815260206004820152601460248201527f636f6e7472616374206e6f7420616c6c6f776564000000000000000000000000604482015290519081900360640190fd5b3332146112a257604080517f08c379a000000000000000000000000000000000000000000000000000000000815260206004820152601a60248201527f70726f787920636f6e7472616374206e6f7420616c6c6f776564000000000000604482015290519081900360640190fd5b6002600c54141561131457604080517f08c379a000000000000000000000000000000000000000000000000000000000815260206004820152601f60248201527f5265656e7472616e637947756172643a207265656e7472616e742063616c6c00604482015290519081900360640190fd5b6002600c556000818152601b602052604090205461139357604080517f08c379a000000000000000000000000000000000000000000000000000000000815260206004820152601560248201527f526f756e6420686173206e6f7420737461727465640000000000000000000000604482015290519081900360640190fd5b6000818152601b6020526040902060010154431161141257604080517f08c379a000000000000000000000000000000000000000000000000000000000815260206004820152601460248201527f526f756e6420686173206e6f74206c6f636b6564000000000000000000000000604482015290519081900360640190fd5b6000818152601c6020908152604080832033845290915290206003015460ff161561149e57604080517f08c379a000000000000000000000000000000000000000000000000000000000815260206004820152600f60248201527f5265776172647320636c61696d65640000000000000000000000000000000000604482015290519081900360640190fd5b6000818152601c60209081526040808320338452909152812060036000848152601b6020526040902060110154640100000000900460ff1660048111156114e157fe5b14156115bb576114f1833361353d565b61155c57604080517f08c379a000000000000000000000000000000000000000000000000000000000815260206004820152601660248201527f4e6f7420656c696769626c6520666f7220636c61696d00000000000000000000604482015290519081900360640190fd5b60018101548154600091611574919061ffff16614859565b90506115a7612710610de46115966004546127106148e090919063ffffffff16565b6115a18560056147e6565b906147e6565b92506115b38382614a7f565b92505061164d565b6115c58333612f11565b61163057604080517f08c379a000000000000000000000000000000000000000000000000000000000815260206004820152601760248201527f4e6f7420656c696769626c6520666f7220726566756e64000000000000000000604482015290519081900360640190fd5b6000838152601c6020908152604080832033845290915290205491505b6003810180547fffffffffffffffffffffffffffffffffffffffffffffffffffffffffffffff0016600117905560175461169e9073ffffffffffffffffffffffffffffffffffffffff1633846149f2565b604080518381529051849133917f34fcbac0073d7c3d388e51312faf357774904998eeb8fca628b9e6f65ee1cbf79181900360200190a350506001600c5550565b600b5473ffffffffffffffffffffffffffffffffffffffff16331461176557604080517f08c379a000000000000000000000000000000000000000000000000000000000815260206004820152600b60248201527f61646d696e3a207775743f000000000000000000000000000000000000000000604482015290519081900360640190fd5b600192909255600255600355565b60025481565b600b5473ffffffffffffffffffffffffffffffffffffffff1633146117ff57604080517f08c379a000000000000000000000000000000000000000000000000000000000815260206004820152600b60248201527f61646d696e3a207775743f000000000000000000000000000000000000000000604482015290519081900360640190fd5b600881905560408051828152905143917fe9dbf362c3f800f55b82e4fffe8e3cc02fb845bf408ff033a811b35ff447a5b5919081900360200190a250565b611846336148da565b156118b257604080517f08c379a000000000000000000000000000000000000000000000000000000000815260206004820152601460248201527f636f6e7472616374206e6f7420616c6c6f776564000000000000000000000000604482015290519081900360640190fd5b33321461192057604080517f08c379a000000000000000000000000000000000000000000000000000000000815260206004820152601a60248201527f70726f787920636f6e7472616374206e6f7420616c6c6f776564000000000000604482015290519081900360640190fd5b6002600c54141561199257604080517f08c379a000000000000000000000000000000000000000000000000000000000815260206004820152601f60248201527f5265656e7472616e637947756172643a207265656e7472616e742063616c6c00604482015290519081900360640190fd5b6002600c5573ffffffffffffffffffffffffffffffffffffffff81166000908152601d6020526040812054819081907fffffffffffffffffffffffffffffffffffffffffffffffffffffffffffffffff015b73ffffffffffffffffffffffffffffffffffffffff85166000908152601d60205260409020805482908110611a1557fe5b6000918252602080832090910154808352601c82526040808420338552909252912060038101549194509060ff6101009091041615611a545750611c1e565b6000848152601b6020526040902060036011820154640100000000900460ff166004811115611a7f57fe5b1415611bf5576011810154600283019063ffffffff1660068110611a9f57fe5b602081049091015460ff601f9092166101000a90041615611b6b576005805460045460018501548554611aec9461271094610de49490936115a19387938793928692839161ffff16614859565b60018381015491955061ffff9091161115611b665760055460045460018401548454611b6393611b5c9361271093610de4936115a19286928692859161ffff9081167fffffffffffffffffffffffffffffffffffffffffffffffffffffffffffffffff8101909116918391614859565b8590614a7f565b93505b611b99565b611b96612710610de46005546115a1612710610de460045489600001546147e690919063ffffffff16565b93505b611bb881600d0154610de483600f0154876147e690919063ffffffff16565b9350611bc48685614a7f565b6003830180547fffffffffffffffffffffffffffffffffffffffffffffffffffffffffffff00ff1661010017905595505b50507fffffffffffffffffffffffffffffffffffffffffffffffffffffffffffffffff016119e4565b508215611c4957601854611c499073ffffffffffffffffffffffffffffffffffffffff1685856149f2565b60408051848152905173ffffffffffffffffffffffffffffffffffffffff8616917f6fd977b59a22052377ab87ebdf4b780c3439b6eb861aca3cb29218dadf6a05a1919081900360200190a250506001600c555050565b600a5481565b600b5473ffffffffffffffffffffffffffffffffffffffff163314611d2c57604080517f08c379a000000000000000000000000000000000000000000000000000000000815260206004820152600b60248201527f61646d696e3a207775743f000000000000000000000000000000000000000000604482015290519081900360640190fd5b611d346120d7565b15611da057604080517f08c379a000000000000000000000000000000000000000000000000000000000815260206004820152601060248201527f5061757361626c653a2070617573656400000000000000000000000000000000604482015290519081900360640190fd5b6011548214611e1057604080517f08c379a000000000000000000000000000000000000000000000000000000000815260206004820152601560248201527f65706f6368203d3d2063757272656e7445706f63680000000000000000000000604482015290519081900360640190fd5b611e1a8282614175565b611e22614af3565b611e2b82614be5565b611e33614cbc565b6011546040805191825242602083015280517f620494b8df07e75c9eb56fea25105fc50d24deb9b63f8f96d7630ac9fe9882589281900390910190a15050565b60065481565b73ffffffffffffffffffffffffffffffffffffffff81166000908152601d60205260408120548190819081907fffffffffffffffffffffffffffffffffffffffffffffffffffffffffffffffff015b73ffffffffffffffffffffffffffffffffffffffff86166000908152601d60205260409020805482908110611ef957fe5b6000918252602080832090910154808352601c82526040808420338552909252912060038101549194509060ff6101009091041615611f3857506120cd565b6000848152601b6020526040902060036011820154640100000000900460ff166004811115611f6357fe5b14156120a4576011810154600283019063ffffffff1660068110611f8357fe5b602081049091015460ff601f9092166101000a90041615612048576005805460045460018501548554611fd09461271094610de49490936115a19387938793928692839161ffff16614859565b60018381015491955061ffff9091161115612043576005546004546001840154845461204093611b5c9361271093610de4936115a19286928692859161ffff9081167fffffffffffffffffffffffffffffffffffffffffffffffffffffffffffffffff8101909116918391614859565b93505b612076565b612073612710610de46005546115a1612710610de460045489600001546147e690919063ffffffff16565b93505b61209581600d0154610de483600f0154876147e690919063ffffffff16565b93506120a18685614a7f565b95505b50507fffffffffffffffffffffffffffffffffffffffffffffffffffffffffffffffff01611ec8565b5091949350505050565b600d5460ff1690565b6120e86120d7565b1561215457604080517f08c379a000000000000000000000000000000000000000000000000000000000815260206004820152601060248201527f5061757361626c653a2070617573656400000000000000000000000000000000604482015290519081900360640190fd5b61215d336148da565b156121c957604080517f08c379a000000000000000000000000000000000000000000000000000000000815260206004820152601460248201527f636f6e7472616374206e6f7420616c6c6f776564000000000000000000000000604482015290519081900360640190fd5b33321461223757604080517f08c379a000000000000000000000000000000000000000000000000000000000815260206004820152601a60248201527f70726f787920636f6e7472616374206e6f7420616c6c6f776564000000000000604482015290519081900360640190fd5b6002600c5414156122a957604080517f08c379a000000000000000000000000000000000000000000000000000000000815260206004820152601f60248201527f5265656e7472616e637947756172643a207265656e7472616e742063616c6c00604482015290519081900360640190fd5b6002600c556011546000908152601b6020526040902060095434101561233057604080517f08c379a000000000000000000000000000000000000000000000000000000000815260206004820152601560248201527f6d73672e76616c7565203e20666565416d6f756e740000000000000000000000604482015290519081900360640190fd5b60016011820154640100000000900460ff16600481111561234d57fe5b146123b957604080517f08c379a000000000000000000000000000000000000000000000000000000000815260206004820152600e60248201527f526f756e64206e6f74204f70656e000000000000000000000000000000000000604482015290519081900360640190fd5b8054431180156123cc5750806001015443105b61243757604080517f08c379a000000000000000000000000000000000000000000000000000000000815260206004820152601260248201527f526f756e64206e6f74206265747461626c650000000000000000000000000000604482015290519081900360640190fd5b6011546000908152601c60209081526040808320338452909152902054156124c057604080517f08c379a000000000000000000000000000000000000000000000000000000000815260206004820152601260248201527f426574206f6e63652070657220726f756e640000000000000000000000000000604482015290519081900360640190fd5b6000805b60068163ffffffff1610156124fe57848163ffffffff16600681106124e557fe5b6020020135156124f6578160010191505b6001016124c4565b5060008161ffff161161257257604080517f08c379a000000000000000000000000000000000000000000000000000000000815260206004820152600f60248201527f6e756d626572436f756e74203e20300000000000000000000000000000000000604482015290519081900360640190fd5b6007546125839061ffff83166147e6565b8310156125db576040517f08c379a0000000000000000000000000000000000000000000000000000000008152600401808060200182810382526027815260200180615dd36027913960400191505060405180910390fd5b60068201546125ee9061ffff83166147e6565b831115612646576040517f08c379a000000000000000000000000000000000000000000000000000000000815260040180806020018281038252602d815260200180615da6602d913960400191505060405180910390fd5b6009541561267457600b546009546126749173ffffffffffffffffffffffffffffffffffffffff1690614dbd565b6017546126999073ffffffffffffffffffffffffffffffffffffffff16333086614957565b60058201546126a89084614a7f565b600583015560108201546126bd906001614a7f565b601083015560006126d28461ffff8416614859565b905060005b60068163ffffffff16101561274357858163ffffffff16600681106126f857fe5b60200201351561273b5761272382856007018363ffffffff166006811061271b57fe5b015490614a7f565b846007018263ffffffff166006811061273857fe5b01555b6001016126d7565b506011546000908152601c60209081526040808320338452909152902061276f60028201876006615b17565b50848155600180820180547fffffffffffffffffffffffffffffffffffffffffffffffffffffffffffff00001661ffff8616179055336000818152601d60209081526040808320601180548254978801835591855292909320909401919091555491517f8fff2ebc45155e71fa11f99b8a19002efe7096d6c87352d1fd0bcffbbddc86809089908990808360c080828437600083820152601f017fffffffffffffffffffffffffffffffffffffffffffffffffffffffffffffffe0169091019283525050604051908190036020019150a350506001600c5550505050565b600b5473ffffffffffffffffffffffffffffffffffffffff1633146128d357604080517f08c379a000000000000000000000000000000000000000000000000000000000815260206004820152600b60248201527f61646d696e3a207775743f000000000000000000000000000000000000000000604482015290519081900360640190fd5b6128db6120d7565b61294657604080517f08c379a000000000000000000000000000000000000000000000000000000000815260206004820152601460248201527f5061757361626c653a206e6f7420706175736564000000000000000000000000604482015290519081900360640190fd5b60115460010182146129b957604080517f08c379a000000000000000000000000000000000000000000000000000000000815260206004820152601960248201527f65706f6368203d3d2063757272656e7445706f6368202b203100000000000000604482015290519081900360640190fd5b6000600f5411612a14576040517f08c379a000000000000000000000000000000000000000000000000000000000815260040180806020018281038252602a815260200180615cf1602a913960400191505060405180910390fd5b600f54600e55612a22614e79565b6011546040805191825242602083015280517fb97a357ed0379a8e44a2d9ccd587ce70b0ac625a5e678303ad10c8c84ca7f7609281900390910190a16011805460010190819055612a739082614f3d565b6002546011546000908152601b6020526040902054612a9191614a7f565b6012556003546011546000908152601b6020526040902054612ab291614a7f565b6013555050565b60095481565b600b5473ffffffffffffffffffffffffffffffffffffffff163314612b4557604080517f08c379a000000000000000000000000000000000000000000000000000000000815260206004820152600b60248201527f61646d696e3a207775743f000000000000000000000000000000000000000000604482015290519081900360640190fd5b600981905560408051828152905143917fb6600428041f36ab218d984115a85adc1ffb17cb85a81801032cb590a8a8bc99919081900360200190a250565b600b5473ffffffffffffffffffffffffffffffffffffffff163314612c0957604080517f08c379a000000000000000000000000000000000000000000000000000000000815260206004820152600b60248201527f61646d696e3a207775743f000000000000000000000000000000000000000000604482015290519081900360640190fd5b600781905560408051828152905143917f82480e97991520549ac4b5d0e1d97edb3bfac2666202923b6903d2a953dc7608919081900360200190a250565b612c4f614ffb565b73ffffffffffffffffffffffffffffffffffffffff16612c6d6133f2565b73ffffffffffffffffffffffffffffffffffffffff1614612cef57604080517f08c379a000000000000000000000000000000000000000000000000000000000815260206004820181905260248201527f4f776e61626c653a2063616c6c6572206973206e6f7420746865206f776e6572604482015290519081900360640190fd5b73ffffffffffffffffffffffffffffffffffffffff8116612d7157604080517f08c379a000000000000000000000000000000000000000000000000000000000815260206004820152601660248201527f43616e6e6f74206265207a65726f206164647265737300000000000000000000604482015290519081900360640190fd5b600b80547fffffffffffffffffffffffff00000000000000000000000000000000000000001673ffffffffffffffffffffffffffffffffffffffff92909216919091179055565b612dc0614ffb565b73ffffffffffffffffffffffffffffffffffffffff16612dde6133f2565b73ffffffffffffffffffffffffffffffffffffffff1614612e6057604080517f08c379a000000000000000000000000000000000000000000000000000000000815260206004820181905260248201527f4f776e61626c653a2063616c6c6572206973206e6f7420746865206f776e6572604482015290519081900360640190fd5b6000805460405173ffffffffffffffffffffffffffffffffffffffff909116907f8be0079c531659141344cd1fd0a4f28419497f9722a3daafe3b4186f6b6457e0908390a3600080547fffffffffffffffffffffffff0000000000000000000000000000000000000000169055565b601c602090815260009283526040808420909152908252902080546001820154600390920154909161ffff169060ff8082169161010090041684565b60115481565b600060036000848152601b6020526040902060110154640100000000900460ff166004811115612f3d57fe5b14158015612f685750600180546000858152601b6020526040902090910154612f6591614a7f565b43115b8015612fa257506000838152601c6020908152604080832073ffffffffffffffffffffffffffffffffffffffff8616845290915290205415155b9392505050565b600b5473ffffffffffffffffffffffffffffffffffffffff16331461302f57604080517f08c379a000000000000000000000000000000000000000000000000000000000815260206004820152600b60248201527f61646d696e3a207775743f000000000000000000000000000000000000000000604482015290519081900360640190fd5b6130376120d7565b156130a357604080517f08c379a000000000000000000000000000000000000000000000000000000000815260206004820152601060248201527f5061757361626c653a2070617573656400000000000000000000000000000000604482015290519081900360640190fd5b6011546000908152601b6020526040902060010154431015613110576040517f08c379a000000000000000000000000000000000000000000000000000000000815260040180806020018281038252602f815260200180615ca1602f913960400191505060405180910390fd5b60118054600101908190556131259082614f3d565b50565b600e5481565b6131366120d7565b156131a257604080517f08c379a000000000000000000000000000000000000000000000000000000000815260206004820152601060248201527f5061757361626c653a2070617573656400000000000000000000000000000000604482015290519081900360640190fd5b6000818152601b602052604090208054613207576040517f08c379a0000000000000000000000000000000000000000000000000000000008152600401808060200182810382526022815260200180615c596022913960400191505060405180910390fd5b806001015443101561327a57604080517f08c379a000000000000000000000000000000000000000000000000000000000815260206004820152601a60248201527f4c6f636b20726f756e64206166746572206c6f636b426c6f636b000000000000604482015290519081900360640190fd5b600180549082015461328b91614a7f565b4311156132f957604080517f08c379a000000000000000000000000000000000000000000000000000000000815260206004820181905260248201527f4c6f636b20726f756e642077697468696e20696e74657276616c426c6f636b73604482015290519081900360640190fd5b6011810180547fffffffffffffffffffffffffffffffffffffffffffffffffffffff00ffffffff1664020000000017905560408051438152905183917f2a10a104c1d678d140bb24df324113b019210a9ef40e150f0acf0dedde4bc68e919081900360200190a25050565b60195473ffffffffffffffffffffffffffffffffffffffff1681565b601b6020526000908152604090208054600182015460028301546003840154600485015460058601546006870154600d880154600e890154600f8a015460108b01546011909b0154999a98999798969795969495939492939192909163ffffffff811690640100000000900460ff168d565b60005473ffffffffffffffffffffffffffffffffffffffff1690565b73ffffffffffffffffffffffffffffffffffffffff83166000908152601d602052604081205460609190839085900381111561346f575073ffffffffffffffffffffffffffffffffffffffff85166000908152601d60205260409020548490035b60608167ffffffffffffffff8111801561348857600080fd5b506040519080825280602002602001820160405280156134b2578160200160208202803683370190505b50905060005b828110156135235773ffffffffffffffffffffffffffffffffffffffff88166000908152601d602052604090206134ef8883614a7f565b815481106134f957fe5b906000526020600020015482828151811061351057fe5b60209081029190910101526001016134b8565b508061352f8784614a7f565b935093505050935093915050565b600060036000848152601b6020526040902060110154640100000000900460ff16600481111561356957fe5b148015612fa257506000838152601c6020908152604080832073ffffffffffffffffffffffffffffffffffffffff861684528252808320868452601b9092529091206011015460029091019063ffffffff16600681106135c557fe5b602081049091015460ff601f9092166101000a900416905092915050565b600b5473ffffffffffffffffffffffffffffffffffffffff16331461366957604080517f08c379a000000000000000000000000000000000000000000000000000000000815260206004820152600b60248201527f61646d696e3a207775743f000000000000000000000000000000000000000000604482015290519081900360640190fd5b6136716120d7565b156136dd57604080517f08c379a000000000000000000000000000000000000000000000000000000000815260206004820152601060248201527f5061757361626c653a2070617573656400000000000000000000000000000000604482015290519081900360640190fd5b601154811461374d57604080517f08c379a000000000000000000000000000000000000000000000000000000000815260206004820152601560248201527f65706f6368203d3d2063757272656e7445706f63680000000000000000000000604482015290519081900360640190fd5b613755614af3565b61375e81614be5565b613766614cbc565b6011546040805191825242602083015280517f620494b8df07e75c9eb56fea25105fc50d24deb9b63f8f96d7630ac9fe9882589281900390910190a150565b600b5473ffffffffffffffffffffffffffffffffffffffff16331461382b57604080517f08c379a000000000000000000000000000000000000000000000000000000000815260206004820152600b60248201527f61646d696e3a207775743f000000000000000000000000000000000000000000604482015290519081900360640190fd5b6138336120d7565b1561389f57604080517f08c379a000000000000000000000000000000000000000000000000000000000815260206004820152601060248201527f5061757361626c653a2070617573656400000000000000000000000000000000604482015290519081900360640190fd5b601154821461390f57604080517f08c379a000000000000000000000000000000000000000000000000000000000815260206004820152601560248201527f65706f6368203d3d2063757272656e7445706f63680000000000000000000000604482015290519081900360640190fd5b61391a60115461312e565b601180546001019081905561392f9082614f3d565b6012546011546000908152601b6020526040902054106139b057604080517f08c379a000000000000000000000000000000000000000000000000000000000815260206004820152601b60248201527f7374617274426c6f636b203c20706c61796572456e64426c6f636b0000000000604482015290519081900360640190fd5b6012546011546000908152601b60205260409020600101541115613a3557604080517f08c379a000000000000000000000000000000000000000000000000000000000815260206004820152601a60248201527f6c6f636b426c6f636b203c20706c61796572456e64426c6f636b000000000000604482015290519081900360640190fd5b5050565b61271081565b600f5481565b613a4d6120d7565b613ab857604080517f08c379a000000000000000000000000000000000000000000000000000000000815260206004820152601460248201527f5061757361626c653a206e6f7420706175736564000000000000000000000000604482015290519081900360640190fd5b6002600c541415613b2a57604080517f08c379a000000000000000000000000000000000000000000000000000000000815260206004820152601f60248201527f5265656e7472616e637947756172643a207265656e7472616e742063616c6c00604482015290519081900360640190fd5b6002600c55613b38336148da565b15613ba457604080517f08c379a000000000000000000000000000000000000000000000000000000000815260206004820152601460248201527f636f6e7472616374206e6f7420616c6c6f776564000000000000000000000000604482015290519081900360640190fd5b333214613c1257604080517f08c379a000000000000000000000000000000000000000000000000000000000815260206004820152601a60248201527f70726f787920636f6e7472616374206e6f7420616c6c6f776564000000000000604482015290519081900360640190fd5b60008111613c8157604080517f08c379a000000000000000000000000000000000000000000000000000000000815260206004820152601260248201527f4465706f73697420616d6f756e74203e20300000000000000000000000000000604482015290519081900360640190fd5b336000818152601e602052604090206017549091613cb79173ffffffffffffffffffffffffffffffffffffffff16903085614957565b601054600090613cd090610de48564e8d4a510006147e6565b601954604080517f40c10f1900000000000000000000000000000000000000000000000000000000815233600482015260248101849052905192935073ffffffffffffffffffffffffffffffffffffffff909116916340c10f19916044808201926020929091908290030181600087803b158015613d4d57600080fd5b505af1158015613d61573d6000803e3d6000fd5b505050506040513d6020811015613d7757600080fd5b50508154600090613d889083614a7f565b9050613dc581610de464e8d4a510006115a188613dbf64e8d4a51000610de48b600001548c600101546147e690919063ffffffff16565b90614a7f565b6001840155808355600f54613dda9085614a7f565b600f5560408051858152905133917fe1fffcc4923d04b559f4d29a8bfc6cda04eb5b0d3c460751c2402c5c5cc9109c919081900360200190a250506001600c555050565b60055481565b600b5473ffffffffffffffffffffffffffffffffffffffff163314613eaa57604080517f08c379a000000000000000000000000000000000000000000000000000000000815260206004820152600b60248201527f61646d696e3a207775743f000000000000000000000000000000000000000000604482015290519081900360640190fd5b73ffffffffffffffffffffffffffffffffffffffff8116613f2c57604080517f08c379a000000000000000000000000000000000000000000000000000000000815260206004820152601d60248201527f444943453a20496e76616c696420726f7574657220616464726573732e000000604482015290519081900360640190fd5b601a80547fffffffffffffffffffffffff00000000000000000000000000000000000000001673ffffffffffffffffffffffffffffffffffffffff83811691909117918290556040519116907f36db479a3b4d3672bd6f5fca4484283f60b5ac70647b1ceec13ecbb1d030a2df90600090a250565b60085481565b601a5473ffffffffffffffffffffffffffffffffffffffff1681565b600b5473ffffffffffffffffffffffffffffffffffffffff16331461404957604080517f08c379a000000000000000000000000000000000000000000000000000000000815260206004820152600b60248201527f61646d696e3a207775743f000000000000000000000000000000000000000000604482015290519081900360640190fd5b6103e88311156140ba57604080517f08c379a000000000000000000000000000000000000000000000000000000000815260206004820152600e60248201527f67617052617465203c3d20313025000000000000000000000000000000000000604482015290519081900360640190fd5b6127106140c78383614a7f565b111561411e576040517f08c379a0000000000000000000000000000000000000000000000000000000008152600401808060200182810382526026815260200180615c0d6026913960400191505060405180910390fd5b6004839055600582905560068190556040805184815260208101849052808201839052905143917f83ee137d4eea1eef0029a0cb811df31b555f216d3a45c791729e226eb145a7d5919081900360600190a2505050565b600b5473ffffffffffffffffffffffffffffffffffffffff1633146141fb57604080517f08c379a000000000000000000000000000000000000000000000000000000000815260206004820152600b60248201527f61646d696e3a207775743f000000000000000000000000000000000000000000604482015290519081900360640190fd5b6142036120d7565b1561426f57604080517f08c379a000000000000000000000000000000000000000000000000000000000815260206004820152601060248201527f5061757361626c653a2070617573656400000000000000000000000000000000604482015290519081900360640190fd5b6000828152601b6020526040902060018101546142ed57604080517f08c379a000000000000000000000000000000000000000000000000000000000815260206004820181905260248201527f456e6420726f756e6420616674657220726f756e6420686173206c6f636b6564604482015290519081900360640190fd5b60026011820154640100000000900460ff16600481111561430a57fe5b1461437657604080517f08c379a000000000000000000000000000000000000000000000000000000000815260206004820181905260248201527f456e6420726f756e6420616674657220726f756e6420686173206c6f636b6564604482015290519081900360640190fd5b80600101544310156143e957604080517f08c379a000000000000000000000000000000000000000000000000000000000815260206004820152601b60248201527f53656e6420736563726574206166746572206c6f636b426c6f636b0000000000604482015290519081900360640190fd5b60018054908201546143fa91614a7f565b431115614452576040517f08c379a0000000000000000000000000000000000000000000000000000000008152600401808060200182810382526021815260200180615cd06021913960400191505060405180910390fd5b6004810154156144c357604080517f08c379a000000000000000000000000000000000000000000000000000000000815260206004820152601060248201527f416c72656164792072657665616c656400000000000000000000000000000000604482015290519081900360640190fd5b600381015460408051602080820186905282518083038201815291830190925280519101201461453e576040517f08c379a0000000000000000000000000000000000000000000000000000000008152600401808060200182810382526023815260200180615d3f6023913960400191505060405180910390fd5b6145488383614fff565b61455183615158565b505050565b73ffffffffffffffffffffffffffffffffffffffff81166000908152601e6020526040812060010154601054610dea9190610de49060646147e6565b60135481565b601d60205281600052604060002081815481106145b157fe5b90600052602060002001600091509150505481565b60045481565b60125481565b601e602052600090815260409020805460019091015482565b6145f3614ffb565b73ffffffffffffffffffffffffffffffffffffffff166146116133f2565b73ffffffffffffffffffffffffffffffffffffffff161461469357604080517f08c379a000000000000000000000000000000000000000000000000000000000815260206004820181905260248201527f4f776e61626c653a2063616c6c6572206973206e6f7420746865206f776e6572604482015290519081900360640190fd5b73ffffffffffffffffffffffffffffffffffffffff81166146ff576040517f08c379a0000000000000000000000000000000000000000000000000000000008152600401808060200182810382526026815260200180615c336026913960400191505060405180910390fd5b6000805460405173ffffffffffffffffffffffffffffffffffffffff808516939216917f8be0079c531659141344cd1fd0a4f28419497f9722a3daafe3b4186f6b6457e091a3600080547fffffffffffffffffffffffff00000000000000000000000000000000000000001673ffffffffffffffffffffffffffffffffffffffff92909216919091179055565b60075481565b60175473ffffffffffffffffffffffffffffffffffffffff1681565b600b5473ffffffffffffffffffffffffffffffffffffffff1681565b60185473ffffffffffffffffffffffffffffffffffffffff1681565b6000826147f557506000610dea565b8282028284828161480257fe5b0414612fa2576040517f08c379a0000000000000000000000000000000000000000000000000000000008152600401808060200182810382526021815260200180615d626021913960400191505060405180910390fd5b60008082116148c957604080517f08c379a000000000000000000000000000000000000000000000000000000000815260206004820152601a60248201527f536166654d6174683a206469766973696f6e206279207a65726f000000000000604482015290519081900360640190fd5b8183816148d257fe5b049392505050565b3b151590565b60008282111561495157604080517f08c379a000000000000000000000000000000000000000000000000000000000815260206004820152601e60248201527f536166654d6174683a207375627472616374696f6e206f766572666c6f770000604482015290519081900360640190fd5b50900390565b6040805173ffffffffffffffffffffffffffffffffffffffff80861660248301528416604482015260648082018490528251808303909101815260849091019091526020810180517bffffffffffffffffffffffffffffffffffffffffffffffffffffffff167f23b872dd000000000000000000000000000000000000000000000000000000001790526149ec9085906157af565b50505050565b6040805173ffffffffffffffffffffffffffffffffffffffff8416602482015260448082018490528251808303909101815260649091019091526020810180517bffffffffffffffffffffffffffffffffffffffffffffffffffffffff167fa9059cbb000000000000000000000000000000000000000000000000000000001790526145519084906157af565b600082820183811015612fa257604080517f08c379a000000000000000000000000000000000000000000000000000000000815260206004820152601b60248201527f536166654d6174683a206164646974696f6e206f766572666c6f770000000000604482015290519081900360640190fd5b614afb6120d7565b15614b6757604080517f08c379a000000000000000000000000000000000000000000000000000000000815260206004820152601060248201527f5061757361626c653a2070617573656400000000000000000000000000000000604482015290519081900360640190fd5b600d80547fffffffffffffffffffffffffffffffffffffffffffffffffffffffffffffff001660011790557f62e78cea01bee320cd4e420270b5ea74000d11b0c9f74754ebdbfc544b05a258614bbb614ffb565b6040805173ffffffffffffffffffffffffffffffffffffffff9092168252519081900360200190a1565b614bed6120d7565b614c5857604080517f08c379a000000000000000000000000000000000000000000000000000000000815260206004820152601460248201527f5061757361626c653a206e6f7420706175736564000000000000000000000000604482015290519081900360640190fd5b614c75600e54610de4600f546010546147e690919063ffffffff16565b60108190556040805183815242602082015280820192909252517f95469f147cc262e5fccd74055a3cb233412f6bcf9a302bbc231d02b6b71a488b9181900360600190a150565b60145415614dbb57601480546000909155601654601754614cf79173ffffffffffffffffffffffffffffffffffffffff9182169116836149f2565b601654601554604080517f9f8dbb7b00000000000000000000000000000000000000000000000000000000815260048101929092525173ffffffffffffffffffffffffffffffffffffffff90921691639f8dbb7b9160248082019260009290919082900301818387803b158015614d6d57600080fd5b505af1158015614d81573d6000803e3d6000fd5b50506040805184815290517f99bfec7bb1f89aca0e348998b13dc0b1f047b71528153fcabd586d4f7339abf89350908190036020019150a1505b565b60405160009073ffffffffffffffffffffffffffffffffffffffff8416906159d890849084818181858888f193505050503d8060008114614e1a576040519150601f19603f3d011682016040523d82523d6000602084013e614e1f565b606091505b5050905080614551576040517f08c379a0000000000000000000000000000000000000000000000000000000008152600401808060200182810382526023815260200180615d836023913960400191505060405180910390fd5b614e816120d7565b614eec57604080517f08c379a000000000000000000000000000000000000000000000000000000000815260206004820152601460248201527f5061757361626c653a206e6f7420706175736564000000000000000000000000604482015290519081900360640190fd5b600d80547fffffffffffffffffffffffffffffffffffffffffffffffffffffffffffffff001690557f5db9ee0a495bf2e6ff9c91a7834c1ba4fdd244a5e8aa4e537bd38aeae4b073aa614bbb614ffb565b6000828152601b6020526040902043808255600154614f5c9190614a7f565b60018201556003810182905560006005820155600854600f54614f869161271091610de4916147e6565b60068201556011810180547fffffffffffffffffffffffffffffffffffffffffffffffffffffff00ffffffff166401000000001790556040805143815260208101849052815185927fb9413afe4aa8b9bd9b95231fb3ce86db2070c997ffaaf2359570376259653cc6928290030190a2505050565b3390565b6150076120d7565b1561507357604080517f08c379a000000000000000000000000000000000000000000000000000000000815260206004820152601060248201527f5061757361626c653a2070617573656400000000000000000000000000000000604482015290519081900360640190fd5b6000828152601b60205260409020436002820155600481018290556010810154821844186006816011840180547fffffffffffffffffffffffffffffffffffffffffffffffffffffffff00000000169290910663ffffffff1691909117808255600391907fffffffffffffffffffffffffffffffffffffffffffffffffffffff00ffffffff166401000000008302179055506011820154604080514381526020810186905263ffffffff909216828201525185917ff12b3b25d193d87bfaff62f011c9f2b3b0631ec2ed1f63fabd3a3066391dbf50919081900360600190a250505050565b612710615172600654600554614a7f90919063ffffffff16565b11156151c9576040517f08c379a0000000000000000000000000000000000000000000000000000000008152600401808060200182810382526024815260200180615d1b6024913960400191505060405180910390fd5b6000818152601b60205260409020600e01541561524757604080517f08c379a000000000000000000000000000000000000000000000000000000000815260206004820152601260248201527f526577617264732063616c63756c617465640000000000000000000000000000604482015290519081900360640190fd5b6000818152601b602052604081209080805b60068163ffffffff16101561543757601184015463ffffffff828116911614156153765760006152b9612710610de46005546115a1612710610de46004546115a160058e6007018c63ffffffff16600681106152b157fe5b0154906147e6565b90506152c58482614a7f565b935060006152fb612710610de46006546115a1612710610de46004546115a160058f6007018d63ffffffff16600681106152b157fe5b90506153078482614a7f565b93506000615345612710610de461532b6004546127106148e090919063ffffffff16565b6115a160058c6007018a63ffffffff16600681106152b157fe5b905061536a826153648561536485600f546148e090919063ffffffff16565b906148e0565b600f555061542f915050565b60006153a5612710610de46005546115a1612710610de46004548c6007018a63ffffffff16600681106152b157fe5b90506153b18482614a7f565b935060006153e2612710610de46006546115a1612710610de46004548d6007018b63ffffffff16600681106152b157fe5b90506153ee8482614a7f565b93506000866007018463ffffffff166006811061540757fe5b01549050615428826153648561536485600f54614a7f90919063ffffffff16565b600f555050505b600101615259565b50600d8301829055600e830181905560185460175473ffffffffffffffffffffffffffffffffffffffff9081169116141561547857600f8301829055615749565b601a5473ffffffffffffffffffffffffffffffffffffffff16156157495760408051600280825260608083018452926020830190803683375050601754825192935073ffffffffffffffffffffffffffffffffffffffff16918391506000906154dd57fe5b73ffffffffffffffffffffffffffffffffffffffff928316602091820292909201015260185482519116908290600190811061551557fe5b602002602001019073ffffffffffffffffffffffffffffffffffffffff16908173ffffffffffffffffffffffffffffffffffffffff16815250506000601a60009054906101000a900473ffffffffffffffffffffffffffffffffffffffff1673ffffffffffffffffffffffffffffffffffffffff166338ed173986600d0154600085304261012c016040518663ffffffff1660e01b815260040180868152602001858152602001806020018473ffffffffffffffffffffffffffffffffffffffff168152602001838152602001828103825285818151815260200191508051906020019060200280838360005b8381101561561a578181015183820152602001615602565b505050509050019650505050505050600060405180830381600087803b15801561564357600080fd5b505af1158015615657573d6000803e3d6000fd5b505050506040513d6000823e601f3d9081017fffffffffffffffffffffffffffffffffffffffffffffffffffffffffffffffe0168201604052602081101561569e57600080fd5b81019080805160405193929190846401000000008211156156be57600080fd5b9083019060208201858111156156d357600080fd5b82518660208202830111640100000000821117156156f057600080fd5b82525081516020918201928201910280838360005b8381101561571d578181015183820152602001615705565b5050505090500160405250505060018151811061573657fe5b6020908102919091010151600f86015550505b6014546157569082614a7f565b601455600d830154600e840154600f850154604080519384526020840192909252828201525185917f6dfdfcb09c8804d0058826cd2539f1acfbe3cb887c9be03d928035bce0f1a58d919081900360600190a250505050565b6060615811826040518060400160405280602081526020017f5361666542455032303a206c6f772d6c6576656c2063616c6c206661696c65648152508573ffffffffffffffffffffffffffffffffffffffff166158879092919063ffffffff16565b8051909150156145515780806020019051602081101561583057600080fd5b5051614551576040517f08c379a000000000000000000000000000000000000000000000000000000000815260040180806020018281038252602a815260200180615be3602a913960400191505060405180910390fd5b6060615896848460008561589e565b949350505050565b6060824710156158f9576040517f08c379a0000000000000000000000000000000000000000000000000000000008152600401808060200182810382526026815260200180615c7b6026913960400191505060405180910390fd5b615902856148da565b61596d57604080517f08c379a000000000000000000000000000000000000000000000000000000000815260206004820152601d60248201527f416464726573733a2063616c6c20746f206e6f6e2d636f6e7472616374000000604482015290519081900360640190fd5b600060608673ffffffffffffffffffffffffffffffffffffffff1685876040518082805190602001908083835b602083106159d757805182527fffffffffffffffffffffffffffffffffffffffffffffffffffffffffffffffe0909201916020918201910161599a565b6001836020036101000a03801982511681845116808217855250505050505090500191505060006040518083038185875af1925050503d8060008114615a39576040519150601f19603f3d011682016040523d82523d6000602084013e615a3e565b606091505b5091509150615a4e828286615a59565b979650505050505050565b60608315615a68575081612fa2565b825115615a785782518084602001fd5b816040517f08c379a00000000000000000000000000000000000000000000000000000000081526004018080602001828103825283818151815260200191508051906020019080838360005b83811015615adc578181015183820152602001615ac4565b50505050905090810190601f168015615b095780820380516001836020036101000a031916815260200191505b509250505060405180910390fd5b600183019183908215615b9b5791602002820160005b83821115615b6c578335151583826101000a81548160ff0219169083151502179055509260200192600101602081600001049283019260010302615b2d565b8015615b995782816101000a81549060ff0219169055600101602081600001049283019260010302615b6c565b505b50615ba7929150615bab565b5090565b5b80821115615ba75780547fffffffffffffffffffffffffffffffffffffffffffffffffffffffffffffff00168155600101615bac56fe5361666542455032303a204245503230206f7065726174696f6e20646964206e6f7420737563636565645f6c634261636b52617465202b205f626f6e757352617465203c3d20544f54414c5f524154454f776e61626c653a206e6577206f776e657220697320746865207a65726f20616464726573734c6f636b20726f756e6420616674657220726f756e64206861732073746172746564416464726573733a20696e73756666696369656e742062616c616e636520666f722063616c6c4d616e75616c207374617274206e657720726f756e642061667465722063757272656e7420726f756e64206c6f636b53656e64207365637265742077697468696e20696e74657276616c426c6f636b73526f756e642063616e207374617274206f6e6c79207768656e2062616e6b6572416d6f756e74203e20306c634261636b52617465202b20626f6e757352617465203c3d20544f54414c5f5241544542616e6b2072657665616c206e6f74206d61746368696e6720636f6d6d69746d656e74536166654d6174683a206d756c7469706c69636174696f6e206f766572666c6f775472616e7366657248656c7065723a20424e425f5452414e534645525f4641494c4544426574416d6f756e74203c3d20726f756e642e6d6178426574416d6f756e74202a206e756d626572436f756e74426574416d6f756e74203e3d206d696e426574416d6f756e74202a206e756d626572436f756e74a264697066735822122044400857ad276f0d82e2064e504e51b5749c2e72c1c21434872c5b0e49977cf464736f6c634300060c0033",
  "immutableReferences": {},
  "source": "// SPDX-License-Identifier: MIT\r\n\r\npragma solidity 0.6.12;\r\n\r\nimport \"@openzeppelin/contracts/math/SafeMath.sol\";\r\nimport \"@openzeppelin/contracts/utils/Pausable.sol\";\r\nimport \"@openzeppelin/contracts/utils/ReentrancyGuard.sol\";\r\nimport \"./DiceToken.sol\";\r\nimport \"./DiceLimit.sol\";\r\nimport \"./libs/IBEP20.sol\";\r\nimport \"./libs/SafeBEP20.sol\";\r\nimport \"./libs/ILuckyChipRouter02.sol\";\r\nimport \"./libs/IMasterChef.sol\";\r\n\r\ncontract Dice is DiceLimit, ReentrancyGuard, Pausable {\r\n    using SafeMath for uint256;\r\n    using SafeBEP20 for IBEP20;\r\n\r\n    uint256 public prevBankerAmount;\r\n    uint256 public bankerAmount;\r\n    uint256 public netValue;\r\n    uint256 public currentEpoch;\r\n    uint256 public playerEndBlock;\r\n    uint256 public bankerEndBlock;\r\n    uint256 public totalBonusAmount;\r\n    uint256 public masterChefBonusId;\r\n\r\n    address public masterChefAddress;\r\n    IBEP20 public token;\r\n    IBEP20 public lcToken;\r\n    DiceToken public diceToken;    \r\n    ILuckyChipRouter02 public swapRouter;\r\n\r\n    enum Status {\r\n        Pending,\r\n        Open,\r\n        Lock,\r\n        Claimable,\r\n        Expired\r\n    }\r\n\r\n    struct Round {\r\n        uint256 startBlock;\r\n        uint256 lockBlock;\r\n        uint256 secretSentBlock;\r\n        bytes32 bankHash;\r\n        uint256 bankSecret;\r\n        uint256 totalAmount;\r\n        uint256 maxBetAmount;\r\n        uint256[6] betAmounts;\r\n        uint256 lcBackAmount;\r\n        uint256 bonusAmount;\r\n        uint256 swapLcAmount;\r\n        uint256 betUsers;\r\n        uint32 finalNumber;\r\n        Status status;\r\n    }\r\n\r\n    struct BetInfo {\r\n        uint256 amount;\r\n        uint16 numberCount;    \r\n        bool[6] numbers;\r\n        bool claimed; // default false\r\n        bool lcClaimed; // default false\r\n    }\r\n\r\n    struct BankerInfo {\r\n        uint256 diceTokenAmount;\r\n        uint256 avgBuyValue;\r\n    }\r\n\r\n    mapping(uint256 => Round) public rounds;\r\n    mapping(uint256 => mapping(address => BetInfo)) public ledger;\r\n    mapping(address => uint256[]) public userRounds;\r\n    mapping(address => BankerInfo) public bankerInfo;\r\n\r\n    event StartRound(uint256 indexed epoch, uint256 blockNumber, bytes32 bankHash);\r\n    event LockRound(uint256 indexed epoch, uint256 blockNumber);\r\n    event SendSecretRound(uint256 indexed epoch, uint256 blockNumber, uint256 bankSecret, uint32 finalNumber);\r\n    event BetNumber(address indexed sender, uint256 indexed currentEpoch, bool[6] numbers, uint256 amount);\r\n    event Claim(address indexed sender, uint256 indexed currentEpoch, uint256 amount);\r\n    event ClaimBonusLC(address indexed sender, uint256 amount);\r\n    event ClaimBonus(uint256 amount);\r\n    event RewardsCalculated(\r\n        uint256 indexed epoch,\r\n        uint256 lcbackamount,\r\n        uint256 bonusamount,\r\n        uint256 swaplcamount\r\n    );\r\n    event SwapRouterUpdated(address indexed router);\r\n    event EndPlayerTime(uint256 epoch, uint256 blockNumber);\r\n    event EndBankerTime(uint256 epoch, uint256 blockNumber);\r\n    event UpdateNetValue(uint256 epoch, uint256 blockNumber, uint256 netValue);\r\n    event Deposit(address indexed user, uint256 tokenAmount);    \r\n    event Withdraw(address indexed user, uint256 diceTokenAmount);    \r\n\r\n    constructor(\r\n        address _tokenAddress,\r\n        address _lcTokenAddress,\r\n        address _diceTokenAddress,\r\n        address _masterChefAddress,\r\n        uint256 _masterChefBonusId,\r\n        uint256 _intervalBlocks,\r\n        uint256 _playerTimeBlocks,\r\n        uint256 _bankerTimeBlocks,\r\n        uint256 _minBetAmount,\r\n        uint256 _feeAmount\r\n    ) public {\r\n        token = IBEP20(_tokenAddress);\r\n        lcToken = IBEP20(_lcTokenAddress);\r\n        diceToken = DiceToken(_diceTokenAddress);\r\n        masterChefAddress = _masterChefAddress;\r\n        masterChefBonusId = _masterChefBonusId;\r\n        intervalBlocks = _intervalBlocks;\r\n        playerTimeBlocks = _playerTimeBlocks;\r\n        bankerTimeBlocks = _bankerTimeBlocks;\r\n        minBetAmount = _minBetAmount;\r\n        feeAmount = _feeAmount;\r\n        netValue = uint256(1e12);\r\n        _pause();\r\n    }\r\n\r\n    modifier notContract() {\r\n        require(!_isContract(msg.sender), \"contract not allowed\");\r\n        require(msg.sender == tx.origin, \"proxy contract not allowed\");\r\n        _;\r\n    }\r\n\r\n    // End banker time\r\n    function endBankerTime(uint256 epoch, bytes32 bankHash) external onlyAdmin whenPaused {\r\n        require(epoch == currentEpoch + 1, \"epoch == currentEpoch + 1\");\r\n        require(bankerAmount > 0, \"Round can start only when bankerAmount > 0\");\r\n        prevBankerAmount = bankerAmount;\r\n        _unpause();\r\n        emit EndBankerTime(currentEpoch, block.timestamp);\r\n        \r\n        currentEpoch = currentEpoch + 1;\r\n        _startRound(currentEpoch, bankHash);\r\n        playerEndBlock = rounds[currentEpoch].startBlock.add(playerTimeBlocks);\r\n        bankerEndBlock = rounds[currentEpoch].startBlock.add(bankerTimeBlocks);\r\n    }\r\n\r\n    // Start the next round n, lock for round n-1\r\n    function executeRound(uint256 epoch, bytes32 bankHash) external onlyAdmin whenNotPaused{\r\n        require(epoch == currentEpoch, \"epoch == currentEpoch\");\r\n\r\n        // CurrentEpoch refers to previous round (n-1)\r\n        lockRound(currentEpoch);\r\n\r\n        // Increment currentEpoch to current round (n)\r\n        currentEpoch = currentEpoch + 1;\r\n        _startRound(currentEpoch, bankHash);\r\n        require(rounds[currentEpoch].startBlock < playerEndBlock, \"startBlock < playerEndBlock\");\r\n        require(rounds[currentEpoch].lockBlock <= playerEndBlock, \"lockBlock < playerEndBlock\");\r\n    }\r\n\r\n    // end player time, triggers banker time\r\n    function endPlayerTime(uint256 epoch, uint256 bankSecret) external onlyAdmin whenNotPaused{\r\n        require(epoch == currentEpoch, \"epoch == currentEpoch\");\r\n        sendSecret(epoch, bankSecret);\r\n        _pause();\r\n        _updateNetValue(epoch);\r\n\t\t_claimBonus();\r\n        emit EndPlayerTime(currentEpoch, block.timestamp);\r\n    }\r\n\r\n    // end player time without caring last round\r\n    function endPlayerTimeImmediately(uint256 epoch) external onlyAdmin whenNotPaused{\r\n        require(epoch == currentEpoch, \"epoch == currentEpoch\");\r\n        _pause();\r\n        _updateNetValue(epoch);\r\n\t\t_claimBonus();\r\n        emit EndPlayerTime(currentEpoch, block.timestamp);\r\n    }\r\n\r\n    // update net value\r\n    function _updateNetValue(uint256 epoch) internal whenPaused{    \r\n        netValue = netValue.mul(bankerAmount).div(prevBankerAmount);\r\n        emit UpdateNetValue(epoch, block.timestamp, netValue);\r\n    }\r\n\r\n    // send bankSecret\r\n    function sendSecret(uint256 epoch, uint256 bankSecret) public onlyAdmin whenNotPaused{\r\n\t\tRound storage round = rounds[epoch];\r\n        require(round.lockBlock != 0, \"End round after round has locked\");\r\n        require(round.status == Status.Lock, \"End round after round has locked\");\r\n        require(block.number >= round.lockBlock, \"Send secret after lockBlock\");\r\n        require(block.number <= round.lockBlock.add(intervalBlocks), \"Send secret within intervalBlocks\");\r\n        require(round.bankSecret == 0, \"Already revealed\");\r\n        require(keccak256(abi.encodePacked(bankSecret)) == round.bankHash, \"Bank reveal not matching commitment\");\r\n\r\n        _safeSendSecret(epoch, bankSecret);\r\n        _calculateRewards(epoch);\r\n    }\r\n\r\n    function _safeSendSecret(uint256 epoch, uint256 bankSecret) internal whenNotPaused {\r\n        Round storage round = rounds[epoch];\r\n        round.secretSentBlock = block.number;\r\n        round.bankSecret = bankSecret;\r\n        uint256 random = round.bankSecret ^ round.betUsers ^ block.difficulty;\r\n        round.finalNumber = uint32(random % 6);\r\n        round.status = Status.Claimable;\r\n\r\n        emit SendSecretRound(epoch, block.number, bankSecret, round.finalNumber);\r\n    }\r\n\r\n    // bet number\r\n    function betNumber(bool[6] calldata numbers, uint256 amount) external payable whenNotPaused notContract nonReentrant {\r\n        Round storage round = rounds[currentEpoch];\r\n\t\trequire(msg.value >= feeAmount, \"msg.value > feeAmount\");\r\n        require(round.status == Status.Open, \"Round not Open\");\r\n        require(block.number > round.startBlock && block.number < round.lockBlock, \"Round not bettable\");\r\n        require(ledger[currentEpoch][msg.sender].amount == 0, \"Bet once per round\");\r\n        uint16 numberCount = 0;\r\n        for (uint32 i = 0; i < 6; i ++) {\r\n            if (numbers[i]) {\r\n                numberCount = numberCount + 1;    \r\n            }\r\n        }\r\n        require(numberCount > 0, \"numberCount > 0\");\r\n        require(amount >= minBetAmount.mul(uint256(numberCount)), \"BetAmount >= minBetAmount * numberCount\");\r\n        require(amount <= round.maxBetAmount.mul(uint256(numberCount)), \"BetAmount <= round.maxBetAmount * numberCount\");\r\n\t\tif (feeAmount > 0){\r\n            _safeTransferBNB(adminAddress, feeAmount);\r\n        }\r\n\r\n        token.safeTransferFrom(address(msg.sender), address(this), amount);\r\n\r\n        // Update round data\r\n        round.totalAmount = round.totalAmount.add(amount);\r\n        round.betUsers = round.betUsers.add(1);\r\n        uint256 betAmount = amount.div(uint256(numberCount));\r\n        for (uint32 i = 0; i < 6; i ++) {\r\n            if (numbers[i]) {\r\n                round.betAmounts[i] = round.betAmounts[i].add(betAmount);\r\n            }\r\n        }\r\n\r\n        // Update user data\r\n        BetInfo storage betInfo = ledger[currentEpoch][msg.sender];\r\n        betInfo.numbers = numbers;\r\n        betInfo.amount = amount;\r\n        betInfo.numberCount = numberCount;\r\n        userRounds[msg.sender].push(currentEpoch);\r\n\r\n        emit BetNumber(msg.sender, currentEpoch, numbers, amount);\r\n    }\r\n\r\n\r\n    // Claim reward\r\n    function claim(uint256 epoch) external notContract nonReentrant {\r\n        require(rounds[epoch].startBlock != 0, \"Round has not started\");\r\n        require(block.number > rounds[epoch].lockBlock, \"Round has not locked\");\r\n        require(!ledger[epoch][msg.sender].claimed, \"Rewards claimed\");\r\n\r\n        uint256 reward;\r\n        BetInfo storage betInfo = ledger[epoch][msg.sender];\r\n        // Round valid, claim rewards\r\n        if (rounds[epoch].status == Status.Claimable) {\r\n            require(claimable(epoch, msg.sender), \"Not eligible for claim\");\r\n\t\t\tuint256 singleAmount = betInfo.amount.div(uint256(betInfo.numberCount));\r\n            reward = singleAmount.mul(5).mul(TOTAL_RATE.sub(gapRate)).div(TOTAL_RATE);\r\n\t\t\treward = reward.add(singleAmount);\r\n        }\r\n        // Round invalid, refund bet amount\r\n        else {\r\n            require(refundable(epoch, msg.sender), \"Not eligible for refund\");\r\n            reward = ledger[epoch][msg.sender].amount;\r\n        }\r\n\r\n        betInfo.claimed = true;\r\n        token.safeTransfer(msg.sender, reward);\r\n\r\n        emit Claim(msg.sender, epoch, reward);\r\n    }\r\n\r\n    // Claim lc back\r\n    function claimLcBack(address user) external notContract nonReentrant {\r\n        uint256 lcAmount = 0;    \r\n        uint256 epoch;\r\n        uint256 roundLcAmount = 0;\r\n        for (uint256 i = userRounds[user].length - 1; i >= 0; i --){\r\n            epoch = userRounds[user][i];\r\n            BetInfo storage betInfo = ledger[epoch][msg.sender];\r\n            if (betInfo.lcClaimed){\r\n                break;\r\n            }else{\r\n\t\t\t\tRound storage round = rounds[epoch];\r\n                if (round.status == Status.Claimable){\r\n                    if (betInfo.numbers[round.finalNumber]){\r\n                        roundLcAmount = betInfo.amount.div(uint256(betInfo.numberCount)).mul(5).mul(gapRate).div(TOTAL_RATE).mul(lcBackRate).div(TOTAL_RATE);\r\n                        if (betInfo.numberCount > 1){\r\n                            roundLcAmount = roundLcAmount.add(betInfo.amount.div(uint256(betInfo.numberCount)).mul(uint256(betInfo.numberCount - 1)).mul(gapRate).div(TOTAL_RATE).mul(lcBackRate).div(TOTAL_RATE));\r\n                        }\r\n                    }else{\r\n                        roundLcAmount = betInfo.amount.mul(gapRate).div(TOTAL_RATE).mul(lcBackRate).div(TOTAL_RATE);\r\n                    }\r\n\r\n\t\t\t\t\troundLcAmount = roundLcAmount.mul(round.swapLcAmount).div(round.lcBackAmount);\r\n                    lcAmount = lcAmount.add(roundLcAmount);\r\n                    betInfo.lcClaimed = true;\r\n                }\r\n            }\r\n        }\r\n\r\n\t\tif (lcAmount > 0){\r\n\t\t\tlcToken.safeTransfer(user, lcAmount);\r\n\t\t}\r\n        emit ClaimBonusLC(user, lcAmount);\r\n    }\r\n\r\n    // View pending lc back\r\n    function pendingLcBack(address user) external view returns (uint256) {\r\n\t\tuint256 lcAmount = 0;\r\n        uint256 epoch;\r\n        uint256 roundLcAmount = 0;\r\n        for (uint256 i = userRounds[user].length - 1; i >= 0; i --){\r\n            epoch = userRounds[user][i];\r\n            BetInfo storage betInfo = ledger[epoch][msg.sender];\r\n            if (betInfo.lcClaimed){\r\n                break;\r\n            }else{\r\n                Round storage round = rounds[epoch];\r\n                if (round.status == Status.Claimable){\r\n                    if (betInfo.numbers[round.finalNumber]){\r\n                        roundLcAmount = betInfo.amount.div(uint256(betInfo.numberCount)).mul(5).mul(gapRate).div(TOTAL_RATE).mul(lcBackRate).div(TOTAL_RATE);\r\n                        if (betInfo.numberCount > 1){\r\n                            roundLcAmount = roundLcAmount.add(betInfo.amount.div(uint256(betInfo.numberCount)).mul(uint256(betInfo.numberCount - 1)).mul(gapRate).div(TOTAL_RATE).mul(lcBackRate).div(TOTAL_RATE));\r\n                        }\r\n                    }else{\r\n                        roundLcAmount = betInfo.amount.mul(gapRate).div(TOTAL_RATE).mul(lcBackRate).div(TOTAL_RATE);\r\n                    }\r\n\r\n                    roundLcAmount = roundLcAmount.mul(round.swapLcAmount).div(round.lcBackAmount);\r\n                    lcAmount = lcAmount.add(roundLcAmount);\r\n                }\r\n            }\r\n        }\r\n\r\n        return lcAmount;    \r\n    }\r\n\r\n    // Claim all bonus to masterChef\r\n    function _claimBonus() internal {\r\n\t\tif( totalBonusAmount > 0){\r\n\t\t\tuint256 tmpBonusAmount = totalBonusAmount;\r\n\t        totalBonusAmount = 0;\r\n\t\t\ttoken.safeTransfer(masterChefAddress, tmpBonusAmount);\r\n\t\t\tIMasterChef(masterChefAddress).updateBonus(masterChefBonusId);\r\n\t        emit ClaimBonus(tmpBonusAmount);\r\n\t\t}\r\n    }\r\n\r\n    // Return round epochs that a user has participated\r\n    function getUserRounds(\r\n        address user,\r\n        uint256 cursor,\r\n        uint256 size\r\n    ) external view returns (uint256[] memory, uint256) {\r\n        uint256 length = size;\r\n        if (length > userRounds[user].length - cursor) {\r\n            length = userRounds[user].length - cursor;\r\n        }\r\n\r\n        uint256[] memory values = new uint256[](length);\r\n        for (uint256 i = 0; i < length; i++) {\r\n            values[i] = userRounds[user][cursor.add(i)];\r\n        }\r\n\r\n        return (values, cursor.add(length));\r\n    }\r\n\r\n    // Get the claimable stats of specific epoch and user account\r\n    function claimable(uint256 epoch, address user) public view returns (bool) {\r\n        return (rounds[epoch].status == Status.Claimable) && (ledger[epoch][user].numbers[rounds[epoch].finalNumber]);\r\n    }\r\n\r\n    // Get the refundable stats of specific epoch and user account\r\n    function refundable(uint256 epoch, address user) public view returns (bool) {\r\n        return (rounds[epoch].status != Status.Claimable) && block.number > rounds[epoch].lockBlock.add(intervalBlocks) && ledger[epoch][user].amount != 0;\r\n    }\r\n\r\n    // Manual Start round. Previous round n-1 must lock\r\n    function manualStartRound(bytes32 bankHash) external onlyAdmin whenNotPaused {\r\n        require(block.number >= rounds[currentEpoch].lockBlock, \"Manual start new round after current round lock\");\r\n        currentEpoch = currentEpoch + 1;\r\n        _startRound(currentEpoch, bankHash);\r\n    }\r\n\r\n    function _startRound(uint256 epoch, bytes32 bankHash) internal {\r\n        Round storage round = rounds[epoch];\r\n        round.startBlock = block.number;\r\n        round.lockBlock = block.number.add(intervalBlocks);\r\n        round.bankHash = bankHash;\r\n        round.totalAmount = 0;\r\n\t\tround.maxBetAmount = bankerAmount.mul(maxBetRatio).div(TOTAL_RATE);\r\n        round.status = Status.Open;\r\n\r\n        emit StartRound(epoch, block.number, bankHash);\r\n    }\r\n\r\n    // Lock round\r\n    function lockRound(uint256 epoch) public whenNotPaused {\r\n        Round storage round = rounds[epoch];\r\n        require(round.startBlock != 0, \"Lock round after round has started\");\r\n        require(block.number >= round.lockBlock, \"Lock round after lockBlock\");\r\n        require(block.number <= round.lockBlock.add(intervalBlocks), \"Lock round within intervalBlocks\");\r\n        round.status = Status.Lock;\r\n        emit LockRound(epoch, block.number);\r\n    }\r\n\r\n    // Calculate rewards for round\r\n    function _calculateRewards(uint256 epoch) internal {\r\n        require(lcBackRate.add(bonusRate) <= TOTAL_RATE, \"lcBackRate + bonusRate <= TOTAL_RATE\");\r\n        require(rounds[epoch].bonusAmount == 0, \"Rewards calculated\");\r\n        Round storage round = rounds[epoch];\r\n\r\n        uint256 lcBackAmount = 0;\r\n        uint256 bonusAmount = 0;\r\n        for (uint32 i = 0; i < 6; i ++){\r\n            if (i == round.finalNumber){\r\n                uint256 tmpLcBackAmount = round.betAmounts[i].mul(5).mul(gapRate).div(TOTAL_RATE).mul(lcBackRate).div(TOTAL_RATE);\r\n                lcBackAmount = lcBackAmount.add(tmpLcBackAmount);\r\n                uint256 tmpBonusAmount = round.betAmounts[i].mul(5).mul(gapRate).div(TOTAL_RATE).mul(bonusRate).div(TOTAL_RATE);\r\n                bonusAmount = bonusAmount.add(tmpBonusAmount);\r\n                uint256 playerWinAmount = round.betAmounts[i].mul(5).mul(TOTAL_RATE.sub(gapRate)).div(TOTAL_RATE);\r\n                bankerAmount = bankerAmount.sub(playerWinAmount).sub(tmpLcBackAmount).sub(tmpBonusAmount);\r\n            }else{\r\n                uint256 tmpLcBackAmount = round.betAmounts[i].mul(gapRate).div(TOTAL_RATE).mul(lcBackRate).div(TOTAL_RATE);\r\n                lcBackAmount = lcBackAmount.add(tmpLcBackAmount);\r\n                uint256 tmpBonusAmount = round.betAmounts[i].mul(gapRate).div(TOTAL_RATE).mul(bonusRate).div(TOTAL_RATE);\r\n                bonusAmount = bonusAmount.add(tmpBonusAmount);\r\n                uint256 playerLostAmount = round.betAmounts[i];\r\n                bankerAmount = bankerAmount.add(playerLostAmount).sub(tmpLcBackAmount).sub(tmpBonusAmount);\r\n            }    \r\n        }\r\n\r\n        round.lcBackAmount = lcBackAmount;\r\n        round.bonusAmount = bonusAmount;\r\n\r\n\t\tif(address(token) == address(lcToken)){\r\n\t\t\tround.swapLcAmount = lcBackAmount;\r\n\t\t}else if(address(swapRouter) != address(0)){\r\n            address[] memory path = new address[](2);\r\n            path[0] = address(token);\r\n            path[1] = address(lcToken);\r\n            uint256 lcAmout = swapRouter.swapExactTokensForTokens(round.lcBackAmount, 0, path, address(this), block.timestamp + (5 minutes))[1];\r\n            round.swapLcAmount = lcAmout;\r\n        }\r\n        totalBonusAmount = totalBonusAmount.add(bonusAmount);\r\n\r\n        emit RewardsCalculated(epoch, round.lcBackAmount, round.bonusAmount, round.swapLcAmount);\r\n    }\r\n\r\n    // Deposit token to Dice as a banker, get Syrup back.\r\n    function deposit(uint256 _tokenAmount) public whenPaused nonReentrant notContract {\r\n        require(_tokenAmount > 0, \"Deposit amount > 0\");\r\n        BankerInfo storage banker = bankerInfo[msg.sender];\r\n        token.safeTransferFrom(address(msg.sender), address(this), _tokenAmount);\r\n        uint256 diceTokenAmount = _tokenAmount.mul(1e12).div(netValue);\r\n        diceToken.mint(address(msg.sender), diceTokenAmount);\r\n        uint256 totalDiceTokenAmount = banker.diceTokenAmount.add(diceTokenAmount);\r\n        banker.avgBuyValue = banker.avgBuyValue.mul(banker.diceTokenAmount).div(1e12).add(_tokenAmount).mul(1e12).div(totalDiceTokenAmount);\r\n        banker.diceTokenAmount = totalDiceTokenAmount;\r\n        bankerAmount = bankerAmount.add(_tokenAmount);\r\n        emit Deposit(msg.sender, _tokenAmount);    \r\n    }\r\n\r\n    // Withdraw syrup from dice to get token back\r\n    function withdraw(uint256 _diceTokenAmount) public whenPaused nonReentrant notContract {\r\n        require(_diceTokenAmount > 0, \"diceTokenAmount > 0\");\r\n        BankerInfo storage banker = bankerInfo[msg.sender];\r\n        banker.diceTokenAmount = banker.diceTokenAmount.sub(_diceTokenAmount); \r\n        SafeBEP20.safeTransferFrom(diceToken, msg.sender, address(diceToken), _diceTokenAmount);\r\n        diceToken.burn(address(diceToken), _diceTokenAmount);\r\n        uint256 tokenAmount = _diceTokenAmount.mul(netValue).div(1e12);\r\n        bankerAmount = bankerAmount.sub(tokenAmount);\r\n        token.safeTransfer(address(msg.sender), tokenAmount);\r\n\r\n        emit Withdraw(msg.sender, _diceTokenAmount);\r\n    }\r\n\r\n    // View function to see banker diceToken Value on frontend.\r\n    function canWithdrawToken(address bankerAddress) external view returns (uint256){\r\n        return bankerInfo[bankerAddress].diceTokenAmount.mul(netValue).div(1e12);    \r\n    }\r\n\r\n    // View function to see banker diceToken Value on frontend.\r\n    function calProfitRate(address bankerAddress) external view returns (uint256){\r\n        return netValue.mul(100).div(bankerInfo[bankerAddress].avgBuyValue);    \r\n    }\r\n\r\n    // Judge address is contract or not\r\n    function _isContract(address addr) internal view returns (bool) {\r\n        uint256 size;\r\n        assembly {\r\n            size := extcodesize(addr)\r\n        }\r\n        return size > 0;\r\n    }\r\n\r\n    // Update the swap router.\r\n    function updateSwapRouter(address _router) external onlyAdmin {\r\n        require(_router != address(0), \"DICE: Invalid router address.\");\r\n        swapRouter = ILuckyChipRouter02(_router);\r\n        emit SwapRouterUpdated(address(swapRouter));\r\n    }\r\n\r\n\tfunction _safeTransferBNB(address to, uint256 value) internal {\r\n        (bool success, ) = to.call{gas: 23000, value: value}(\"\");\r\n        require(success, 'TransferHelper: BNB_TRANSFER_FAILED');\r\n    }\r\n}\r\n\r\n",
  "sourcePath": "D:\\falseman\\2021-06-25\\luckychip-smart-contracts\\dice\\contracts\\Dice.sol",
  "compiler": {
    "name": "solc",
    "version": "0.6.12+commit.27d51765.Emscripten.clang"
  },
  "schemaVersion": "3.4.2",
  "updatedAt": "2021-08-05T17:56:42.457Z",
  "devdoc": {
    "kind": "dev",
    "methods": {
      "owner()": {
        "details": "Returns the address of the current owner."
      },
      "paused()": {
        "details": "Returns true if the contract is paused, and false otherwise."
      },
      "renounceOwnership()": {
        "details": "Leaves the contract without owner. It will not be possible to call `onlyOwner` functions anymore. Can only be called by the current owner. NOTE: Renouncing ownership will leave the contract without an owner, thereby removing any functionality that is only available to the owner."
      },
      "transferOwnership(address)": {
        "details": "Transfers ownership of the contract to a new account (`newOwner`). Can only be called by the current owner."
      }
    },
    "version": 1
  },
  "userdoc": {
    "kind": "user",
    "methods": {},
    "version": 1
  }
}