{
  "contractName": "LCToken",
  "abi": [
    {
      "anonymous": false,
      "inputs": [
        {
          "indexed": true,
          "internalType": "address",
          "name": "owner",
          "type": "address"
        },
        {
          "indexed": true,
          "internalType": "address",
          "name": "spender",
          "type": "address"
        },
        {
          "indexed": false,
          "internalType": "uint256",
          "name": "value",
          "type": "uint256"
        }
      ],
      "name": "Approval",
      "type": "event"
    },
    {
      "anonymous": false,
      "inputs": [
        {
          "indexed": true,
          "internalType": "address",
          "name": "delegator",
          "type": "address"
        },
        {
          "indexed": true,
          "internalType": "address",
          "name": "fromDelegate",
          "type": "address"
        },
        {
          "indexed": true,
          "internalType": "address",
          "name": "toDelegate",
          "type": "address"
        }
      ],
      "name": "DelegateChanged",
      "type": "event"
    },
    {
      "anonymous": false,
      "inputs": [
        {
          "indexed": true,
          "internalType": "address",
          "name": "delegate",
          "type": "address"
        },
        {
          "indexed": false,
          "internalType": "uint256",
          "name": "previousBalance",
          "type": "uint256"
        },
        {
          "indexed": false,
          "internalType": "uint256",
          "name": "newBalance",
          "type": "uint256"
        }
      ],
      "name": "DelegateVotesChanged",
      "type": "event"
    },
    {
      "anonymous": false,
      "inputs": [
        {
          "indexed": true,
          "internalType": "address",
          "name": "previousOwner",
          "type": "address"
        },
        {
          "indexed": true,
          "internalType": "address",
          "name": "newOwner",
          "type": "address"
        }
      ],
      "name": "OwnershipTransferred",
      "type": "event"
    },
    {
      "anonymous": false,
      "inputs": [
        {
          "indexed": true,
          "internalType": "address",
          "name": "from",
          "type": "address"
        },
        {
          "indexed": true,
          "internalType": "address",
          "name": "to",
          "type": "address"
        },
        {
          "indexed": false,
          "internalType": "uint256",
          "name": "value",
          "type": "uint256"
        }
      ],
      "name": "Transfer",
      "type": "event"
    },
    {
      "inputs": [],
      "name": "DELEGATION_TYPEHASH",
      "outputs": [
        {
          "internalType": "bytes32",
          "name": "",
          "type": "bytes32"
        }
      ],
      "stateMutability": "view",
      "type": "function",
      "constant": true
    },
    {
      "inputs": [],
      "name": "DOMAIN_TYPEHASH",
      "outputs": [
        {
          "internalType": "bytes32",
          "name": "",
          "type": "bytes32"
        }
      ],
      "stateMutability": "view",
      "type": "function",
      "constant": true
    },
    {
      "inputs": [
        {
          "internalType": "address",
          "name": "owner",
          "type": "address"
        },
        {
          "internalType": "address",
          "name": "spender",
          "type": "address"
        }
      ],
      "name": "allowance",
      "outputs": [
        {
          "internalType": "uint256",
          "name": "",
          "type": "uint256"
        }
      ],
      "stateMutability": "view",
      "type": "function",
      "constant": true
    },
    {
      "inputs": [
        {
          "internalType": "address",
          "name": "spender",
          "type": "address"
        },
        {
          "internalType": "uint256",
          "name": "amount",
          "type": "uint256"
        }
      ],
      "name": "approve",
      "outputs": [
        {
          "internalType": "bool",
          "name": "",
          "type": "bool"
        }
      ],
      "stateMutability": "nonpayable",
      "type": "function"
    },
    {
      "inputs": [
        {
          "internalType": "address",
          "name": "account",
          "type": "address"
        }
      ],
      "name": "balanceOf",
      "outputs": [
        {
          "internalType": "uint256",
          "name": "",
          "type": "uint256"
        }
      ],
      "stateMutability": "view",
      "type": "function",
      "constant": true
    },
    {
      "inputs": [
        {
          "internalType": "address",
          "name": "",
          "type": "address"
        },
        {
          "internalType": "uint32",
          "name": "",
          "type": "uint32"
        }
      ],
      "name": "checkpoints",
      "outputs": [
        {
          "internalType": "uint32",
          "name": "fromBlock",
          "type": "uint32"
        },
        {
          "internalType": "uint256",
          "name": "votes",
          "type": "uint256"
        }
      ],
      "stateMutability": "view",
      "type": "function",
      "constant": true
    },
    {
      "inputs": [],
      "name": "decimals",
      "outputs": [
        {
          "internalType": "uint8",
          "name": "",
          "type": "uint8"
        }
      ],
      "stateMutability": "view",
      "type": "function",
      "constant": true
    },
    {
      "inputs": [
        {
          "internalType": "address",
          "name": "spender",
          "type": "address"
        },
        {
          "internalType": "uint256",
          "name": "subtractedValue",
          "type": "uint256"
        }
      ],
      "name": "decreaseAllowance",
      "outputs": [
        {
          "internalType": "bool",
          "name": "",
          "type": "bool"
        }
      ],
      "stateMutability": "nonpayable",
      "type": "function"
    },
    {
      "inputs": [],
      "name": "getOwner",
      "outputs": [
        {
          "internalType": "address",
          "name": "",
          "type": "address"
        }
      ],
      "stateMutability": "view",
      "type": "function",
      "constant": true
    },
    {
      "inputs": [
        {
          "internalType": "address",
          "name": "spender",
          "type": "address"
        },
        {
          "internalType": "uint256",
          "name": "addedValue",
          "type": "uint256"
        }
      ],
      "name": "increaseAllowance",
      "outputs": [
        {
          "internalType": "bool",
          "name": "",
          "type": "bool"
        }
      ],
      "stateMutability": "nonpayable",
      "type": "function"
    },
    {
      "inputs": [],
      "name": "maxSupply",
      "outputs": [
        {
          "internalType": "uint256",
          "name": "",
          "type": "uint256"
        }
      ],
      "stateMutability": "pure",
      "type": "function",
      "constant": true
    },
    {
      "inputs": [],
      "name": "name",
      "outputs": [
        {
          "internalType": "string",
          "name": "",
          "type": "string"
        }
      ],
      "stateMutability": "view",
      "type": "function",
      "constant": true
    },
    {
      "inputs": [
        {
          "internalType": "address",
          "name": "",
          "type": "address"
        }
      ],
      "name": "nonces",
      "outputs": [
        {
          "internalType": "uint256",
          "name": "",
          "type": "uint256"
        }
      ],
      "stateMutability": "view",
      "type": "function",
      "constant": true
    },
    {
      "inputs": [
        {
          "internalType": "address",
          "name": "",
          "type": "address"
        }
      ],
      "name": "numCheckpoints",
      "outputs": [
        {
          "internalType": "uint32",
          "name": "",
          "type": "uint32"
        }
      ],
      "stateMutability": "view",
      "type": "function",
      "constant": true
    },
    {
      "inputs": [],
      "name": "owner",
      "outputs": [
        {
          "internalType": "address",
          "name": "",
          "type": "address"
        }
      ],
      "stateMutability": "view",
      "type": "function",
      "constant": true
    },
    {
      "inputs": [],
      "name": "preMineSupply",
      "outputs": [
        {
          "internalType": "uint256",
          "name": "",
          "type": "uint256"
        }
      ],
      "stateMutability": "pure",
      "type": "function",
      "constant": true
    },
    {
      "inputs": [],
      "name": "renounceOwnership",
      "outputs": [],
      "stateMutability": "nonpayable",
      "type": "function"
    },
    {
      "inputs": [],
      "name": "symbol",
      "outputs": [
        {
          "internalType": "string",
          "name": "",
          "type": "string"
        }
      ],
      "stateMutability": "view",
      "type": "function",
      "constant": true
    },
    {
      "inputs": [],
      "name": "totalSupply",
      "outputs": [
        {
          "internalType": "uint256",
          "name": "",
          "type": "uint256"
        }
      ],
      "stateMutability": "view",
      "type": "function",
      "constant": true
    },
    {
      "inputs": [
        {
          "internalType": "address",
          "name": "recipient",
          "type": "address"
        },
        {
          "internalType": "uint256",
          "name": "amount",
          "type": "uint256"
        }
      ],
      "name": "transfer",
      "outputs": [
        {
          "internalType": "bool",
          "name": "",
          "type": "bool"
        }
      ],
      "stateMutability": "nonpayable",
      "type": "function"
    },
    {
      "inputs": [
        {
          "internalType": "address",
          "name": "sender",
          "type": "address"
        },
        {
          "internalType": "address",
          "name": "recipient",
          "type": "address"
        },
        {
          "internalType": "uint256",
          "name": "amount",
          "type": "uint256"
        }
      ],
      "name": "transferFrom",
      "outputs": [
        {
          "internalType": "bool",
          "name": "",
          "type": "bool"
        }
      ],
      "stateMutability": "nonpayable",
      "type": "function"
    },
    {
      "inputs": [
        {
          "internalType": "address",
          "name": "newOwner",
          "type": "address"
        }
      ],
      "name": "transferOwnership",
      "outputs": [],
      "stateMutability": "nonpayable",
      "type": "function"
    },
    {
      "inputs": [
        {
          "internalType": "address",
          "name": "_to",
          "type": "address"
        },
        {
          "internalType": "uint256",
          "name": "_amount",
          "type": "uint256"
        }
      ],
      "name": "mint",
      "outputs": [
        {
          "internalType": "bool",
          "name": "",
          "type": "bool"
        }
      ],
      "stateMutability": "nonpayable",
      "type": "function"
    },
    {
      "inputs": [
        {
          "internalType": "uint256",
          "name": "amount",
          "type": "uint256"
        }
      ],
      "name": "mint",
      "outputs": [
        {
          "internalType": "bool",
          "name": "",
          "type": "bool"
        }
      ],
      "stateMutability": "nonpayable",
      "type": "function"
    },
    {
      "inputs": [
        {
          "internalType": "address",
          "name": "_addMinter",
          "type": "address"
        }
      ],
      "name": "addMinter",
      "outputs": [
        {
          "internalType": "bool",
          "name": "",
          "type": "bool"
        }
      ],
      "stateMutability": "nonpayable",
      "type": "function"
    },
    {
      "inputs": [
        {
          "internalType": "address",
          "name": "_delMinter",
          "type": "address"
        }
      ],
      "name": "delMinter",
      "outputs": [
        {
          "internalType": "bool",
          "name": "",
          "type": "bool"
        }
      ],
      "stateMutability": "nonpayable",
      "type": "function"
    },
    {
      "inputs": [],
      "name": "getMinterLength",
      "outputs": [
        {
          "internalType": "uint256",
          "name": "",
          "type": "uint256"
        }
      ],
      "stateMutability": "view",
      "type": "function",
      "constant": true
    },
    {
      "inputs": [
        {
          "internalType": "address",
          "name": "account",
          "type": "address"
        }
      ],
      "name": "isMinter",
      "outputs": [
        {
          "internalType": "bool",
          "name": "",
          "type": "bool"
        }
      ],
      "stateMutability": "view",
      "type": "function",
      "constant": true
    },
    {
      "inputs": [
        {
          "internalType": "uint256",
          "name": "_index",
          "type": "uint256"
        }
      ],
      "name": "getMinter",
      "outputs": [
        {
          "internalType": "address",
          "name": "",
          "type": "address"
        }
      ],
      "stateMutability": "view",
      "type": "function",
      "constant": true
    },
    {
      "inputs": [
        {
          "internalType": "address",
          "name": "delegator",
          "type": "address"
        }
      ],
      "name": "delegates",
      "outputs": [
        {
          "internalType": "address",
          "name": "",
          "type": "address"
        }
      ],
      "stateMutability": "view",
      "type": "function",
      "constant": true
    },
    {
      "inputs": [
        {
          "internalType": "address",
          "name": "delegatee",
          "type": "address"
        }
      ],
      "name": "delegate",
      "outputs": [],
      "stateMutability": "nonpayable",
      "type": "function"
    },
    {
      "inputs": [
        {
          "internalType": "address",
          "name": "delegatee",
          "type": "address"
        },
        {
          "internalType": "uint256",
          "name": "nonce",
          "type": "uint256"
        },
        {
          "internalType": "uint256",
          "name": "expiry",
          "type": "uint256"
        },
        {
          "internalType": "uint8",
          "name": "v",
          "type": "uint8"
        },
        {
          "internalType": "bytes32",
          "name": "r",
          "type": "bytes32"
        },
        {
          "internalType": "bytes32",
          "name": "s",
          "type": "bytes32"
        }
      ],
      "name": "delegateBySig",
      "outputs": [],
      "stateMutability": "nonpayable",
      "type": "function"
    },
    {
      "inputs": [
        {
          "internalType": "address",
          "name": "account",
          "type": "address"
        }
      ],
      "name": "getCurrentVotes",
      "outputs": [
        {
          "internalType": "uint256",
          "name": "",
          "type": "uint256"
        }
      ],
      "stateMutability": "view",
      "type": "function",
      "constant": true
    },
    {
      "inputs": [
        {
          "internalType": "address",
          "name": "account",
          "type": "address"
        },
        {
          "internalType": "uint256",
          "name": "blockNumber",
          "type": "uint256"
        }
      ],
      "name": "getPriorVotes",
      "outputs": [
        {
          "internalType": "uint256",
          "name": "",
          "type": "uint256"
        }
      ],
      "stateMutability": "view",
      "type": "function",
      "constant": true
    }
  ],
  "bytecode": "0x60806040523480156200001157600080fd5b506040518060400160405280600981526020016804c75636b79436869760bc1b815250604051806040016040528060028152602001614c4360f01b8152506000620000616200010360201b60201c565b600080546001600160a01b0319166001600160a01b0383169081178255604051929350917f8be0079c531659141344cd1fd0a4f28419497f9722a3daafe3b4186f6b6457e0908290a3508151620000c0906004906020850190620002ac565b508051620000d6906005906020840190620002ac565b506006805460ff19166012179055620000fa3369d3c21bcecceda100000062000107565b50505062000348565b3390565b60006001600160a01b03831662000165576040805162461bcd60e51b815260206004820152601f60248201527f42455032303a206d696e7420746f20746865207a65726f206164647265737300604482015290519081900360640190fd5b6b204fce5e3e250261100000006200018e600354846200024a60201b62001b0a1790919060201c565b11156200019e5750600062000244565b620001ba826003546200024a60201b62001b0a1790919060201c565b6003556001600160a01b038316600090815260016020908152604090912054620001ef91849062001b0a6200024a821b17901c565b6001600160a01b03841660008181526001602090815260408083209490945583518681529351929391927fddf252ad1be2c89b69c2b068fc378daa952ba7f163c4a11628f55a4df523b3ef9281900390910190a35b92915050565b600082820183811015620002a5576040805162461bcd60e51b815260206004820152601b60248201527f536166654d6174683a206164646974696f6e206f766572666c6f770000000000604482015290519081900360640190fd5b9392505050565b828054600181600116156101000203166002900490600052602060002090601f016020900481019282601f10620002ef57805160ff19168380011785556200031f565b828001600101855582156200031f579182015b828111156200031f57825182559160200191906001019062000302565b506200032d92915062000331565b5090565b5b808211156200032d576000815560010162000332565b612aea80620003586000396000f3fe608060405234801561001057600080fd5b50600436106102265760003560e01c8063782d6fe11161012a578063a9059cbb116100bd578063d5abeb011161008c578063e7a324dc11610071578063e7a324dc146107a5578063f1127ed8146107ad578063f2fde38b1461080c57610226565b8063d5abeb0114610762578063dd62ed3e1461076a57610226565b8063a9059cbb1461066f578063aa271e1a146106a8578063b4b5ea57146106db578063c3cda5201461070e57610226565b806395d89b41116100f957806395d89b41146105de578063983b2d56146105e6578063a0712d6814610619578063a457c2d71461063657610226565b8063782d6fe1146105625780637ecebe001461059b578063893d20e8146105ce5780638da5cb5b146105d657610226565b8063313ce567116101bd5780635b7121f81161018c5780636fcfff45116101715780636fcfff45146104db57806370a0823114610527578063715018a61461055a57610226565b80635b7121f8146104895780635c19a95c146104a657610226565b8063313ce5671461039d57806339509351146103bb57806340c10f19146103f4578063587cde1e1461042d57610226565b806318160ddd116101f957806318160ddd1461031757806320606b701461031f57806323338b881461032757806323b872dd1461035a57610226565b80630323aac71461022b57806306fdde0314610245578063095ea7b3146102c25780630c16ea831461030f575b600080fd5b61023361083f565b60408051918252519081900360200190f35b61024d610850565b6040805160208082528351818301528351919283929083019185019080838360005b8381101561028757818101518382015260200161026f565b50505050905090810190601f1680156102b45780820380516001836020036101000a031916815260200191505b509250505060405180910390f35b6102fb600480360360408110156102d857600080fd5b5073ffffffffffffffffffffffffffffffffffffffff8135169060200135610904565b604080519115158252519081900360200190f35b610233610922565b610233610930565b610233610936565b6102fb6004803603602081101561033d57600080fd5b503573ffffffffffffffffffffffffffffffffffffffff1661095a565b6102fb6004803603606081101561037057600080fd5b5073ffffffffffffffffffffffffffffffffffffffff813581169160208101359091169060400135610a7b565b6103a5610b1c565b6040805160ff9092168252519081900360200190f35b6102fb600480360360408110156103d157600080fd5b5073ffffffffffffffffffffffffffffffffffffffff8135169060200135610b25565b6102fb6004803603604081101561040a57600080fd5b5073ffffffffffffffffffffffffffffffffffffffff8135169060200135610b80565b6104606004803603602081101561044357600080fd5b503573ffffffffffffffffffffffffffffffffffffffff16610c33565b6040805173ffffffffffffffffffffffffffffffffffffffff9092168252519081900360200190f35b6104606004803603602081101561049f57600080fd5b5035610c5e565b6104d9600480360360208110156104bc57600080fd5b503573ffffffffffffffffffffffffffffffffffffffff16610d8c565b005b61050e600480360360208110156104f157600080fd5b503573ffffffffffffffffffffffffffffffffffffffff16610d99565b6040805163ffffffff9092168252519081900360200190f35b6102336004803603602081101561053d57600080fd5b503573ffffffffffffffffffffffffffffffffffffffff16610db1565b6104d9610dd9565b6102336004803603604081101561057857600080fd5b5073ffffffffffffffffffffffffffffffffffffffff8135169060200135610ef0565b610233600480360360208110156105b157600080fd5b503573ffffffffffffffffffffffffffffffffffffffff166111ba565b6104606111cc565b6104606111d2565b61024d6111ee565b6102fb600480360360208110156105fc57600080fd5b503573ffffffffffffffffffffffffffffffffffffffff1661126d565b6102fb6004803603602081101561062f57600080fd5b503561138e565b6102fb6004803603604081101561064c57600080fd5b5073ffffffffffffffffffffffffffffffffffffffff8135169060200135611449565b6102fb6004803603604081101561068557600080fd5b5073ffffffffffffffffffffffffffffffffffffffff81351690602001356114be565b6102fb600480360360208110156106be57600080fd5b503573ffffffffffffffffffffffffffffffffffffffff166114d2565b610233600480360360208110156106f157600080fd5b503573ffffffffffffffffffffffffffffffffffffffff166114df565b6104d9600480360360c081101561072457600080fd5b5073ffffffffffffffffffffffffffffffffffffffff8135169060208101359060408101359060ff6060820135169060808101359060a0013561157b565b6102336118d0565b6102336004803603604081101561078057600080fd5b5073ffffffffffffffffffffffffffffffffffffffff813581169160200135166118e0565b610233611918565b6107ec600480360360408110156107c357600080fd5b50803573ffffffffffffffffffffffffffffffffffffffff16906020013563ffffffff1661193c565b6040805163ffffffff909316835260208301919091528051918290030190f35b6104d96004803603602081101561082257600080fd5b503573ffffffffffffffffffffffffffffffffffffffff16611969565b600061084b6007611b7e565b905090565b60048054604080516020601f60027fffffffffffffffffffffffffffffffffffffffffffffffffffffffffffffffff6101006001881615020190951694909404938401819004810282018101909252828152606093909290918301828280156108fa5780601f106108cf576101008083540402835291602001916108fa565b820191906000526020600020905b8154815290600101906020018083116108dd57829003601f168201915b5050505050905090565b6000610918610911611b89565b8484611b8d565b5060015b92915050565b69d3c21bcecceda100000090565b60035490565b7f8cad95687ba82c2ce50e74f7b754645e5117c3a5bec8151c0726d5857980a86681565b6000610964611b89565b73ffffffffffffffffffffffffffffffffffffffff166109826111d2565b73ffffffffffffffffffffffffffffffffffffffff1614610a0457604080517f08c379a000000000000000000000000000000000000000000000000000000000815260206004820181905260248201527f4f776e61626c653a2063616c6c6572206973206e6f7420746865206f776e6572604482015290519081900360640190fd5b73ffffffffffffffffffffffffffffffffffffffff8216610a70576040517f08c379a0000000000000000000000000000000000000000000000000000000008152600401808060200182810382526022815260200180612a4c6022913960400191505060405180910390fd5b61091c600783611cd4565b6000610a88848484611cf6565b610b1284610a94611b89565b610b0d856040518060600160405280602881526020016129846028913973ffffffffffffffffffffffffffffffffffffffff8a16600090815260026020526040812090610adf611b89565b73ffffffffffffffffffffffffffffffffffffffff1681526020810191909152604001600020549190611ebd565b611b8d565b5060019392505050565b60065460ff1690565b6000610918610b32611b89565b84610b0d8560026000610b43611b89565b73ffffffffffffffffffffffffffffffffffffffff908116825260208083019390935260409182016000908120918c168152925290205490611b0a565b6000610b8b336114d2565b610bf657604080517f08c379a000000000000000000000000000000000000000000000000000000000815260206004820152601860248201527f63616c6c6572206973206e6f7420746865206d696e7465720000000000000000604482015290519081900360640190fd5b610c008383611f6e565b5073ffffffffffffffffffffffffffffffffffffffff8084166000908152600960205260408120546109189216846120c9565b73ffffffffffffffffffffffffffffffffffffffff9081166000908152600960205260409020541690565b6000610c68611b89565b73ffffffffffffffffffffffffffffffffffffffff16610c866111d2565b73ffffffffffffffffffffffffffffffffffffffff1614610d0857604080517f08c379a000000000000000000000000000000000000000000000000000000000815260206004820181905260248201527f4f776e61626c653a2063616c6c6572206973206e6f7420746865206f776e6572604482015290519081900360640190fd5b6001610d1261083f565b03821115610d8157604080517f08c379a000000000000000000000000000000000000000000000000000000000815260206004820152601760248201527f4c433a20696e646578206f7574206f6620626f756e6473000000000000000000604482015290519081900360640190fd5b61091c6007836122af565b610d9633826122bb565b50565b600b6020526000908152604090205463ffffffff1681565b73ffffffffffffffffffffffffffffffffffffffff1660009081526001602052604090205490565b610de1611b89565b73ffffffffffffffffffffffffffffffffffffffff16610dff6111d2565b73ffffffffffffffffffffffffffffffffffffffff1614610e8157604080517f08c379a000000000000000000000000000000000000000000000000000000000815260206004820181905260248201527f4f776e61626c653a2063616c6c6572206973206e6f7420746865206f776e6572604482015290519081900360640190fd5b6000805460405173ffffffffffffffffffffffffffffffffffffffff909116907f8be0079c531659141344cd1fd0a4f28419497f9722a3daafe3b4186f6b6457e0908390a3600080547fffffffffffffffffffffffff0000000000000000000000000000000000000000169055565b6000438210610f4a576040517f08c379a0000000000000000000000000000000000000000000000000000000008152600401808060200182810382526025815260200180612a6e6025913960400191505060405180910390fd5b73ffffffffffffffffffffffffffffffffffffffff83166000908152600b602052604090205463ffffffff1680610f8557600091505061091c565b73ffffffffffffffffffffffffffffffffffffffff84166000908152600a6020908152604080832063ffffffff7fffffffffffffffffffffffffffffffffffffffffffffffffffffffffffffffff86018116855292529091205416831061104a5773ffffffffffffffffffffffffffffffffffffffff84166000908152600a602090815260408083207fffffffffffffffffffffffffffffffffffffffffffffffffffffffffffffffff9490940163ffffffff1683529290522060010154905061091c565b73ffffffffffffffffffffffffffffffffffffffff84166000908152600a6020908152604080832083805290915290205463ffffffff1683101561109257600091505061091c565b60007fffffffffffffffffffffffffffffffffffffffffffffffffffffffffffffffff82015b8163ffffffff168163ffffffff16111561117657600282820363ffffffff160481036110e2612871565b5073ffffffffffffffffffffffffffffffffffffffff87166000908152600a6020908152604080832063ffffffff8086168552908352928190208151808301909252805490931680825260019093015491810191909152908714156111515760200151945061091c9350505050565b805163ffffffff168711156111685781935061116f565b6001820392505b50506110b8565b5073ffffffffffffffffffffffffffffffffffffffff85166000908152600a6020908152604080832063ffffffff9094168352929052206001015491505092915050565b600c6020526000908152604090205481565b600061084b5b60005473ffffffffffffffffffffffffffffffffffffffff1690565b60058054604080516020601f60027fffffffffffffffffffffffffffffffffffffffffffffffffffffffffffffffff6101006001881615020190951694909404938401819004810282018101909252828152606093909290918301828280156108fa5780601f106108cf576101008083540402835291602001916108fa565b6000611277611b89565b73ffffffffffffffffffffffffffffffffffffffff166112956111d2565b73ffffffffffffffffffffffffffffffffffffffff161461131757604080517f08c379a000000000000000000000000000000000000000000000000000000000815260206004820181905260248201527f4f776e61626c653a2063616c6c6572206973206e6f7420746865206f776e6572604482015290519081900360640190fd5b73ffffffffffffffffffffffffffffffffffffffff8216611383576040517f08c379a00000000000000000000000000000000000000000000000000000000081526004018080602001828103825260228152602001806129186022913960400191505060405180910390fd5b61091c600783612382565b6000611398611b89565b73ffffffffffffffffffffffffffffffffffffffff166113b66111d2565b73ffffffffffffffffffffffffffffffffffffffff161461143857604080517f08c379a000000000000000000000000000000000000000000000000000000000815260206004820181905260248201527f4f776e61626c653a2063616c6c6572206973206e6f7420746865206f776e6572604482015290519081900360640190fd5b610918611443611b89565b83611f6e565b6000610918611456611b89565b84610b0d85604051806060016040528060258152602001612a276025913960026000611480611b89565b73ffffffffffffffffffffffffffffffffffffffff908116825260208083019390935260409182016000908120918d16815292529020549190611ebd565b60006109186114cb611b89565b8484611cf6565b600061091c6007836123a4565b73ffffffffffffffffffffffffffffffffffffffff81166000908152600b602052604081205463ffffffff1680611517576000611574565b73ffffffffffffffffffffffffffffffffffffffff83166000908152600a6020908152604080832063ffffffff7fffffffffffffffffffffffffffffffffffffffffffffffffffffffffffffffff86011684529091529020600101545b9392505050565b60007f8cad95687ba82c2ce50e74f7b754645e5117c3a5bec8151c0726d5857980a8666115a6610850565b805190602001206115b56123c6565b60408051602080820195909552808201939093526060830191909152306080808401919091528151808403909101815260a0830182528051908401207fe48329057bfd03d55e49b547132e39cffd9c1820ad7b9d4c5307691425d15adf60c084015273ffffffffffffffffffffffffffffffffffffffff8b1660e084015261010083018a90526101208084018a905282518085039091018152610140840183528051908501207f19010000000000000000000000000000000000000000000000000000000000006101608501526101628401829052610182808501829052835180860390910181526101a285018085528151918701919091206000918290526101c2860180865281905260ff8b166101e287015261020286018a905261022286018990529351929650909492939092600192610242808401937fffffffffffffffffffffffffffffffffffffffffffffffffffffffffffffffe08301929081900390910190855afa15801561172e573d6000803e3d6000fd5b50506040517fffffffffffffffffffffffffffffffffffffffffffffffffffffffffffffffe0015191505073ffffffffffffffffffffffffffffffffffffffff81166117c5576040517f08c379a00000000000000000000000000000000000000000000000000000000081526004018080602001828103825260248152602001806128ab6024913960400191505060405180910390fd5b73ffffffffffffffffffffffffffffffffffffffff81166000908152600c60205260409020805460018101909155891461186057604080517f08c379a000000000000000000000000000000000000000000000000000000000815260206004820181905260248201527f4c433a3a64656c656761746542795369673a20696e76616c6964206e6f6e6365604482015290519081900360640190fd5b874211156118b9576040517f08c379a000000000000000000000000000000000000000000000000000000000815260040180806020018281038252602481526020018061293a6024913960400191505060405180910390fd5b6118c3818b6122bb565b505050505b505050505050565b6b204fce5e3e2502611000000090565b73ffffffffffffffffffffffffffffffffffffffff918216600090815260026020908152604080832093909416825291909152205490565b7fe48329057bfd03d55e49b547132e39cffd9c1820ad7b9d4c5307691425d15adf81565b600a6020908152600092835260408084209091529082529020805460019091015463ffffffff9091169082565b611971611b89565b73ffffffffffffffffffffffffffffffffffffffff1661198f6111d2565b73ffffffffffffffffffffffffffffffffffffffff1614611a1157604080517f08c379a000000000000000000000000000000000000000000000000000000000815260206004820181905260248201527f4f776e61626c653a2063616c6c6572206973206e6f7420746865206f776e6572604482015290519081900360640190fd5b73ffffffffffffffffffffffffffffffffffffffff8116611a7d576040517f08c379a000000000000000000000000000000000000000000000000000000000815260040180806020018281038252602681526020018061295e6026913960400191505060405180910390fd5b6000805460405173ffffffffffffffffffffffffffffffffffffffff808516939216917f8be0079c531659141344cd1fd0a4f28419497f9722a3daafe3b4186f6b6457e091a3600080547fffffffffffffffffffffffff00000000000000000000000000000000000000001673ffffffffffffffffffffffffffffffffffffffff92909216919091179055565b60008282018381101561157457604080517f08c379a000000000000000000000000000000000000000000000000000000000815260206004820152601b60248201527f536166654d6174683a206164646974696f6e206f766572666c6f770000000000604482015290519081900360640190fd5b600061091c826123ca565b3390565b73ffffffffffffffffffffffffffffffffffffffff8316611bf9576040517f08c379a00000000000000000000000000000000000000000000000000000000081526004018080602001828103825260248152602001806128f46024913960400191505060405180910390fd5b73ffffffffffffffffffffffffffffffffffffffff8216611c65576040517f08c379a0000000000000000000000000000000000000000000000000000000008152600401808060200182810382526022815260200180612a936022913960400191505060405180910390fd5b73ffffffffffffffffffffffffffffffffffffffff808416600081815260026020908152604080832094871680845294825291829020859055815185815291517f8c5be1e5ebec7d5bd14f71427d1e84f3dd0314c0f7b2291e5b200ac8c7c3b9259281900390910190a3505050565b60006115748373ffffffffffffffffffffffffffffffffffffffff84166123ce565b73ffffffffffffffffffffffffffffffffffffffff8316611d62576040517f08c379a00000000000000000000000000000000000000000000000000000000081526004018080602001828103825260258152602001806128cf6025913960400191505060405180910390fd5b73ffffffffffffffffffffffffffffffffffffffff8216611dce576040517f08c379a00000000000000000000000000000000000000000000000000000000081526004018080602001828103825260238152602001806129d26023913960400191505060405180910390fd5b611e18816040518060600160405280602681526020016129ac6026913973ffffffffffffffffffffffffffffffffffffffff86166000908152600160205260409020549190611ebd565b73ffffffffffffffffffffffffffffffffffffffff8085166000908152600160205260408082209390935590841681522054611e549082611b0a565b73ffffffffffffffffffffffffffffffffffffffff80841660008181526001602090815260409182902094909455805185815290519193928716927fddf252ad1be2c89b69c2b068fc378daa952ba7f163c4a11628f55a4df523b3ef92918290030190a3505050565b60008184841115611f66576040517f08c379a00000000000000000000000000000000000000000000000000000000081526004018080602001828103825283818151815260200191508051906020019080838360005b83811015611f2b578181015183820152602001611f13565b50505050905090810190601f168015611f585780820380516001836020036101000a031916815260200191505b509250505060405180910390fd5b505050900390565b600073ffffffffffffffffffffffffffffffffffffffff8316611ff257604080517f08c379a000000000000000000000000000000000000000000000000000000000815260206004820152601f60248201527f42455032303a206d696e7420746f20746865207a65726f206164647265737300604482015290519081900360640190fd5b6b204fce5e3e2502611000000061201460035484611b0a90919063ffffffff16565b11156120225750600061091c565b60035461202f9083611b0a565b60035573ffffffffffffffffffffffffffffffffffffffff83166000908152600160205260409020546120629083611b0a565b73ffffffffffffffffffffffffffffffffffffffff841660008181526001602090815260408083209490945583518681529351929391927fddf252ad1be2c89b69c2b068fc378daa952ba7f163c4a11628f55a4df523b3ef9281900390910190a392915050565b8173ffffffffffffffffffffffffffffffffffffffff168373ffffffffffffffffffffffffffffffffffffffff16141580156121055750600081115b156122aa5773ffffffffffffffffffffffffffffffffffffffff8316156121dc5773ffffffffffffffffffffffffffffffffffffffff83166000908152600b602052604081205463ffffffff16908161215f5760006121bc565b73ffffffffffffffffffffffffffffffffffffffff85166000908152600a6020908152604080832063ffffffff7fffffffffffffffffffffffffffffffffffffffffffffffffffffffffffffffff87011684529091529020600101545b905060006121ca82856124b2565b90506121d886848484612529565b5050505b73ffffffffffffffffffffffffffffffffffffffff8216156122aa5773ffffffffffffffffffffffffffffffffffffffff82166000908152600b602052604081205463ffffffff16908161223157600061228e565b73ffffffffffffffffffffffffffffffffffffffff84166000908152600a6020908152604080832063ffffffff7fffffffffffffffffffffffffffffffffffffffffffffffffffffffffffffffff87011684529091529020600101545b9050600061229c8285611b0a565b90506118c885848484612529565b505050565b60006115748383612719565b73ffffffffffffffffffffffffffffffffffffffff808316600090815260096020526040812054909116906122ef84610db1565b73ffffffffffffffffffffffffffffffffffffffff85811660008181526009602052604080822080547fffffffffffffffffffffffff000000000000000000000000000000000000000016898616908117909155905194955093928616927f3134e8a2e6d97e929a7e54011ea5485d7d196dd5f0ba4d4ef95803e8e3fc257f9190a461237c8284836120c9565b50505050565b60006115748373ffffffffffffffffffffffffffffffffffffffff8416612797565b60006115748373ffffffffffffffffffffffffffffffffffffffff84166127e1565b4690565b5490565b600081815260018301602052604081205480156124a85783547fffffffffffffffffffffffffffffffffffffffffffffffffffffffffffffffff808301919081019060009087908390811061241f57fe5b906000526020600020015490508087600001848154811061243c57fe5b60009182526020808320909101929092558281526001898101909252604090209084019055865487908061246c57fe5b6001900381819060005260206000200160009055905586600101600087815260200190815260200160002060009055600194505050505061091c565b600091505061091c565b60008282111561252357604080517f08c379a000000000000000000000000000000000000000000000000000000000815260206004820152601e60248201527f536166654d6174683a207375627472616374696f6e206f766572666c6f770000604482015290519081900360640190fd5b50900390565b600061254d436040518060600160405280603281526020016129f5603291396127f9565b905060008463ffffffff161180156125c1575073ffffffffffffffffffffffffffffffffffffffff85166000908152600a6020908152604080832063ffffffff7fffffffffffffffffffffffffffffffffffffffffffffffffffffffffffffffff8901811685529252909120548282169116145b156126295773ffffffffffffffffffffffffffffffffffffffff85166000908152600a6020908152604080832063ffffffff7fffffffffffffffffffffffffffffffffffffffffffffffffffffffffffffffff890116845290915290206001018290556126c2565b60408051808201825263ffffffff8084168252602080830186815273ffffffffffffffffffffffffffffffffffffffff8a166000818152600a84528681208b861682528452868120955186549086167fffffffffffffffffffffffffffffffffffffffffffffffffffffffff000000009182161787559251600196870155908152600b9092529390208054928801909116919092161790555b6040805184815260208101849052815173ffffffffffffffffffffffffffffffffffffffff8816927fdec2bacdd2f05b59de34da9b523dff8be42e5e38e818c82fdb0bae774387a724928290030190a25050505050565b81546000908210612775576040517f08c379a00000000000000000000000000000000000000000000000000000000081526004018080602001828103825260228152602001806128896022913960400191505060405180910390fd5b82600001828154811061278457fe5b9060005260206000200154905092915050565b60006127a383836127e1565b6127d95750815460018181018455600084815260208082209093018490558454848252828601909352604090209190915561091c565b50600061091c565b60009081526001919091016020526040902054151590565b6000816401000000008410612869576040517f08c379a0000000000000000000000000000000000000000000000000000000008152602060048201818152835160248401528351909283926044909101919085019080838360008315611f2b578181015183820152602001611f13565b509192915050565b60408051808201909152600080825260208201529056fe456e756d657261626c655365743a20696e646578206f7574206f6620626f756e64734c433a3a64656c656761746542795369673a20696e76616c6964207369676e617475726542455032303a207472616e736665722066726f6d20746865207a65726f206164647265737342455032303a20617070726f76652066726f6d20746865207a65726f20616464726573734c433a205f6164644d696e74657220697320746865207a65726f20616464726573734c433a3a64656c656761746542795369673a207369676e617475726520657870697265644f776e61626c653a206e6577206f776e657220697320746865207a65726f206164647265737342455032303a207472616e7366657220616d6f756e74206578636565647320616c6c6f77616e636542455032303a207472616e7366657220616d6f756e7420657863656564732062616c616e636542455032303a207472616e7366657220746f20746865207a65726f20616464726573734c433a3a5f7772697465436865636b706f696e743a20626c6f636b206e756d6265722065786365656473203332206269747342455032303a2064656372656173656420616c6c6f77616e63652062656c6f77207a65726f4c433a205f64656c4d696e74657220697320746865207a65726f20616464726573734c433a3a6765745072696f72566f7465733a206e6f74207965742064657465726d696e656442455032303a20617070726f766520746f20746865207a65726f2061646472657373a2646970667358221220bb6a03f6cb2aabd94880387b34be50bcef978126b9ee07d87824159fcdbc932564736f6c634300060c0033",
  "immutableReferences": {},
  "source": "pragma solidity 0.6.12;\n\nimport \"./LCBEP20.sol\";\n\nimport \"@uniswap/v2-periphery/contracts/interfaces/IUniswapV2Router02.sol\";\nimport \"@uniswap/v2-core/contracts/interfaces/IUniswapV2Pair.sol\";\nimport \"@uniswap/v2-core/contracts/interfaces/IUniswapV2Factory.sol\";\n\nlibrary EnumerableSet {\n    // To implement this library for multiple types with as little code\n    // repetition as possible, we write it in terms of a generic Set type with\n    // bytes32 values.\n    // The Set implementation uses private functions, and user-facing\n    // implementations (such as AddressSet) are just wrappers around the\n    // underlying Set.\n    // This means that we can only create new EnumerableSets for types that fit\n    // in bytes32.\n\n    struct Set {\n        // Storage of set values\n        bytes32[] _values;\n        // Position of the value in the `values` array, plus 1 because index 0\n        // means a value is not in the set.\n        mapping(bytes32 => uint256) _indexes;\n    }\n\n    /**\n     * @dev Add a value to a set. O(1).\n     *\n     * Returns true if the value was added to the set, that is if it was not\n     * already present.\n     */\n    function _add(Set storage set, bytes32 value) private returns (bool) {\n        if (!_contains(set, value)) {\n            set._values.push(value);\n            // The value is stored at length-1, but we add 1 to all indexes\n            // and use 0 as a sentinel value\n            set._indexes[value] = set._values.length;\n            return true;\n        } else {\n            return false;\n        }\n    }\n\n    /**\n     * @dev Removes a value from a set. O(1).\n     *\n     * Returns true if the value was removed from the set, that is if it was\n     * present.\n     */\n    function _remove(Set storage set, bytes32 value) private returns (bool) {\n        // We read and store the value's index to prevent multiple reads from the same storage slot\n        uint256 valueIndex = set._indexes[value];\n\n        if (valueIndex != 0) {\n            // Equivalent to contains(set, value)\n            // To delete an element from the _values array in O(1), we swap the element to delete with the last one in\n            // the array, and then remove the last element (sometimes called as 'swap and pop').\n            // This modifies the order of the array, as noted in {at}.\n\n            uint256 toDeleteIndex = valueIndex - 1;\n            uint256 lastIndex = set._values.length - 1;\n\n            // When the value to delete is the last one, the swap operation is unnecessary. However, since this occurs\n            // so rarely, we still do the swap anyway to avoid the gas cost of adding an 'if' statement.\n\n            bytes32 lastvalue = set._values[lastIndex];\n\n            // Move the last value to the index where the value to delete is\n            set._values[toDeleteIndex] = lastvalue;\n            // Update the index for the moved value\n            set._indexes[lastvalue] = toDeleteIndex + 1; // All indexes are 1-based\n\n            // Delete the slot where the moved value was stored\n            set._values.pop();\n\n            // Delete the index for the deleted slot\n            delete set._indexes[value];\n\n            return true;\n        } else {\n            return false;\n        }\n    }\n\n    /**\n     * @dev Returns true if the value is in the set. O(1).\n     */\n    function _contains(Set storage set, bytes32 value) private view returns (bool) {\n        return set._indexes[value] != 0;\n    }\n\n    /**\n     * @dev Returns the number of values on the set. O(1).\n     */\n    function _length(Set storage set) private view returns (uint256) {\n        return set._values.length;\n    }\n\n    /**\n     * @dev Returns the value stored at position `index` in the set. O(1).\n     *\n     * Note that there are no guarantees on the ordering of values inside the\n     * array, and it may change when more values are added or removed.\n     *\n     * Requirements:\n     *\n     * - `index` must be strictly less than {length}.\n     */\n    function _at(Set storage set, uint256 index) private view returns (bytes32) {\n        require(set._values.length > index, 'EnumerableSet: index out of bounds');\n        return set._values[index];\n    }\n\n    // AddressSet\n\n    struct AddressSet {\n        Set _inner;\n    }\n\n    /**\n     * @dev Add a value to a set. O(1).\n     *\n     * Returns true if the value was added to the set, that is if it was not\n     * already present.\n     */\n    function add(AddressSet storage set, address value) internal returns (bool) {\n        return _add(set._inner, bytes32(uint256(value)));\n    }\n\n    /**\n     * @dev Removes a value from a set. O(1).\n     *\n     * Returns true if the value was removed from the set, that is if it was\n     * present.\n     */\n    function remove(AddressSet storage set, address value) internal returns (bool) {\n        return _remove(set._inner, bytes32(uint256(value)));\n    }\n\n    /**\n     * @dev Returns true if the value is in the set. O(1).\n     */\n    function contains(AddressSet storage set, address value) internal view returns (bool) {\n        return _contains(set._inner, bytes32(uint256(value)));\n    }\n\n    /**\n     * @dev Returns the number of values in the set. O(1).\n     */\n    function length(AddressSet storage set) internal view returns (uint256) {\n        return _length(set._inner);\n    }\n\n    /**\n     * @dev Returns the value stored at position `index` in the set. O(1).\n     *\n     * Note that there are no guarantees on the ordering of values inside the\n     * array, and it may change when more values are added or removed.\n     *\n     * Requirements:\n     *\n     * - `index` must be strictly less than {length}.\n     */\n    function at(AddressSet storage set, uint256 index) internal view returns (address) {\n        return address(uint256(_at(set._inner, index)));\n    }\n\n    // UintSet\n\n    struct UintSet {\n        Set _inner;\n    }\n\n    /**\n     * @dev Add a value to a set. O(1).\n     *\n     * Returns true if the value was added to the set, that is if it was not\n     * already present.\n     */\n    function add(UintSet storage set, uint256 value) internal returns (bool) {\n        return _add(set._inner, bytes32(value));\n    }\n\n    /**\n     * @dev Removes a value from a set. O(1).\n     *\n     * Returns true if the value was removed from the set, that is if it was\n     * present.\n     */\n    function remove(UintSet storage set, uint256 value) internal returns (bool) {\n        return _remove(set._inner, bytes32(value));\n    }\n\n    /**\n     * @dev Returns true if the value is in the set. O(1).\n     */\n    function contains(UintSet storage set, uint256 value) internal view returns (bool) {\n        return _contains(set._inner, bytes32(value));\n    }\n\n    /**\n     * @dev Returns the number of values on the set. O(1).\n     */\n    function length(UintSet storage set) internal view returns (uint256) {\n        return _length(set._inner);\n    }\n\n    /**\n     * @dev Returns the value stored at position `index` in the set. O(1).\n     *\n     * Note that there are no guarantees on the ordering of values inside the\n     * array, and it may change when more values are added or removed.\n     *\n     * Requirements:\n     *\n     * - `index` must be strictly less than {length}.\n     */\n    function at(UintSet storage set, uint256 index) internal view returns (uint256) {\n        return uint256(_at(set._inner, index));\n    }\n}\n\n// LuckyChip token with Governance.\ncontract LCToken is LCBEP20('LuckyChip', 'LC') {\n    using EnumerableSet for EnumerableSet.AddressSet;\n    EnumerableSet.AddressSet private _minters;\n\n    /// @notice Creates `_amount` token to `_to`.\n    function mint(address _to, uint256 _amount) public onlyMinter returns(bool) {\n        _mint(_to, _amount);\n        _moveDelegates(address(0), _delegates[_to], _amount);\n        return true;\n    }\n\n    function addMinter(address _addMinter) public onlyOwner returns (bool) {\n        require(_addMinter != address(0), \"LC: _addMinter is the zero address\");\n        return EnumerableSet.add(_minters, _addMinter);\n    }\n\n    function delMinter(address _delMinter) public onlyOwner returns (bool) {\n        require(_delMinter != address(0), \"LC: _delMinter is the zero address\");\n        return EnumerableSet.remove(_minters, _delMinter);\n    }\n\n    function getMinterLength() public view returns (uint256) {\n        return EnumerableSet.length(_minters);\n    }\n\n    function isMinter(address account) public view returns (bool) {\n        return EnumerableSet.contains(_minters, account);\n    }\n\n    function getMinter(uint256 _index) public view onlyOwner returns (address){\n        require(_index <= getMinterLength() - 1, \"LC: index out of bounds\");\n        return EnumerableSet.at(_minters, _index);\n    }\n\n    // modifier for mint function\n    modifier onlyMinter() {\n        require(isMinter(msg.sender), \"caller is not the minter\");\n        _;\n    }\n\n    // Copied and modified from YAM code:\n    // https://github.com/yam-finance/yam-protocol/blob/master/contracts/token/YAMGovernanceStorage.sol\n    // https://github.com/yam-finance/yam-protocol/blob/master/contracts/token/YAMGovernance.sol\n    // Which is copied and modified from COMPOUND:\n    // https://github.com/compound-finance/compound-protocol/blob/master/contracts/Governance/Comp.sol\n\n    /// @notice A record of each accounts delegate\n    mapping (address => address) internal _delegates;\n\n    /// @notice A checkpoint for marking number of votes from a given block\n    struct Checkpoint {\n        uint32 fromBlock;\n        uint256 votes;\n    }\n\n    /// @notice A record of votes checkpoints for each account, by index\n    mapping (address => mapping (uint32 => Checkpoint)) public checkpoints;\n\n    /// @notice The number of checkpoints for each account\n    mapping (address => uint32) public numCheckpoints;\n\n    /// @notice The EIP-712 typehash for the contract's domain\n    bytes32 public constant DOMAIN_TYPEHASH = keccak256(\"EIP712Domain(string name,uint256 chainId,address verifyingContract)\");\n\n    /// @notice The EIP-712 typehash for the delegation struct used by the contract\n    bytes32 public constant DELEGATION_TYPEHASH = keccak256(\"Delegation(address delegatee,uint256 nonce,uint256 expiry)\");\n\n    /// @notice A record of states for signing / validating signatures\n    mapping (address => uint) public nonces;\n\n      /// @notice An event thats emitted when an account changes its delegate\n    event DelegateChanged(address indexed delegator, address indexed fromDelegate, address indexed toDelegate);\n\n    /// @notice An event thats emitted when a delegate account's vote balance changes\n    event DelegateVotesChanged(address indexed delegate, uint previousBalance, uint newBalance);\n\n    /**\n     * @notice Delegate votes from `msg.sender` to `delegatee`\n     * @param delegator The address to get delegatee for\n     */\n    function delegates(address delegator)\n        external\n        view\n        returns (address)\n    {\n        return _delegates[delegator];\n    }\n\n   /**\n    * @notice Delegate votes from `msg.sender` to `delegatee`\n    * @param delegatee The address to delegate votes to\n    */\n    function delegate(address delegatee) external {\n        return _delegate(msg.sender, delegatee);\n    }\n\n    /**\n     * @notice Delegates votes from signatory to `delegatee`\n     * @param delegatee The address to delegate votes to\n     * @param nonce The contract state required to match the signature\n     * @param expiry The time at which to expire the signature\n     * @param v The recovery byte of the signature\n     * @param r Half of the ECDSA signature pair\n     * @param s Half of the ECDSA signature pair\n     */\n    function delegateBySig(\n        address delegatee,\n        uint nonce,\n        uint expiry,\n        uint8 v,\n        bytes32 r,\n        bytes32 s\n    )\n        external\n    {\n        bytes32 domainSeparator = keccak256(\n            abi.encode(\n                DOMAIN_TYPEHASH,\n                keccak256(bytes(name())),\n                getChainId(),\n                address(this)\n            )\n        );\n\n        bytes32 structHash = keccak256(\n            abi.encode(\n                DELEGATION_TYPEHASH,\n                delegatee,\n                nonce,\n                expiry\n            )\n        );\n\n        bytes32 digest = keccak256(\n            abi.encodePacked(\n                \"\\x19\\x01\",\n                domainSeparator,\n                structHash\n            )\n        );\n\n        address signatory = ecrecover(digest, v, r, s);\n        require(signatory != address(0), \"LC::delegateBySig: invalid signature\");\n        require(nonce == nonces[signatory]++, \"LC::delegateBySig: invalid nonce\");\n        require(now <= expiry, \"LC::delegateBySig: signature expired\");\n        return _delegate(signatory, delegatee);\n    }\n\n    /**\n     * @notice Gets the current votes balance for `account`\n     * @param account The address to get votes balance\n     * @return The number of current votes for `account`\n     */\n    function getCurrentVotes(address account)\n        external\n        view\n        returns (uint256)\n    {\n        uint32 nCheckpoints = numCheckpoints[account];\n        return nCheckpoints > 0 ? checkpoints[account][nCheckpoints - 1].votes : 0;\n    }\n\n    /**\n     * @notice Determine the prior number of votes for an account as of a block number\n     * @dev Block number must be a finalized block or else this function will revert to prevent misinformation.\n     * @param account The address of the account to check\n     * @param blockNumber The block number to get the vote balance at\n     * @return The number of votes the account had as of the given block\n     */\n    function getPriorVotes(address account, uint blockNumber)\n        external\n        view\n        returns (uint256)\n    {\n        require(blockNumber < block.number, \"LC::getPriorVotes: not yet determined\");\n\n        uint32 nCheckpoints = numCheckpoints[account];\n        if (nCheckpoints == 0) {\n            return 0;\n        }\n\n        // First check most recent balance\n        if (checkpoints[account][nCheckpoints - 1].fromBlock <= blockNumber) {\n            return checkpoints[account][nCheckpoints - 1].votes;\n        }\n\n        // Next check implicit zero balance\n        if (checkpoints[account][0].fromBlock > blockNumber) {\n            return 0;\n        }\n\n        uint32 lower = 0;\n        uint32 upper = nCheckpoints - 1;\n        while (upper > lower) {\n            uint32 center = upper - (upper - lower) / 2; // ceil, avoiding overflow\n            Checkpoint memory cp = checkpoints[account][center];\n            if (cp.fromBlock == blockNumber) {\n                return cp.votes;\n            } else if (cp.fromBlock < blockNumber) {\n                lower = center;\n            } else {\n                upper = center - 1;\n            }\n        }\n        return checkpoints[account][lower].votes;\n    }\n\n    function _delegate(address delegator, address delegatee)\n        internal\n    {\n        address currentDelegate = _delegates[delegator];\n        uint256 delegatorBalance = balanceOf(delegator); // balance of underlying LCs (not scaled);\n        _delegates[delegator] = delegatee;\n\n        emit DelegateChanged(delegator, currentDelegate, delegatee);\n\n        _moveDelegates(currentDelegate, delegatee, delegatorBalance);\n    }\n\n    function _moveDelegates(address srcRep, address dstRep, uint256 amount) internal {\n        if (srcRep != dstRep && amount > 0) {\n            if (srcRep != address(0)) {\n                // decrease old representative\n                uint32 srcRepNum = numCheckpoints[srcRep];\n                uint256 srcRepOld = srcRepNum > 0 ? checkpoints[srcRep][srcRepNum - 1].votes : 0;\n                uint256 srcRepNew = srcRepOld.sub(amount);\n                _writeCheckpoint(srcRep, srcRepNum, srcRepOld, srcRepNew);\n            }\n\n            if (dstRep != address(0)) {\n                // increase new representative\n                uint32 dstRepNum = numCheckpoints[dstRep];\n                uint256 dstRepOld = dstRepNum > 0 ? checkpoints[dstRep][dstRepNum - 1].votes : 0;\n                uint256 dstRepNew = dstRepOld.add(amount);\n                _writeCheckpoint(dstRep, dstRepNum, dstRepOld, dstRepNew);\n            }\n        }\n    }\n\n    function _writeCheckpoint(\n        address delegatee,\n        uint32 nCheckpoints,\n        uint256 oldVotes,\n        uint256 newVotes\n    )\n        internal\n    {\n        uint32 blockNumber = safe32(block.number, \"LC::_writeCheckpoint: block number exceeds 32 bits\");\n\n        if (nCheckpoints > 0 && checkpoints[delegatee][nCheckpoints - 1].fromBlock == blockNumber) {\n            checkpoints[delegatee][nCheckpoints - 1].votes = newVotes;\n        } else {\n            checkpoints[delegatee][nCheckpoints] = Checkpoint(blockNumber, newVotes);\n            numCheckpoints[delegatee] = nCheckpoints + 1;\n        }\n\n        emit DelegateVotesChanged(delegatee, oldVotes, newVotes);\n    }\n\n    function safe32(uint n, string memory errorMessage) internal pure returns (uint32) {\n        require(n < 2**32, errorMessage);\n        return uint32(n);\n    }\n\n    function getChainId() internal pure returns (uint) {\n        uint256 chainId;\n        assembly { chainId := chainid() }\n        return chainId;\n    }\n}\n",
  "sourcePath": "/home/ubuntu/defi/luckychip/staking/contracts/LCToken.sol",
  "compiler": {
    "name": "solc",
    "version": "0.6.12+commit.27d51765.Emscripten.clang"
  },
  "schemaVersion": "3.4.1",
  "updatedAt": "2021-07-29T08:36:04.206Z",
  "networkType": "ethereum",
  "devdoc": {
    "kind": "dev",
    "methods": {
      "allowance(address,address)": {
        "details": "See {BEP20-allowance}."
      },
      "approve(address,uint256)": {
        "details": "See {BEP20-approve}. Requirements: - `spender` cannot be the zero address."
      },
      "balanceOf(address)": {
        "details": "See {BEP20-balanceOf}."
      },
      "decimals()": {
        "details": "Returns the token decimals."
      },
      "decreaseAllowance(address,uint256)": {
        "details": "Atomically decreases the allowance granted to `spender` by the caller. This is an alternative to {approve} that can be used as a mitigation for problems described in {BEP20-approve}. Emits an {Approval} event indicating the updated allowance. Requirements: - `spender` cannot be the zero address. - `spender` must have allowance for the caller of at least `subtractedValue`."
      },
      "delegate(address)": {
        "params": {
          "delegatee": "The address to delegate votes to"
        }
      },
      "delegateBySig(address,uint256,uint256,uint8,bytes32,bytes32)": {
        "params": {
          "delegatee": "The address to delegate votes to",
          "expiry": "The time at which to expire the signature",
          "nonce": "The contract state required to match the signature",
          "r": "Half of the ECDSA signature pair",
          "s": "Half of the ECDSA signature pair",
          "v": "The recovery byte of the signature"
        }
      },
      "delegates(address)": {
        "params": {
          "delegator": "The address to get delegatee for"
        }
      },
      "getCurrentVotes(address)": {
        "params": {
          "account": "The address to get votes balance"
        },
        "returns": {
          "_0": "The number of current votes for `account`"
        }
      },
      "getOwner()": {
        "details": "Returns the bep token owner."
      },
      "getPriorVotes(address,uint256)": {
        "details": "Block number must be a finalized block or else this function will revert to prevent misinformation.",
        "params": {
          "account": "The address of the account to check",
          "blockNumber": "The block number to get the vote balance at"
        },
        "returns": {
          "_0": "The number of votes the account had as of the given block"
        }
      },
      "increaseAllowance(address,uint256)": {
        "details": "Atomically increases the allowance granted to `spender` by the caller. This is an alternative to {approve} that can be used as a mitigation for problems described in {BEP20-approve}. Emits an {Approval} event indicating the updated allowance. Requirements: - `spender` cannot be the zero address."
      },
      "mint(uint256)": {
        "details": "Creates `amount` tokens and assigns them to `msg.sender`, increasing the total supply. Requirements - `msg.sender` must be the token owner"
      },
      "name()": {
        "details": "Returns the token name."
      },
      "owner()": {
        "details": "Returns the address of the current owner."
      },
      "renounceOwnership()": {
        "details": "Leaves the contract without owner. It will not be possible to call `onlyOwner` functions anymore. Can only be called by the current owner. NOTE: Renouncing ownership will leave the contract without an owner, thereby removing any functionality that is only available to the owner."
      },
      "symbol()": {
        "details": "Returns the token symbol."
      },
      "totalSupply()": {
        "details": "See {BEP20-totalSupply}."
      },
      "transfer(address,uint256)": {
        "details": "See {BEP20-transfer}. Requirements: - `recipient` cannot be the zero address. - the caller must have a balance of at least `amount`."
      },
      "transferFrom(address,address,uint256)": {
        "details": "See {BEP20-transferFrom}. Emits an {Approval} event indicating the updated allowance. This is not required by the EIP. See the note at the beginning of {BEP20}; Requirements: - `sender` and `recipient` cannot be the zero address. - `sender` must have a balance of at least `amount`. - the caller must have allowance for `sender`'s tokens of at least `amount`."
      },
      "transferOwnership(address)": {
        "details": "Transfers ownership of the contract to a new account (`newOwner`). Can only be called by the current owner."
      }
    },
    "version": 1
  },
  "userdoc": {
    "events": {
      "DelegateChanged(address,address,address)": {
        "notice": "An event thats emitted when an account changes its delegate"
      },
      "DelegateVotesChanged(address,uint256,uint256)": {
        "notice": "An event thats emitted when a delegate account's vote balance changes"
      }
    },
    "kind": "user",
    "methods": {
      "DELEGATION_TYPEHASH()": {
        "notice": "The EIP-712 typehash for the delegation struct used by the contract"
      },
      "DOMAIN_TYPEHASH()": {
        "notice": "The EIP-712 typehash for the contract's domain"
      },
      "checkpoints(address,uint32)": {
        "notice": "A record of votes checkpoints for each account, by index"
      },
      "delegate(address)": {
        "notice": "Delegate votes from `msg.sender` to `delegatee`"
      },
      "delegateBySig(address,uint256,uint256,uint8,bytes32,bytes32)": {
        "notice": "Delegates votes from signatory to `delegatee`"
      },
      "delegates(address)": {
        "notice": "Delegate votes from `msg.sender` to `delegatee`"
      },
      "getCurrentVotes(address)": {
        "notice": "Gets the current votes balance for `account`"
      },
      "getPriorVotes(address,uint256)": {
        "notice": "Determine the prior number of votes for an account as of a block number"
      },
      "mint(address,uint256)": {
        "notice": "Creates `_amount` token to `_to`."
      },
      "nonces(address)": {
        "notice": "A record of states for signing / validating signatures"
      },
      "numCheckpoints(address)": {
        "notice": "The number of checkpoints for each account"
      }
    },
    "version": 1
  }
}