{
  "contractName": "MasterChef",
  "abi": [
    {
      "inputs": [
        {
          "internalType": "contract DiceToken",
          "name": "_LC",
          "type": "address"
        },
        {
          "internalType": "address",
          "name": "_devaddr",
          "type": "address"
        },
        {
          "internalType": "address",
          "name": "_safuaddr",
          "type": "address"
        },
        {
          "internalType": "uint256",
          "name": "_LCPerBlock",
          "type": "uint256"
        },
        {
          "internalType": "uint256",
          "name": "_startBlock",
          "type": "uint256"
        },
        {
          "internalType": "uint256",
          "name": "_stakingPercent",
          "type": "uint256"
        },
        {
          "internalType": "uint256",
          "name": "_devPercent",
          "type": "uint256"
        },
        {
          "internalType": "uint256",
          "name": "_safuPercent",
          "type": "uint256"
        }
      ],
      "stateMutability": "nonpayable",
      "type": "constructor"
    },
    {
      "anonymous": false,
      "inputs": [
        {
          "indexed": true,
          "internalType": "address",
          "name": "user",
          "type": "address"
        },
        {
          "indexed": true,
          "internalType": "uint256",
          "name": "pid",
          "type": "uint256"
        },
        {
          "indexed": false,
          "internalType": "uint256",
          "name": "amount",
          "type": "uint256"
        }
      ],
      "name": "Deposit",
      "type": "event"
    },
    {
      "anonymous": false,
      "inputs": [
        {
          "indexed": true,
          "internalType": "address",
          "name": "user",
          "type": "address"
        },
        {
          "indexed": true,
          "internalType": "uint256",
          "name": "pid",
          "type": "uint256"
        },
        {
          "indexed": false,
          "internalType": "uint256",
          "name": "amount",
          "type": "uint256"
        }
      ],
      "name": "EmergencyWithdraw",
      "type": "event"
    },
    {
      "anonymous": false,
      "inputs": [
        {
          "indexed": true,
          "internalType": "address",
          "name": "caller",
          "type": "address"
        },
        {
          "indexed": false,
          "internalType": "uint256",
          "name": "previousAmount",
          "type": "uint256"
        },
        {
          "indexed": false,
          "internalType": "uint256",
          "name": "newAmount",
          "type": "uint256"
        }
      ],
      "name": "EmissionRateUpdated",
      "type": "event"
    },
    {
      "anonymous": false,
      "inputs": [
        {
          "indexed": true,
          "internalType": "address",
          "name": "previousOwner",
          "type": "address"
        },
        {
          "indexed": true,
          "internalType": "address",
          "name": "newOwner",
          "type": "address"
        }
      ],
      "name": "OwnershipTransferred",
      "type": "event"
    },
    {
      "anonymous": false,
      "inputs": [
        {
          "indexed": true,
          "internalType": "address",
          "name": "user",
          "type": "address"
        },
        {
          "indexed": true,
          "internalType": "address",
          "name": "referrer",
          "type": "address"
        },
        {
          "indexed": false,
          "internalType": "uint256",
          "name": "commissionAmount",
          "type": "uint256"
        }
      ],
      "name": "ReferralCommissionPaid",
      "type": "event"
    },
    {
      "anonymous": false,
      "inputs": [
        {
          "indexed": true,
          "internalType": "address",
          "name": "user",
          "type": "address"
        },
        {
          "indexed": true,
          "internalType": "uint256",
          "name": "pid",
          "type": "uint256"
        },
        {
          "indexed": false,
          "internalType": "uint256",
          "name": "amount",
          "type": "uint256"
        }
      ],
      "name": "Withdraw",
      "type": "event"
    },
    {
      "inputs": [],
      "name": "BONUS_MULTIPLIER",
      "outputs": [
        {
          "internalType": "uint256",
          "name": "",
          "type": "uint256"
        }
      ],
      "stateMutability": "view",
      "type": "function"
    },
    {
      "inputs": [],
      "name": "LC",
      "outputs": [
        {
          "internalType": "contract DiceToken",
          "name": "",
          "type": "address"
        }
      ],
      "stateMutability": "view",
      "type": "function"
    },
    {
      "inputs": [],
      "name": "LCPerBlock",
      "outputs": [
        {
          "internalType": "uint256",
          "name": "",
          "type": "uint256"
        }
      ],
      "stateMutability": "view",
      "type": "function"
    },
    {
      "inputs": [],
      "name": "MAXIMUM_REFERRAL_COMMISSION_RATE",
      "outputs": [
        {
          "internalType": "uint16",
          "name": "",
          "type": "uint16"
        }
      ],
      "stateMutability": "view",
      "type": "function"
    },
    {
      "inputs": [
        {
          "internalType": "uint256",
          "name": "",
          "type": "uint256"
        }
      ],
      "name": "bonusInfo",
      "outputs": [
        {
          "internalType": "contract IBEP20",
          "name": "bonusToken",
          "type": "address"
        },
        {
          "internalType": "uint256",
          "name": "lastRewardBlock",
          "type": "uint256"
        }
      ],
      "stateMutability": "view",
      "type": "function"
    },
    {
      "inputs": [],
      "name": "devPercent",
      "outputs": [
        {
          "internalType": "uint256",
          "name": "",
          "type": "uint256"
        }
      ],
      "stateMutability": "view",
      "type": "function"
    },
    {
      "inputs": [],
      "name": "devaddr",
      "outputs": [
        {
          "internalType": "address",
          "name": "",
          "type": "address"
        }
      ],
      "stateMutability": "view",
      "type": "function"
    },
    {
      "inputs": [],
      "name": "lastBlockDevWithdraw",
      "outputs": [
        {
          "internalType": "uint256",
          "name": "",
          "type": "uint256"
        }
      ],
      "stateMutability": "view",
      "type": "function"
    },
    {
      "inputs": [],
      "name": "luckychipReferral",
      "outputs": [
        {
          "internalType": "contract ILuckyChipReferral",
          "name": "",
          "type": "address"
        }
      ],
      "stateMutability": "view",
      "type": "function"
    },
    {
      "inputs": [],
      "name": "owner",
      "outputs": [
        {
          "internalType": "address",
          "name": "",
          "type": "address"
        }
      ],
      "stateMutability": "view",
      "type": "function"
    },
    {
      "inputs": [],
      "name": "percentDec",
      "outputs": [
        {
          "internalType": "uint256",
          "name": "",
          "type": "uint256"
        }
      ],
      "stateMutability": "view",
      "type": "function"
    },
    {
      "inputs": [
        {
          "internalType": "uint256",
          "name": "",
          "type": "uint256"
        },
        {
          "internalType": "uint256",
          "name": "",
          "type": "uint256"
        }
      ],
      "name": "poolBonusPerShare",
      "outputs": [
        {
          "internalType": "uint256",
          "name": "",
          "type": "uint256"
        }
      ],
      "stateMutability": "view",
      "type": "function"
    },
    {
      "inputs": [
        {
          "internalType": "uint256",
          "name": "",
          "type": "uint256"
        }
      ],
      "name": "poolInfo",
      "outputs": [
        {
          "internalType": "contract IBEP20",
          "name": "lpToken",
          "type": "address"
        },
        {
          "internalType": "uint256",
          "name": "allocPoint",
          "type": "uint256"
        },
        {
          "internalType": "uint256",
          "name": "bonusPoint",
          "type": "uint256"
        },
        {
          "internalType": "uint256",
          "name": "lastRewardBlock",
          "type": "uint256"
        },
        {
          "internalType": "uint256",
          "name": "accLCPerShare",
          "type": "uint256"
        }
      ],
      "stateMutability": "view",
      "type": "function"
    },
    {
      "inputs": [],
      "name": "referralCommissionRate",
      "outputs": [
        {
          "internalType": "uint16",
          "name": "",
          "type": "uint16"
        }
      ],
      "stateMutability": "view",
      "type": "function"
    },
    {
      "inputs": [],
      "name": "renounceOwnership",
      "outputs": [],
      "stateMutability": "nonpayable",
      "type": "function"
    },
    {
      "inputs": [],
      "name": "safuPercent",
      "outputs": [
        {
          "internalType": "uint256",
          "name": "",
          "type": "uint256"
        }
      ],
      "stateMutability": "view",
      "type": "function"
    },
    {
      "inputs": [],
      "name": "safuaddr",
      "outputs": [
        {
          "internalType": "address",
          "name": "",
          "type": "address"
        }
      ],
      "stateMutability": "view",
      "type": "function"
    },
    {
      "inputs": [],
      "name": "stakingPercent",
      "outputs": [
        {
          "internalType": "uint256",
          "name": "",
          "type": "uint256"
        }
      ],
      "stateMutability": "view",
      "type": "function"
    },
    {
      "inputs": [],
      "name": "startBlock",
      "outputs": [
        {
          "internalType": "uint256",
          "name": "",
          "type": "uint256"
        }
      ],
      "stateMutability": "view",
      "type": "function"
    },
    {
      "inputs": [],
      "name": "totalAllocPoint",
      "outputs": [
        {
          "internalType": "uint256",
          "name": "",
          "type": "uint256"
        }
      ],
      "stateMutability": "view",
      "type": "function"
    },
    {
      "inputs": [],
      "name": "totalBonusPoint",
      "outputs": [
        {
          "internalType": "uint256",
          "name": "",
          "type": "uint256"
        }
      ],
      "stateMutability": "view",
      "type": "function"
    },
    {
      "inputs": [
        {
          "internalType": "address",
          "name": "newOwner",
          "type": "address"
        }
      ],
      "name": "transferOwnership",
      "outputs": [],
      "stateMutability": "nonpayable",
      "type": "function"
    },
    {
      "inputs": [
        {
          "internalType": "uint256",
          "name": "",
          "type": "uint256"
        },
        {
          "internalType": "address",
          "name": "",
          "type": "address"
        }
      ],
      "name": "userBonusDebt",
      "outputs": [
        {
          "internalType": "uint256",
          "name": "",
          "type": "uint256"
        }
      ],
      "stateMutability": "view",
      "type": "function"
    },
    {
      "inputs": [
        {
          "internalType": "uint256",
          "name": "",
          "type": "uint256"
        },
        {
          "internalType": "address",
          "name": "",
          "type": "address"
        }
      ],
      "name": "userInfo",
      "outputs": [
        {
          "internalType": "uint256",
          "name": "amount",
          "type": "uint256"
        },
        {
          "internalType": "uint256",
          "name": "rewardDebt",
          "type": "uint256"
        }
      ],
      "stateMutability": "view",
      "type": "function"
    },
    {
      "inputs": [
        {
          "internalType": "uint256",
          "name": "multiplierNumber",
          "type": "uint256"
        }
      ],
      "name": "updateMultiplier",
      "outputs": [],
      "stateMutability": "nonpayable",
      "type": "function"
    },
    {
      "inputs": [],
      "name": "poolLength",
      "outputs": [
        {
          "internalType": "uint256",
          "name": "",
          "type": "uint256"
        }
      ],
      "stateMutability": "view",
      "type": "function"
    },
    {
      "inputs": [],
      "name": "bonusLength",
      "outputs": [
        {
          "internalType": "uint256",
          "name": "",
          "type": "uint256"
        }
      ],
      "stateMutability": "view",
      "type": "function"
    },
    {
      "inputs": [],
      "name": "withdrawDevFee",
      "outputs": [],
      "stateMutability": "nonpayable",
      "type": "function"
    },
    {
      "inputs": [
        {
          "internalType": "uint256",
          "name": "_allocPoint",
          "type": "uint256"
        },
        {
          "internalType": "uint256",
          "name": "_bonusPoint",
          "type": "uint256"
        },
        {
          "internalType": "contract IBEP20",
          "name": "_lpToken",
          "type": "address"
        },
        {
          "internalType": "bool",
          "name": "_withUpdate",
          "type": "bool"
        }
      ],
      "name": "add",
      "outputs": [],
      "stateMutability": "nonpayable",
      "type": "function"
    },
    {
      "inputs": [
        {
          "internalType": "contract IBEP20",
          "name": "_bonusToken",
          "type": "address"
        }
      ],
      "name": "addBonus",
      "outputs": [],
      "stateMutability": "nonpayable",
      "type": "function"
    },
    {
      "inputs": [
        {
          "internalType": "uint256",
          "name": "_pid",
          "type": "uint256"
        },
        {
          "internalType": "uint256",
          "name": "_allocPoint",
          "type": "uint256"
        },
        {
          "internalType": "bool",
          "name": "_withUpdate",
          "type": "bool"
        }
      ],
      "name": "set",
      "outputs": [],
      "stateMutability": "nonpayable",
      "type": "function"
    },
    {
      "inputs": [
        {
          "internalType": "uint256",
          "name": "_from",
          "type": "uint256"
        },
        {
          "internalType": "uint256",
          "name": "_to",
          "type": "uint256"
        }
      ],
      "name": "getMultiplier",
      "outputs": [
        {
          "internalType": "uint256",
          "name": "",
          "type": "uint256"
        }
      ],
      "stateMutability": "view",
      "type": "function"
    },
    {
      "inputs": [
        {
          "internalType": "uint256",
          "name": "_pid",
          "type": "uint256"
        },
        {
          "internalType": "address",
          "name": "_user",
          "type": "address"
        }
      ],
      "name": "pendingLC",
      "outputs": [
        {
          "internalType": "uint256",
          "name": "",
          "type": "uint256"
        }
      ],
      "stateMutability": "view",
      "type": "function"
    },
    {
      "inputs": [
        {
          "internalType": "uint256",
          "name": "_pid",
          "type": "uint256"
        },
        {
          "internalType": "address",
          "name": "_user",
          "type": "address"
        }
      ],
      "name": "pendingBonus",
      "outputs": [
        {
          "internalType": "uint256[]",
          "name": "",
          "type": "uint256[]"
        }
      ],
      "stateMutability": "view",
      "type": "function"
    },
    {
      "inputs": [],
      "name": "massUpdatePools",
      "outputs": [],
      "stateMutability": "nonpayable",
      "type": "function"
    },
    {
      "inputs": [
        {
          "internalType": "uint256",
          "name": "_pid",
          "type": "uint256"
        }
      ],
      "name": "updatePool",
      "outputs": [],
      "stateMutability": "nonpayable",
      "type": "function"
    },
    {
      "inputs": [
        {
          "internalType": "uint256",
          "name": "_pid",
          "type": "uint256"
        },
        {
          "internalType": "uint256",
          "name": "_amount",
          "type": "uint256"
        }
      ],
      "name": "updateBonus",
      "outputs": [],
      "stateMutability": "nonpayable",
      "type": "function"
    },
    {
      "inputs": [
        {
          "internalType": "uint256",
          "name": "_pid",
          "type": "uint256"
        },
        {
          "internalType": "uint256",
          "name": "_amount",
          "type": "uint256"
        },
        {
          "internalType": "address",
          "name": "_referrer",
          "type": "address"
        }
      ],
      "name": "deposit",
      "outputs": [],
      "stateMutability": "nonpayable",
      "type": "function"
    },
    {
      "inputs": [
        {
          "internalType": "uint256",
          "name": "_pid",
          "type": "uint256"
        },
        {
          "internalType": "uint256",
          "name": "_amount",
          "type": "uint256"
        }
      ],
      "name": "withdraw",
      "outputs": [],
      "stateMutability": "nonpayable",
      "type": "function"
    },
    {
      "inputs": [
        {
          "internalType": "uint256",
          "name": "_pid",
          "type": "uint256"
        }
      ],
      "name": "emergencyWithdraw",
      "outputs": [],
      "stateMutability": "nonpayable",
      "type": "function"
    },
    {
      "inputs": [
        {
          "internalType": "address",
          "name": "_devaddr",
          "type": "address"
        }
      ],
      "name": "setDevAddress",
      "outputs": [],
      "stateMutability": "nonpayable",
      "type": "function"
    },
    {
      "inputs": [
        {
          "internalType": "address",
          "name": "_safuaddr",
          "type": "address"
        }
      ],
      "name": "setSafuAddress",
      "outputs": [],
      "stateMutability": "nonpayable",
      "type": "function"
    },
    {
      "inputs": [
        {
          "internalType": "uint256",
          "name": "newAmount",
          "type": "uint256"
        }
      ],
      "name": "updateLcPerBlock",
      "outputs": [],
      "stateMutability": "nonpayable",
      "type": "function"
    },
    {
      "inputs": [
        {
          "internalType": "uint16",
          "name": "_referralCommissionRate",
          "type": "uint16"
        }
      ],
      "name": "setReferralCommissionRate",
      "outputs": [],
      "stateMutability": "nonpayable",
      "type": "function"
    }
  ],
  "bytecode": "0x6080604052620f42406003556001600b55600060118190556012556014805461ffff60a01b1916607d60a21b1790553480156200003b57600080fd5b5060405162003ac338038062003ac383398181016040526101008110156200006257600080fd5b508051602082015160408301516060840151608085015160a086015160c087015160e0909701519596949593949293919290916000620000a162000152565b600080546001600160a01b0319166001600160a01b0383169081178255604051929350917f8be0079c531659141344cd1fd0a4f28419497f9722a3daafe3b4186f6b6457e0908290a35060018055600280546001600160a01b03998a166001600160a01b03199182161790915560078054988a169882169890981790975560088054969098169590961694909417909555600a91909155601381905560049390935560055560065560095562000156565b3390565b61395d80620001666000396000f3fe608060405234801561001057600080fd5b50600436106102f35760003560e01c80637c7be2fa11610191578063cb93f7ef116100e3578063defc107411610097578063fc3c28af11610071578063fc3c28af1461084a578063fc8820a114610852578063fdb85cd21461088b576102f3565b8063defc1074146107c8578063e0dcd30d1461080f578063f2fde38b14610817576102f3565b8063d0d41fe1116100c8578063d0d41fe114610785578063d30ef61b146107b8578063d49e77cd146107c0576102f3565b8063cb93f7ef1461074a578063d074ddf814610752576102f3565b80638dbdbe6d11610145578063b76e360c1161011f578063b76e360c14610701578063bb90320c14610709578063be1193ea14610742576102f3565b80638dbdbe6d14610653578063929a396c1461069257806393f1a40b146106af576102f3565b80638aa28550116101765780638aa28550146106205780638da5cb5b146106285780638dbb1e3a14610630576102f3565b80637c7be2fa146105e557806385e8776514610618576102f3565b80635312ea8e1161024a5780635ffe6146116101fe5780636b1f69a5116101d85780636b1f69a5146105075780636b91a2c914610554578063715018a6146105dd576102f3565b80635ffe6146146104b7578063630b5ba1146104d457806364482f79146104dc576102f3565b806359805be71161022f57806359805be7146104845780635981a7cd146104a75780635ec7ebbd146104af576102f3565b80635312ea8e1461044657806355dbc82614610463576102f3565b806321b1aecb116102ac57806348b22bfb1161028657806348b22bfb1461040257806348cd4cb11461042157806351eb05a614610429576102f3565b806321b1aecb146103a65780632720e4f6146103ae578063441a3e70146103df576102f3565b80631526fe27116102dd5780631526fe271461031a57806317caf6f11461037957806321a8e00b14610381576102f3565b8062a2e3be146102f8578063081e3eda14610312575b600080fd5b610300610893565b60408051918252519081900360200190f35b610300610899565b6103376004803603602081101561033057600080fd5b503561089f565b6040805173ffffffffffffffffffffffffffffffffffffffff909616865260208601949094528484019290925260608401526080830152519081900360a00190f35b6103006108f4565b6103a46004803603604081101561039757600080fd5b50803590602001356108fa565b005b610300610b23565b6103b6610b29565b6040805173ffffffffffffffffffffffffffffffffffffffff9092168252519081900360200190f35b6103a4600480360360408110156103f557600080fd5b5080359060200135610b45565b61040a610d9e565b6040805161ffff9092168252519081900360200190f35b610300610da4565b6103a46004803603602081101561043f57600080fd5b5035610daa565b6103a46004803603602081101561045c57600080fd5b5035610fae565b6103a46004803603602081101561047957600080fd5b503561ffff166110d2565b6103006004803603604081101561049a57600080fd5b5080359060200135611226565b610300611254565b6103b661125a565b6103a4600480360360208110156104cd57600080fd5b5035611276565b6103a4611323565b6103a4600480360360608110156104f257600080fd5b50803590602081013590604001351515611346565b6105246004803603602081101561051d57600080fd5b5035611467565b6040805173ffffffffffffffffffffffffffffffffffffffff909316835260208301919091528051918290030190f35b61058d6004803603604081101561056a57600080fd5b508035906020013573ffffffffffffffffffffffffffffffffffffffff166114a9565b60408051602080825283518183015283519192839290830191858101910280838360005b838110156105c95781810151838201526020016105b1565b505050509050019250505060405180910390f35b6103a46115fa565b6103a4600480360360208110156105fb57600080fd5b503573ffffffffffffffffffffffffffffffffffffffff16611711565b610300611800565b610300611806565b6103b661180c565b6103006004803603604081101561064657600080fd5b5080359060200135611828565b6103a46004803603606081101561066957600080fd5b508035906020810135906040013573ffffffffffffffffffffffffffffffffffffffff16611843565b6103a4600480360360208110156106a857600080fd5b5035611b1d565b6106e8600480360360408110156106c557600080fd5b508035906020013573ffffffffffffffffffffffffffffffffffffffff16611cb9565b6040805192835260208301919091528051918290030190f35b610300611cdd565b6103006004803603604081101561071f57600080fd5b508035906020013573ffffffffffffffffffffffffffffffffffffffff16611ce3565b610300611e76565b6103a4611e7c565b6103a46004803603602081101561076857600080fd5b503573ffffffffffffffffffffffffffffffffffffffff16612097565b6103a46004803603602081101561079b57600080fd5b503573ffffffffffffffffffffffffffffffffffffffff16612277565b61040a612366565b6103b6612388565b6103a4600480360360808110156107de57600080fd5b5080359060208101359073ffffffffffffffffffffffffffffffffffffffff604082013516906060013515156123a4565b6103b66125d2565b6103a46004803603602081101561082d57600080fd5b503573ffffffffffffffffffffffffffffffffffffffff166125ee565b61030061278f565b6103006004803603604081101561086857600080fd5b508035906020013573ffffffffffffffffffffffffffffffffffffffff16612795565b6103006127b2565b60065481565b600c5490565b600c81815481106108ac57fe5b60009182526020909120600590910201805460018201546002830154600384015460049094015473ffffffffffffffffffffffffffffffffffffffff90931694509092909185565b60115481565b600d548210610954576040517f08c379a00000000000000000000000000000000000000000000000000000000081526004018080602001828103825260278152602001806139016027913960400191505060405180910390fd5b6000600d838154811061096357fe5b60009182526020909120600290910201805490915061099a9073ffffffffffffffffffffffffffffffffffffffff163330856127b8565b60005b600c54811015610b17576000600c82815481106109b657fe5b6000918252602080832060059092029091018054604080517f70a08231000000000000000000000000000000000000000000000000000000008152306004820152905192955073ffffffffffffffffffffffffffffffffffffffff909116926370a0823192602480840193829003018186803b158015610a3557600080fd5b505afa158015610a49573d6000803e3d6000fd5b505050506040513d6020811015610a5f57600080fd5b5051905080610a6f575050610b0f565b600282015415610b0c57610ae5610ab282610aa664e8d4a51000610aac601254610aa689600201548d61285390919063ffffffff16565b906128c6565b90612853565b6000858152600e60205260409020805489908110610acc57fe5b906000526020600020015461294790919063ffffffff16565b6000848152600e60205260409020805488908110610aff57fe5b6000918252602090912001555b50505b60010161099d565b50436001909101555050565b60035481565b60025473ffffffffffffffffffffffffffffffffffffffff1681565b60026001541415610bb757604080517f08c379a000000000000000000000000000000000000000000000000000000000815260206004820152601f60248201527f5265656e7472616e637947756172643a207265656e7472616e742063616c6c00604482015290519081900360640190fd5b60026001819055506000600c8381548110610bce57fe5b600091825260208083208684526010825260408085203386529092529220805460059092029092019250831115610c6657604080517f08c379a000000000000000000000000000000000000000000000000000000000815260206004820152601260248201527f77697468647261773a206e6f7420676f6f640000000000000000000000000000604482015290519081900360640190fd5b610c6f84610daa565b610c7984336129bb565b600282015415610c8d57610c8d8433612a57565b8215610cc4578054610c9f9084612bd7565b81558154610cc49073ffffffffffffffffffffffffffffffffffffffff163385612c4e565b60048201548154610cdf9164e8d4a5100091610aa691612853565b6001820155600282015415610d5d5760005b600d54811015610d5b57610d3964e8d4a51000610aa6600e60008981526020019081526020016000208481548110610d2557fe5b600091825260209091200154855490612853565b6000828152600f60209081526040808320338452909152902055600101610cf1565b505b604080518481529051859133917ff279e6a1f5e320cca91135676d9cb6e44ca8a08c0b88342bcdb1144f6511b5689181900360200190a35050600180555050565b6103e881565b60135481565b6000600c8281548110610db957fe5b9060005260206000209060050201905080600301544311610dda5750610fab565b8054604080517f70a08231000000000000000000000000000000000000000000000000000000008152306004820152905160009273ffffffffffffffffffffffffffffffffffffffff16916370a08231916024808301926020929190829003018186803b158015610e4a57600080fd5b505afa158015610e5e573d6000803e3d6000fd5b505050506040513d6020811015610e7457600080fd5b5051905080610e8a575043600390910155610fab565b6000610e9a836003015443611828565b90506000610ecd600354610aa6600454610aac601154610aa68a60010154610aac600a548b61285390919063ffffffff16565b600254604080517f40c10f1900000000000000000000000000000000000000000000000000000000815230600482015260248101849052905192935073ffffffffffffffffffffffffffffffffffffffff909116916340c10f19916044808201926020929091908290030181600087803b158015610f4a57600080fd5b505af1158015610f5e573d6000803e3d6000fd5b505050506040513d6020811015610f7457600080fd5b50610f989050610f8d84610aa68464e8d4a51000612853565b600486015490612947565b6004850155505043600390920191909155505b50565b6002600154141561102057604080517f08c379a000000000000000000000000000000000000000000000000000000000815260206004820152601f60248201527f5265656e7472616e637947756172643a207265656e7472616e742063616c6c00604482015290519081900360640190fd5b60026001819055506000600c828154811061103757fe5b600091825260208083208584526010825260408085203380875293529093208054600590930290930180549094506110899273ffffffffffffffffffffffffffffffffffffffff919091169190612c4e565b80546040805191825251849133917fbb757047c2b5f3974fe26b7c10f732e7bce710b0952a71082702781e62ae05959181900360200190a3600080825560019182015580555050565b6110da612cdb565b73ffffffffffffffffffffffffffffffffffffffff166110f861180c565b73ffffffffffffffffffffffffffffffffffffffff161461117a57604080517f08c379a000000000000000000000000000000000000000000000000000000000815260206004820181905260248201527f4f776e61626c653a2063616c6c6572206973206e6f7420746865206f776e6572604482015290519081900360640190fd5b6103e861ffff821611156111d9576040517f08c379a00000000000000000000000000000000000000000000000000000000081526004018080602001828103825260488152602001806138226048913960600191505060405180910390fd5b6014805461ffff90921674010000000000000000000000000000000000000000027fffffffffffffffffffff0000ffffffffffffffffffffffffffffffffffffffff909216919091179055565b600e602052816000526040600020818154811061123f57fe5b90600052602060002001600091509150505481565b600a5481565b60145473ffffffffffffffffffffffffffffffffffffffff1681565b61127e612cdb565b73ffffffffffffffffffffffffffffffffffffffff1661129c61180c565b73ffffffffffffffffffffffffffffffffffffffff161461131e57604080517f08c379a000000000000000000000000000000000000000000000000000000000815260206004820181905260248201527f4f776e61626c653a2063616c6c6572206973206e6f7420746865206f776e6572604482015290519081900360640190fd5b600b55565b600c5460005b818110156113425761133a81610daa565b600101611329565b5050565b61134e612cdb565b73ffffffffffffffffffffffffffffffffffffffff1661136c61180c565b73ffffffffffffffffffffffffffffffffffffffff16146113ee57604080517f08c379a000000000000000000000000000000000000000000000000000000000815260206004820181905260248201527f4f776e61626c653a2063616c6c6572206973206e6f7420746865206f776e6572604482015290519081900360640190fd5b80156113fc576113fc611323565b61143982611433600c868154811061141057fe5b906000526020600020906005020160010154601154612bd790919063ffffffff16565b90612947565b60118190555081600c848154811061144d57fe5b906000526020600020906005020160010181905550505050565b600d818154811061147457fe5b60009182526020909120600290910201805460019091015473ffffffffffffffffffffffffffffffffffffffff909116915082565b60606000600c84815481106114ba57fe5b6000918252602080832087845260108252604080852073ffffffffffffffffffffffffffffffffffffffff891686529092529220600d546005909202909201925060609067ffffffffffffffff8111801561151457600080fd5b5060405190808252806020026020018201604052801561153e578160200160208202803683370190505b506002840154909150156115ef5760005b600d548110156115ed576000818152600f6020908152604080832073ffffffffffffffffffffffffffffffffffffffff8a1684528252808320548a8452600e90925290912080546115ce92916115c89164e8d4a5100091610aa691879081106115b457fe5b600091825260209091200154885490612853565b90612bd7565b8282815181106115da57fe5b602090810291909101015260010161154f565b505b925050505b92915050565b611602612cdb565b73ffffffffffffffffffffffffffffffffffffffff1661162061180c565b73ffffffffffffffffffffffffffffffffffffffff16146116a257604080517f08c379a000000000000000000000000000000000000000000000000000000000815260206004820181905260248201527f4f776e61626c653a2063616c6c6572206973206e6f7420746865206f776e6572604482015290519081900360640190fd5b6000805460405173ffffffffffffffffffffffffffffffffffffffff909116907f8be0079c531659141344cd1fd0a4f28419497f9722a3daafe3b4186f6b6457e0908390a3600080547fffffffffffffffffffffffff0000000000000000000000000000000000000000169055565b611719612cdb565b73ffffffffffffffffffffffffffffffffffffffff1661173761180c565b73ffffffffffffffffffffffffffffffffffffffff16146117b957604080517f08c379a000000000000000000000000000000000000000000000000000000000815260206004820181905260248201527f4f776e61626c653a2063616c6c6572206973206e6f7420746865206f776e6572604482015290519081900360640190fd5b600880547fffffffffffffffffffffffff00000000000000000000000000000000000000001673ffffffffffffffffffffffffffffffffffffffff92909216919091179055565b600d5490565b600b5481565b60005473ffffffffffffffffffffffffffffffffffffffff1690565b600b5460009061183c90610aac8486612bd7565b9392505050565b600260015414156118b557604080517f08c379a000000000000000000000000000000000000000000000000000000000815260206004820152601f60248201527f5265656e7472616e637947756172643a207265656e7472616e742063616c6c00604482015290519081900360640190fd5b60026001819055506000600c84815481106118cc57fe5b600091825260208083208784526010825260408085203386529092529220600590910290910191506118fd85610daa565b600084118015611924575060145473ffffffffffffffffffffffffffffffffffffffff1615155b8015611945575073ffffffffffffffffffffffffffffffffffffffff831615155b8015611967575073ffffffffffffffffffffffffffffffffffffffff83163314155b156119ff57601454604080517f0c7f7b6b00000000000000000000000000000000000000000000000000000000815233600482015273ffffffffffffffffffffffffffffffffffffffff868116602483015291519190921691630c7f7b6b91604480830192600092919082900301818387803b1580156119e657600080fd5b505af11580156119fa573d6000803e3d6000fd5b505050505b611a0985336129bb565b600282015415611a1d57611a1d8533612a57565b8315611a56578154611a479073ffffffffffffffffffffffffffffffffffffffff163330876127b8565b8054611a539085612947565b81555b60048201548154611a719164e8d4a5100091610aa691612853565b6001820155600282015415611adb5760005b600d54811015611ad957611ab764e8d4a51000610aa6600e60008a81526020019081526020016000208481548110610d2557fe5b6000828152600f60209081526040808320338452909152902055600101611a83565b505b604080518581529051869133917f90890809c654f11d6e72a28fa60149770a0d11ec6c92319d6ceb2bb0a4ea1a159181900360200190a3505060018055505050565b611b25612cdb565b73ffffffffffffffffffffffffffffffffffffffff16611b4361180c565b73ffffffffffffffffffffffffffffffffffffffff1614611bc557604080517f08c379a000000000000000000000000000000000000000000000000000000000815260206004820181905260248201527f4f776e61626c653a2063616c6c6572206973206e6f7420746865206f776e6572604482015290519081900360640190fd5b6801a055690d9db80000811115611c3d57604080517f08c379a000000000000000000000000000000000000000000000000000000000815260206004820152601360248201527f4d61782070657220626c6f636b203330204c4300000000000000000000000000604482015290519081900360640190fd5b670de0b6b3a7640000811015611cb457604080517f08c379a000000000000000000000000000000000000000000000000000000000815260206004820152601260248201527f4d696e2070657220626c6f636b2031204c430000000000000000000000000000604482015290519081900360640190fd5b600a55565b60106020908152600092835260408084209091529082529020805460019091015482565b60095481565b600080600c8481548110611cf357fe5b6000918252602080832087845260108252604080852073ffffffffffffffffffffffffffffffffffffffff8981168752908452818620600595909502909201600481810154825484517f70a082310000000000000000000000000000000000000000000000000000000081523093810193909352935192985095969492909316926370a08231926024808301939192829003018186803b158015611d9657600080fd5b505afa158015611daa573d6000803e3d6000fd5b505050506040513d6020811015611dc057600080fd5b5051600385015490915043118015611dd757508015155b15611e43576000611dec856003015443611828565b90506000611e1f600354610aa6600454610aac601154610aa68c60010154610aac600a548b61285390919063ffffffff16565b9050611e3e611e3784610aa68464e8d4a51000612853565b8590612947565b935050505b611e6b83600101546115c864e8d4a51000610aa686886000015461285390919063ffffffff16565b979650505050505050565b60045481565b4360095410611eec57604080517f08c379a000000000000000000000000000000000000000000000000000000000815260206004820152601260248201527f7761697420666f72206e657720626c6f636b0000000000000000000000000000604482015290519081900360640190fd5b6000611efa60095443611828565b90506000611f13600a548361285390919063ffffffff16565b60025460075460035460055493945073ffffffffffffffffffffffffffffffffffffffff928316936340c10f199390921691611f559190610aa6908790612853565b6040518363ffffffff1660e01b8152600401808373ffffffffffffffffffffffffffffffffffffffff16815260200182815260200192505050602060405180830381600087803b158015611fa857600080fd5b505af1158015611fbc573d6000803e3d6000fd5b505050506040513d6020811015611fd257600080fd5b505060025460085460035460065473ffffffffffffffffffffffffffffffffffffffff938416936340c10f1993169161201091610aa6908790612853565b6040518363ffffffff1660e01b8152600401808373ffffffffffffffffffffffffffffffffffffffff16815260200182815260200192505050602060405180830381600087803b15801561206357600080fd5b505af1158015612077573d6000803e3d6000fd5b505050506040513d602081101561208d57600080fd5b5050436009555050565b61209f612cdb565b73ffffffffffffffffffffffffffffffffffffffff166120bd61180c565b73ffffffffffffffffffffffffffffffffffffffff161461213f57604080517f08c379a000000000000000000000000000000000000000000000000000000000815260206004820181905260248201527f4f776e61626c653a2063616c6c6572206973206e6f7420746865206f776e6572604482015290519081900360640190fd5b6000601354431161215257601354612154565b435b6040805180820190915273ffffffffffffffffffffffffffffffffffffffff848116825260208201838152600d8054600181018255600091825293517fd7b6990105719101dabeb77144f2a3385c8033acd3af97e9423a695e81ad1eb5600290950294850180547fffffffffffffffffffffffff0000000000000000000000000000000000000000169190941617909255517fd7b6990105719101dabeb77144f2a3385c8033acd3af97e9423a695e81ad1eb6909201919091559091505b600c54811015612272576000600c828154811061222b57fe5b90600052602060002090600502019050600081600201541115612269576000828152600e602090815260408220805460018101825590835290822001555b50600101612212565b505050565b61227f612cdb565b73ffffffffffffffffffffffffffffffffffffffff1661229d61180c565b73ffffffffffffffffffffffffffffffffffffffff161461231f57604080517f08c379a000000000000000000000000000000000000000000000000000000000815260206004820181905260248201527f4f776e61626c653a2063616c6c6572206973206e6f7420746865206f776e6572604482015290519081900360640190fd5b600780547fffffffffffffffffffffffff00000000000000000000000000000000000000001673ffffffffffffffffffffffffffffffffffffffff92909216919091179055565b60145474010000000000000000000000000000000000000000900461ffff1681565b60075473ffffffffffffffffffffffffffffffffffffffff1681565b6123ac612cdb565b73ffffffffffffffffffffffffffffffffffffffff166123ca61180c565b73ffffffffffffffffffffffffffffffffffffffff161461244c57604080517f08c379a000000000000000000000000000000000000000000000000000000000815260206004820181905260248201527f4f776e61626c653a2063616c6c6572206973206e6f7420746865206f776e6572604482015290519081900360640190fd5b801561245a5761245a611323565b6000601354431161246d5760135461246f565b435b60115490915061247f9086612947565b60115560125461248f9085612947565b6012556040805160a08101825273ffffffffffffffffffffffffffffffffffffffff94851681526020810196875290810194855260608101918252600060808201818152600c8054600181018255925291517fdf6966c971051c3d54ec59162606531493a51404a002842f56009d7e5cf4a8c7600590920291820180547fffffffffffffffffffffffff000000000000000000000000000000000000000016919096161790945594517fdf6966c971051c3d54ec59162606531493a51404a002842f56009d7e5cf4a8c884015592517fdf6966c971051c3d54ec59162606531493a51404a002842f56009d7e5cf4a8c98301555090517fdf6966c971051c3d54ec59162606531493a51404a002842f56009d7e5cf4a8ca82015590517fdf6966c971051c3d54ec59162606531493a51404a002842f56009d7e5cf4a8cb90910155565b60085473ffffffffffffffffffffffffffffffffffffffff1681565b6125f6612cdb565b73ffffffffffffffffffffffffffffffffffffffff1661261461180c565b73ffffffffffffffffffffffffffffffffffffffff161461269657604080517f08c379a000000000000000000000000000000000000000000000000000000000815260206004820181905260248201527f4f776e61626c653a2063616c6c6572206973206e6f7420746865206f776e6572604482015290519081900360640190fd5b73ffffffffffffffffffffffffffffffffffffffff8116612702576040517f08c379a00000000000000000000000000000000000000000000000000000000081526004018080602001828103825260268152602001806138946026913960400191505060405180910390fd5b6000805460405173ffffffffffffffffffffffffffffffffffffffff808516939216917f8be0079c531659141344cd1fd0a4f28419497f9722a3daafe3b4186f6b6457e091a3600080547fffffffffffffffffffffffff00000000000000000000000000000000000000001673ffffffffffffffffffffffffffffffffffffffff92909216919091179055565b60055481565b600f60209081526000928352604080842090915290825290205481565b60125481565b6040805173ffffffffffffffffffffffffffffffffffffffff80861660248301528416604482015260648082018490528251808303909101815260849091019091526020810180517bffffffffffffffffffffffffffffffffffffffffffffffffffffffff167f23b872dd0000000000000000000000000000000000000000000000000000000017905261284d908590612cdf565b50505050565b600082612862575060006115f4565b8282028284828161286f57fe5b041461183c576040517f08c379a00000000000000000000000000000000000000000000000000000000081526004018080602001828103825260218152602001806138e06021913960400191505060405180910390fd5b600080821161293657604080517f08c379a000000000000000000000000000000000000000000000000000000000815260206004820152601a60248201527f536166654d6174683a206469766973696f6e206279207a65726f000000000000604482015290519081900360640190fd5b81838161293f57fe5b049392505050565b60008282018381101561183c57604080517f08c379a000000000000000000000000000000000000000000000000000000000815260206004820152601b60248201527f536166654d6174683a206164646974696f6e206f766572666c6f770000000000604482015290519081900360640190fd5b6000600c83815481106129ca57fe5b6000918252602080832086845260108252604080852073ffffffffffffffffffffffffffffffffffffffff88168652909252908320600181015460046005909402909201928301548154939550909392612a3492916115c89164e8d4a5100091610aa69190612853565b90508015612a5057612a468482612db7565b612a508482612fb2565b5050505050565b6000600c8381548110612a6657fe5b6000918252602080832086845260108252604080852073ffffffffffffffffffffffffffffffffffffffff88168652909252922060026005909202909201908101549092501561284d57600d546000858152600e602052604090205414612b18576040517f08c379a00000000000000000000000000000000000000000000000000000000081526004018080602001828103825260378152602001806137eb6037913960400191505060405180910390fd5b60005b600d54811015612a50576000818152600f6020908152604080832073ffffffffffffffffffffffffffffffffffffffff88168452825280832054888452600e90925282208054612b7f92916115c89164e8d4a5100091610aa691889081106115b457fe5b90508015612bce576000600d8381548110612b9657fe5b600091825260209091206002909102018054909150612bcc9073ffffffffffffffffffffffffffffffffffffffff168784612c4e565b505b50600101612b1b565b600082821115612c4857604080517f08c379a000000000000000000000000000000000000000000000000000000000815260206004820152601e60248201527f536166654d6174683a207375627472616374696f6e206f766572666c6f770000604482015290519081900360640190fd5b50900390565b6040805173ffffffffffffffffffffffffffffffffffffffff8416602482015260448082018490528251808303909101815260649091019091526020810180517bffffffffffffffffffffffffffffffffffffffffffffffffffffffff167fa9059cbb00000000000000000000000000000000000000000000000000000000179052612272908490612cdf565b3390565b6060612d41826040518060400160405280602081526020017f5361666542455032303a206c6f772d6c6576656c2063616c6c206661696c65648152508573ffffffffffffffffffffffffffffffffffffffff1661355f9092919063ffffffff16565b80519091501561227257808060200190516020811015612d6057600080fd5b5051612272576040517f08c379a000000000000000000000000000000000000000000000000000000000815260040180806020018281038252602a81526020018061386a602a913960400191505060405180910390fd5b600254604080517f70a08231000000000000000000000000000000000000000000000000000000008152306004820152905160009273ffffffffffffffffffffffffffffffffffffffff16916370a08231916024808301926020929190829003018186803b158015612e2857600080fd5b505afa158015612e3c573d6000803e3d6000fd5b505050506040513d6020811015612e5257600080fd5b5051905080821115612f0c57600254604080517fa9059cbb00000000000000000000000000000000000000000000000000000000815273ffffffffffffffffffffffffffffffffffffffff8681166004830152602482018590529151919092169163a9059cbb9160448083019260209291908290030181600087803b158015612eda57600080fd5b505af1158015612eee573d6000803e3d6000fd5b505050506040513d6020811015612f0457600080fd5b506122729050565b600254604080517fa9059cbb00000000000000000000000000000000000000000000000000000000815273ffffffffffffffffffffffffffffffffffffffff8681166004830152602482018690529151919092169163a9059cbb9160448083019260209291908290030181600087803b158015612f8857600080fd5b505af1158015612f9c573d6000803e3d6000fd5b505050506040513d6020811015612a5057600080fd5b60145474010000000000000000000000000000000000000000900461ffff16156113425760145473ffffffffffffffffffffffffffffffffffffffff161561341f57601454604080517f4a9fefc700000000000000000000000000000000000000000000000000000000815273ffffffffffffffffffffffffffffffffffffffff858116600483015291516000939290921691634a9fefc791602480820192602092909190829003018186803b15801561306b57600080fd5b505afa15801561307f573d6000803e3d6000fd5b505050506040513d602081101561309557600080fd5b50516014549091506000906130cf9061271090610aa690869074010000000000000000000000000000000000000000900461ffff16612853565b905080156134185773ffffffffffffffffffffffffffffffffffffffff82161561328257600254604080517f40c10f1900000000000000000000000000000000000000000000000000000000815273ffffffffffffffffffffffffffffffffffffffff858116600483015260248201859052915191909216916340c10f199160448083019260209291908290030181600087803b15801561316f57600080fd5b505af1158015613183573d6000803e3d6000fd5b505050506040513d602081101561319957600080fd5b5050601454604080517fdc1694b800000000000000000000000000000000000000000000000000000000815273ffffffffffffffffffffffffffffffffffffffff8581166004830152602482018590529151919092169163dc1694b891604480830192600092919082900301818387803b15801561321657600080fd5b505af115801561322a573d6000803e3d6000fd5b505060408051848152905173ffffffffffffffffffffffffffffffffffffffff8087169450881692507f86ddab457291316e0f5496737e5ca67c4037234c32c3be04c48ae96186893a7b9181900360200190a3613418565b600254600854604080517f40c10f1900000000000000000000000000000000000000000000000000000000815273ffffffffffffffffffffffffffffffffffffffff928316600482015260248101859052905191909216916340c10f199160448083019260209291908290030181600087803b15801561330157600080fd5b505af1158015613315573d6000803e3d6000fd5b505050506040513d602081101561332b57600080fd5b5050601454600854604080517fdc1694b800000000000000000000000000000000000000000000000000000000815273ffffffffffffffffffffffffffffffffffffffff9283166004820152602481018590529051919092169163dc1694b891604480830192600092919082900301818387803b1580156133ab57600080fd5b505af11580156133bf573d6000803e3d6000fd5b505060085460408051858152905173ffffffffffffffffffffffffffffffffffffffff928316945091881692507f86ddab457291316e0f5496737e5ca67c4037234c32c3be04c48ae96186893a7b919081900360200190a35b5050611342565b6014546000906134549061271090610aa690859074010000000000000000000000000000000000000000900461ffff16612853565b9050801561227257600254600854604080517f40c10f1900000000000000000000000000000000000000000000000000000000815273ffffffffffffffffffffffffffffffffffffffff928316600482015260248101859052905191909216916340c10f199160448083019260209291908290030181600087803b1580156134db57600080fd5b505af11580156134ef573d6000803e3d6000fd5b505050506040513d602081101561350557600080fd5b505060085460408051838152905173ffffffffffffffffffffffffffffffffffffffff928316928616917f86ddab457291316e0f5496737e5ca67c4037234c32c3be04c48ae96186893a7b919081900360200190a3505050565b606061356e8484600085613576565b949350505050565b6060824710156135d1576040517f08c379a00000000000000000000000000000000000000000000000000000000081526004018080602001828103825260268152602001806138ba6026913960400191505060405180910390fd5b6135da85613726565b61364557604080517f08c379a000000000000000000000000000000000000000000000000000000000815260206004820152601d60248201527f416464726573733a2063616c6c20746f206e6f6e2d636f6e7472616374000000604482015290519081900360640190fd5b600060608673ffffffffffffffffffffffffffffffffffffffff1685876040518082805190602001908083835b602083106136af57805182527fffffffffffffffffffffffffffffffffffffffffffffffffffffffffffffffe09092019160209182019101613672565b6001836020036101000a03801982511681845116808217855250505050505090500191505060006040518083038185875af1925050503d8060008114613711576040519150601f19603f3d011682016040523d82523d6000602084013e613716565b606091505b5091509150611e6b82828661372c565b3b151590565b6060831561373b57508161183c565b82511561374b5782518084602001fd5b816040517f08c379a00000000000000000000000000000000000000000000000000000000081526004018080602001828103825283818151815260200191508051906020019080838360005b838110156137af578181015183820152602001613797565b50505050905090810190601f1680156137dc5780820380516001836020036101000a031916815260200191505b509250505060405180910390fdfe706f6f6c426f6e757350657253686172652e6c656e677468206d75737420657175616c20746f20626f6e7573496e6f66206c656e677468736574526566657272616c436f6d6d697373696f6e526174653a20696e76616c696420726566657272616c20636f6d6d697373696f6e207261746520626173697320706f696e74735361666542455032303a204245503230206f7065726174696f6e20646964206e6f7420737563636565644f776e61626c653a206e6577206f776e657220697320746865207a65726f2061646472657373416464726573733a20696e73756666696369656e742062616c616e636520666f722063616c6c536166654d6174683a206d756c7469706c69636174696f6e206f766572666c6f775f706964206d757374206265206c657373207468616e20626f6e7573496e666f206c656e677468a2646970667358221220f828db4ba49642d53e81317d0ad662e606b04a9b64278e40cf1303463c1fc95464736f6c634300060c0033",
  "immutableReferences": {},
  "source": "// SPDX-License-Identifier: MIT\r\n\r\npragma solidity 0.6.12;\r\n\r\nimport \"@openzeppelin/contracts/math/SafeMath.sol\";\r\nimport \"./libs/IBEP20.sol\";\r\nimport \"./libs/SafeBEP20.sol\";\r\nimport \"./libs/ILuckyChipReferral.sol\";\r\nimport \"./libs/IMasterChef.sol\";\r\nimport \"@openzeppelin/contracts/access/Ownable.sol\";\r\nimport \"@openzeppelin/contracts/utils/ReentrancyGuard.sol\";\r\n\r\nimport \"./DiceToken.sol\";\r\n\r\n// MasterChef is the master of LC. He can make LC and he is a fair guy.\r\n//\r\n// Note that it's ownable and the owner wields tremendous power. The ownership\r\n// will be transferred to a governance smart contract once LC is sufficiently\r\n// distributed and the community can show to govern itself.\r\n//\r\n// Have fun reading it. Hopefully it's bug-free. God bless.\r\ncontract MasterChef is Ownable, ReentrancyGuard, IMasterChef {\r\n    using SafeMath for uint256;\r\n    using SafeBEP20 for IBEP20;\r\n    // Info of each user.\r\n    struct UserInfo {\r\n        uint256 amount; // How many LP tokens the user has provided.\r\n        uint256 rewardDebt; // Reward debt. See explanation below.\r\n        //\r\n        // We do some fancy math here. Basically, any point in time, the amount of LCs\r\n        // entitled to a user but is pending to be distributed is:\r\n        //\r\n        //   pending reward = (user.amount * pool.accLCPerShare) - user.rewardDebt\r\n        //\r\n        // Whenever a user deposits or withdraws LP tokens to a pool. Here's what happens:\r\n        //   1. The pool's `accLCPerShare` (and `lastRewardBlock`) gets updated.\r\n        //   2. User receives the pending reward sent to his/her address.\r\n        //   3. User's `amount` gets updated.\r\n        //   4. User's `rewardDebt` gets updated.\r\n    }\r\n\r\n    // Info of each pool.\r\n    struct PoolInfo {\r\n        IBEP20 lpToken; // Address of LP token contract.\r\n        uint256 allocPoint; // How many allocation points assigned to this pool. LCs to distribute per block.\r\n        uint256 bonusPoint; // How many bonus points assigned to this pool.\r\n        uint256 lastRewardBlock; // Last block number that LCs distribution occurs.\r\n        uint256 accLCPerShare; // Accumulated LCs per share, times 1e12. See below.\r\n    }\r\n\r\n    struct BonusInfo {\r\n        IBEP20 bonusToken;\r\n        uint256 lastRewardBlock;\r\n    }\r\n\r\n    // The LC TOKEN!\r\n    DiceToken public LC;\r\n    //Pools, Farms, Dev, Refs percent decimals\r\n    uint256 public percentDec = 1000000;\r\n    //Pools and Farms percent from token per block\r\n    uint256 public stakingPercent;\r\n    //Developers percent from token per block\r\n    uint256 public devPercent;\r\n    //Safu fund percent from token per block\r\n    uint256 public safuPercent;\r\n    // Dev address.\r\n    address public devaddr;\r\n    // Safu fund.\r\n    address public safuaddr;\r\n    // Last block then develeper withdraw dev and ref fee\r\n    uint256 public lastBlockDevWithdraw;\r\n    // LC tokens created per block.\r\n    uint256 public LCPerBlock;\r\n    // Bonus muliplier for early LC makers.\r\n    uint256 public BONUS_MULTIPLIER = 1;\r\n    // Info of each pool.\r\n    PoolInfo[] public poolInfo;\r\n    // Info of each bonus.\r\n    BonusInfo[] public bonusInfo;\r\n    // mapping pid to bonus accPerShare.\r\n    mapping(uint256 => uint256[]) public poolBonusPerShare;\r\n    // user bonus debt\r\n    mapping(uint256 => mapping(address => uint256)) public userBonusDebt;\r\n    // Info of each user that stakes LP tokens.\r\n    mapping(uint256 => mapping(address => UserInfo)) public userInfo;\r\n    // Total allocation poitns. Must be the sum of all allocation points in all pools.\r\n    uint256 public totalAllocPoint = 0;\r\n    // Total bonus poitns. Must be the sum of all bonus points in all pools.\r\n    uint256 public totalBonusPoint = 0;\r\n    // The block number when LC mining starts.\r\n    uint256 public startBlock;\r\n\r\n    // LuckyChip referral contract address.\r\n    ILuckyChipReferral public luckychipReferral;\r\n    // Referral commission rate in basis points.\r\n    uint16 public referralCommissionRate = 500;\r\n    // Max referral commission rate: 10%.\r\n    uint16 public constant MAXIMUM_REFERRAL_COMMISSION_RATE = 1000;\r\n\r\n    event Deposit(address indexed user, uint256 indexed pid, uint256 amount);\r\n    event Withdraw(address indexed user, uint256 indexed pid, uint256 amount);\r\n    event EmergencyWithdraw(address indexed user, uint256 indexed pid, uint256 amount);\r\n    event EmissionRateUpdated(address indexed caller, uint256 previousAmount, uint256 newAmount);\r\n    event ReferralCommissionPaid(address indexed user, address indexed referrer, uint256 commissionAmount);\r\n\r\n    constructor(\r\n        DiceToken _LC,\r\n        address _devaddr,\r\n        address _safuaddr,\r\n        uint256 _LCPerBlock,\r\n        uint256 _startBlock,\r\n        uint256 _stakingPercent,\r\n        uint256 _devPercent,\r\n        uint256 _safuPercent\r\n    ) public {\r\n        LC = _LC;\r\n        devaddr = _devaddr;\r\n        safuaddr = _safuaddr;\r\n        LCPerBlock = _LCPerBlock;\r\n        startBlock = _startBlock;\r\n        stakingPercent = _stakingPercent;\r\n        devPercent = _devPercent;\r\n        safuPercent = _safuPercent;\r\n        lastBlockDevWithdraw = _startBlock;\r\n    }\r\n\r\n    function updateMultiplier(uint256 multiplierNumber) public onlyOwner {\r\n        BONUS_MULTIPLIER = multiplierNumber;\r\n    }\r\n\r\n    function poolLength() external view returns (uint256) {\r\n        return poolInfo.length;\r\n    }\r\n\r\n    function bonusLength() external view returns (uint256) {\r\n        return bonusInfo.length;\r\n    }\r\n\r\n    function withdrawDevFee() public{\r\n        require(lastBlockDevWithdraw < block.number, 'wait for new block');\r\n        uint256 multiplier = getMultiplier(lastBlockDevWithdraw, block.number);\r\n        uint256 LCReward = multiplier.mul(LCPerBlock);\r\n        LC.mint(devaddr, LCReward.mul(devPercent).div(percentDec));\r\n        LC.mint(safuaddr, LCReward.mul(safuPercent).div(percentDec));\r\n        lastBlockDevWithdraw = block.number;\r\n    }\r\n\r\n    // Add a new lp to the pool. Can only be called by the owner.\r\n    // XXX DO NOT add the same LP token more than once. Rewards will be messed up if you do.\r\n    function add(uint256 _allocPoint, uint256 _bonusPoint, IBEP20 _lpToken, bool _withUpdate) public onlyOwner {\r\n        if (_withUpdate) {\r\n            massUpdatePools();\r\n        }\r\n        uint256 lastRewardBlock = block.number > startBlock ? block.number : startBlock;\r\n        totalAllocPoint = totalAllocPoint.add(_allocPoint);\r\n        totalBonusPoint = totalBonusPoint.add(_bonusPoint);\r\n        \r\n        poolInfo.push(\r\n            PoolInfo({\r\n                lpToken: _lpToken,\r\n                allocPoint: _allocPoint,\r\n                bonusPoint: _bonusPoint,\r\n                lastRewardBlock: lastRewardBlock,\r\n                accLCPerShare: 0\r\n            })\r\n        );\r\n    }\r\n\r\n    function addBonus(IBEP20 _bonusToken) public onlyOwner {\r\n        uint256 lastRewardBlock = block.number > startBlock ? block.number : startBlock;\r\n        bonusInfo.push(BonusInfo({bonusToken: _bonusToken, lastRewardBlock: lastRewardBlock}));\r\n        for(uint256 i = 0; i < poolInfo.length; i ++){\r\n            PoolInfo storage pool = poolInfo[i];\r\n            if (pool.bonusPoint > 0){\r\n                poolBonusPerShare[i].push(0);\r\n            }\r\n        }\r\n    }\r\n\r\n    // Update the given pool's LC allocation point. Can only be called by the owner.\r\n    function set( uint256 _pid, uint256 _allocPoint, bool _withUpdate) public onlyOwner {\r\n        if (_withUpdate) {\r\n            massUpdatePools();\r\n        }\r\n        totalAllocPoint = totalAllocPoint.sub(poolInfo[_pid].allocPoint).add(_allocPoint);\r\n        poolInfo[_pid].allocPoint = _allocPoint;\r\n    }\r\n\r\n    // Return reward multiplier over the given _from to _to block.\r\n    function getMultiplier(uint256 _from, uint256 _to) public view returns (uint256) {\r\n         return _to.sub(_from).mul(BONUS_MULTIPLIER);\r\n    }\r\n\r\n    // View function to see pending LCs on frontend.\r\n    function pendingLC(uint256 _pid, address _user) external view returns (uint256){\r\n        PoolInfo storage pool = poolInfo[_pid];\r\n        UserInfo storage user = userInfo[_pid][_user];\r\n        uint256 accLCPerShare = pool.accLCPerShare;\r\n        uint256 lpSupply = pool.lpToken.balanceOf(address(this));\r\n        if (block.number > pool.lastRewardBlock && lpSupply != 0) {\r\n            uint256 multiplier = getMultiplier(pool.lastRewardBlock, block.number);\r\n            uint256 LCReward = multiplier.mul(LCPerBlock).mul(pool.allocPoint).div(totalAllocPoint).mul(stakingPercent).div(percentDec);\r\n            accLCPerShare = accLCPerShare.add(LCReward.mul(1e12).div(lpSupply));\r\n        }\r\n        return user.amount.mul(accLCPerShare).div(1e12).sub(user.rewardDebt);\r\n    }\r\n\r\n    // View function to see pending bonus on frontend.\r\n    function pendingBonus(uint256 _pid, address _user) external view returns (uint256[] memory){\r\n        PoolInfo storage pool = poolInfo[_pid];\r\n        UserInfo storage user = userInfo[_pid][_user];\r\n        uint256[] memory values = new uint256[](bonusInfo.length);\r\n        if (pool.bonusPoint > 0){\r\n            for(uint256 i = 0; i < bonusInfo.length; i ++) {\r\n                values[i] = user.amount.mul(poolBonusPerShare[_pid][i]).div(1e12).sub(userBonusDebt[i][_user]);\r\n            }\r\n        }\r\n        return values;\r\n    }\r\n\r\n    // Update reward vairables for all pools. Be careful of gas spending!\r\n    function massUpdatePools() public {\r\n        uint256 length = poolInfo.length;\r\n        for (uint256 pid = 0; pid < length; ++pid) {\r\n            updatePool(pid);\r\n        }\r\n    }\r\n\r\n    // Update reward variables of the given pool to be up-to-date.\r\n    function updatePool(uint256 _pid) public {\r\n        PoolInfo storage pool = poolInfo[_pid];\r\n        if (block.number <= pool.lastRewardBlock) {\r\n            return;\r\n        }\r\n        uint256 lpSupply = pool.lpToken.balanceOf(address(this));\r\n        if (lpSupply <= 0) {\r\n            pool.lastRewardBlock = block.number;\r\n            return;\r\n        }\r\n        uint256 multiplier = getMultiplier(pool.lastRewardBlock, block.number);\r\n        uint256 LCReward = multiplier.mul(LCPerBlock).mul(pool.allocPoint).div(totalAllocPoint).mul(stakingPercent).div(percentDec);\r\n        LC.mint(address(this), LCReward);\r\n        pool.accLCPerShare = pool.accLCPerShare.add(LCReward.mul(1e12).div(lpSupply));\r\n        pool.lastRewardBlock = block.number;\r\n    }\r\n\r\n    // Update bonus\r\n    function updateBonus(uint256 _pid, uint256 _amount) public override {\r\n\t\trequire(_pid < bonusInfo.length, \"_pid must be less than bonusInfo length\");\r\n        BonusInfo storage bonusPool = bonusInfo[_pid];\r\n        bonusPool.bonusToken.safeTransferFrom(address(msg.sender), address(this), _amount);\r\n        for(uint256 i = 0; i < poolInfo.length; i ++){\r\n            PoolInfo storage pool = poolInfo[i];\r\n            uint256 lpSupply = pool.lpToken.balanceOf(address(this));\r\n            if(lpSupply <= 0){\r\n                continue;\r\n            }\r\n            if (pool.bonusPoint > 0){\r\n                poolBonusPerShare[i][_pid] = poolBonusPerShare[i][_pid].add(_amount.mul(pool.bonusPoint).div(totalBonusPoint).mul(1e12).div(lpSupply));\r\n            }\r\n        }    \r\n\t\tbonusPool.lastRewardBlock = block.number;\r\n    }\r\n\r\n    // Pay pending LCs.\r\n    function payPendingLC(uint256 _pid, address _user) internal {\r\n        PoolInfo storage pool = poolInfo[_pid];\r\n        UserInfo storage user = userInfo[_pid][_user];\r\n        uint256 pending = user.amount.mul(pool.accLCPerShare).div(1e12).sub(user.rewardDebt);\r\n        if (pending > 0) {\r\n            // send rewards\r\n            safeLCTransfer(_user, pending);\r\n            payReferralCommission(_user, pending);\r\n        }\r\n    }\r\n\r\n    // Pay pending Bonus.\r\n    function payPendingBonus(uint256 _pid, address _user) internal {\r\n        PoolInfo storage pool = poolInfo[_pid];\r\n        UserInfo storage user = userInfo[_pid][_user];\r\n        if (pool.bonusPoint > 0){\r\n\t\t\trequire(poolBonusPerShare[_pid].length == bonusInfo.length, \"poolBonusPerShare.length must equal to bonusInof length\");\r\n            for(uint256 i = 0; i < bonusInfo.length; i ++) {  \r\n                uint256 pending = user.amount.mul(poolBonusPerShare[_pid][i]).div(1e12).sub(userBonusDebt[i][_user]);\r\n                if (pending > 0) {\r\n                    BonusInfo storage bonusPool = bonusInfo[i];\r\n                    bonusPool.bonusToken.safeTransfer(address(_user), pending);\r\n                }\r\n            }\r\n        }\r\n    }\r\n\r\n    // Deposit LP tokens to MasterChef for LC allocation.\r\n    function deposit(uint256 _pid, uint256 _amount, address _referrer) public nonReentrant {\r\n        PoolInfo storage pool = poolInfo[_pid];\r\n        UserInfo storage user = userInfo[_pid][msg.sender];\r\n        updatePool(_pid);\r\n        if(_amount > 0 && address(luckychipReferral) != address(0) && _referrer != address(0) && _referrer != msg.sender){\r\n            luckychipReferral.recordReferral(msg.sender, _referrer);\r\n        }\r\n        payPendingLC(_pid, msg.sender);\r\n        if (pool.bonusPoint > 0){\r\n            payPendingBonus(_pid, msg.sender);\r\n\t\t}\r\n        if(_amount > 0){\r\n            pool.lpToken.safeTransferFrom(address(msg.sender), address(this), _amount);\r\n            user.amount = user.amount.add(_amount);\r\n        }\r\n        user.rewardDebt = user.amount.mul(pool.accLCPerShare).div(1e12);\r\n        if (pool.bonusPoint > 0){\r\n            for(uint256 i = 0; i < bonusInfo.length; i ++) {  \r\n\t\t\t\tuserBonusDebt[i][msg.sender] = user.amount.mul(poolBonusPerShare[_pid][i]).div(1e12);\r\n            }\r\n        }\r\n\r\n        emit Deposit(msg.sender, _pid, _amount);\r\n    }\r\n\r\n    // Withdraw LP tokens from MasterChef.\r\n    function withdraw(uint256 _pid, uint256 _amount) public nonReentrant {\r\n\r\n        PoolInfo storage pool = poolInfo[_pid];\r\n        UserInfo storage user = userInfo[_pid][msg.sender];\r\n        require(user.amount >= _amount, \"withdraw: not good\");\r\n        updatePool(_pid);\r\n        payPendingLC(_pid, msg.sender);\r\n        if (pool.bonusPoint > 0){\r\n            payPendingBonus(_pid, msg.sender);\r\n\t\t}\r\n        if(_amount > 0){\r\n            user.amount = user.amount.sub(_amount);\r\n            pool.lpToken.safeTransfer(address(msg.sender), _amount);\r\n        } \r\n        user.rewardDebt = user.amount.mul(pool.accLCPerShare).div(1e12);\r\n        if (pool.bonusPoint > 0){\r\n            for(uint256 i = 0; i < bonusInfo.length; i ++) {  \r\n\t\t\t\tuserBonusDebt[i][msg.sender] = user.amount.mul(poolBonusPerShare[_pid][i]).div(1e12);\r\n            }\r\n        }\r\n        emit Withdraw(msg.sender, _pid, _amount);\r\n    }\r\n\r\n    // Withdraw without caring about rewards. EMERGENCY ONLY.\r\n    function emergencyWithdraw(uint256 _pid) public nonReentrant {\r\n        PoolInfo storage pool = poolInfo[_pid];\r\n        UserInfo storage user = userInfo[_pid][msg.sender];\r\n        pool.lpToken.safeTransfer(address(msg.sender), user.amount);\r\n        emit EmergencyWithdraw(msg.sender, _pid, user.amount);\r\n        user.amount = 0;\r\n        user.rewardDebt = 0;\r\n\t\tif(pool.bonusPoint > 0){\r\n\t\t\t\r\n\t\t}\r\n    }\r\n\r\n    // Safe LC transfer function, just in case if rounding error causes pool to not have enough LCs.\r\n    function safeLCTransfer(address _to, uint256 _amount) internal {\r\n        uint256 LCBal = LC.balanceOf(address(this));\r\n        if (_amount > LCBal) {\r\n            LC.transfer(_to, LCBal);\r\n        } else {\r\n            LC.transfer(_to, _amount);\r\n        }\r\n    }\r\n    \r\n    function setDevAddress(address _devaddr) public onlyOwner {\r\n        devaddr = _devaddr;\r\n    }\r\n    function setSafuAddress(address _safuaddr) public onlyOwner{\r\n        safuaddr = _safuaddr;\r\n    }\r\n    function updateLcPerBlock(uint256 newAmount) public onlyOwner {\r\n        require(newAmount <= 30 * 1e18, 'Max per block 30 LC');\r\n        require(newAmount >= 1 * 1e18, 'Min per block 1 LC');\r\n        LCPerBlock = newAmount;\r\n    }\r\n    // Update referral commission rate by the owner\r\n    function setReferralCommissionRate(uint16 _referralCommissionRate) public onlyOwner {\r\n        require(_referralCommissionRate <= MAXIMUM_REFERRAL_COMMISSION_RATE, \"setReferralCommissionRate: invalid referral commission rate basis points\");\r\n        referralCommissionRate = _referralCommissionRate;\r\n    }\r\n\r\n    // Pay referral commission to the referrer who referred this user.\r\n    function payReferralCommission(address _user, uint256 _pending) internal {\r\n        if (referralCommissionRate > 0) {\r\n            if (address(luckychipReferral) != address(0)){\r\n                address referrer = luckychipReferral.getReferrer(_user);\r\n                uint256 commissionAmount = _pending.mul(referralCommissionRate).div(10000);\r\n\r\n                if (commissionAmount > 0) {\r\n                    if (referrer != address(0)){\r\n                        LC.mint(referrer, commissionAmount);\r\n                        luckychipReferral.recordReferralCommission(referrer, commissionAmount);\r\n                        emit ReferralCommissionPaid(_user, referrer, commissionAmount);\r\n                    }else{\r\n                        LC.mint(safuaddr, commissionAmount);\r\n                        luckychipReferral.recordReferralCommission(safuaddr, commissionAmount);\r\n                        emit ReferralCommissionPaid(_user, safuaddr, commissionAmount);\r\n                    }\r\n                }\r\n            }else{\r\n                uint256 commissionAmount = _pending.mul(referralCommissionRate).div(10000);\r\n                if (commissionAmount > 0){\r\n                    LC.mint(safuaddr, commissionAmount);\r\n                    emit ReferralCommissionPaid(_user, safuaddr, commissionAmount);\r\n                }\r\n            }\r\n        }\r\n    }\r\n}\r\n",
  "sourcePath": "D:\\falseman\\2021-06-25\\dice\\contracts\\MasterChef.sol",
  "compiler": {
    "name": "solc",
    "version": "0.6.12+commit.27d51765.Emscripten.clang"
  },
  "schemaVersion": "3.4.2",
  "updatedAt": "2021-07-27T21:30:04.088Z",
  "devdoc": {
    "kind": "dev",
    "methods": {
      "owner()": {
        "details": "Returns the address of the current owner."
      },
      "renounceOwnership()": {
        "details": "Leaves the contract without owner. It will not be possible to call `onlyOwner` functions anymore. Can only be called by the current owner. NOTE: Renouncing ownership will leave the contract without an owner, thereby removing any functionality that is only available to the owner."
      },
      "transferOwnership(address)": {
        "details": "Transfers ownership of the contract to a new account (`newOwner`). Can only be called by the current owner."
      },
      "updateBonus(uint256,uint256)": {
        "details": "Update bonus."
      }
    },
    "version": 1
  },
  "userdoc": {
    "kind": "user",
    "methods": {},
    "version": 1
  }
}