{
  "contractName": "MasterChef",
  "abi": [
    {
      "inputs": [
        {
          "internalType": "contract LCToken",
          "name": "_LC",
          "type": "address"
        },
        {
          "internalType": "address",
          "name": "_devaddr",
          "type": "address"
        },
        {
          "internalType": "address",
          "name": "_safuaddr",
          "type": "address"
        },
        {
          "internalType": "uint256",
          "name": "_LCPerBlock",
          "type": "uint256"
        },
        {
          "internalType": "uint256",
          "name": "_startBlock",
          "type": "uint256"
        },
        {
          "internalType": "uint256",
          "name": "_stakingPercent",
          "type": "uint256"
        },
        {
          "internalType": "uint256",
          "name": "_devPercent",
          "type": "uint256"
        },
        {
          "internalType": "uint256",
          "name": "_safuPercent",
          "type": "uint256"
        }
      ],
      "stateMutability": "nonpayable",
      "type": "constructor"
    },
    {
      "anonymous": false,
      "inputs": [
        {
          "indexed": true,
          "internalType": "address",
          "name": "user",
          "type": "address"
        },
        {
          "indexed": true,
          "internalType": "uint256",
          "name": "pid",
          "type": "uint256"
        },
        {
          "indexed": false,
          "internalType": "uint256",
          "name": "amount",
          "type": "uint256"
        }
      ],
      "name": "Deposit",
      "type": "event"
    },
    {
      "anonymous": false,
      "inputs": [
        {
          "indexed": true,
          "internalType": "address",
          "name": "user",
          "type": "address"
        },
        {
          "indexed": true,
          "internalType": "uint256",
          "name": "pid",
          "type": "uint256"
        },
        {
          "indexed": false,
          "internalType": "uint256",
          "name": "amount",
          "type": "uint256"
        }
      ],
      "name": "EmergencyWithdraw",
      "type": "event"
    },
    {
      "anonymous": false,
      "inputs": [
        {
          "indexed": true,
          "internalType": "address",
          "name": "caller",
          "type": "address"
        },
        {
          "indexed": false,
          "internalType": "uint256",
          "name": "previousAmount",
          "type": "uint256"
        },
        {
          "indexed": false,
          "internalType": "uint256",
          "name": "newAmount",
          "type": "uint256"
        }
      ],
      "name": "EmissionRateUpdated",
      "type": "event"
    },
    {
      "anonymous": false,
      "inputs": [
        {
          "indexed": true,
          "internalType": "address",
          "name": "previousOwner",
          "type": "address"
        },
        {
          "indexed": true,
          "internalType": "address",
          "name": "newOwner",
          "type": "address"
        }
      ],
      "name": "OwnershipTransferred",
      "type": "event"
    },
    {
      "anonymous": false,
      "inputs": [
        {
          "indexed": true,
          "internalType": "address",
          "name": "user",
          "type": "address"
        },
        {
          "indexed": true,
          "internalType": "address",
          "name": "referrer",
          "type": "address"
        },
        {
          "indexed": false,
          "internalType": "uint256",
          "name": "commissionAmount",
          "type": "uint256"
        }
      ],
      "name": "ReferralCommissionPaid",
      "type": "event"
    },
    {
      "anonymous": false,
      "inputs": [
        {
          "indexed": true,
          "internalType": "address",
          "name": "user",
          "type": "address"
        },
        {
          "indexed": true,
          "internalType": "uint256",
          "name": "pid",
          "type": "uint256"
        },
        {
          "indexed": false,
          "internalType": "uint256",
          "name": "amount",
          "type": "uint256"
        }
      ],
      "name": "Withdraw",
      "type": "event"
    },
    {
      "inputs": [],
      "name": "BONUS_MULTIPLIER",
      "outputs": [
        {
          "internalType": "uint256",
          "name": "",
          "type": "uint256"
        }
      ],
      "stateMutability": "view",
      "type": "function",
      "constant": true
    },
    {
      "inputs": [],
      "name": "LC",
      "outputs": [
        {
          "internalType": "contract LCToken",
          "name": "",
          "type": "address"
        }
      ],
      "stateMutability": "view",
      "type": "function",
      "constant": true
    },
    {
      "inputs": [],
      "name": "LCPerBlock",
      "outputs": [
        {
          "internalType": "uint256",
          "name": "",
          "type": "uint256"
        }
      ],
      "stateMutability": "view",
      "type": "function",
      "constant": true
    },
    {
      "inputs": [],
      "name": "MAXIMUM_REFERRAL_COMMISSION_RATE",
      "outputs": [
        {
          "internalType": "uint16",
          "name": "",
          "type": "uint16"
        }
      ],
      "stateMutability": "view",
      "type": "function",
      "constant": true
    },
    {
      "inputs": [
        {
          "internalType": "uint256",
          "name": "",
          "type": "uint256"
        }
      ],
      "name": "bonusInfo",
      "outputs": [
        {
          "internalType": "contract IBEP20",
          "name": "bonusToken",
          "type": "address"
        },
        {
          "internalType": "uint256",
          "name": "lastBalance",
          "type": "uint256"
        },
        {
          "internalType": "uint256",
          "name": "lastRewardBlock",
          "type": "uint256"
        }
      ],
      "stateMutability": "view",
      "type": "function",
      "constant": true
    },
    {
      "inputs": [],
      "name": "devPercent",
      "outputs": [
        {
          "internalType": "uint256",
          "name": "",
          "type": "uint256"
        }
      ],
      "stateMutability": "view",
      "type": "function",
      "constant": true
    },
    {
      "inputs": [],
      "name": "devaddr",
      "outputs": [
        {
          "internalType": "address",
          "name": "",
          "type": "address"
        }
      ],
      "stateMutability": "view",
      "type": "function",
      "constant": true
    },
    {
      "inputs": [],
      "name": "lastBlockDevWithdraw",
      "outputs": [
        {
          "internalType": "uint256",
          "name": "",
          "type": "uint256"
        }
      ],
      "stateMutability": "view",
      "type": "function",
      "constant": true
    },
    {
      "inputs": [],
      "name": "luckychipReferral",
      "outputs": [
        {
          "internalType": "contract ILuckyChipReferral",
          "name": "",
          "type": "address"
        }
      ],
      "stateMutability": "view",
      "type": "function",
      "constant": true
    },
    {
      "inputs": [],
      "name": "owner",
      "outputs": [
        {
          "internalType": "address",
          "name": "",
          "type": "address"
        }
      ],
      "stateMutability": "view",
      "type": "function",
      "constant": true
    },
    {
      "inputs": [],
      "name": "percentDec",
      "outputs": [
        {
          "internalType": "uint256",
          "name": "",
          "type": "uint256"
        }
      ],
      "stateMutability": "view",
      "type": "function",
      "constant": true
    },
    {
      "inputs": [
        {
          "internalType": "uint256",
          "name": "",
          "type": "uint256"
        },
        {
          "internalType": "uint256",
          "name": "",
          "type": "uint256"
        }
      ],
      "name": "poolBonusPerShare",
      "outputs": [
        {
          "internalType": "uint256",
          "name": "",
          "type": "uint256"
        }
      ],
      "stateMutability": "view",
      "type": "function",
      "constant": true
    },
    {
      "inputs": [
        {
          "internalType": "uint256",
          "name": "",
          "type": "uint256"
        }
      ],
      "name": "poolInfo",
      "outputs": [
        {
          "internalType": "contract IBEP20",
          "name": "lpToken",
          "type": "address"
        },
        {
          "internalType": "uint256",
          "name": "allocPoint",
          "type": "uint256"
        },
        {
          "internalType": "uint256",
          "name": "bonusPoint",
          "type": "uint256"
        },
        {
          "internalType": "uint256",
          "name": "lastRewardBlock",
          "type": "uint256"
        },
        {
          "internalType": "uint256",
          "name": "accLCPerShare",
          "type": "uint256"
        }
      ],
      "stateMutability": "view",
      "type": "function",
      "constant": true
    },
    {
      "inputs": [],
      "name": "referralCommissionRate",
      "outputs": [
        {
          "internalType": "uint16",
          "name": "",
          "type": "uint16"
        }
      ],
      "stateMutability": "view",
      "type": "function",
      "constant": true
    },
    {
      "inputs": [],
      "name": "renounceOwnership",
      "outputs": [],
      "stateMutability": "nonpayable",
      "type": "function"
    },
    {
      "inputs": [],
      "name": "safuPercent",
      "outputs": [
        {
          "internalType": "uint256",
          "name": "",
          "type": "uint256"
        }
      ],
      "stateMutability": "view",
      "type": "function",
      "constant": true
    },
    {
      "inputs": [],
      "name": "safuaddr",
      "outputs": [
        {
          "internalType": "address",
          "name": "",
          "type": "address"
        }
      ],
      "stateMutability": "view",
      "type": "function",
      "constant": true
    },
    {
      "inputs": [],
      "name": "stakingPercent",
      "outputs": [
        {
          "internalType": "uint256",
          "name": "",
          "type": "uint256"
        }
      ],
      "stateMutability": "view",
      "type": "function",
      "constant": true
    },
    {
      "inputs": [],
      "name": "startBlock",
      "outputs": [
        {
          "internalType": "uint256",
          "name": "",
          "type": "uint256"
        }
      ],
      "stateMutability": "view",
      "type": "function",
      "constant": true
    },
    {
      "inputs": [],
      "name": "totalAllocPoint",
      "outputs": [
        {
          "internalType": "uint256",
          "name": "",
          "type": "uint256"
        }
      ],
      "stateMutability": "view",
      "type": "function",
      "constant": true
    },
    {
      "inputs": [],
      "name": "totalBonusPoint",
      "outputs": [
        {
          "internalType": "uint256",
          "name": "",
          "type": "uint256"
        }
      ],
      "stateMutability": "view",
      "type": "function",
      "constant": true
    },
    {
      "inputs": [
        {
          "internalType": "address",
          "name": "newOwner",
          "type": "address"
        }
      ],
      "name": "transferOwnership",
      "outputs": [],
      "stateMutability": "nonpayable",
      "type": "function"
    },
    {
      "inputs": [
        {
          "internalType": "uint256",
          "name": "",
          "type": "uint256"
        },
        {
          "internalType": "address",
          "name": "",
          "type": "address"
        }
      ],
      "name": "userBonusDebt",
      "outputs": [
        {
          "internalType": "uint256",
          "name": "",
          "type": "uint256"
        }
      ],
      "stateMutability": "view",
      "type": "function",
      "constant": true
    },
    {
      "inputs": [
        {
          "internalType": "uint256",
          "name": "",
          "type": "uint256"
        },
        {
          "internalType": "address",
          "name": "",
          "type": "address"
        }
      ],
      "name": "userInfo",
      "outputs": [
        {
          "internalType": "uint256",
          "name": "amount",
          "type": "uint256"
        },
        {
          "internalType": "uint256",
          "name": "rewardDebt",
          "type": "uint256"
        }
      ],
      "stateMutability": "view",
      "type": "function",
      "constant": true
    },
    {
      "inputs": [
        {
          "internalType": "uint256",
          "name": "multiplierNumber",
          "type": "uint256"
        }
      ],
      "name": "updateMultiplier",
      "outputs": [],
      "stateMutability": "nonpayable",
      "type": "function"
    },
    {
      "inputs": [],
      "name": "poolLength",
      "outputs": [
        {
          "internalType": "uint256",
          "name": "",
          "type": "uint256"
        }
      ],
      "stateMutability": "view",
      "type": "function",
      "constant": true
    },
    {
      "inputs": [],
      "name": "bonusLength",
      "outputs": [
        {
          "internalType": "uint256",
          "name": "",
          "type": "uint256"
        }
      ],
      "stateMutability": "view",
      "type": "function",
      "constant": true
    },
    {
      "inputs": [],
      "name": "withdrawDevFee",
      "outputs": [],
      "stateMutability": "nonpayable",
      "type": "function"
    },
    {
      "inputs": [
        {
          "internalType": "uint256",
          "name": "_allocPoint",
          "type": "uint256"
        },
        {
          "internalType": "uint256",
          "name": "_bonusPoint",
          "type": "uint256"
        },
        {
          "internalType": "contract IBEP20",
          "name": "_lpToken",
          "type": "address"
        },
        {
          "internalType": "bool",
          "name": "_withUpdate",
          "type": "bool"
        }
      ],
      "name": "add",
      "outputs": [],
      "stateMutability": "nonpayable",
      "type": "function"
    },
    {
      "inputs": [
        {
          "internalType": "contract IBEP20",
          "name": "_bonusToken",
          "type": "address"
        }
      ],
      "name": "addBonus",
      "outputs": [],
      "stateMutability": "nonpayable",
      "type": "function"
    },
    {
      "inputs": [
        {
          "internalType": "uint256",
          "name": "_pid",
          "type": "uint256"
        },
        {
          "internalType": "uint256",
          "name": "_allocPoint",
          "type": "uint256"
        },
        {
          "internalType": "bool",
          "name": "_withUpdate",
          "type": "bool"
        }
      ],
      "name": "set",
      "outputs": [],
      "stateMutability": "nonpayable",
      "type": "function"
    },
    {
      "inputs": [
        {
          "internalType": "uint256",
          "name": "_from",
          "type": "uint256"
        },
        {
          "internalType": "uint256",
          "name": "_to",
          "type": "uint256"
        }
      ],
      "name": "getMultiplier",
      "outputs": [
        {
          "internalType": "uint256",
          "name": "",
          "type": "uint256"
        }
      ],
      "stateMutability": "view",
      "type": "function",
      "constant": true
    },
    {
      "inputs": [
        {
          "internalType": "uint256",
          "name": "_pid",
          "type": "uint256"
        },
        {
          "internalType": "address",
          "name": "_user",
          "type": "address"
        }
      ],
      "name": "pendingLC",
      "outputs": [
        {
          "internalType": "uint256",
          "name": "",
          "type": "uint256"
        }
      ],
      "stateMutability": "view",
      "type": "function",
      "constant": true
    },
    {
      "inputs": [
        {
          "internalType": "uint256",
          "name": "_pid",
          "type": "uint256"
        },
        {
          "internalType": "address",
          "name": "_user",
          "type": "address"
        }
      ],
      "name": "pendingBonus",
      "outputs": [
        {
          "internalType": "uint256[]",
          "name": "",
          "type": "uint256[]"
        }
      ],
      "stateMutability": "view",
      "type": "function",
      "constant": true
    },
    {
      "inputs": [],
      "name": "massUpdatePools",
      "outputs": [],
      "stateMutability": "nonpayable",
      "type": "function"
    },
    {
      "inputs": [
        {
          "internalType": "uint256",
          "name": "_pid",
          "type": "uint256"
        }
      ],
      "name": "updatePool",
      "outputs": [],
      "stateMutability": "nonpayable",
      "type": "function"
    },
    {
      "inputs": [
        {
          "internalType": "uint256",
          "name": "_pid",
          "type": "uint256"
        }
      ],
      "name": "updateBonus",
      "outputs": [],
      "stateMutability": "nonpayable",
      "type": "function"
    },
    {
      "inputs": [
        {
          "internalType": "uint256",
          "name": "_pid",
          "type": "uint256"
        },
        {
          "internalType": "uint256",
          "name": "_amount",
          "type": "uint256"
        },
        {
          "internalType": "address",
          "name": "_referrer",
          "type": "address"
        }
      ],
      "name": "deposit",
      "outputs": [],
      "stateMutability": "nonpayable",
      "type": "function"
    },
    {
      "inputs": [
        {
          "internalType": "uint256",
          "name": "_pid",
          "type": "uint256"
        },
        {
          "internalType": "uint256",
          "name": "_amount",
          "type": "uint256"
        }
      ],
      "name": "withdraw",
      "outputs": [],
      "stateMutability": "nonpayable",
      "type": "function"
    },
    {
      "inputs": [
        {
          "internalType": "uint256",
          "name": "_pid",
          "type": "uint256"
        }
      ],
      "name": "emergencyWithdraw",
      "outputs": [],
      "stateMutability": "nonpayable",
      "type": "function"
    },
    {
      "inputs": [
        {
          "internalType": "address",
          "name": "_devaddr",
          "type": "address"
        }
      ],
      "name": "setDevAddress",
      "outputs": [],
      "stateMutability": "nonpayable",
      "type": "function"
    },
    {
      "inputs": [
        {
          "internalType": "address",
          "name": "_safuaddr",
          "type": "address"
        }
      ],
      "name": "setSafuAddress",
      "outputs": [],
      "stateMutability": "nonpayable",
      "type": "function"
    },
    {
      "inputs": [
        {
          "internalType": "uint256",
          "name": "newAmount",
          "type": "uint256"
        }
      ],
      "name": "updateLcPerBlock",
      "outputs": [],
      "stateMutability": "nonpayable",
      "type": "function"
    },
    {
      "inputs": [
        {
          "internalType": "uint16",
          "name": "_referralCommissionRate",
          "type": "uint16"
        }
      ],
      "name": "setReferralCommissionRate",
      "outputs": [],
      "stateMutability": "nonpayable",
      "type": "function"
    }
  ],
  "bytecode": "0x6080604052620f42406003556001600b55600060118190556012556014805461ffff60a01b1916601960a21b1790553480156200003b57600080fd5b5060405162003baa38038062003baa83398181016040526101008110156200006257600080fd5b508051602082015160408301516060840151608085015160a086015160c087015160e0909701519596949593949293919290916000620000a162000152565b600080546001600160a01b0319166001600160a01b0383169081178255604051929350917f8be0079c531659141344cd1fd0a4f28419497f9722a3daafe3b4186f6b6457e0908290a35060018055600280546001600160a01b03998a166001600160a01b03199182161790915560078054988a169882169890981790975560088054969098169590961694909417909555600a91909155601381905560049390935560055560065560095562000156565b3390565b613a4480620001666000396000f3fe608060405234801561001057600080fd5b50600436106102f35760003560e01c806385e8776511610191578063cb93f7ef116100e3578063defc107411610097578063fc3c28af11610071578063fc3c28af14610849578063fc8820a114610851578063fdb85cd21461088a576102f3565b8063defc1074146107c7578063e0dcd30d1461080e578063f2fde38b14610816576102f3565b8063d0d41fe1116100c8578063d0d41fe114610784578063d30ef61b146107b7578063d49e77cd146107bf576102f3565b8063cb93f7ef14610749578063d074ddf814610751576102f3565b8063929a396c11610145578063b76e360c1161011f578063b76e360c14610700578063bb90320c14610708578063be1193ea14610741576102f3565b8063929a396c1461067457806393f1a40b146106915780639f8dbb7b146106e3576102f3565b80638da5cb5b116101765780638da5cb5b1461060a5780638dbb1e3a146106125780638dbdbe6d14610635576102f3565b806385e87765146105fa5780638aa2855014610602576102f3565b806355dbc8261161024a578063630b5ba1116101fe5780636b91a2c9116101d85780636b91a2c914610536578063715018a6146105bf5780637c7be2fa146105c7576102f3565b8063630b5ba1146104b157806364482f79146104b95780636b1f69a5146104e4576102f3565b80635981a7cd1161022f5780635981a7cd146104845780635ec7ebbd1461048c5780635ffe614614610494576102f3565b806355dbc8261461044057806359805be714610461576102f3565b80632720e4f6116102ac57806348cd4cb11161028657806348cd4cb1146103fe57806351eb05a6146104065780635312ea8e14610423576102f3565b80632720e4f614610389578063441a3e70146103ba57806348b22bfb146103df576102f3565b80631526fe27116102dd5780631526fe271461031a57806317caf6f11461037957806321b1aecb14610381576102f3565b8062a2e3be146102f8578063081e3eda14610312575b600080fd5b610300610892565b60408051918252519081900360200190f35b610300610898565b6103376004803603602081101561033057600080fd5b503561089e565b6040805173ffffffffffffffffffffffffffffffffffffffff909616865260208601949094528484019290925260608401526080830152519081900360a00190f35b6103006108f3565b6103006108f9565b6103916108ff565b6040805173ffffffffffffffffffffffffffffffffffffffff9092168252519081900360200190f35b6103dd600480360360408110156103d057600080fd5b508035906020013561091b565b005b6103e7610b7a565b6040805161ffff9092168252519081900360200190f35b610300610b80565b6103dd6004803603602081101561041c57600080fd5b5035610b86565b6103dd6004803603602081101561043957600080fd5b5035610d90565b6103dd6004803603602081101561045657600080fd5b503561ffff16610eb4565b6103006004803603604081101561047757600080fd5b5080359060200135611008565b610300611036565b61039161103c565b6103dd600480360360208110156104aa57600080fd5b5035611058565b6103dd611105565b6103dd600480360360608110156104cf57600080fd5b50803590602081013590604001351515611128565b610501600480360360208110156104fa57600080fd5b5035611249565b6040805173ffffffffffffffffffffffffffffffffffffffff9094168452602084019290925282820152519081900360600190f35b61056f6004803603604081101561054c57600080fd5b508035906020013573ffffffffffffffffffffffffffffffffffffffff16611290565b60408051602080825283518183015283519192839290830191858101910280838360005b838110156105ab578181015183820152602001610593565b505050509050019250505060405180910390f35b6103dd6113e1565b6103dd600480360360208110156105dd57600080fd5b503573ffffffffffffffffffffffffffffffffffffffff166114f8565b6103006115e7565b6103006115ed565b6103916115f3565b6103006004803603604081101561062857600080fd5b508035906020013561160f565b6103dd6004803603606081101561064b57600080fd5b508035906020810135906040013573ffffffffffffffffffffffffffffffffffffffff1661162a565b6103dd6004803603602081101561068a57600080fd5b5035611904565b6106ca600480360360408110156106a757600080fd5b508035906020013573ffffffffffffffffffffffffffffffffffffffff16611a9f565b6040805192835260208301919091528051918290030190f35b6103dd600480360360208110156106f957600080fd5b5035611ac3565b610300611d87565b6103006004803603604081101561071e57600080fd5b508035906020013573ffffffffffffffffffffffffffffffffffffffff16611d8d565b610300611f20565b6103dd611f26565b6103dd6004803603602081101561076757600080fd5b503573ffffffffffffffffffffffffffffffffffffffff16612141565b6103dd6004803603602081101561079a57600080fd5b503573ffffffffffffffffffffffffffffffffffffffff16612345565b6103e7612434565b610391612456565b6103dd600480360360808110156107dd57600080fd5b5080359060208101359073ffffffffffffffffffffffffffffffffffffffff60408201351690606001351515612472565b6103916126a0565b6103dd6004803603602081101561082c57600080fd5b503573ffffffffffffffffffffffffffffffffffffffff166126bc565b61030061285d565b6103006004803603604081101561086757600080fd5b508035906020013573ffffffffffffffffffffffffffffffffffffffff16612863565b610300612880565b60065481565b600c5490565b600c81815481106108ab57fe5b60009182526020909120600590910201805460018201546002830154600384015460049094015473ffffffffffffffffffffffffffffffffffffffff90931694509092909185565b60115481565b60035481565b60025473ffffffffffffffffffffffffffffffffffffffff1681565b6002600154141561098d57604080517f08c379a000000000000000000000000000000000000000000000000000000000815260206004820152601f60248201527f5265656e7472616e637947756172643a207265656e7472616e742063616c6c00604482015290519081900360640190fd5b60026001819055506000600c83815481106109a457fe5b600091825260208083208684526010825260408085203386529092529220805460059092029092019250831115610a3c57604080517f08c379a000000000000000000000000000000000000000000000000000000000815260206004820152601260248201527f77697468647261773a206e6f7420676f6f640000000000000000000000000000604482015290519081900360640190fd5b610a4584610b86565b610a4f8433612886565b600282015415610a6357610a638433612922565b8215610a9a578054610a759084612ac1565b81558154610a9a9073ffffffffffffffffffffffffffffffffffffffff163385612b38565b60048201548154610abb9164e8d4a5100091610ab591612bc5565b90612c38565b6001820155600282015415610b395760005b600d54811015610b3757610b1564e8d4a51000610ab5600e60008981526020019081526020016000208481548110610b0157fe5b600091825260209091200154855490612bc5565b6000828152600f60209081526040808320338452909152902055600101610acd565b505b604080518481529051859133917ff279e6a1f5e320cca91135676d9cb6e44ca8a08c0b88342bcdb1144f6511b5689181900360200190a35050600180555050565b6103e881565b60135481565b6000600c8281548110610b9557fe5b9060005260206000209060050201905080600301544311610bb65750610d8d565b8054604080517f70a08231000000000000000000000000000000000000000000000000000000008152306004820152905160009273ffffffffffffffffffffffffffffffffffffffff16916370a08231916024808301926020929190829003018186803b158015610c2657600080fd5b505afa158015610c3a573d6000803e3d6000fd5b505050506040513d6020811015610c5057600080fd5b5051905080610c66575043600390910155610d8d565b6000610c7683600301544361160f565b90506000610caf600354610ab5600454610ca9601154610ab58a60010154610ca9600a548b612bc590919063ffffffff16565b90612bc5565b600254604080517f40c10f1900000000000000000000000000000000000000000000000000000000815230600482015260248101849052905192935073ffffffffffffffffffffffffffffffffffffffff909116916340c10f19916044808201926020929091908290030181600087803b158015610d2c57600080fd5b505af1158015610d40573d6000803e3d6000fd5b505050506040513d6020811015610d5657600080fd5b50610d7a9050610d6f84610ab58464e8d4a51000612bc5565b600486015490612cb9565b6004850155505043600390920191909155505b50565b60026001541415610e0257604080517f08c379a000000000000000000000000000000000000000000000000000000000815260206004820152601f60248201527f5265656e7472616e637947756172643a207265656e7472616e742063616c6c00604482015290519081900360640190fd5b60026001819055506000600c8281548110610e1957fe5b60009182526020808320858452601082526040808520338087529352909320805460059093029093018054909450610e6b9273ffffffffffffffffffffffffffffffffffffffff919091169190612b38565b80546040805191825251849133917fbb757047c2b5f3974fe26b7c10f732e7bce710b0952a71082702781e62ae05959181900360200190a3600080825560019182015580555050565b610ebc612d2d565b73ffffffffffffffffffffffffffffffffffffffff16610eda6115f3565b73ffffffffffffffffffffffffffffffffffffffff1614610f5c57604080517f08c379a000000000000000000000000000000000000000000000000000000000815260206004820181905260248201527f4f776e61626c653a2063616c6c6572206973206e6f7420746865206f776e6572604482015290519081900360640190fd5b6103e861ffff82161115610fbb576040517f08c379a00000000000000000000000000000000000000000000000000000000081526004018080602001828103825260488152602001806139096048913960600191505060405180910390fd5b6014805461ffff90921674010000000000000000000000000000000000000000027fffffffffffffffffffff0000ffffffffffffffffffffffffffffffffffffffff909216919091179055565b600e602052816000526040600020818154811061102157fe5b90600052602060002001600091509150505481565b600a5481565b60145473ffffffffffffffffffffffffffffffffffffffff1681565b611060612d2d565b73ffffffffffffffffffffffffffffffffffffffff1661107e6115f3565b73ffffffffffffffffffffffffffffffffffffffff161461110057604080517f08c379a000000000000000000000000000000000000000000000000000000000815260206004820181905260248201527f4f776e61626c653a2063616c6c6572206973206e6f7420746865206f776e6572604482015290519081900360640190fd5b600b55565b600c5460005b818110156111245761111c81610b86565b60010161110b565b5050565b611130612d2d565b73ffffffffffffffffffffffffffffffffffffffff1661114e6115f3565b73ffffffffffffffffffffffffffffffffffffffff16146111d057604080517f08c379a000000000000000000000000000000000000000000000000000000000815260206004820181905260248201527f4f776e61626c653a2063616c6c6572206973206e6f7420746865206f776e6572604482015290519081900360640190fd5b80156111de576111de611105565b61121b82611215600c86815481106111f257fe5b906000526020600020906005020160010154601154612ac190919063ffffffff16565b90612cb9565b60118190555081600c848154811061122f57fe5b906000526020600020906005020160010181905550505050565b600d818154811061125657fe5b600091825260209091206003909102018054600182015460029092015473ffffffffffffffffffffffffffffffffffffffff909116925083565b60606000600c84815481106112a157fe5b6000918252602080832087845260108252604080852073ffffffffffffffffffffffffffffffffffffffff891686529092529220600d546005909202909201925060609067ffffffffffffffff811180156112fb57600080fd5b50604051908082528060200260200182016040528015611325578160200160208202803683370190505b506002840154909150156113d65760005b600d548110156113d4576000818152600f6020908152604080832073ffffffffffffffffffffffffffffffffffffffff8a1684528252808320548a8452600e90925290912080546113b592916113af9164e8d4a5100091610ab5918790811061139b57fe5b600091825260209091200154885490612bc5565b90612ac1565b8282815181106113c157fe5b6020908102919091010152600101611336565b505b925050505b92915050565b6113e9612d2d565b73ffffffffffffffffffffffffffffffffffffffff166114076115f3565b73ffffffffffffffffffffffffffffffffffffffff161461148957604080517f08c379a000000000000000000000000000000000000000000000000000000000815260206004820181905260248201527f4f776e61626c653a2063616c6c6572206973206e6f7420746865206f776e6572604482015290519081900360640190fd5b6000805460405173ffffffffffffffffffffffffffffffffffffffff909116907f8be0079c531659141344cd1fd0a4f28419497f9722a3daafe3b4186f6b6457e0908390a3600080547fffffffffffffffffffffffff0000000000000000000000000000000000000000169055565b611500612d2d565b73ffffffffffffffffffffffffffffffffffffffff1661151e6115f3565b73ffffffffffffffffffffffffffffffffffffffff16146115a057604080517f08c379a000000000000000000000000000000000000000000000000000000000815260206004820181905260248201527f4f776e61626c653a2063616c6c6572206973206e6f7420746865206f776e6572604482015290519081900360640190fd5b600880547fffffffffffffffffffffffff00000000000000000000000000000000000000001673ffffffffffffffffffffffffffffffffffffffff92909216919091179055565b600d5490565b600b5481565b60005473ffffffffffffffffffffffffffffffffffffffff1690565b600b5460009061162390610ca98486612ac1565b9392505050565b6002600154141561169c57604080517f08c379a000000000000000000000000000000000000000000000000000000000815260206004820152601f60248201527f5265656e7472616e637947756172643a207265656e7472616e742063616c6c00604482015290519081900360640190fd5b60026001819055506000600c84815481106116b357fe5b600091825260208083208784526010825260408085203386529092529220600590910290910191506116e485610b86565b60008411801561170b575060145473ffffffffffffffffffffffffffffffffffffffff1615155b801561172c575073ffffffffffffffffffffffffffffffffffffffff831615155b801561174e575073ffffffffffffffffffffffffffffffffffffffff83163314155b156117e657601454604080517f0c7f7b6b00000000000000000000000000000000000000000000000000000000815233600482015273ffffffffffffffffffffffffffffffffffffffff868116602483015291519190921691630c7f7b6b91604480830192600092919082900301818387803b1580156117cd57600080fd5b505af11580156117e1573d6000803e3d6000fd5b505050505b6117f08533612886565b600282015415611804576118048533612922565b831561183d57815461182e9073ffffffffffffffffffffffffffffffffffffffff16333087612d31565b805461183a9085612cb9565b81555b600482015481546118589164e8d4a5100091610ab591612bc5565b60018201556002820154156118c25760005b600d548110156118c05761189e64e8d4a51000610ab5600e60008a81526020019081526020016000208481548110610b0157fe5b6000828152600f6020908152604080832033845290915290205560010161186a565b505b604080518581529051869133917f90890809c654f11d6e72a28fa60149770a0d11ec6c92319d6ceb2bb0a4ea1a159181900360200190a3505060018055505050565b61190c612d2d565b73ffffffffffffffffffffffffffffffffffffffff1661192a6115f3565b73ffffffffffffffffffffffffffffffffffffffff16146119ac57604080517f08c379a000000000000000000000000000000000000000000000000000000000815260206004820181905260248201527f4f776e61626c653a2063616c6c6572206973206e6f7420746865206f776e6572604482015290519081900360640190fd5b68056bc75e2d63100000811115611a2457604080517f08c379a000000000000000000000000000000000000000000000000000000000815260206004820152601460248201527f4d61782070657220626c6f636b20313030204c43000000000000000000000000604482015290519081900360640190fd5b66038d7ea4c68000811015611a9a57604080517f08c379a000000000000000000000000000000000000000000000000000000000815260206004820152601660248201527f4d696e2070657220626c6f636b20302e303031204c4300000000000000000000604482015290519081900360640190fd5b600a55565b60106020908152600092835260408084209091529082529020805460019091015482565b600d548110611b1d576040517f08c379a00000000000000000000000000000000000000000000000000000000081526004018080602001828103825260278152602001806139e86027913960400191505060405180910390fd5b6000600d8281548110611b2c57fe5b6000918252602080832060039092029091018054604080517f70a08231000000000000000000000000000000000000000000000000000000008152306004820152905192955073ffffffffffffffffffffffffffffffffffffffff909116926370a0823192602480840193829003018186803b158015611bab57600080fd5b505afa158015611bbf573d6000803e3d6000fd5b505050506040513d6020811015611bd557600080fd5b50516001830154909150811115611d82576000611bff836001015483612ac190919063ffffffff16565b905060005b600c54811015611d72576000600c8281548110611c1d57fe5b6000918252602080832060059092029091018054604080517f70a08231000000000000000000000000000000000000000000000000000000008152306004820152905192955073ffffffffffffffffffffffffffffffffffffffff909116926370a0823192602480840193829003018186803b158015611c9c57600080fd5b505afa158015611cb0573d6000803e3d6000fd5b505050506040513d6020811015611cc657600080fd5b5051905080611cd6575050611d6a565b600282015415611d6757611d40611d0d82610ab564e8d4a51000610ca9601254610ab589600201548c612bc590919063ffffffff16565b6000858152600e6020526040902080548a908110611d2757fe5b9060005260206000200154612cb990919063ffffffff16565b6000848152600e60205260409020805489908110611d5a57fe5b6000918252602090912001555b50505b600101611c04565b5050600182018190554360028301555b505050565b60095481565b600080600c8481548110611d9d57fe5b6000918252602080832087845260108252604080852073ffffffffffffffffffffffffffffffffffffffff8981168752908452818620600595909502909201600481810154825484517f70a082310000000000000000000000000000000000000000000000000000000081523093810193909352935192985095969492909316926370a08231926024808301939192829003018186803b158015611e4057600080fd5b505afa158015611e54573d6000803e3d6000fd5b505050506040513d6020811015611e6a57600080fd5b5051600385015490915043118015611e8157508015155b15611eed576000611e9685600301544361160f565b90506000611ec9600354610ab5600454610ca9601154610ab58c60010154610ca9600a548b612bc590919063ffffffff16565b9050611ee8611ee184610ab58464e8d4a51000612bc5565b8590612cb9565b935050505b611f1583600101546113af64e8d4a51000610ab5868860000154612bc590919063ffffffff16565b979650505050505050565b60045481565b4360095410611f9657604080517f08c379a000000000000000000000000000000000000000000000000000000000815260206004820152601260248201527f7761697420666f72206e657720626c6f636b0000000000000000000000000000604482015290519081900360640190fd5b6000611fa46009544361160f565b90506000611fbd600a5483612bc590919063ffffffff16565b60025460075460035460055493945073ffffffffffffffffffffffffffffffffffffffff928316936340c10f199390921691611fff9190610ab5908790612bc5565b6040518363ffffffff1660e01b8152600401808373ffffffffffffffffffffffffffffffffffffffff16815260200182815260200192505050602060405180830381600087803b15801561205257600080fd5b505af1158015612066573d6000803e3d6000fd5b505050506040513d602081101561207c57600080fd5b505060025460085460035460065473ffffffffffffffffffffffffffffffffffffffff938416936340c10f199316916120ba91610ab5908790612bc5565b6040518363ffffffff1660e01b8152600401808373ffffffffffffffffffffffffffffffffffffffff16815260200182815260200192505050602060405180830381600087803b15801561210d57600080fd5b505af1158015612121573d6000803e3d6000fd5b505050506040513d602081101561213757600080fd5b5050436009555050565b612149612d2d565b73ffffffffffffffffffffffffffffffffffffffff166121676115f3565b73ffffffffffffffffffffffffffffffffffffffff16146121e957604080517f08c379a000000000000000000000000000000000000000000000000000000000815260206004820181905260248201527f4f776e61626c653a2063616c6c6572206973206e6f7420746865206f776e6572604482015290519081900360640190fd5b600060135443116121fc576013546121fe565b435b6040805160608101825273ffffffffffffffffffffffffffffffffffffffff8581168252600060208301818152938301858152600d805460018101825590835293517fd7b6990105719101dabeb77144f2a3385c8033acd3af97e9423a695e81ad1eb5600390950294850180547fffffffffffffffffffffffff000000000000000000000000000000000000000016919094161790925592517fd7b6990105719101dabeb77144f2a3385c8033acd3af97e9423a695e81ad1eb6830155517fd7b6990105719101dabeb77144f2a3385c8033acd3af97e9423a695e81ad1eb7909101559091505b600c54811015611d82576000600c82815481106122fe57fe5b9060005260206000209060050201905060008160020154111561233c576000828152600e602090815260408220805460018101825590835290822001555b506001016122e5565b61234d612d2d565b73ffffffffffffffffffffffffffffffffffffffff1661236b6115f3565b73ffffffffffffffffffffffffffffffffffffffff16146123ed57604080517f08c379a000000000000000000000000000000000000000000000000000000000815260206004820181905260248201527f4f776e61626c653a2063616c6c6572206973206e6f7420746865206f776e6572604482015290519081900360640190fd5b600780547fffffffffffffffffffffffff00000000000000000000000000000000000000001673ffffffffffffffffffffffffffffffffffffffff92909216919091179055565b60145474010000000000000000000000000000000000000000900461ffff1681565b60075473ffffffffffffffffffffffffffffffffffffffff1681565b61247a612d2d565b73ffffffffffffffffffffffffffffffffffffffff166124986115f3565b73ffffffffffffffffffffffffffffffffffffffff161461251a57604080517f08c379a000000000000000000000000000000000000000000000000000000000815260206004820181905260248201527f4f776e61626c653a2063616c6c6572206973206e6f7420746865206f776e6572604482015290519081900360640190fd5b801561252857612528611105565b6000601354431161253b5760135461253d565b435b60115490915061254d9086612cb9565b60115560125461255d9085612cb9565b6012556040805160a08101825273ffffffffffffffffffffffffffffffffffffffff94851681526020810196875290810194855260608101918252600060808201818152600c8054600181018255925291517fdf6966c971051c3d54ec59162606531493a51404a002842f56009d7e5cf4a8c7600590920291820180547fffffffffffffffffffffffff000000000000000000000000000000000000000016919096161790945594517fdf6966c971051c3d54ec59162606531493a51404a002842f56009d7e5cf4a8c884015592517fdf6966c971051c3d54ec59162606531493a51404a002842f56009d7e5cf4a8c98301555090517fdf6966c971051c3d54ec59162606531493a51404a002842f56009d7e5cf4a8ca82015590517fdf6966c971051c3d54ec59162606531493a51404a002842f56009d7e5cf4a8cb90910155565b60085473ffffffffffffffffffffffffffffffffffffffff1681565b6126c4612d2d565b73ffffffffffffffffffffffffffffffffffffffff166126e26115f3565b73ffffffffffffffffffffffffffffffffffffffff161461276457604080517f08c379a000000000000000000000000000000000000000000000000000000000815260206004820181905260248201527f4f776e61626c653a2063616c6c6572206973206e6f7420746865206f776e6572604482015290519081900360640190fd5b73ffffffffffffffffffffffffffffffffffffffff81166127d0576040517f08c379a000000000000000000000000000000000000000000000000000000000815260040180806020018281038252602681526020018061397b6026913960400191505060405180910390fd5b6000805460405173ffffffffffffffffffffffffffffffffffffffff808516939216917f8be0079c531659141344cd1fd0a4f28419497f9722a3daafe3b4186f6b6457e091a3600080547fffffffffffffffffffffffff00000000000000000000000000000000000000001673ffffffffffffffffffffffffffffffffffffffff92909216919091179055565b60055481565b600f60209081526000928352604080842090915290825290205481565b60125481565b6000600c838154811061289557fe5b6000918252602080832086845260108252604080852073ffffffffffffffffffffffffffffffffffffffff881686529092529083206001810154600460059094029092019283015481549395509093926128ff92916113af9164e8d4a5100091610ab59190612bc5565b9050801561291b576129118482612dc6565b61291b8482612fc1565b5050505050565b6000600c838154811061293157fe5b6000918252602080832086845260108252604080852073ffffffffffffffffffffffffffffffffffffffff881686529092529220600260059092029092019081015490925015612abb57600d546000858152600e6020526040902054146129e3576040517f08c379a00000000000000000000000000000000000000000000000000000000081526004018080602001828103825260378152602001806138d26037913960400191505060405180910390fd5b60005b600d5481101561291b576000818152600f6020908152604080832073ffffffffffffffffffffffffffffffffffffffff88168452825280832054888452600e90925282208054612a4a92916113af9164e8d4a5100091610ab5918890811061139b57fe5b90508015612ab2576000600d8381548110612a6157fe5b90600052602060002090600302019050612a88828260010154612ac190919063ffffffff16565b60018201558054612ab09073ffffffffffffffffffffffffffffffffffffffff168784612b38565b505b506001016129e6565b50505050565b600082821115612b3257604080517f08c379a000000000000000000000000000000000000000000000000000000000815260206004820152601e60248201527f536166654d6174683a207375627472616374696f6e206f766572666c6f770000604482015290519081900360640190fd5b50900390565b6040805173ffffffffffffffffffffffffffffffffffffffff8416602482015260448082018490528251808303909101815260649091019091526020810180517bffffffffffffffffffffffffffffffffffffffffffffffffffffffff167fa9059cbb00000000000000000000000000000000000000000000000000000000179052611d8290849061356e565b600082612bd4575060006113db565b82820282848281612be157fe5b0414611623576040517f08c379a00000000000000000000000000000000000000000000000000000000081526004018080602001828103825260218152602001806139c76021913960400191505060405180910390fd5b6000808211612ca857604080517f08c379a000000000000000000000000000000000000000000000000000000000815260206004820152601a60248201527f536166654d6174683a206469766973696f6e206279207a65726f000000000000604482015290519081900360640190fd5b818381612cb157fe5b049392505050565b60008282018381101561162357604080517f08c379a000000000000000000000000000000000000000000000000000000000815260206004820152601b60248201527f536166654d6174683a206164646974696f6e206f766572666c6f770000000000604482015290519081900360640190fd5b3390565b6040805173ffffffffffffffffffffffffffffffffffffffff80861660248301528416604482015260648082018490528251808303909101815260849091019091526020810180517bffffffffffffffffffffffffffffffffffffffffffffffffffffffff167f23b872dd00000000000000000000000000000000000000000000000000000000179052612abb90859061356e565b600254604080517f70a08231000000000000000000000000000000000000000000000000000000008152306004820152905160009273ffffffffffffffffffffffffffffffffffffffff16916370a08231916024808301926020929190829003018186803b158015612e3757600080fd5b505afa158015612e4b573d6000803e3d6000fd5b505050506040513d6020811015612e6157600080fd5b5051905080821115612f1b57600254604080517fa9059cbb00000000000000000000000000000000000000000000000000000000815273ffffffffffffffffffffffffffffffffffffffff8681166004830152602482018590529151919092169163a9059cbb9160448083019260209291908290030181600087803b158015612ee957600080fd5b505af1158015612efd573d6000803e3d6000fd5b505050506040513d6020811015612f1357600080fd5b50611d829050565b600254604080517fa9059cbb00000000000000000000000000000000000000000000000000000000815273ffffffffffffffffffffffffffffffffffffffff8681166004830152602482018690529151919092169163a9059cbb9160448083019260209291908290030181600087803b158015612f9757600080fd5b505af1158015612fab573d6000803e3d6000fd5b505050506040513d602081101561291b57600080fd5b60145474010000000000000000000000000000000000000000900461ffff16156111245760145473ffffffffffffffffffffffffffffffffffffffff161561342e57601454604080517f4a9fefc700000000000000000000000000000000000000000000000000000000815273ffffffffffffffffffffffffffffffffffffffff858116600483015291516000939290921691634a9fefc791602480820192602092909190829003018186803b15801561307a57600080fd5b505afa15801561308e573d6000803e3d6000fd5b505050506040513d60208110156130a457600080fd5b50516014549091506000906130de9061271090610ab590869074010000000000000000000000000000000000000000900461ffff16612bc5565b905080156134275773ffffffffffffffffffffffffffffffffffffffff82161561329157600254604080517f40c10f1900000000000000000000000000000000000000000000000000000000815273ffffffffffffffffffffffffffffffffffffffff858116600483015260248201859052915191909216916340c10f199160448083019260209291908290030181600087803b15801561317e57600080fd5b505af1158015613192573d6000803e3d6000fd5b505050506040513d60208110156131a857600080fd5b5050601454604080517fdc1694b800000000000000000000000000000000000000000000000000000000815273ffffffffffffffffffffffffffffffffffffffff8581166004830152602482018590529151919092169163dc1694b891604480830192600092919082900301818387803b15801561322557600080fd5b505af1158015613239573d6000803e3d6000fd5b505060408051848152905173ffffffffffffffffffffffffffffffffffffffff8087169450881692507f86ddab457291316e0f5496737e5ca67c4037234c32c3be04c48ae96186893a7b9181900360200190a3613427565b600254600854604080517f40c10f1900000000000000000000000000000000000000000000000000000000815273ffffffffffffffffffffffffffffffffffffffff928316600482015260248101859052905191909216916340c10f199160448083019260209291908290030181600087803b15801561331057600080fd5b505af1158015613324573d6000803e3d6000fd5b505050506040513d602081101561333a57600080fd5b5050601454600854604080517fdc1694b800000000000000000000000000000000000000000000000000000000815273ffffffffffffffffffffffffffffffffffffffff9283166004820152602481018590529051919092169163dc1694b891604480830192600092919082900301818387803b1580156133ba57600080fd5b505af11580156133ce573d6000803e3d6000fd5b505060085460408051858152905173ffffffffffffffffffffffffffffffffffffffff928316945091881692507f86ddab457291316e0f5496737e5ca67c4037234c32c3be04c48ae96186893a7b919081900360200190a35b5050611124565b6014546000906134639061271090610ab590859074010000000000000000000000000000000000000000900461ffff16612bc5565b90508015611d8257600254600854604080517f40c10f1900000000000000000000000000000000000000000000000000000000815273ffffffffffffffffffffffffffffffffffffffff928316600482015260248101859052905191909216916340c10f199160448083019260209291908290030181600087803b1580156134ea57600080fd5b505af11580156134fe573d6000803e3d6000fd5b505050506040513d602081101561351457600080fd5b505060085460408051838152905173ffffffffffffffffffffffffffffffffffffffff928316928616917f86ddab457291316e0f5496737e5ca67c4037234c32c3be04c48ae96186893a7b919081900360200190a3505050565b60606135d0826040518060400160405280602081526020017f5361666542455032303a206c6f772d6c6576656c2063616c6c206661696c65648152508573ffffffffffffffffffffffffffffffffffffffff166136469092919063ffffffff16565b805190915015611d82578080602001905160208110156135ef57600080fd5b5051611d82576040517f08c379a000000000000000000000000000000000000000000000000000000000815260040180806020018281038252602a815260200180613951602a913960400191505060405180910390fd5b6060613655848460008561365d565b949350505050565b6060824710156136b8576040517f08c379a00000000000000000000000000000000000000000000000000000000081526004018080602001828103825260268152602001806139a16026913960400191505060405180910390fd5b6136c18561380d565b61372c57604080517f08c379a000000000000000000000000000000000000000000000000000000000815260206004820152601d60248201527f416464726573733a2063616c6c20746f206e6f6e2d636f6e7472616374000000604482015290519081900360640190fd5b600060608673ffffffffffffffffffffffffffffffffffffffff1685876040518082805190602001908083835b6020831061379657805182527fffffffffffffffffffffffffffffffffffffffffffffffffffffffffffffffe09092019160209182019101613759565b6001836020036101000a03801982511681845116808217855250505050505090500191505060006040518083038185875af1925050503d80600081146137f8576040519150601f19603f3d011682016040523d82523d6000602084013e6137fd565b606091505b5091509150611f15828286613813565b3b151590565b60608315613822575081611623565b8251156138325782518084602001fd5b816040517f08c379a00000000000000000000000000000000000000000000000000000000081526004018080602001828103825283818151815260200191508051906020019080838360005b8381101561389657818101518382015260200161387e565b50505050905090810190601f1680156138c35780820380516001836020036101000a031916815260200191505b509250505060405180910390fdfe706f6f6c426f6e757350657253686172652e6c656e677468206d75737420657175616c20746f20626f6e7573496e6f66206c656e677468736574526566657272616c436f6d6d697373696f6e526174653a20696e76616c696420726566657272616c20636f6d6d697373696f6e207261746520626173697320706f696e74735361666542455032303a204245503230206f7065726174696f6e20646964206e6f7420737563636565644f776e61626c653a206e6577206f776e657220697320746865207a65726f2061646472657373416464726573733a20696e73756666696369656e742062616c616e636520666f722063616c6c536166654d6174683a206d756c7469706c69636174696f6e206f766572666c6f775f706964206d757374206265206c657373207468616e20626f6e7573496e666f206c656e677468a26469706673582212204b971b937a0241e31b7e56ccf2bb04f78e563c0e360a8786682998bd85fc9fde64736f6c634300060c0033",
  "immutableReferences": {},
  "source": "pragma solidity 0.6.12;\n\nimport \"@openzeppelin/contracts/math/SafeMath.sol\";\nimport \"./libs/IBEP20.sol\";\nimport \"./libs/SafeBEP20.sol\";\nimport \"./libs/ILuckyChipReferral.sol\";\nimport \"./libs/IMasterChef.sol\";\nimport \"@openzeppelin/contracts/access/Ownable.sol\";\nimport \"@openzeppelin/contracts/utils/ReentrancyGuard.sol\";\n\nimport \"./LCToken.sol\";\n\n// MasterChef is the master of LC. He can make LC and he is a fair guy.\n//\n// Note that it's ownable and the owner wields tremendous power. The ownership\n// will be transferred to a governance smart contract once LC is sufficiently\n// distributed and the community can show to govern itself.\n//\n// Have fun reading it. Hopefully it's bug-free. God bless.\ncontract MasterChef is Ownable, ReentrancyGuard, IMasterChef {\n    using SafeMath for uint256;\n    using SafeBEP20 for IBEP20;\n    // Info of each user.\n    struct UserInfo {\n        uint256 amount; // How many LP tokens the user has provided.\n        uint256 rewardDebt; // Reward debt. See explanation below.\n        //\n        // We do some fancy math here. Basically, any point in time, the amount of LCs\n        // entitled to a user but is pending to be distributed is:\n        //\n        //   pending reward = (user.amount * pool.accLCPerShare) - user.rewardDebt\n        //\n        // Whenever a user deposits or withdraws LP tokens to a pool. Here's what happens:\n        //   1. The pool's `accLCPerShare` (and `lastRewardBlock`) gets updated.\n        //   2. User receives the pending reward sent to his/her address.\n        //   3. User's `amount` gets updated.\n        //   4. User's `rewardDebt` gets updated.\n    }\n\n    // Info of each pool.\n    struct PoolInfo {\n        IBEP20 lpToken; // Address of LP token contract.\n        uint256 allocPoint; // How many allocation points assigned to this pool. LCs to distribute per block.\n        uint256 bonusPoint; // How many bonus points assigned to this pool.\n        uint256 lastRewardBlock; // Last block number that LCs distribution occurs.\n        uint256 accLCPerShare; // Accumulated LCs per share, times 1e12. See below.\n    }\n\n    struct BonusInfo {\n        IBEP20 bonusToken;\n\t\tuint256 lastBalance;\n        uint256 lastRewardBlock;\n    }\n\n    // The LC TOKEN!\n    LCToken public LC;\n    //Pools, Farms, Dev, Refs percent decimals\n    uint256 public percentDec = 1000000;\n    //Pools and Farms percent from token per block\n    uint256 public stakingPercent;\n    //Developers percent from token per block\n    uint256 public devPercent;\n    //Safu fund percent from token per block\n    uint256 public safuPercent;\n    // Dev address.\n    address public devaddr;\n    // Safu fund.\n    address public safuaddr;\n    // Last block then develeper withdraw dev and ref fee\n    uint256 public lastBlockDevWithdraw;\n    // LC tokens created per block.\n    uint256 public LCPerBlock;\n    // Bonus muliplier for early LC makers.\n    uint256 public BONUS_MULTIPLIER = 1;\n    // Info of each pool.\n    PoolInfo[] public poolInfo;\n    // Info of each bonus.\n    BonusInfo[] public bonusInfo;\n    // mapping pid to bonus accPerShare.\n    mapping(uint256 => uint256[]) public poolBonusPerShare;\n    // user bonus debt\n    mapping(uint256 => mapping(address => uint256)) public userBonusDebt;\n    // Info of each user that stakes LP tokens.\n    mapping(uint256 => mapping(address => UserInfo)) public userInfo;\n    // Total allocation poitns. Must be the sum of all allocation points in all pools.\n    uint256 public totalAllocPoint = 0;\n    // Total bonus poitns. Must be the sum of all bonus points in all pools.\n    uint256 public totalBonusPoint = 0;\n    // The block number when LC mining starts.\n    uint256 public startBlock;\n\n    // LuckyChip referral contract address.\n    ILuckyChipReferral public luckychipReferral;\n    // Referral commission rate in basis points.\n    uint16 public referralCommissionRate = 100;\n    // Max referral commission rate: 10%.\n    uint16 public constant MAXIMUM_REFERRAL_COMMISSION_RATE = 1000;\n\n    event Deposit(address indexed user, uint256 indexed pid, uint256 amount);\n    event Withdraw(address indexed user, uint256 indexed pid, uint256 amount);\n    event EmergencyWithdraw(address indexed user, uint256 indexed pid, uint256 amount);\n    event EmissionRateUpdated(address indexed caller, uint256 previousAmount, uint256 newAmount);\n    event ReferralCommissionPaid(address indexed user, address indexed referrer, uint256 commissionAmount);\n\n    constructor(\n        LCToken _LC,\n        address _devaddr,\n        address _safuaddr,\n        uint256 _LCPerBlock,\n        uint256 _startBlock,\n        uint256 _stakingPercent,\n        uint256 _devPercent,\n        uint256 _safuPercent\n    ) public {\n        LC = _LC;\n        devaddr = _devaddr;\n        safuaddr = _safuaddr;\n        LCPerBlock = _LCPerBlock;\n        startBlock = _startBlock;\n        stakingPercent = _stakingPercent;\n        devPercent = _devPercent;\n        safuPercent = _safuPercent;\n        lastBlockDevWithdraw = _startBlock;\n    }\n\n    function updateMultiplier(uint256 multiplierNumber) public onlyOwner {\n        BONUS_MULTIPLIER = multiplierNumber;\n    }\n\n    function poolLength() external view returns (uint256) {\n        return poolInfo.length;\n    }\n\n    function bonusLength() external view returns (uint256) {\n        return bonusInfo.length;\n    }\n\n    function withdrawDevFee() public{\n        require(lastBlockDevWithdraw < block.number, 'wait for new block');\n        uint256 multiplier = getMultiplier(lastBlockDevWithdraw, block.number);\n        uint256 LCReward = multiplier.mul(LCPerBlock);\n        LC.mint(devaddr, LCReward.mul(devPercent).div(percentDec));\n        LC.mint(safuaddr, LCReward.mul(safuPercent).div(percentDec));\n        lastBlockDevWithdraw = block.number;\n    }\n\n    // Add a new lp to the pool. Can only be called by the owner.\n    // XXX DO NOT add the same LP token more than once. Rewards will be messed up if you do.\n    function add(uint256 _allocPoint, uint256 _bonusPoint, IBEP20 _lpToken, bool _withUpdate) public onlyOwner {\n        if (_withUpdate) {\n            massUpdatePools();\n        }\n        uint256 lastRewardBlock = block.number > startBlock ? block.number : startBlock;\n        totalAllocPoint = totalAllocPoint.add(_allocPoint);\n        totalBonusPoint = totalBonusPoint.add(_bonusPoint);\n        \n        poolInfo.push(\n            PoolInfo({\n                lpToken: _lpToken,\n                allocPoint: _allocPoint,\n                bonusPoint: _bonusPoint,\n                lastRewardBlock: lastRewardBlock,\n                accLCPerShare: 0\n            })\n        );\n    }\n\n    function addBonus(IBEP20 _bonusToken) public onlyOwner {\n        uint256 lastRewardBlock = block.number > startBlock ? block.number : startBlock;\n        bonusInfo.push(BonusInfo({bonusToken: _bonusToken, lastBalance: 0, lastRewardBlock: lastRewardBlock}));\n        for(uint256 i = 0; i < poolInfo.length; i ++){\n            PoolInfo storage pool = poolInfo[i];\n            if (pool.bonusPoint > 0){\n                poolBonusPerShare[i].push(0);\n            }\n        }\n    }\n\n    // Update the given pool's LC allocation point. Can only be called by the owner.\n    function set( uint256 _pid, uint256 _allocPoint, bool _withUpdate) public onlyOwner {\n        if (_withUpdate) {\n            massUpdatePools();\n        }\n        totalAllocPoint = totalAllocPoint.sub(poolInfo[_pid].allocPoint).add(_allocPoint);\n        poolInfo[_pid].allocPoint = _allocPoint;\n    }\n\n    // Return reward multiplier over the given _from to _to block.\n    function getMultiplier(uint256 _from, uint256 _to) public view returns (uint256) {\n         return _to.sub(_from).mul(BONUS_MULTIPLIER);\n    }\n\n    // View function to see pending LCs on frontend.\n    function pendingLC(uint256 _pid, address _user) external view returns (uint256){\n        PoolInfo storage pool = poolInfo[_pid];\n        UserInfo storage user = userInfo[_pid][_user];\n        uint256 accLCPerShare = pool.accLCPerShare;\n        uint256 lpSupply = pool.lpToken.balanceOf(address(this));\n        if (block.number > pool.lastRewardBlock && lpSupply != 0) {\n            uint256 multiplier = getMultiplier(pool.lastRewardBlock, block.number);\n            uint256 LCReward = multiplier.mul(LCPerBlock).mul(pool.allocPoint).div(totalAllocPoint).mul(stakingPercent).div(percentDec);\n            accLCPerShare = accLCPerShare.add(LCReward.mul(1e12).div(lpSupply));\n        }\n        return user.amount.mul(accLCPerShare).div(1e12).sub(user.rewardDebt);\n    }\n\n    // View function to see pending bonus on frontend.\n    function pendingBonus(uint256 _pid, address _user) external view returns (uint256[] memory){\n        PoolInfo storage pool = poolInfo[_pid];\n        UserInfo storage user = userInfo[_pid][_user];\n        uint256[] memory values = new uint256[](bonusInfo.length);\n        if (pool.bonusPoint > 0){\n            for(uint256 i = 0; i < bonusInfo.length; i ++) {\n                values[i] = user.amount.mul(poolBonusPerShare[_pid][i]).div(1e12).sub(userBonusDebt[i][_user]);\n            }\n        }\n        return values;\n    }\n\n    // Update reward vairables for all pools. Be careful of gas spending!\n    function massUpdatePools() public {\n        uint256 length = poolInfo.length;\n        for (uint256 pid = 0; pid < length; ++pid) {\n            updatePool(pid);\n        }\n    }\n\n    // Update reward variables of the given pool to be up-to-date.\n    function updatePool(uint256 _pid) public {\n        PoolInfo storage pool = poolInfo[_pid];\n        if (block.number <= pool.lastRewardBlock) {\n            return;\n        }\n        uint256 lpSupply = pool.lpToken.balanceOf(address(this));\n        if (lpSupply <= 0) {\n            pool.lastRewardBlock = block.number;\n            return;\n        }\n        uint256 multiplier = getMultiplier(pool.lastRewardBlock, block.number);\n        uint256 LCReward = multiplier.mul(LCPerBlock).mul(pool.allocPoint).div(totalAllocPoint).mul(stakingPercent).div(percentDec);\n        LC.mint(address(this), LCReward);\n        pool.accLCPerShare = pool.accLCPerShare.add(LCReward.mul(1e12).div(lpSupply));\n        pool.lastRewardBlock = block.number;\n    }\n\n    // Update bonus\n    function updateBonus(uint256 _pid) external override {\n\t\trequire(_pid < bonusInfo.length, \"_pid must be less than bonusInfo length\");\n        BonusInfo storage bonusPool = bonusInfo[_pid];\n\t\tuint256 currentBalance = bonusPool.bonusToken.balanceOf(address(this));\n\t\tif(currentBalance > bonusPool.lastBalance){\n\t\t\tuint256 amount = currentBalance.sub(bonusPool.lastBalance);\n            for(uint256 i = 0; i < poolInfo.length; i ++){\n                PoolInfo storage pool = poolInfo[i];\n                uint256 lpSupply = pool.lpToken.balanceOf(address(this));\n                if(lpSupply <= 0){\n                    continue;\n                }\n                if (pool.bonusPoint > 0){\n                    poolBonusPerShare[i][_pid] = poolBonusPerShare[i][_pid].add(amount.mul(pool.bonusPoint).div(totalBonusPoint).mul(1e12).div(lpSupply));\n                }\n            }\n\t\t\tbonusPool.lastBalance = currentBalance;\n\t\t\tbonusPool.lastRewardBlock = block.number;\n\t\t}\n    }\n\n    // Pay pending LCs.\n    function payPendingLC(uint256 _pid, address _user) internal {\n        PoolInfo storage pool = poolInfo[_pid];\n        UserInfo storage user = userInfo[_pid][_user];\n        uint256 pending = user.amount.mul(pool.accLCPerShare).div(1e12).sub(user.rewardDebt);\n        if (pending > 0) {\n            // send rewards\n            safeLCTransfer(_user, pending);\n            payReferralCommission(_user, pending);\n        }\n    }\n\n    // Pay pending Bonus.\n    function payPendingBonus(uint256 _pid, address _user) internal {\n        PoolInfo storage pool = poolInfo[_pid];\n        UserInfo storage user = userInfo[_pid][_user];\n        if (pool.bonusPoint > 0){\n\t\t\trequire(poolBonusPerShare[_pid].length == bonusInfo.length, \"poolBonusPerShare.length must equal to bonusInof length\");\n            for(uint256 i = 0; i < bonusInfo.length; i ++) {  \n                uint256 pending = user.amount.mul(poolBonusPerShare[_pid][i]).div(1e12).sub(userBonusDebt[i][_user]);\n                if (pending > 0) {\n                    BonusInfo storage bonusPool = bonusInfo[i];\n\t\t\t\t\tbonusPool.lastBalance = bonusPool.lastBalance.sub(pending);\n                    bonusPool.bonusToken.safeTransfer(address(_user), pending);\n                }\n            }\n        }\n    }\n\n    // Deposit LP tokens to MasterChef for LC allocation.\n    function deposit(uint256 _pid, uint256 _amount, address _referrer) public nonReentrant {\n        PoolInfo storage pool = poolInfo[_pid];\n        UserInfo storage user = userInfo[_pid][msg.sender];\n        updatePool(_pid);\n        if(_amount > 0 && address(luckychipReferral) != address(0) && _referrer != address(0) && _referrer != msg.sender){\n            luckychipReferral.recordReferral(msg.sender, _referrer);\n        }\n        payPendingLC(_pid, msg.sender);\n        if (pool.bonusPoint > 0){\n            payPendingBonus(_pid, msg.sender);\n\t\t}\n        if(_amount > 0){\n            pool.lpToken.safeTransferFrom(address(msg.sender), address(this), _amount);\n            user.amount = user.amount.add(_amount);\n        }\n        user.rewardDebt = user.amount.mul(pool.accLCPerShare).div(1e12);\n        if (pool.bonusPoint > 0){\n            for(uint256 i = 0; i < bonusInfo.length; i ++) {  \n\t\t\t\tuserBonusDebt[i][msg.sender] = user.amount.mul(poolBonusPerShare[_pid][i]).div(1e12);\n            }\n        }\n\n        emit Deposit(msg.sender, _pid, _amount);\n    }\n\n    // Withdraw LP tokens from MasterChef.\n    function withdraw(uint256 _pid, uint256 _amount) public nonReentrant {\n\n        PoolInfo storage pool = poolInfo[_pid];\n        UserInfo storage user = userInfo[_pid][msg.sender];\n        require(user.amount >= _amount, \"withdraw: not good\");\n        updatePool(_pid);\n        payPendingLC(_pid, msg.sender);\n        if (pool.bonusPoint > 0){\n            payPendingBonus(_pid, msg.sender);\n\t\t}\n        if(_amount > 0){\n            user.amount = user.amount.sub(_amount);\n            pool.lpToken.safeTransfer(address(msg.sender), _amount);\n        } \n        user.rewardDebt = user.amount.mul(pool.accLCPerShare).div(1e12);\n        if (pool.bonusPoint > 0){\n            for(uint256 i = 0; i < bonusInfo.length; i ++) {  \n\t\t\t\tuserBonusDebt[i][msg.sender] = user.amount.mul(poolBonusPerShare[_pid][i]).div(1e12);\n            }\n        }\n        emit Withdraw(msg.sender, _pid, _amount);\n    }\n\n    // Withdraw without caring about rewards. EMERGENCY ONLY.\n    function emergencyWithdraw(uint256 _pid) public nonReentrant {\n        PoolInfo storage pool = poolInfo[_pid];\n        UserInfo storage user = userInfo[_pid][msg.sender];\n        pool.lpToken.safeTransfer(address(msg.sender), user.amount);\n        emit EmergencyWithdraw(msg.sender, _pid, user.amount);\n        user.amount = 0;\n        user.rewardDebt = 0;\n\t\tif(pool.bonusPoint > 0){\n\t\t\t\n\t\t}\n    }\n\n    // Safe LC transfer function, just in case if rounding error causes pool to not have enough LCs.\n    function safeLCTransfer(address _to, uint256 _amount) internal {\n        uint256 LCBal = LC.balanceOf(address(this));\n        if (_amount > LCBal) {\n            LC.transfer(_to, LCBal);\n        } else {\n            LC.transfer(_to, _amount);\n        }\n    }\n    \n    function setDevAddress(address _devaddr) public onlyOwner {\n        devaddr = _devaddr;\n    }\n    function setSafuAddress(address _safuaddr) public onlyOwner{\n        safuaddr = _safuaddr;\n    }\n    function updateLcPerBlock(uint256 newAmount) public onlyOwner {\n        require(newAmount <= 100 * 1e18, 'Max per block 100 LC');\n        require(newAmount >= 1 * 1e15, 'Min per block 0.001 LC');\n        LCPerBlock = newAmount;\n    }\n    // Update referral commission rate by the owner\n    function setReferralCommissionRate(uint16 _referralCommissionRate) public onlyOwner {\n        require(_referralCommissionRate <= MAXIMUM_REFERRAL_COMMISSION_RATE, \"setReferralCommissionRate: invalid referral commission rate basis points\");\n        referralCommissionRate = _referralCommissionRate;\n    }\n\n    // Pay referral commission to the referrer who referred this user.\n    function payReferralCommission(address _user, uint256 _pending) internal {\n        if (referralCommissionRate > 0) {\n            if (address(luckychipReferral) != address(0)){\n                address referrer = luckychipReferral.getReferrer(_user);\n                uint256 commissionAmount = _pending.mul(referralCommissionRate).div(10000);\n\n                if (commissionAmount > 0) {\n                    if (referrer != address(0)){\n                        LC.mint(referrer, commissionAmount);\n                        luckychipReferral.recordReferralCommission(referrer, commissionAmount);\n                        emit ReferralCommissionPaid(_user, referrer, commissionAmount);\n                    }else{\n                        LC.mint(safuaddr, commissionAmount);\n                        luckychipReferral.recordReferralCommission(safuaddr, commissionAmount);\n                        emit ReferralCommissionPaid(_user, safuaddr, commissionAmount);\n                    }\n                }\n            }else{\n                uint256 commissionAmount = _pending.mul(referralCommissionRate).div(10000);\n                if (commissionAmount > 0){\n                    LC.mint(safuaddr, commissionAmount);\n                    emit ReferralCommissionPaid(_user, safuaddr, commissionAmount);\n                }\n            }\n        }\n    }\n}\n",
  "sourcePath": "/home/ubuntu/defi/luckychip/staking/contracts/MasterChef.sol",
  "compiler": {
    "name": "solc",
    "version": "0.6.12+commit.27d51765.Emscripten.clang"
  },
  "schemaVersion": "3.4.1",
  "updatedAt": "2021-07-29T08:37:55.069Z",
  "networkType": "ethereum",
  "devdoc": {
    "kind": "dev",
    "methods": {
      "owner()": {
        "details": "Returns the address of the current owner."
      },
      "renounceOwnership()": {
        "details": "Leaves the contract without owner. It will not be possible to call `onlyOwner` functions anymore. Can only be called by the current owner. NOTE: Renouncing ownership will leave the contract without an owner, thereby removing any functionality that is only available to the owner."
      },
      "transferOwnership(address)": {
        "details": "Transfers ownership of the contract to a new account (`newOwner`). Can only be called by the current owner."
      },
      "updateBonus(uint256)": {
        "details": "Update bonus."
      }
    },
    "version": 1
  },
  "userdoc": {
    "kind": "user",
    "methods": {},
    "version": 1
  }
}